{
	"contracts/my_contract_calyptus/ERC1155Token.sol": {
		"MyCollection": {
			"abi": [
				{
					"inputs": [
						{
							"internalType": "address",
							"name": "initialOwner",
							"type": "address"
						}
					],
					"stateMutability": "nonpayable",
					"type": "constructor"
				},
				{
					"inputs": [
						{
							"internalType": "address",
							"name": "sender",
							"type": "address"
						},
						{
							"internalType": "uint256",
							"name": "balance",
							"type": "uint256"
						},
						{
							"internalType": "uint256",
							"name": "needed",
							"type": "uint256"
						},
						{
							"internalType": "uint256",
							"name": "tokenId",
							"type": "uint256"
						}
					],
					"name": "ERC1155InsufficientBalance",
					"type": "error"
				},
				{
					"inputs": [
						{
							"internalType": "address",
							"name": "approver",
							"type": "address"
						}
					],
					"name": "ERC1155InvalidApprover",
					"type": "error"
				},
				{
					"inputs": [
						{
							"internalType": "uint256",
							"name": "idsLength",
							"type": "uint256"
						},
						{
							"internalType": "uint256",
							"name": "valuesLength",
							"type": "uint256"
						}
					],
					"name": "ERC1155InvalidArrayLength",
					"type": "error"
				},
				{
					"inputs": [
						{
							"internalType": "address",
							"name": "operator",
							"type": "address"
						}
					],
					"name": "ERC1155InvalidOperator",
					"type": "error"
				},
				{
					"inputs": [
						{
							"internalType": "address",
							"name": "receiver",
							"type": "address"
						}
					],
					"name": "ERC1155InvalidReceiver",
					"type": "error"
				},
				{
					"inputs": [
						{
							"internalType": "address",
							"name": "sender",
							"type": "address"
						}
					],
					"name": "ERC1155InvalidSender",
					"type": "error"
				},
				{
					"inputs": [
						{
							"internalType": "address",
							"name": "operator",
							"type": "address"
						},
						{
							"internalType": "address",
							"name": "owner",
							"type": "address"
						}
					],
					"name": "ERC1155MissingApprovalForAll",
					"type": "error"
				},
				{
					"inputs": [
						{
							"internalType": "address",
							"name": "owner",
							"type": "address"
						}
					],
					"name": "OwnableInvalidOwner",
					"type": "error"
				},
				{
					"inputs": [
						{
							"internalType": "address",
							"name": "account",
							"type": "address"
						}
					],
					"name": "OwnableUnauthorizedAccount",
					"type": "error"
				},
				{
					"anonymous": false,
					"inputs": [
						{
							"indexed": true,
							"internalType": "address",
							"name": "account",
							"type": "address"
						},
						{
							"indexed": true,
							"internalType": "address",
							"name": "operator",
							"type": "address"
						},
						{
							"indexed": false,
							"internalType": "bool",
							"name": "approved",
							"type": "bool"
						}
					],
					"name": "ApprovalForAll",
					"type": "event"
				},
				{
					"anonymous": false,
					"inputs": [
						{
							"indexed": true,
							"internalType": "address",
							"name": "previousOwner",
							"type": "address"
						},
						{
							"indexed": true,
							"internalType": "address",
							"name": "newOwner",
							"type": "address"
						}
					],
					"name": "OwnershipTransferred",
					"type": "event"
				},
				{
					"anonymous": false,
					"inputs": [
						{
							"indexed": true,
							"internalType": "address",
							"name": "operator",
							"type": "address"
						},
						{
							"indexed": true,
							"internalType": "address",
							"name": "from",
							"type": "address"
						},
						{
							"indexed": true,
							"internalType": "address",
							"name": "to",
							"type": "address"
						},
						{
							"indexed": false,
							"internalType": "uint256[]",
							"name": "ids",
							"type": "uint256[]"
						},
						{
							"indexed": false,
							"internalType": "uint256[]",
							"name": "values",
							"type": "uint256[]"
						}
					],
					"name": "TransferBatch",
					"type": "event"
				},
				{
					"anonymous": false,
					"inputs": [
						{
							"indexed": true,
							"internalType": "address",
							"name": "operator",
							"type": "address"
						},
						{
							"indexed": true,
							"internalType": "address",
							"name": "from",
							"type": "address"
						},
						{
							"indexed": true,
							"internalType": "address",
							"name": "to",
							"type": "address"
						},
						{
							"indexed": false,
							"internalType": "uint256",
							"name": "id",
							"type": "uint256"
						},
						{
							"indexed": false,
							"internalType": "uint256",
							"name": "value",
							"type": "uint256"
						}
					],
					"name": "TransferSingle",
					"type": "event"
				},
				{
					"anonymous": false,
					"inputs": [
						{
							"indexed": false,
							"internalType": "string",
							"name": "value",
							"type": "string"
						},
						{
							"indexed": true,
							"internalType": "uint256",
							"name": "id",
							"type": "uint256"
						}
					],
					"name": "URI",
					"type": "event"
				},
				{
					"inputs": [
						{
							"internalType": "address",
							"name": "account",
							"type": "address"
						},
						{
							"internalType": "uint256",
							"name": "id",
							"type": "uint256"
						}
					],
					"name": "balanceOf",
					"outputs": [
						{
							"internalType": "uint256",
							"name": "",
							"type": "uint256"
						}
					],
					"stateMutability": "view",
					"type": "function"
				},
				{
					"inputs": [
						{
							"internalType": "address[]",
							"name": "accounts",
							"type": "address[]"
						},
						{
							"internalType": "uint256[]",
							"name": "ids",
							"type": "uint256[]"
						}
					],
					"name": "balanceOfBatch",
					"outputs": [
						{
							"internalType": "uint256[]",
							"name": "",
							"type": "uint256[]"
						}
					],
					"stateMutability": "view",
					"type": "function"
				},
				{
					"inputs": [
						{
							"internalType": "address",
							"name": "account",
							"type": "address"
						},
						{
							"internalType": "address",
							"name": "operator",
							"type": "address"
						}
					],
					"name": "isApprovedForAll",
					"outputs": [
						{
							"internalType": "bool",
							"name": "",
							"type": "bool"
						}
					],
					"stateMutability": "view",
					"type": "function"
				},
				{
					"inputs": [
						{
							"internalType": "uint256",
							"name": "id",
							"type": "uint256"
						},
						{
							"internalType": "uint256",
							"name": "amount",
							"type": "uint256"
						},
						{
							"internalType": "bytes",
							"name": "data",
							"type": "bytes"
						}
					],
					"name": "mint",
					"outputs": [],
					"stateMutability": "nonpayable",
					"type": "function"
				},
				{
					"inputs": [],
					"name": "owner",
					"outputs": [
						{
							"internalType": "address",
							"name": "",
							"type": "address"
						}
					],
					"stateMutability": "view",
					"type": "function"
				},
				{
					"inputs": [],
					"name": "renounceOwnership",
					"outputs": [],
					"stateMutability": "nonpayable",
					"type": "function"
				},
				{
					"inputs": [
						{
							"internalType": "address",
							"name": "from",
							"type": "address"
						},
						{
							"internalType": "address",
							"name": "to",
							"type": "address"
						},
						{
							"internalType": "uint256[]",
							"name": "ids",
							"type": "uint256[]"
						},
						{
							"internalType": "uint256[]",
							"name": "values",
							"type": "uint256[]"
						},
						{
							"internalType": "bytes",
							"name": "data",
							"type": "bytes"
						}
					],
					"name": "safeBatchTransferFrom",
					"outputs": [],
					"stateMutability": "nonpayable",
					"type": "function"
				},
				{
					"inputs": [
						{
							"internalType": "address",
							"name": "from",
							"type": "address"
						},
						{
							"internalType": "address",
							"name": "to",
							"type": "address"
						},
						{
							"internalType": "uint256",
							"name": "id",
							"type": "uint256"
						},
						{
							"internalType": "uint256",
							"name": "value",
							"type": "uint256"
						},
						{
							"internalType": "bytes",
							"name": "data",
							"type": "bytes"
						}
					],
					"name": "safeTransferFrom",
					"outputs": [],
					"stateMutability": "nonpayable",
					"type": "function"
				},
				{
					"inputs": [
						{
							"internalType": "address",
							"name": "operator",
							"type": "address"
						},
						{
							"internalType": "bool",
							"name": "approved",
							"type": "bool"
						}
					],
					"name": "setApprovalForAll",
					"outputs": [],
					"stateMutability": "nonpayable",
					"type": "function"
				},
				{
					"inputs": [
						{
							"internalType": "string",
							"name": "newuri",
							"type": "string"
						}
					],
					"name": "setURI",
					"outputs": [],
					"stateMutability": "nonpayable",
					"type": "function"
				},
				{
					"inputs": [
						{
							"internalType": "bytes4",
							"name": "interfaceId",
							"type": "bytes4"
						}
					],
					"name": "supportsInterface",
					"outputs": [
						{
							"internalType": "bool",
							"name": "",
							"type": "bool"
						}
					],
					"stateMutability": "view",
					"type": "function"
				},
				{
					"inputs": [
						{
							"internalType": "address",
							"name": "newOwner",
							"type": "address"
						}
					],
					"name": "transferOwnership",
					"outputs": [],
					"stateMutability": "nonpayable",
					"type": "function"
				},
				{
					"inputs": [
						{
							"internalType": "uint256",
							"name": "",
							"type": "uint256"
						}
					],
					"name": "uri",
					"outputs": [
						{
							"internalType": "string",
							"name": "",
							"type": "string"
						}
					],
					"stateMutability": "view",
					"type": "function"
				}
			],
			"devdoc": {
				"errors": {
					"ERC1155InsufficientBalance(address,uint256,uint256,uint256)": [
						{
							"details": "Indicates an error related to the current `balance` of a `sender`. Used in transfers.",
							"params": {
								"balance": "Current balance for the interacting account.",
								"needed": "Minimum amount required to perform a transfer.",
								"sender": "Address whose tokens are being transferred.",
								"tokenId": "Identifier number of a token."
							}
						}
					],
					"ERC1155InvalidApprover(address)": [
						{
							"details": "Indicates a failure with the `approver` of a token to be approved. Used in approvals.",
							"params": {
								"approver": "Address initiating an approval operation."
							}
						}
					],
					"ERC1155InvalidArrayLength(uint256,uint256)": [
						{
							"details": "Indicates an array length mismatch between ids and values in a safeBatchTransferFrom operation. Used in batch transfers.",
							"params": {
								"idsLength": "Length of the array of token identifiers",
								"valuesLength": "Length of the array of token amounts"
							}
						}
					],
					"ERC1155InvalidOperator(address)": [
						{
							"details": "Indicates a failure with the `operator` to be approved. Used in approvals.",
							"params": {
								"operator": "Address that may be allowed to operate on tokens without being their owner."
							}
						}
					],
					"ERC1155InvalidReceiver(address)": [
						{
							"details": "Indicates a failure with the token `receiver`. Used in transfers.",
							"params": {
								"receiver": "Address to which tokens are being transferred."
							}
						}
					],
					"ERC1155InvalidSender(address)": [
						{
							"details": "Indicates a failure with the token `sender`. Used in transfers.",
							"params": {
								"sender": "Address whose tokens are being transferred."
							}
						}
					],
					"ERC1155MissingApprovalForAll(address,address)": [
						{
							"details": "Indicates a failure with the `operator`’s approval. Used in transfers.",
							"params": {
								"operator": "Address that may be allowed to operate on tokens without being their owner.",
								"owner": "Address of the current owner of a token."
							}
						}
					],
					"OwnableInvalidOwner(address)": [
						{
							"details": "The owner is not a valid owner account. (eg. `address(0)`)"
						}
					],
					"OwnableUnauthorizedAccount(address)": [
						{
							"details": "The caller account is not authorized to perform an operation."
						}
					]
				},
				"events": {
					"ApprovalForAll(address,address,bool)": {
						"details": "Emitted when `account` grants or revokes permission to `operator` to transfer their tokens, according to `approved`."
					},
					"TransferBatch(address,address,address,uint256[],uint256[])": {
						"details": "Equivalent to multiple {TransferSingle} events, where `operator`, `from` and `to` are the same for all transfers."
					},
					"TransferSingle(address,address,address,uint256,uint256)": {
						"details": "Emitted when `value` amount of tokens of type `id` are transferred from `from` to `to` by `operator`."
					},
					"URI(string,uint256)": {
						"details": "Emitted when the URI for token type `id` changes to `value`, if it is a non-programmatic URI. If an {URI} event was emitted for `id`, the standard https://eips.ethereum.org/EIPS/eip-1155#metadata-extensions[guarantees] that `value` will equal the value returned by {IERC1155MetadataURI-uri}."
					}
				},
				"kind": "dev",
				"methods": {
					"balanceOf(address,uint256)": {
						"details": "See {IERC1155-balanceOf}."
					},
					"balanceOfBatch(address[],uint256[])": {
						"details": "See {IERC1155-balanceOfBatch}. Requirements: - `accounts` and `ids` must have the same length."
					},
					"isApprovedForAll(address,address)": {
						"details": "See {IERC1155-isApprovedForAll}."
					},
					"owner()": {
						"details": "Returns the address of the current owner."
					},
					"renounceOwnership()": {
						"details": "Leaves the contract without owner. It will not be possible to call `onlyOwner` functions. Can only be called by the current owner. NOTE: Renouncing ownership will leave the contract without an owner, thereby disabling any functionality that is only available to the owner."
					},
					"safeBatchTransferFrom(address,address,uint256[],uint256[],bytes)": {
						"details": "See {IERC1155-safeBatchTransferFrom}."
					},
					"safeTransferFrom(address,address,uint256,uint256,bytes)": {
						"details": "See {IERC1155-safeTransferFrom}."
					},
					"setApprovalForAll(address,bool)": {
						"details": "See {IERC1155-setApprovalForAll}."
					},
					"supportsInterface(bytes4)": {
						"details": "See {IERC165-supportsInterface}."
					},
					"transferOwnership(address)": {
						"details": "Transfers ownership of the contract to a new account (`newOwner`). Can only be called by the current owner."
					},
					"uri(uint256)": {
						"details": "See {IERC1155MetadataURI-uri}. This implementation returns the same URI for *all* token types. It relies on the token type ID substitution mechanism https://eips.ethereum.org/EIPS/eip-1155#metadata[defined in the EIP]. Clients calling this function must replace the `\\{id\\}` substring with the actual token type ID."
					}
				},
				"version": 1
			},
			"evm": {
				"assembly": "    /* \"contracts/my_contract_calyptus/ERC1155Token.sol\":172:516  contract MyCollection is ERC1155, Ownable {... */\n  mstore(0x40, 0x80)\n    /* \"contracts/my_contract_calyptus/ERC1155Token.sol\":220:290  constructor(address initialOwner) ERC1155(\"\") Ownable(initialOwner) {} */\n  callvalue\n  dup1\n  iszero\n  tag_1\n  jumpi\n  0x00\n  dup1\n  revert\ntag_1:\n  pop\n  mload(0x40)\n  sub(codesize, bytecodeSize)\n  dup1\n  bytecodeSize\n  dup4\n  codecopy\n  dup2\n  dup2\n  add\n  0x40\n  mstore\n  dup2\n  add\n  swap1\n  tag_2\n  swap2\n  swap1\n  tag_3\n  jump\t// in\ntag_2:\n    /* \"contracts/my_contract_calyptus/ERC1155Token.sol\":274:286  initialOwner */\n  dup1\n    /* \"@openzeppelin/contracts/token/ERC1155/ERC1155.sol\":1251:1313  constructor(string memory uri_) {... */\n  mload(0x40)\n  dup1\n  0x20\n  add\n  0x40\n  mstore\n  dup1\n  0x00\n  dup2\n  mstore\n  pop\n    /* \"@openzeppelin/contracts/token/ERC1155/ERC1155.sol\":1293:1306  _setURI(uri_) */\n  tag_8\n    /* \"@openzeppelin/contracts/token/ERC1155/ERC1155.sol\":1301:1305  uri_ */\n  dup2\n    /* \"@openzeppelin/contracts/token/ERC1155/ERC1155.sol\":1293:1300  _setURI */\n  shl(0x20, tag_9)\n    /* \"@openzeppelin/contracts/token/ERC1155/ERC1155.sol\":1293:1306  _setURI(uri_) */\n  0x20\n  shr\n  jump\t// in\ntag_8:\n    /* \"@openzeppelin/contracts/token/ERC1155/ERC1155.sol\":1251:1313  constructor(string memory uri_) {... */\n  pop\n    /* \"@openzeppelin/contracts/access/Ownable.sol\":1297:1298  0 */\n  0x00\n    /* \"@openzeppelin/contracts/access/Ownable.sol\":1273:1299  initialOwner == address(0) */\n  0xffffffffffffffffffffffffffffffffffffffff\n  and\n    /* \"@openzeppelin/contracts/access/Ownable.sol\":1273:1285  initialOwner */\n  dup2\n    /* \"@openzeppelin/contracts/access/Ownable.sol\":1273:1299  initialOwner == address(0) */\n  0xffffffffffffffffffffffffffffffffffffffff\n  and\n  sub\n    /* \"@openzeppelin/contracts/access/Ownable.sol\":1269:1364  if (initialOwner == address(0)) {... */\n  tag_11\n  jumpi\n    /* \"@openzeppelin/contracts/access/Ownable.sol\":1350:1351  0 */\n  0x00\n    /* \"@openzeppelin/contracts/access/Ownable.sol\":1322:1353  OwnableInvalidOwner(address(0)) */\n  mload(0x40)\n  0x1e4fbdf700000000000000000000000000000000000000000000000000000000\n  dup2\n  mstore\n  0x04\n  add\n  tag_12\n  swap2\n  swap1\n  tag_13\n  jump\t// in\ntag_12:\n  mload(0x40)\n  dup1\n  swap2\n  sub\n  swap1\n  revert\n    /* \"@openzeppelin/contracts/access/Ownable.sol\":1269:1364  if (initialOwner == address(0)) {... */\ntag_11:\n    /* \"@openzeppelin/contracts/access/Ownable.sol\":1373:1405  _transferOwnership(initialOwner) */\n  tag_14\n    /* \"@openzeppelin/contracts/access/Ownable.sol\":1392:1404  initialOwner */\n  dup2\n    /* \"@openzeppelin/contracts/access/Ownable.sol\":1373:1391  _transferOwnership */\n  shl(0x20, tag_15)\n    /* \"@openzeppelin/contracts/access/Ownable.sol\":1373:1405  _transferOwnership(initialOwner) */\n  0x20\n  shr\n  jump\t// in\ntag_14:\n    /* \"@openzeppelin/contracts/access/Ownable.sol\":1225:1412  constructor(address initialOwner) {... */\n  pop\n    /* \"contracts/my_contract_calyptus/ERC1155Token.sol\":220:290  constructor(address initialOwner) ERC1155(\"\") Ownable(initialOwner) {} */\n  pop\n    /* \"contracts/my_contract_calyptus/ERC1155Token.sol\":172:516  contract MyCollection is ERC1155, Ownable {... */\n  jump(tag_17)\n    /* \"@openzeppelin/contracts/token/ERC1155/ERC1155.sol\":10282:10368  function _setURI(string memory newuri) internal virtual {... */\ntag_9:\n    /* \"@openzeppelin/contracts/token/ERC1155/ERC1155.sol\":10355:10361  newuri */\n  dup1\n    /* \"@openzeppelin/contracts/token/ERC1155/ERC1155.sol\":10348:10352  _uri */\n  0x02\n    /* \"@openzeppelin/contracts/token/ERC1155/ERC1155.sol\":10348:10361  _uri = newuri */\n  swap1\n  dup2\n  tag_19\n  swap2\n  swap1\n  tag_20\n  jump\t// in\ntag_19:\n  pop\n    /* \"@openzeppelin/contracts/token/ERC1155/ERC1155.sol\":10282:10368  function _setURI(string memory newuri) internal virtual {... */\n  pop\n  jump\t// out\n    /* \"@openzeppelin/contracts/access/Ownable.sol\":2912:3099  function _transferOwnership(address newOwner) internal virtual {... */\ntag_15:\n    /* \"@openzeppelin/contracts/access/Ownable.sol\":2985:3001  address oldOwner */\n  0x00\n    /* \"@openzeppelin/contracts/access/Ownable.sol\":3004:3010  _owner */\n  0x03\n  0x00\n  swap1\n  sload\n  swap1\n  0x0100\n  exp\n  swap1\n  div\n  0xffffffffffffffffffffffffffffffffffffffff\n  and\n    /* \"@openzeppelin/contracts/access/Ownable.sol\":2985:3010  address oldOwner = _owner */\n  swap1\n  pop\n    /* \"@openzeppelin/contracts/access/Ownable.sol\":3029:3037  newOwner */\n  dup2\n    /* \"@openzeppelin/contracts/access/Ownable.sol\":3020:3026  _owner */\n  0x03\n  0x00\n    /* \"@openzeppelin/contracts/access/Ownable.sol\":3020:3037  _owner = newOwner */\n  0x0100\n  exp\n  dup2\n  sload\n  dup2\n  0xffffffffffffffffffffffffffffffffffffffff\n  mul\n  not\n  and\n  swap1\n  dup4\n  0xffffffffffffffffffffffffffffffffffffffff\n  and\n  mul\n  or\n  swap1\n  sstore\n  pop\n    /* \"@openzeppelin/contracts/access/Ownable.sol\":3083:3091  newOwner */\n  dup2\n    /* \"@openzeppelin/contracts/access/Ownable.sol\":3052:3092  OwnershipTransferred(oldOwner, newOwner) */\n  0xffffffffffffffffffffffffffffffffffffffff\n  and\n    /* \"@openzeppelin/contracts/access/Ownable.sol\":3073:3081  oldOwner */\n  dup2\n    /* \"@openzeppelin/contracts/access/Ownable.sol\":3052:3092  OwnershipTransferred(oldOwner, newOwner) */\n  0xffffffffffffffffffffffffffffffffffffffff\n  and\n  0x8be0079c531659141344cd1fd0a4f28419497f9722a3daafe3b4186f6b6457e0\n  mload(0x40)\n  mload(0x40)\n  dup1\n  swap2\n  sub\n  swap1\n  log3\n    /* \"@openzeppelin/contracts/access/Ownable.sol\":2975:3099  {... */\n  pop\n    /* \"@openzeppelin/contracts/access/Ownable.sol\":2912:3099  function _transferOwnership(address newOwner) internal virtual {... */\n  pop\n  jump\t// out\n    /* \"#utility.yul\":88:205   */\ntag_23:\n    /* \"#utility.yul\":197:198   */\n  0x00\n    /* \"#utility.yul\":194:195   */\n  dup1\n    /* \"#utility.yul\":187:199   */\n  revert\n    /* \"#utility.yul\":334:460   */\ntag_25:\n    /* \"#utility.yul\":371:378   */\n  0x00\n    /* \"#utility.yul\":411:453   */\n  0xffffffffffffffffffffffffffffffffffffffff\n    /* \"#utility.yul\":404:409   */\n  dup3\n    /* \"#utility.yul\":400:454   */\n  and\n    /* \"#utility.yul\":389:454   */\n  swap1\n  pop\n    /* \"#utility.yul\":334:460   */\n  swap2\n  swap1\n  pop\n  jump\t// out\n    /* \"#utility.yul\":466:562   */\ntag_26:\n    /* \"#utility.yul\":503:510   */\n  0x00\n    /* \"#utility.yul\":532:556   */\n  tag_56\n    /* \"#utility.yul\":550:555   */\n  dup3\n    /* \"#utility.yul\":532:556   */\n  tag_25\n  jump\t// in\ntag_56:\n    /* \"#utility.yul\":521:556   */\n  swap1\n  pop\n    /* \"#utility.yul\":466:562   */\n  swap2\n  swap1\n  pop\n  jump\t// out\n    /* \"#utility.yul\":568:690   */\ntag_27:\n    /* \"#utility.yul\":641:665   */\n  tag_58\n    /* \"#utility.yul\":659:664   */\n  dup2\n    /* \"#utility.yul\":641:665   */\n  tag_26\n  jump\t// in\ntag_58:\n    /* \"#utility.yul\":634:639   */\n  dup2\n    /* \"#utility.yul\":631:666   */\n  eq\n    /* \"#utility.yul\":621:684   */\n  tag_59\n  jumpi\n    /* \"#utility.yul\":680:681   */\n  0x00\n    /* \"#utility.yul\":677:678   */\n  dup1\n    /* \"#utility.yul\":670:682   */\n  revert\n    /* \"#utility.yul\":621:684   */\ntag_59:\n    /* \"#utility.yul\":568:690   */\n  pop\n  jump\t// out\n    /* \"#utility.yul\":696:839   */\ntag_28:\n    /* \"#utility.yul\":753:758   */\n  0x00\n    /* \"#utility.yul\":784:790   */\n  dup2\n    /* \"#utility.yul\":778:791   */\n  mload\n    /* \"#utility.yul\":769:791   */\n  swap1\n  pop\n    /* \"#utility.yul\":800:833   */\n  tag_61\n    /* \"#utility.yul\":827:832   */\n  dup2\n    /* \"#utility.yul\":800:833   */\n  tag_27\n  jump\t// in\ntag_61:\n    /* \"#utility.yul\":696:839   */\n  swap3\n  swap2\n  pop\n  pop\n  jump\t// out\n    /* \"#utility.yul\":845:1196   */\ntag_3:\n    /* \"#utility.yul\":915:921   */\n  0x00\n    /* \"#utility.yul\":964:966   */\n  0x20\n    /* \"#utility.yul\":952:961   */\n  dup3\n    /* \"#utility.yul\":943:950   */\n  dup5\n    /* \"#utility.yul\":939:962   */\n  sub\n    /* \"#utility.yul\":935:967   */\n  slt\n    /* \"#utility.yul\":932:1051   */\n  iszero\n  tag_63\n  jumpi\n    /* \"#utility.yul\":970:1049   */\n  tag_64\n  tag_23\n  jump\t// in\ntag_64:\n    /* \"#utility.yul\":932:1051   */\ntag_63:\n    /* \"#utility.yul\":1090:1091   */\n  0x00\n    /* \"#utility.yul\":1115:1179   */\n  tag_65\n    /* \"#utility.yul\":1171:1178   */\n  dup5\n    /* \"#utility.yul\":1162:1168   */\n  dup3\n    /* \"#utility.yul\":1151:1160   */\n  dup6\n    /* \"#utility.yul\":1147:1169   */\n  add\n    /* \"#utility.yul\":1115:1179   */\n  tag_28\n  jump\t// in\ntag_65:\n    /* \"#utility.yul\":1105:1179   */\n  swap2\n  pop\n    /* \"#utility.yul\":1061:1189   */\n  pop\n    /* \"#utility.yul\":845:1196   */\n  swap3\n  swap2\n  pop\n  pop\n  jump\t// out\n    /* \"#utility.yul\":1202:1320   */\ntag_29:\n    /* \"#utility.yul\":1289:1313   */\n  tag_67\n    /* \"#utility.yul\":1307:1312   */\n  dup2\n    /* \"#utility.yul\":1289:1313   */\n  tag_26\n  jump\t// in\ntag_67:\n    /* \"#utility.yul\":1284:1287   */\n  dup3\n    /* \"#utility.yul\":1277:1314   */\n  mstore\n    /* \"#utility.yul\":1202:1320   */\n  pop\n  pop\n  jump\t// out\n    /* \"#utility.yul\":1326:1548   */\ntag_13:\n    /* \"#utility.yul\":1419:1423   */\n  0x00\n    /* \"#utility.yul\":1457:1459   */\n  0x20\n    /* \"#utility.yul\":1446:1455   */\n  dup3\n    /* \"#utility.yul\":1442:1460   */\n  add\n    /* \"#utility.yul\":1434:1460   */\n  swap1\n  pop\n    /* \"#utility.yul\":1470:1541   */\n  tag_69\n    /* \"#utility.yul\":1538:1539   */\n  0x00\n    /* \"#utility.yul\":1527:1536   */\n  dup4\n    /* \"#utility.yul\":1523:1540   */\n  add\n    /* \"#utility.yul\":1514:1520   */\n  dup5\n    /* \"#utility.yul\":1470:1541   */\n  tag_29\n  jump\t// in\ntag_69:\n    /* \"#utility.yul\":1326:1548   */\n  swap3\n  swap2\n  pop\n  pop\n  jump\t// out\n    /* \"#utility.yul\":1554:1653   */\ntag_30:\n    /* \"#utility.yul\":1606:1612   */\n  0x00\n    /* \"#utility.yul\":1640:1645   */\n  dup2\n    /* \"#utility.yul\":1634:1646   */\n  mload\n    /* \"#utility.yul\":1624:1646   */\n  swap1\n  pop\n    /* \"#utility.yul\":1554:1653   */\n  swap2\n  swap1\n  pop\n  jump\t// out\n    /* \"#utility.yul\":1659:1839   */\ntag_31:\n    /* \"#utility.yul\":1707:1784   */\n  0x4e487b7100000000000000000000000000000000000000000000000000000000\n    /* \"#utility.yul\":1704:1705   */\n  0x00\n    /* \"#utility.yul\":1697:1785   */\n  mstore\n    /* \"#utility.yul\":1804:1808   */\n  0x41\n    /* \"#utility.yul\":1801:1802   */\n  0x04\n    /* \"#utility.yul\":1794:1809   */\n  mstore\n    /* \"#utility.yul\":1828:1832   */\n  0x24\n    /* \"#utility.yul\":1825:1826   */\n  0x00\n    /* \"#utility.yul\":1818:1833   */\n  revert\n    /* \"#utility.yul\":1845:2025   */\ntag_32:\n    /* \"#utility.yul\":1893:1970   */\n  0x4e487b7100000000000000000000000000000000000000000000000000000000\n    /* \"#utility.yul\":1890:1891   */\n  0x00\n    /* \"#utility.yul\":1883:1971   */\n  mstore\n    /* \"#utility.yul\":1990:1994   */\n  0x22\n    /* \"#utility.yul\":1987:1988   */\n  0x04\n    /* \"#utility.yul\":1980:1995   */\n  mstore\n    /* \"#utility.yul\":2014:2018   */\n  0x24\n    /* \"#utility.yul\":2011:2012   */\n  0x00\n    /* \"#utility.yul\":2004:2019   */\n  revert\n    /* \"#utility.yul\":2031:2351   */\ntag_33:\n    /* \"#utility.yul\":2075:2081   */\n  0x00\n    /* \"#utility.yul\":2112:2113   */\n  0x02\n    /* \"#utility.yul\":2106:2110   */\n  dup3\n    /* \"#utility.yul\":2102:2114   */\n  div\n    /* \"#utility.yul\":2092:2114   */\n  swap1\n  pop\n    /* \"#utility.yul\":2159:2160   */\n  0x01\n    /* \"#utility.yul\":2153:2157   */\n  dup3\n    /* \"#utility.yul\":2149:2161   */\n  and\n    /* \"#utility.yul\":2180:2198   */\n  dup1\n    /* \"#utility.yul\":2170:2251   */\n  tag_74\n  jumpi\n    /* \"#utility.yul\":2236:2240   */\n  0x7f\n    /* \"#utility.yul\":2228:2234   */\n  dup3\n    /* \"#utility.yul\":2224:2241   */\n  and\n    /* \"#utility.yul\":2214:2241   */\n  swap2\n  pop\n    /* \"#utility.yul\":2170:2251   */\ntag_74:\n    /* \"#utility.yul\":2298:2300   */\n  0x20\n    /* \"#utility.yul\":2290:2296   */\n  dup3\n    /* \"#utility.yul\":2287:2301   */\n  lt\n    /* \"#utility.yul\":2267:2285   */\n  dup2\n    /* \"#utility.yul\":2264:2302   */\n  sub\n    /* \"#utility.yul\":2261:2345   */\n  tag_75\n  jumpi\n    /* \"#utility.yul\":2317:2335   */\n  tag_76\n  tag_32\n  jump\t// in\ntag_76:\n    /* \"#utility.yul\":2261:2345   */\ntag_75:\n    /* \"#utility.yul\":2082:2351   */\n  pop\n    /* \"#utility.yul\":2031:2351   */\n  swap2\n  swap1\n  pop\n  jump\t// out\n    /* \"#utility.yul\":2357:2498   */\ntag_34:\n    /* \"#utility.yul\":2406:2410   */\n  0x00\n    /* \"#utility.yul\":2429:2432   */\n  dup2\n    /* \"#utility.yul\":2421:2432   */\n  swap1\n  pop\n    /* \"#utility.yul\":2452:2455   */\n  dup2\n    /* \"#utility.yul\":2449:2450   */\n  0x00\n    /* \"#utility.yul\":2442:2456   */\n  mstore\n    /* \"#utility.yul\":2486:2490   */\n  0x20\n    /* \"#utility.yul\":2483:2484   */\n  0x00\n    /* \"#utility.yul\":2473:2491   */\n  keccak256\n    /* \"#utility.yul\":2465:2491   */\n  swap1\n  pop\n    /* \"#utility.yul\":2357:2498   */\n  swap2\n  swap1\n  pop\n  jump\t// out\n    /* \"#utility.yul\":2504:2597   */\ntag_35:\n    /* \"#utility.yul\":2541:2547   */\n  0x00\n    /* \"#utility.yul\":2588:2590   */\n  0x20\n    /* \"#utility.yul\":2583:2585   */\n  0x1f\n    /* \"#utility.yul\":2576:2581   */\n  dup4\n    /* \"#utility.yul\":2572:2586   */\n  add\n    /* \"#utility.yul\":2568:2591   */\n  div\n    /* \"#utility.yul\":2558:2591   */\n  swap1\n  pop\n    /* \"#utility.yul\":2504:2597   */\n  swap2\n  swap1\n  pop\n  jump\t// out\n    /* \"#utility.yul\":2603:2710   */\ntag_36:\n    /* \"#utility.yul\":2647:2655   */\n  0x00\n    /* \"#utility.yul\":2697:2702   */\n  dup3\n    /* \"#utility.yul\":2691:2695   */\n  dup3\n    /* \"#utility.yul\":2687:2703   */\n  shl\n    /* \"#utility.yul\":2666:2703   */\n  swap1\n  pop\n    /* \"#utility.yul\":2603:2710   */\n  swap3\n  swap2\n  pop\n  pop\n  jump\t// out\n    /* \"#utility.yul\":2716:3109   */\ntag_37:\n    /* \"#utility.yul\":2785:2791   */\n  0x00\n    /* \"#utility.yul\":2835:2836   */\n  0x08\n    /* \"#utility.yul\":2823:2833   */\n  dup4\n    /* \"#utility.yul\":2819:2837   */\n  mul\n    /* \"#utility.yul\":2858:2955   */\n  tag_81\n    /* \"#utility.yul\":2888:2954   */\n  0xffffffffffffffffffffffffffffffffffffffffffffffffffffffffffffffff\n    /* \"#utility.yul\":2877:2886   */\n  dup3\n    /* \"#utility.yul\":2858:2955   */\n  tag_36\n  jump\t// in\ntag_81:\n    /* \"#utility.yul\":2976:3015   */\n  tag_82\n    /* \"#utility.yul\":3006:3014   */\n  dup7\n    /* \"#utility.yul\":2995:3004   */\n  dup4\n    /* \"#utility.yul\":2976:3015   */\n  tag_36\n  jump\t// in\ntag_82:\n    /* \"#utility.yul\":2964:3015   */\n  swap6\n  pop\n    /* \"#utility.yul\":3048:3052   */\n  dup1\n    /* \"#utility.yul\":3044:3053   */\n  not\n    /* \"#utility.yul\":3037:3042   */\n  dup5\n    /* \"#utility.yul\":3033:3054   */\n  and\n    /* \"#utility.yul\":3024:3054   */\n  swap4\n  pop\n    /* \"#utility.yul\":3097:3101   */\n  dup1\n    /* \"#utility.yul\":3087:3095   */\n  dup7\n    /* \"#utility.yul\":3083:3102   */\n  and\n    /* \"#utility.yul\":3076:3081   */\n  dup5\n    /* \"#utility.yul\":3073:3103   */\n  or\n    /* \"#utility.yul\":3063:3103   */\n  swap3\n  pop\n    /* \"#utility.yul\":2792:3109   */\n  pop\n  pop\n    /* \"#utility.yul\":2716:3109   */\n  swap4\n  swap3\n  pop\n  pop\n  pop\n  jump\t// out\n    /* \"#utility.yul\":3115:3192   */\ntag_38:\n    /* \"#utility.yul\":3152:3159   */\n  0x00\n    /* \"#utility.yul\":3181:3186   */\n  dup2\n    /* \"#utility.yul\":3170:3186   */\n  swap1\n  pop\n    /* \"#utility.yul\":3115:3192   */\n  swap2\n  swap1\n  pop\n  jump\t// out\n    /* \"#utility.yul\":3198:3258   */\ntag_39:\n    /* \"#utility.yul\":3226:3229   */\n  0x00\n    /* \"#utility.yul\":3247:3252   */\n  dup2\n    /* \"#utility.yul\":3240:3252   */\n  swap1\n  pop\n    /* \"#utility.yul\":3198:3258   */\n  swap2\n  swap1\n  pop\n  jump\t// out\n    /* \"#utility.yul\":3264:3406   */\ntag_40:\n    /* \"#utility.yul\":3314:3323   */\n  0x00\n    /* \"#utility.yul\":3347:3400   */\n  tag_86\n    /* \"#utility.yul\":3365:3399   */\n  tag_87\n    /* \"#utility.yul\":3374:3398   */\n  tag_88\n    /* \"#utility.yul\":3392:3397   */\n  dup5\n    /* \"#utility.yul\":3374:3398   */\n  tag_38\n  jump\t// in\ntag_88:\n    /* \"#utility.yul\":3365:3399   */\n  tag_39\n  jump\t// in\ntag_87:\n    /* \"#utility.yul\":3347:3400   */\n  tag_38\n  jump\t// in\ntag_86:\n    /* \"#utility.yul\":3334:3400   */\n  swap1\n  pop\n    /* \"#utility.yul\":3264:3406   */\n  swap2\n  swap1\n  pop\n  jump\t// out\n    /* \"#utility.yul\":3412:3487   */\ntag_41:\n    /* \"#utility.yul\":3455:3458   */\n  0x00\n    /* \"#utility.yul\":3476:3481   */\n  dup2\n    /* \"#utility.yul\":3469:3481   */\n  swap1\n  pop\n    /* \"#utility.yul\":3412:3487   */\n  swap2\n  swap1\n  pop\n  jump\t// out\n    /* \"#utility.yul\":3493:3762   */\ntag_42:\n    /* \"#utility.yul\":3603:3642   */\n  tag_91\n    /* \"#utility.yul\":3634:3641   */\n  dup4\n    /* \"#utility.yul\":3603:3642   */\n  tag_40\n  jump\t// in\ntag_91:\n    /* \"#utility.yul\":3664:3755   */\n  tag_92\n    /* \"#utility.yul\":3713:3754   */\n  tag_93\n    /* \"#utility.yul\":3737:3753   */\n  dup3\n    /* \"#utility.yul\":3713:3754   */\n  tag_41\n  jump\t// in\ntag_93:\n    /* \"#utility.yul\":3705:3711   */\n  dup5\n    /* \"#utility.yul\":3698:3702   */\n  dup5\n    /* \"#utility.yul\":3692:3703   */\n  sload\n    /* \"#utility.yul\":3664:3755   */\n  tag_37\n  jump\t// in\ntag_92:\n    /* \"#utility.yul\":3658:3662   */\n  dup3\n    /* \"#utility.yul\":3651:3756   */\n  sstore\n    /* \"#utility.yul\":3569:3762   */\n  pop\n    /* \"#utility.yul\":3493:3762   */\n  pop\n  pop\n  pop\n  jump\t// out\n    /* \"#utility.yul\":3768:3841   */\ntag_43:\n    /* \"#utility.yul\":3813:3816   */\n  0x00\n    /* \"#utility.yul\":3768:3841   */\n  swap1\n  jump\t// out\n    /* \"#utility.yul\":3847:4036   */\ntag_44:\n    /* \"#utility.yul\":3924:3956   */\n  tag_96\n  tag_43\n  jump\t// in\ntag_96:\n    /* \"#utility.yul\":3965:4030   */\n  tag_97\n    /* \"#utility.yul\":4023:4029   */\n  dup2\n    /* \"#utility.yul\":4015:4021   */\n  dup5\n    /* \"#utility.yul\":4009:4013   */\n  dup5\n    /* \"#utility.yul\":3965:4030   */\n  tag_42\n  jump\t// in\ntag_97:\n    /* \"#utility.yul\":3900:4036   */\n  pop\n    /* \"#utility.yul\":3847:4036   */\n  pop\n  pop\n  jump\t// out\n    /* \"#utility.yul\":4042:4228   */\ntag_45:\n    /* \"#utility.yul\":4102:4222   */\ntag_99:\n    /* \"#utility.yul\":4119:4122   */\n  dup2\n    /* \"#utility.yul\":4112:4117   */\n  dup2\n    /* \"#utility.yul\":4109:4123   */\n  lt\n    /* \"#utility.yul\":4102:4222   */\n  iszero\n  tag_101\n  jumpi\n    /* \"#utility.yul\":4173:4212   */\n  tag_102\n    /* \"#utility.yul\":4210:4211   */\n  0x00\n    /* \"#utility.yul\":4203:4208   */\n  dup3\n    /* \"#utility.yul\":4173:4212   */\n  tag_44\n  jump\t// in\ntag_102:\n    /* \"#utility.yul\":4146:4147   */\n  0x01\n    /* \"#utility.yul\":4139:4144   */\n  dup2\n    /* \"#utility.yul\":4135:4148   */\n  add\n    /* \"#utility.yul\":4126:4148   */\n  swap1\n  pop\n    /* \"#utility.yul\":4102:4222   */\n  jump(tag_99)\ntag_101:\n    /* \"#utility.yul\":4042:4228   */\n  pop\n  pop\n  jump\t// out\n    /* \"#utility.yul\":4234:4777   */\ntag_46:\n    /* \"#utility.yul\":4335:4337   */\n  0x1f\n    /* \"#utility.yul\":4330:4333   */\n  dup3\n    /* \"#utility.yul\":4327:4338   */\n  gt\n    /* \"#utility.yul\":4324:4770   */\n  iszero\n  tag_104\n  jumpi\n    /* \"#utility.yul\":4369:4407   */\n  tag_105\n    /* \"#utility.yul\":4401:4406   */\n  dup2\n    /* \"#utility.yul\":4369:4407   */\n  tag_34\n  jump\t// in\ntag_105:\n    /* \"#utility.yul\":4453:4482   */\n  tag_106\n    /* \"#utility.yul\":4471:4481   */\n  dup5\n    /* \"#utility.yul\":4453:4482   */\n  tag_35\n  jump\t// in\ntag_106:\n    /* \"#utility.yul\":4443:4451   */\n  dup2\n    /* \"#utility.yul\":4439:4483   */\n  add\n    /* \"#utility.yul\":4636:4638   */\n  0x20\n    /* \"#utility.yul\":4624:4634   */\n  dup6\n    /* \"#utility.yul\":4621:4639   */\n  lt\n    /* \"#utility.yul\":4618:4667   */\n  iszero\n  tag_107\n  jumpi\n    /* \"#utility.yul\":4657:4665   */\n  dup2\n    /* \"#utility.yul\":4642:4665   */\n  swap1\n  pop\n    /* \"#utility.yul\":4618:4667   */\ntag_107:\n    /* \"#utility.yul\":4680:4760   */\n  tag_108\n    /* \"#utility.yul\":4736:4758   */\n  tag_109\n    /* \"#utility.yul\":4754:4757   */\n  dup6\n    /* \"#utility.yul\":4736:4758   */\n  tag_35\n  jump\t// in\ntag_109:\n    /* \"#utility.yul\":4726:4734   */\n  dup4\n    /* \"#utility.yul\":4722:4759   */\n  add\n    /* \"#utility.yul\":4709:4720   */\n  dup3\n    /* \"#utility.yul\":4680:4760   */\n  tag_45\n  jump\t// in\ntag_108:\n    /* \"#utility.yul\":4339:4770   */\n  pop\n  pop\n    /* \"#utility.yul\":4324:4770   */\ntag_104:\n    /* \"#utility.yul\":4234:4777   */\n  pop\n  pop\n  pop\n  jump\t// out\n    /* \"#utility.yul\":4783:4900   */\ntag_47:\n    /* \"#utility.yul\":4837:4845   */\n  0x00\n    /* \"#utility.yul\":4887:4892   */\n  dup3\n    /* \"#utility.yul\":4881:4885   */\n  dup3\n    /* \"#utility.yul\":4877:4893   */\n  shr\n    /* \"#utility.yul\":4856:4893   */\n  swap1\n  pop\n    /* \"#utility.yul\":4783:4900   */\n  swap3\n  swap2\n  pop\n  pop\n  jump\t// out\n    /* \"#utility.yul\":4906:5075   */\ntag_48:\n    /* \"#utility.yul\":4950:4956   */\n  0x00\n    /* \"#utility.yul\":4983:5034   */\n  tag_112\n    /* \"#utility.yul\":5031:5032   */\n  0x00\n    /* \"#utility.yul\":5027:5033   */\n  not\n    /* \"#utility.yul\":5019:5024   */\n  dup5\n    /* \"#utility.yul\":5016:5017   */\n  0x08\n    /* \"#utility.yul\":5012:5025   */\n  mul\n    /* \"#utility.yul\":4983:5034   */\n  tag_47\n  jump\t// in\ntag_112:\n    /* \"#utility.yul\":4979:5035   */\n  not\n    /* \"#utility.yul\":5064:5068   */\n  dup1\n    /* \"#utility.yul\":5058:5062   */\n  dup4\n    /* \"#utility.yul\":5054:5069   */\n  and\n    /* \"#utility.yul\":5044:5069   */\n  swap2\n  pop\n    /* \"#utility.yul\":4957:5075   */\n  pop\n    /* \"#utility.yul\":4906:5075   */\n  swap3\n  swap2\n  pop\n  pop\n  jump\t// out\n    /* \"#utility.yul\":5080:5375   */\ntag_49:\n    /* \"#utility.yul\":5156:5160   */\n  0x00\n    /* \"#utility.yul\":5302:5331   */\n  tag_114\n    /* \"#utility.yul\":5327:5330   */\n  dup4\n    /* \"#utility.yul\":5321:5325   */\n  dup4\n    /* \"#utility.yul\":5302:5331   */\n  tag_48\n  jump\t// in\ntag_114:\n    /* \"#utility.yul\":5294:5331   */\n  swap2\n  pop\n    /* \"#utility.yul\":5364:5367   */\n  dup3\n    /* \"#utility.yul\":5361:5362   */\n  0x02\n    /* \"#utility.yul\":5357:5368   */\n  mul\n    /* \"#utility.yul\":5351:5355   */\n  dup3\n    /* \"#utility.yul\":5348:5369   */\n  or\n    /* \"#utility.yul\":5340:5369   */\n  swap1\n  pop\n    /* \"#utility.yul\":5080:5375   */\n  swap3\n  swap2\n  pop\n  pop\n  jump\t// out\n    /* \"#utility.yul\":5380:6775   */\ntag_20:\n    /* \"#utility.yul\":5497:5534   */\n  tag_116\n    /* \"#utility.yul\":5530:5533   */\n  dup3\n    /* \"#utility.yul\":5497:5534   */\n  tag_30\n  jump\t// in\ntag_116:\n    /* \"#utility.yul\":5599:5617   */\n  0xffffffffffffffff\n    /* \"#utility.yul\":5591:5597   */\n  dup2\n    /* \"#utility.yul\":5588:5618   */\n  gt\n    /* \"#utility.yul\":5585:5641   */\n  iszero\n  tag_117\n  jumpi\n    /* \"#utility.yul\":5621:5639   */\n  tag_118\n  tag_31\n  jump\t// in\ntag_118:\n    /* \"#utility.yul\":5585:5641   */\ntag_117:\n    /* \"#utility.yul\":5665:5703   */\n  tag_119\n    /* \"#utility.yul\":5697:5701   */\n  dup3\n    /* \"#utility.yul\":5691:5702   */\n  sload\n    /* \"#utility.yul\":5665:5703   */\n  tag_33\n  jump\t// in\ntag_119:\n    /* \"#utility.yul\":5750:5817   */\n  tag_120\n    /* \"#utility.yul\":5810:5816   */\n  dup3\n    /* \"#utility.yul\":5802:5808   */\n  dup3\n    /* \"#utility.yul\":5796:5800   */\n  dup6\n    /* \"#utility.yul\":5750:5817   */\n  tag_46\n  jump\t// in\ntag_120:\n    /* \"#utility.yul\":5844:5845   */\n  0x00\n    /* \"#utility.yul\":5868:5872   */\n  0x20\n    /* \"#utility.yul\":5855:5872   */\n  swap1\n  pop\n    /* \"#utility.yul\":5900:5902   */\n  0x1f\n    /* \"#utility.yul\":5892:5898   */\n  dup4\n    /* \"#utility.yul\":5889:5903   */\n  gt\n    /* \"#utility.yul\":5917:5918   */\n  0x01\n    /* \"#utility.yul\":5912:6530   */\n  dup2\n  eq\n  tag_122\n  jumpi\n    /* \"#utility.yul\":6574:6575   */\n  0x00\n    /* \"#utility.yul\":6591:6597   */\n  dup5\n    /* \"#utility.yul\":6588:6665   */\n  iszero\n  tag_123\n  jumpi\n    /* \"#utility.yul\":6640:6649   */\n  dup3\n    /* \"#utility.yul\":6635:6638   */\n  dup8\n    /* \"#utility.yul\":6631:6650   */\n  add\n    /* \"#utility.yul\":6625:6651   */\n  mload\n    /* \"#utility.yul\":6616:6651   */\n  swap1\n  pop\n    /* \"#utility.yul\":6588:6665   */\ntag_123:\n    /* \"#utility.yul\":6691:6758   */\n  tag_124\n    /* \"#utility.yul\":6751:6757   */\n  dup6\n    /* \"#utility.yul\":6744:6749   */\n  dup3\n    /* \"#utility.yul\":6691:6758   */\n  tag_49\n  jump\t// in\ntag_124:\n    /* \"#utility.yul\":6685:6689   */\n  dup7\n    /* \"#utility.yul\":6678:6759   */\n  sstore\n    /* \"#utility.yul\":6547:6769   */\n  pop\n    /* \"#utility.yul\":5882:6769   */\n  jump(tag_121)\n    /* \"#utility.yul\":5912:6530   */\ntag_122:\n    /* \"#utility.yul\":5964:5968   */\n  0x1f\n    /* \"#utility.yul\":5960:5969   */\n  not\n    /* \"#utility.yul\":5952:5958   */\n  dup5\n    /* \"#utility.yul\":5948:5970   */\n  and\n    /* \"#utility.yul\":5998:6035   */\n  tag_125\n    /* \"#utility.yul\":6030:6034   */\n  dup7\n    /* \"#utility.yul\":5998:6035   */\n  tag_34\n  jump\t// in\ntag_125:\n    /* \"#utility.yul\":6057:6058   */\n  0x00\n    /* \"#utility.yul\":6071:6279   */\ntag_126:\n    /* \"#utility.yul\":6085:6092   */\n  dup3\n    /* \"#utility.yul\":6082:6083   */\n  dup2\n    /* \"#utility.yul\":6079:6093   */\n  lt\n    /* \"#utility.yul\":6071:6279   */\n  iszero\n  tag_128\n  jumpi\n    /* \"#utility.yul\":6164:6173   */\n  dup5\n    /* \"#utility.yul\":6159:6162   */\n  dup10\n    /* \"#utility.yul\":6155:6174   */\n  add\n    /* \"#utility.yul\":6149:6175   */\n  mload\n    /* \"#utility.yul\":6141:6147   */\n  dup3\n    /* \"#utility.yul\":6134:6176   */\n  sstore\n    /* \"#utility.yul\":6215:6216   */\n  0x01\n    /* \"#utility.yul\":6207:6213   */\n  dup3\n    /* \"#utility.yul\":6203:6217   */\n  add\n    /* \"#utility.yul\":6193:6217   */\n  swap2\n  pop\n    /* \"#utility.yul\":6262:6264   */\n  0x20\n    /* \"#utility.yul\":6251:6260   */\n  dup6\n    /* \"#utility.yul\":6247:6265   */\n  add\n    /* \"#utility.yul\":6234:6265   */\n  swap5\n  pop\n    /* \"#utility.yul\":6108:6112   */\n  0x20\n    /* \"#utility.yul\":6105:6106   */\n  dup2\n    /* \"#utility.yul\":6101:6113   */\n  add\n    /* \"#utility.yul\":6096:6113   */\n  swap1\n  pop\n    /* \"#utility.yul\":6071:6279   */\n  jump(tag_126)\ntag_128:\n    /* \"#utility.yul\":6307:6313   */\n  dup7\n    /* \"#utility.yul\":6298:6305   */\n  dup4\n    /* \"#utility.yul\":6295:6314   */\n  lt\n    /* \"#utility.yul\":6292:6471   */\n  iszero\n  tag_129\n  jumpi\n    /* \"#utility.yul\":6365:6374   */\n  dup5\n    /* \"#utility.yul\":6360:6363   */\n  dup10\n    /* \"#utility.yul\":6356:6375   */\n  add\n    /* \"#utility.yul\":6350:6376   */\n  mload\n    /* \"#utility.yul\":6408:6456   */\n  tag_130\n    /* \"#utility.yul\":6450:6454   */\n  0x1f\n    /* \"#utility.yul\":6442:6448   */\n  dup10\n    /* \"#utility.yul\":6438:6455   */\n  and\n    /* \"#utility.yul\":6427:6436   */\n  dup3\n    /* \"#utility.yul\":6408:6456   */\n  tag_48\n  jump\t// in\ntag_130:\n    /* \"#utility.yul\":6400:6406   */\n  dup4\n    /* \"#utility.yul\":6393:6457   */\n  sstore\n    /* \"#utility.yul\":6315:6471   */\n  pop\n    /* \"#utility.yul\":6292:6471   */\ntag_129:\n    /* \"#utility.yul\":6517:6518   */\n  0x01\n    /* \"#utility.yul\":6513:6514   */\n  0x02\n    /* \"#utility.yul\":6505:6511   */\n  dup9\n    /* \"#utility.yul\":6501:6515   */\n  mul\n    /* \"#utility.yul\":6497:6519   */\n  add\n    /* \"#utility.yul\":6491:6495   */\n  dup9\n    /* \"#utility.yul\":6484:6520   */\n  sstore\n    /* \"#utility.yul\":5919:6530   */\n  pop\n  pop\n  pop\n    /* \"#utility.yul\":5882:6769   */\ntag_121:\n  pop\n    /* \"#utility.yul\":5472:6775   */\n  pop\n  pop\n  pop\n    /* \"#utility.yul\":5380:6775   */\n  pop\n  pop\n  jump\t// out\n    /* \"contracts/my_contract_calyptus/ERC1155Token.sol\":172:516  contract MyCollection is ERC1155, Ownable {... */\ntag_17:\n  dataSize(sub_0)\n  dup1\n  dataOffset(sub_0)\n  0x00\n  codecopy\n  0x00\n  return\nstop\n\nsub_0: assembly {\n        /* \"contracts/my_contract_calyptus/ERC1155Token.sol\":172:516  contract MyCollection is ERC1155, Ownable {... */\n      mstore(0x40, 0x80)\n      callvalue\n      dup1\n      iszero\n      tag_1\n      jumpi\n      0x00\n      dup1\n      revert\n    tag_1:\n      pop\n      jumpi(tag_2, lt(calldatasize, 0x04))\n      shr(0xe0, calldataload(0x00))\n      dup1\n      0x4e1273f4\n      gt\n      tag_16\n      jumpi\n      dup1\n      0xa22cb465\n      gt\n      tag_17\n      jumpi\n      dup1\n      0xa22cb465\n      eq\n      tag_12\n      jumpi\n      dup1\n      0xe985e9c5\n      eq\n      tag_13\n      jumpi\n      dup1\n      0xf242432a\n      eq\n      tag_14\n      jumpi\n      dup1\n      0xf2fde38b\n      eq\n      tag_15\n      jumpi\n      jump(tag_2)\n    tag_17:\n      dup1\n      0x4e1273f4\n      eq\n      tag_9\n      jumpi\n      dup1\n      0x715018a6\n      eq\n      tag_10\n      jumpi\n      dup1\n      0x8da5cb5b\n      eq\n      tag_11\n      jumpi\n      jump(tag_2)\n    tag_16:\n      dup1\n      0xfdd58e\n      eq\n      tag_3\n      jumpi\n      dup1\n      0x01ffc9a7\n      eq\n      tag_4\n      jumpi\n      dup1\n      0x02fe5305\n      eq\n      tag_5\n      jumpi\n      dup1\n      0x08dc9f42\n      eq\n      tag_6\n      jumpi\n      dup1\n      0x0e89341c\n      eq\n      tag_7\n      jumpi\n      dup1\n      0x2eb2c2d6\n      eq\n      tag_8\n      jumpi\n    tag_2:\n      0x00\n      dup1\n      revert\n        /* \"@openzeppelin/contracts/token/ERC1155/ERC1155.sol\":2247:2379  function balanceOf(address account, uint256 id) public view virtual returns (uint256) {... */\n    tag_3:\n      tag_18\n      0x04\n      dup1\n      calldatasize\n      sub\n      dup2\n      add\n      swap1\n      tag_19\n      swap2\n      swap1\n      tag_20\n      jump\t// in\n    tag_19:\n      tag_21\n      jump\t// in\n    tag_18:\n      mload(0x40)\n      tag_22\n      swap2\n      swap1\n      tag_23\n      jump\t// in\n    tag_22:\n      mload(0x40)\n      dup1\n      swap2\n      sub\n      swap1\n      return\n        /* \"@openzeppelin/contracts/token/ERC1155/ERC1155.sol\":1380:1685  function supportsInterface(bytes4 interfaceId) public view virtual override(ERC165, IERC165) returns (bool) {... */\n    tag_4:\n      tag_24\n      0x04\n      dup1\n      calldatasize\n      sub\n      dup2\n      add\n      swap1\n      tag_25\n      swap2\n      swap1\n      tag_26\n      jump\t// in\n    tag_25:\n      tag_27\n      jump\t// in\n    tag_24:\n      mload(0x40)\n      tag_28\n      swap2\n      swap1\n      tag_29\n      jump\t// in\n    tag_28:\n      mload(0x40)\n      dup1\n      swap2\n      sub\n      swap1\n      return\n        /* \"contracts/my_contract_calyptus/ERC1155Token.sol\":296:383  function setURI(string memory newuri) public onlyOwner {... */\n    tag_5:\n      tag_30\n      0x04\n      dup1\n      calldatasize\n      sub\n      dup2\n      add\n      swap1\n      tag_31\n      swap2\n      swap1\n      tag_32\n      jump\t// in\n    tag_31:\n      tag_33\n      jump\t// in\n    tag_30:\n      stop\n        /* \"contracts/my_contract_calyptus/ERC1155Token.sol\":389:509  function mint(uint256 id, uint256 amount, bytes memory data) public {... */\n    tag_6:\n      tag_34\n      0x04\n      dup1\n      calldatasize\n      sub\n      dup2\n      add\n      swap1\n      tag_35\n      swap2\n      swap1\n      tag_36\n      jump\t// in\n    tag_35:\n      tag_37\n      jump\t// in\n    tag_34:\n      stop\n        /* \"@openzeppelin/contracts/token/ERC1155/ERC1155.sol\":2084:2187  function uri(uint256 /* id */) public view virtual returns (string memory) {... */\n    tag_7:\n      tag_38\n      0x04\n      dup1\n      calldatasize\n      sub\n      dup2\n      add\n      swap1\n      tag_39\n      swap2\n      swap1\n      tag_40\n      jump\t// in\n    tag_39:\n      tag_41\n      jump\t// in\n    tag_38:\n      mload(0x40)\n      tag_42\n      swap2\n      swap1\n      tag_43\n      jump\t// in\n    tag_42:\n      mload(0x40)\n      dup1\n      swap2\n      sub\n      swap1\n      return\n        /* \"@openzeppelin/contracts/token/ERC1155/ERC1155.sol\":4014:4443  function safeBatchTransferFrom(... */\n    tag_8:\n      tag_44\n      0x04\n      dup1\n      calldatasize\n      sub\n      dup2\n      add\n      swap1\n      tag_45\n      swap2\n      swap1\n      tag_46\n      jump\t// in\n    tag_45:\n      tag_47\n      jump\t// in\n    tag_44:\n      stop\n        /* \"@openzeppelin/contracts/token/ERC1155/ERC1155.sol\":2536:3088  function balanceOfBatch(... */\n    tag_9:\n      tag_48\n      0x04\n      dup1\n      calldatasize\n      sub\n      dup2\n      add\n      swap1\n      tag_49\n      swap2\n      swap1\n      tag_50\n      jump\t// in\n    tag_49:\n      tag_51\n      jump\t// in\n    tag_48:\n      mload(0x40)\n      tag_52\n      swap2\n      swap1\n      tag_53\n      jump\t// in\n    tag_52:\n      mload(0x40)\n      dup1\n      swap2\n      sub\n      swap1\n      return\n        /* \"@openzeppelin/contracts/access/Ownable.sol\":2293:2394  function renounceOwnership() public virtual onlyOwner {... */\n    tag_10:\n      tag_54\n      tag_55\n      jump\t// in\n    tag_54:\n      stop\n        /* \"@openzeppelin/contracts/access/Ownable.sol\":1638:1723  function owner() public view virtual returns (address) {... */\n    tag_11:\n      tag_56\n      tag_57\n      jump\t// in\n    tag_56:\n      mload(0x40)\n      tag_58\n      swap2\n      swap1\n      tag_59\n      jump\t// in\n    tag_58:\n      mload(0x40)\n      dup1\n      swap2\n      sub\n      swap1\n      return\n        /* \"@openzeppelin/contracts/token/ERC1155/ERC1155.sol\":3156:3300  function setApprovalForAll(address operator, bool approved) public virtual {... */\n    tag_12:\n      tag_60\n      0x04\n      dup1\n      calldatasize\n      sub\n      dup2\n      add\n      swap1\n      tag_61\n      swap2\n      swap1\n      tag_62\n      jump\t// in\n    tag_61:\n      tag_63\n      jump\t// in\n    tag_60:\n      stop\n        /* \"@openzeppelin/contracts/token/ERC1155/ERC1155.sol\":3367:3524  function isApprovedForAll(address account, address operator) public view virtual returns (bool) {... */\n    tag_13:\n      tag_64\n      0x04\n      dup1\n      calldatasize\n      sub\n      dup2\n      add\n      swap1\n      tag_65\n      swap2\n      swap1\n      tag_66\n      jump\t// in\n    tag_65:\n      tag_67\n      jump\t// in\n    tag_64:\n      mload(0x40)\n      tag_68\n      swap2\n      swap1\n      tag_29\n      jump\t// in\n    tag_68:\n      mload(0x40)\n      dup1\n      swap2\n      sub\n      swap1\n      return\n        /* \"@openzeppelin/contracts/token/ERC1155/ERC1155.sol\":3591:3942  function safeTransferFrom(address from, address to, uint256 id, uint256 value, bytes memory data) public virtual {... */\n    tag_14:\n      tag_69\n      0x04\n      dup1\n      calldatasize\n      sub\n      dup2\n      add\n      swap1\n      tag_70\n      swap2\n      swap1\n      tag_71\n      jump\t// in\n    tag_70:\n      tag_72\n      jump\t// in\n    tag_69:\n      stop\n        /* \"@openzeppelin/contracts/access/Ownable.sol\":2543:2758  function transferOwnership(address newOwner) public virtual onlyOwner {... */\n    tag_15:\n      tag_73\n      0x04\n      dup1\n      calldatasize\n      sub\n      dup2\n      add\n      swap1\n      tag_74\n      swap2\n      swap1\n      tag_75\n      jump\t// in\n    tag_74:\n      tag_76\n      jump\t// in\n    tag_73:\n      stop\n        /* \"@openzeppelin/contracts/token/ERC1155/ERC1155.sol\":2247:2379  function balanceOf(address account, uint256 id) public view virtual returns (uint256) {... */\n    tag_21:\n        /* \"@openzeppelin/contracts/token/ERC1155/ERC1155.sol\":2324:2331  uint256 */\n      0x00\n        /* \"@openzeppelin/contracts/token/ERC1155/ERC1155.sol\":2350:2359  _balances */\n      dup1\n        /* \"@openzeppelin/contracts/token/ERC1155/ERC1155.sol\":2350:2363  _balances[id] */\n      0x00\n        /* \"@openzeppelin/contracts/token/ERC1155/ERC1155.sol\":2360:2362  id */\n      dup4\n        /* \"@openzeppelin/contracts/token/ERC1155/ERC1155.sol\":2350:2363  _balances[id] */\n      dup2\n      mstore\n      0x20\n      add\n      swap1\n      dup2\n      mstore\n      0x20\n      add\n      0x00\n      keccak256\n        /* \"@openzeppelin/contracts/token/ERC1155/ERC1155.sol\":2350:2372  _balances[id][account] */\n      0x00\n        /* \"@openzeppelin/contracts/token/ERC1155/ERC1155.sol\":2364:2371  account */\n      dup5\n        /* \"@openzeppelin/contracts/token/ERC1155/ERC1155.sol\":2350:2372  _balances[id][account] */\n      0xffffffffffffffffffffffffffffffffffffffff\n      and\n      0xffffffffffffffffffffffffffffffffffffffff\n      and\n      dup2\n      mstore\n      0x20\n      add\n      swap1\n      dup2\n      mstore\n      0x20\n      add\n      0x00\n      keccak256\n      sload\n        /* \"@openzeppelin/contracts/token/ERC1155/ERC1155.sol\":2343:2372  return _balances[id][account] */\n      swap1\n      pop\n        /* \"@openzeppelin/contracts/token/ERC1155/ERC1155.sol\":2247:2379  function balanceOf(address account, uint256 id) public view virtual returns (uint256) {... */\n      swap3\n      swap2\n      pop\n      pop\n      jump\t// out\n        /* \"@openzeppelin/contracts/token/ERC1155/ERC1155.sol\":1380:1685  function supportsInterface(bytes4 interfaceId) public view virtual override(ERC165, IERC165) returns (bool) {... */\n    tag_27:\n        /* \"@openzeppelin/contracts/token/ERC1155/ERC1155.sol\":1482:1486  bool */\n      0x00\n        /* \"@openzeppelin/contracts/token/ERC1155/ERC1155.sol\":1532:1558  type(IERC1155).interfaceId */\n      0xd9b67a2600000000000000000000000000000000000000000000000000000000\n        /* \"@openzeppelin/contracts/token/ERC1155/ERC1155.sol\":1517:1558  interfaceId == type(IERC1155).interfaceId */\n      not(0xffffffffffffffffffffffffffffffffffffffffffffffffffffffff)\n      and\n        /* \"@openzeppelin/contracts/token/ERC1155/ERC1155.sol\":1517:1528  interfaceId */\n      dup3\n        /* \"@openzeppelin/contracts/token/ERC1155/ERC1155.sol\":1517:1558  interfaceId == type(IERC1155).interfaceId */\n      not(0xffffffffffffffffffffffffffffffffffffffffffffffffffffffff)\n      and\n      eq\n        /* \"@openzeppelin/contracts/token/ERC1155/ERC1155.sol\":1517:1626  interfaceId == type(IERC1155).interfaceId ||... */\n      dup1\n      tag_79\n      jumpi\n      pop\n        /* \"@openzeppelin/contracts/token/ERC1155/ERC1155.sol\":1589:1626  type(IERC1155MetadataURI).interfaceId */\n      0x0e89341c00000000000000000000000000000000000000000000000000000000\n        /* \"@openzeppelin/contracts/token/ERC1155/ERC1155.sol\":1574:1626  interfaceId == type(IERC1155MetadataURI).interfaceId */\n      not(0xffffffffffffffffffffffffffffffffffffffffffffffffffffffff)\n      and\n        /* \"@openzeppelin/contracts/token/ERC1155/ERC1155.sol\":1574:1585  interfaceId */\n      dup3\n        /* \"@openzeppelin/contracts/token/ERC1155/ERC1155.sol\":1574:1626  interfaceId == type(IERC1155MetadataURI).interfaceId */\n      not(0xffffffffffffffffffffffffffffffffffffffffffffffffffffffff)\n      and\n      eq\n        /* \"@openzeppelin/contracts/token/ERC1155/ERC1155.sol\":1517:1626  interfaceId == type(IERC1155).interfaceId ||... */\n    tag_79:\n        /* \"@openzeppelin/contracts/token/ERC1155/ERC1155.sol\":1517:1678  interfaceId == type(IERC1155).interfaceId ||... */\n      dup1\n      tag_80\n      jumpi\n      pop\n        /* \"@openzeppelin/contracts/token/ERC1155/ERC1155.sol\":1642:1678  super.supportsInterface(interfaceId) */\n      tag_81\n        /* \"@openzeppelin/contracts/token/ERC1155/ERC1155.sol\":1666:1677  interfaceId */\n      dup3\n        /* \"@openzeppelin/contracts/token/ERC1155/ERC1155.sol\":1642:1665  super.supportsInterface */\n      tag_82\n        /* \"@openzeppelin/contracts/token/ERC1155/ERC1155.sol\":1642:1678  super.supportsInterface(interfaceId) */\n      jump\t// in\n    tag_81:\n        /* \"@openzeppelin/contracts/token/ERC1155/ERC1155.sol\":1517:1678  interfaceId == type(IERC1155).interfaceId ||... */\n    tag_80:\n        /* \"@openzeppelin/contracts/token/ERC1155/ERC1155.sol\":1498:1678  return... */\n      swap1\n      pop\n        /* \"@openzeppelin/contracts/token/ERC1155/ERC1155.sol\":1380:1685  function supportsInterface(bytes4 interfaceId) public view virtual override(ERC165, IERC165) returns (bool) {... */\n      swap2\n      swap1\n      pop\n      jump\t// out\n        /* \"contracts/my_contract_calyptus/ERC1155Token.sol\":296:383  function setURI(string memory newuri) public onlyOwner {... */\n    tag_33:\n        /* \"@openzeppelin/contracts/access/Ownable.sol\":1531:1544  _checkOwner() */\n      tag_84\n        /* \"@openzeppelin/contracts/access/Ownable.sol\":1531:1542  _checkOwner */\n      tag_85\n        /* \"@openzeppelin/contracts/access/Ownable.sol\":1531:1544  _checkOwner() */\n      jump\t// in\n    tag_84:\n        /* \"contracts/my_contract_calyptus/ERC1155Token.sol\":361:376  _setURI(newuri) */\n      tag_87\n        /* \"contracts/my_contract_calyptus/ERC1155Token.sol\":369:375  newuri */\n      dup2\n        /* \"contracts/my_contract_calyptus/ERC1155Token.sol\":361:368  _setURI */\n      tag_88\n        /* \"contracts/my_contract_calyptus/ERC1155Token.sol\":361:376  _setURI(newuri) */\n      jump\t// in\n    tag_87:\n        /* \"contracts/my_contract_calyptus/ERC1155Token.sol\":296:383  function setURI(string memory newuri) public onlyOwner {... */\n      pop\n      jump\t// out\n        /* \"contracts/my_contract_calyptus/ERC1155Token.sol\":389:509  function mint(uint256 id, uint256 amount, bytes memory data) public {... */\n    tag_37:\n        /* \"contracts/my_contract_calyptus/ERC1155Token.sol\":467:502  _mint(msg.sender, id, amount, data) */\n      tag_90\n        /* \"contracts/my_contract_calyptus/ERC1155Token.sol\":473:483  msg.sender */\n      caller\n        /* \"contracts/my_contract_calyptus/ERC1155Token.sol\":485:487  id */\n      dup5\n        /* \"contracts/my_contract_calyptus/ERC1155Token.sol\":489:495  amount */\n      dup5\n        /* \"contracts/my_contract_calyptus/ERC1155Token.sol\":497:501  data */\n      dup5\n        /* \"contracts/my_contract_calyptus/ERC1155Token.sol\":467:472  _mint */\n      tag_91\n        /* \"contracts/my_contract_calyptus/ERC1155Token.sol\":467:502  _mint(msg.sender, id, amount, data) */\n      jump\t// in\n    tag_90:\n        /* \"contracts/my_contract_calyptus/ERC1155Token.sol\":389:509  function mint(uint256 id, uint256 amount, bytes memory data) public {... */\n      pop\n      pop\n      pop\n      jump\t// out\n        /* \"@openzeppelin/contracts/token/ERC1155/ERC1155.sol\":2084:2187  function uri(uint256 /* id */) public view virtual returns (string memory) {... */\n    tag_41:\n        /* \"@openzeppelin/contracts/token/ERC1155/ERC1155.sol\":2144:2157  string memory */\n      0x60\n        /* \"@openzeppelin/contracts/token/ERC1155/ERC1155.sol\":2176:2180  _uri */\n      0x02\n        /* \"@openzeppelin/contracts/token/ERC1155/ERC1155.sol\":2169:2180  return _uri */\n      dup1\n      sload\n      tag_93\n      swap1\n      tag_94\n      jump\t// in\n    tag_93:\n      dup1\n      0x1f\n      add\n      0x20\n      dup1\n      swap2\n      div\n      mul\n      0x20\n      add\n      mload(0x40)\n      swap1\n      dup2\n      add\n      0x40\n      mstore\n      dup1\n      swap3\n      swap2\n      swap1\n      dup2\n      dup2\n      mstore\n      0x20\n      add\n      dup3\n      dup1\n      sload\n      tag_95\n      swap1\n      tag_94\n      jump\t// in\n    tag_95:\n      dup1\n      iszero\n      tag_96\n      jumpi\n      dup1\n      0x1f\n      lt\n      tag_97\n      jumpi\n      0x0100\n      dup1\n      dup4\n      sload\n      div\n      mul\n      dup4\n      mstore\n      swap2\n      0x20\n      add\n      swap2\n      jump(tag_96)\n    tag_97:\n      dup3\n      add\n      swap2\n      swap1\n      0x00\n      mstore\n      keccak256(0x00, 0x20)\n      swap1\n    tag_98:\n      dup2\n      sload\n      dup2\n      mstore\n      swap1\n      0x01\n      add\n      swap1\n      0x20\n      add\n      dup1\n      dup4\n      gt\n      tag_98\n      jumpi\n      dup3\n      swap1\n      sub\n      0x1f\n      and\n      dup3\n      add\n      swap2\n    tag_96:\n      pop\n      pop\n      pop\n      pop\n      pop\n      swap1\n      pop\n        /* \"@openzeppelin/contracts/token/ERC1155/ERC1155.sol\":2084:2187  function uri(uint256 /* id */) public view virtual returns (string memory) {... */\n      swap2\n      swap1\n      pop\n      jump\t// out\n        /* \"@openzeppelin/contracts/token/ERC1155/ERC1155.sol\":4014:4443  function safeBatchTransferFrom(... */\n    tag_47:\n        /* \"@openzeppelin/contracts/token/ERC1155/ERC1155.sol\":4208:4222  address sender */\n      0x00\n        /* \"@openzeppelin/contracts/token/ERC1155/ERC1155.sol\":4225:4237  _msgSender() */\n      tag_100\n        /* \"@openzeppelin/contracts/token/ERC1155/ERC1155.sol\":4225:4235  _msgSender */\n      tag_101\n        /* \"@openzeppelin/contracts/token/ERC1155/ERC1155.sol\":4225:4237  _msgSender() */\n      jump\t// in\n    tag_100:\n        /* \"@openzeppelin/contracts/token/ERC1155/ERC1155.sol\":4208:4237  address sender = _msgSender() */\n      swap1\n      pop\n        /* \"@openzeppelin/contracts/token/ERC1155/ERC1155.sol\":4259:4265  sender */\n      dup1\n        /* \"@openzeppelin/contracts/token/ERC1155/ERC1155.sol\":4251:4265  from != sender */\n      0xffffffffffffffffffffffffffffffffffffffff\n      and\n        /* \"@openzeppelin/contracts/token/ERC1155/ERC1155.sol\":4251:4255  from */\n      dup7\n        /* \"@openzeppelin/contracts/token/ERC1155/ERC1155.sol\":4251:4265  from != sender */\n      0xffffffffffffffffffffffffffffffffffffffff\n      and\n      eq\n      iszero\n        /* \"@openzeppelin/contracts/token/ERC1155/ERC1155.sol\":4251:4300  from != sender && !isApprovedForAll(from, sender) */\n      dup1\n      iszero\n      tag_102\n      jumpi\n      pop\n        /* \"@openzeppelin/contracts/token/ERC1155/ERC1155.sol\":4270:4300  isApprovedForAll(from, sender) */\n      tag_103\n        /* \"@openzeppelin/contracts/token/ERC1155/ERC1155.sol\":4287:4291  from */\n      dup7\n        /* \"@openzeppelin/contracts/token/ERC1155/ERC1155.sol\":4293:4299  sender */\n      dup3\n        /* \"@openzeppelin/contracts/token/ERC1155/ERC1155.sol\":4270:4286  isApprovedForAll */\n      tag_67\n        /* \"@openzeppelin/contracts/token/ERC1155/ERC1155.sol\":4270:4300  isApprovedForAll(from, sender) */\n      jump\t// in\n    tag_103:\n        /* \"@openzeppelin/contracts/token/ERC1155/ERC1155.sol\":4269:4300  !isApprovedForAll(from, sender) */\n      iszero\n        /* \"@openzeppelin/contracts/token/ERC1155/ERC1155.sol\":4251:4300  from != sender && !isApprovedForAll(from, sender) */\n    tag_102:\n        /* \"@openzeppelin/contracts/token/ERC1155/ERC1155.sol\":4247:4376  if (from != sender && !isApprovedForAll(from, sender)) {... */\n      iszero\n      tag_104\n      jumpi\n        /* \"@openzeppelin/contracts/token/ERC1155/ERC1155.sol\":4352:4358  sender */\n      dup1\n        /* \"@openzeppelin/contracts/token/ERC1155/ERC1155.sol\":4360:4364  from */\n      dup7\n        /* \"@openzeppelin/contracts/token/ERC1155/ERC1155.sol\":4323:4365  ERC1155MissingApprovalForAll(sender, from) */\n      mload(0x40)\n      0xe237d92200000000000000000000000000000000000000000000000000000000\n      dup2\n      mstore\n      0x04\n      add\n      tag_105\n      swap3\n      swap2\n      swap1\n      tag_106\n      jump\t// in\n    tag_105:\n      mload(0x40)\n      dup1\n      swap2\n      sub\n      swap1\n      revert\n        /* \"@openzeppelin/contracts/token/ERC1155/ERC1155.sol\":4247:4376  if (from != sender && !isApprovedForAll(from, sender)) {... */\n    tag_104:\n        /* \"@openzeppelin/contracts/token/ERC1155/ERC1155.sol\":4385:4436  _safeBatchTransferFrom(from, to, ids, values, data) */\n      tag_107\n        /* \"@openzeppelin/contracts/token/ERC1155/ERC1155.sol\":4408:4412  from */\n      dup7\n        /* \"@openzeppelin/contracts/token/ERC1155/ERC1155.sol\":4414:4416  to */\n      dup7\n        /* \"@openzeppelin/contracts/token/ERC1155/ERC1155.sol\":4418:4421  ids */\n      dup7\n        /* \"@openzeppelin/contracts/token/ERC1155/ERC1155.sol\":4423:4429  values */\n      dup7\n        /* \"@openzeppelin/contracts/token/ERC1155/ERC1155.sol\":4431:4435  data */\n      dup7\n        /* \"@openzeppelin/contracts/token/ERC1155/ERC1155.sol\":4385:4407  _safeBatchTransferFrom */\n      tag_108\n        /* \"@openzeppelin/contracts/token/ERC1155/ERC1155.sol\":4385:4436  _safeBatchTransferFrom(from, to, ids, values, data) */\n      jump\t// in\n    tag_107:\n        /* \"@openzeppelin/contracts/token/ERC1155/ERC1155.sol\":4198:4443  {... */\n      pop\n        /* \"@openzeppelin/contracts/token/ERC1155/ERC1155.sol\":4014:4443  function safeBatchTransferFrom(... */\n      pop\n      pop\n      pop\n      pop\n      pop\n      jump\t// out\n        /* \"@openzeppelin/contracts/token/ERC1155/ERC1155.sol\":2536:3088  function balanceOfBatch(... */\n    tag_51:\n        /* \"@openzeppelin/contracts/token/ERC1155/ERC1155.sol\":2660:2676  uint256[] memory */\n      0x60\n        /* \"@openzeppelin/contracts/token/ERC1155/ERC1155.sol\":2711:2714  ids */\n      dup2\n        /* \"@openzeppelin/contracts/token/ERC1155/ERC1155.sol\":2711:2721  ids.length */\n      mload\n        /* \"@openzeppelin/contracts/token/ERC1155/ERC1155.sol\":2692:2700  accounts */\n      dup4\n        /* \"@openzeppelin/contracts/token/ERC1155/ERC1155.sol\":2692:2707  accounts.length */\n      mload\n        /* \"@openzeppelin/contracts/token/ERC1155/ERC1155.sol\":2692:2721  accounts.length != ids.length */\n      eq\n        /* \"@openzeppelin/contracts/token/ERC1155/ERC1155.sol\":2688:2809  if (accounts.length != ids.length) {... */\n      tag_110\n      jumpi\n        /* \"@openzeppelin/contracts/token/ERC1155/ERC1155.sol\":2770:2773  ids */\n      dup2\n        /* \"@openzeppelin/contracts/token/ERC1155/ERC1155.sol\":2770:2780  ids.length */\n      mload\n        /* \"@openzeppelin/contracts/token/ERC1155/ERC1155.sol\":2782:2790  accounts */\n      dup4\n        /* \"@openzeppelin/contracts/token/ERC1155/ERC1155.sol\":2782:2797  accounts.length */\n      mload\n        /* \"@openzeppelin/contracts/token/ERC1155/ERC1155.sol\":2744:2798  ERC1155InvalidArrayLength(ids.length, accounts.length) */\n      mload(0x40)\n      0x5b05999100000000000000000000000000000000000000000000000000000000\n      dup2\n      mstore\n      0x04\n      add\n      tag_111\n      swap3\n      swap2\n      swap1\n      tag_112\n      jump\t// in\n    tag_111:\n      mload(0x40)\n      dup1\n      swap2\n      sub\n      swap1\n      revert\n        /* \"@openzeppelin/contracts/token/ERC1155/ERC1155.sol\":2688:2809  if (accounts.length != ids.length) {... */\n    tag_110:\n        /* \"@openzeppelin/contracts/token/ERC1155/ERC1155.sol\":2819:2849  uint256[] memory batchBalances */\n      0x00\n        /* \"@openzeppelin/contracts/token/ERC1155/ERC1155.sol\":2866:2874  accounts */\n      dup4\n        /* \"@openzeppelin/contracts/token/ERC1155/ERC1155.sol\":2866:2881  accounts.length */\n      mload\n        /* \"@openzeppelin/contracts/token/ERC1155/ERC1155.sol\":2852:2882  new uint256[](accounts.length) */\n      0xffffffffffffffff\n      dup2\n      gt\n      iszero\n      tag_113\n      jumpi\n      tag_114\n      tag_115\n      jump\t// in\n    tag_114:\n    tag_113:\n      mload(0x40)\n      swap1\n      dup1\n      dup3\n      mstore\n      dup1\n      0x20\n      mul\n      0x20\n      add\n      dup3\n      add\n      0x40\n      mstore\n      dup1\n      iszero\n      tag_116\n      jumpi\n      dup2\n      0x20\n      add\n      0x20\n      dup3\n      mul\n      dup1\n      calldatasize\n      dup4\n      calldatacopy\n      dup1\n      dup3\n      add\n      swap2\n      pop\n      pop\n      swap1\n      pop\n    tag_116:\n      pop\n        /* \"@openzeppelin/contracts/token/ERC1155/ERC1155.sol\":2819:2882  uint256[] memory batchBalances = new uint256[](accounts.length) */\n      swap1\n      pop\n        /* \"@openzeppelin/contracts/token/ERC1155/ERC1155.sol\":2898:2907  uint256 i */\n      0x00\n        /* \"@openzeppelin/contracts/token/ERC1155/ERC1155.sol\":2893:3051  for (uint256 i = 0; i < accounts.length; ++i) {... */\n    tag_117:\n        /* \"@openzeppelin/contracts/token/ERC1155/ERC1155.sol\":2917:2925  accounts */\n      dup5\n        /* \"@openzeppelin/contracts/token/ERC1155/ERC1155.sol\":2917:2932  accounts.length */\n      mload\n        /* \"@openzeppelin/contracts/token/ERC1155/ERC1155.sol\":2913:2914  i */\n      dup2\n        /* \"@openzeppelin/contracts/token/ERC1155/ERC1155.sol\":2913:2932  i < accounts.length */\n      lt\n        /* \"@openzeppelin/contracts/token/ERC1155/ERC1155.sol\":2893:3051  for (uint256 i = 0; i < accounts.length; ++i) {... */\n      iszero\n      tag_118\n      jumpi\n        /* \"@openzeppelin/contracts/token/ERC1155/ERC1155.sol\":2972:3040  balanceOf(accounts.unsafeMemoryAccess(i), ids.unsafeMemoryAccess(i)) */\n      tag_120\n        /* \"@openzeppelin/contracts/token/ERC1155/ERC1155.sol\":2982:3012  accounts.unsafeMemoryAccess(i) */\n      tag_121\n        /* \"@openzeppelin/contracts/token/ERC1155/ERC1155.sol\":3010:3011  i */\n      dup3\n        /* \"@openzeppelin/contracts/token/ERC1155/ERC1155.sol\":2982:2990  accounts */\n      dup8\n        /* \"@openzeppelin/contracts/token/ERC1155/ERC1155.sol\":2982:3009  accounts.unsafeMemoryAccess */\n      tag_122\n      swap1\n        /* \"@openzeppelin/contracts/token/ERC1155/ERC1155.sol\":2982:3012  accounts.unsafeMemoryAccess(i) */\n      swap2\n      swap1\n      0xffffffff\n      and\n      jump\t// in\n    tag_121:\n        /* \"@openzeppelin/contracts/token/ERC1155/ERC1155.sol\":3014:3039  ids.unsafeMemoryAccess(i) */\n      tag_123\n        /* \"@openzeppelin/contracts/token/ERC1155/ERC1155.sol\":3037:3038  i */\n      dup4\n        /* \"@openzeppelin/contracts/token/ERC1155/ERC1155.sol\":3014:3017  ids */\n      dup8\n        /* \"@openzeppelin/contracts/token/ERC1155/ERC1155.sol\":3014:3036  ids.unsafeMemoryAccess */\n      tag_124\n      swap1\n        /* \"@openzeppelin/contracts/token/ERC1155/ERC1155.sol\":3014:3039  ids.unsafeMemoryAccess(i) */\n      swap2\n      swap1\n      0xffffffff\n      and\n      jump\t// in\n    tag_123:\n        /* \"@openzeppelin/contracts/token/ERC1155/ERC1155.sol\":2972:2981  balanceOf */\n      tag_21\n        /* \"@openzeppelin/contracts/token/ERC1155/ERC1155.sol\":2972:3040  balanceOf(accounts.unsafeMemoryAccess(i), ids.unsafeMemoryAccess(i)) */\n      jump\t// in\n    tag_120:\n        /* \"@openzeppelin/contracts/token/ERC1155/ERC1155.sol\":2953:2966  batchBalances */\n      dup3\n        /* \"@openzeppelin/contracts/token/ERC1155/ERC1155.sol\":2967:2968  i */\n      dup3\n        /* \"@openzeppelin/contracts/token/ERC1155/ERC1155.sol\":2953:2969  batchBalances[i] */\n      dup2\n      mload\n      dup2\n      lt\n      tag_125\n      jumpi\n      tag_126\n      tag_127\n      jump\t// in\n    tag_126:\n    tag_125:\n      0x20\n      mul\n      0x20\n      add\n      add\n        /* \"@openzeppelin/contracts/token/ERC1155/ERC1155.sol\":2953:3040  batchBalances[i] = balanceOf(accounts.unsafeMemoryAccess(i), ids.unsafeMemoryAccess(i)) */\n      dup2\n      dup2\n      mstore\n      pop\n      pop\n        /* \"@openzeppelin/contracts/token/ERC1155/ERC1155.sol\":2934:2937  ++i */\n      dup1\n      tag_128\n      swap1\n      tag_129\n      jump\t// in\n    tag_128:\n      swap1\n      pop\n        /* \"@openzeppelin/contracts/token/ERC1155/ERC1155.sol\":2893:3051  for (uint256 i = 0; i < accounts.length; ++i) {... */\n      jump(tag_117)\n    tag_118:\n      pop\n        /* \"@openzeppelin/contracts/token/ERC1155/ERC1155.sol\":3068:3081  batchBalances */\n      dup1\n        /* \"@openzeppelin/contracts/token/ERC1155/ERC1155.sol\":3061:3081  return batchBalances */\n      swap2\n      pop\n      pop\n        /* \"@openzeppelin/contracts/token/ERC1155/ERC1155.sol\":2536:3088  function balanceOfBatch(... */\n      swap3\n      swap2\n      pop\n      pop\n      jump\t// out\n        /* \"@openzeppelin/contracts/access/Ownable.sol\":2293:2394  function renounceOwnership() public virtual onlyOwner {... */\n    tag_55:\n        /* \"@openzeppelin/contracts/access/Ownable.sol\":1531:1544  _checkOwner() */\n      tag_131\n        /* \"@openzeppelin/contracts/access/Ownable.sol\":1531:1542  _checkOwner */\n      tag_85\n        /* \"@openzeppelin/contracts/access/Ownable.sol\":1531:1544  _checkOwner() */\n      jump\t// in\n    tag_131:\n        /* \"@openzeppelin/contracts/access/Ownable.sol\":2357:2387  _transferOwnership(address(0)) */\n      tag_133\n        /* \"@openzeppelin/contracts/access/Ownable.sol\":2384:2385  0 */\n      0x00\n        /* \"@openzeppelin/contracts/access/Ownable.sol\":2357:2375  _transferOwnership */\n      tag_134\n        /* \"@openzeppelin/contracts/access/Ownable.sol\":2357:2387  _transferOwnership(address(0)) */\n      jump\t// in\n    tag_133:\n        /* \"@openzeppelin/contracts/access/Ownable.sol\":2293:2394  function renounceOwnership() public virtual onlyOwner {... */\n      jump\t// out\n        /* \"@openzeppelin/contracts/access/Ownable.sol\":1638:1723  function owner() public view virtual returns (address) {... */\n    tag_57:\n        /* \"@openzeppelin/contracts/access/Ownable.sol\":1684:1691  address */\n      0x00\n        /* \"@openzeppelin/contracts/access/Ownable.sol\":1710:1716  _owner */\n      0x03\n      0x00\n      swap1\n      sload\n      swap1\n      0x0100\n      exp\n      swap1\n      div\n      0xffffffffffffffffffffffffffffffffffffffff\n      and\n        /* \"@openzeppelin/contracts/access/Ownable.sol\":1703:1716  return _owner */\n      swap1\n      pop\n        /* \"@openzeppelin/contracts/access/Ownable.sol\":1638:1723  function owner() public view virtual returns (address) {... */\n      swap1\n      jump\t// out\n        /* \"@openzeppelin/contracts/token/ERC1155/ERC1155.sol\":3156:3300  function setApprovalForAll(address operator, bool approved) public virtual {... */\n    tag_63:\n        /* \"@openzeppelin/contracts/token/ERC1155/ERC1155.sol\":3241:3293  _setApprovalForAll(_msgSender(), operator, approved) */\n      tag_137\n        /* \"@openzeppelin/contracts/token/ERC1155/ERC1155.sol\":3260:3272  _msgSender() */\n      tag_138\n        /* \"@openzeppelin/contracts/token/ERC1155/ERC1155.sol\":3260:3270  _msgSender */\n      tag_101\n        /* \"@openzeppelin/contracts/token/ERC1155/ERC1155.sol\":3260:3272  _msgSender() */\n      jump\t// in\n    tag_138:\n        /* \"@openzeppelin/contracts/token/ERC1155/ERC1155.sol\":3274:3282  operator */\n      dup4\n        /* \"@openzeppelin/contracts/token/ERC1155/ERC1155.sol\":3284:3292  approved */\n      dup4\n        /* \"@openzeppelin/contracts/token/ERC1155/ERC1155.sol\":3241:3259  _setApprovalForAll */\n      tag_139\n        /* \"@openzeppelin/contracts/token/ERC1155/ERC1155.sol\":3241:3293  _setApprovalForAll(_msgSender(), operator, approved) */\n      jump\t// in\n    tag_137:\n        /* \"@openzeppelin/contracts/token/ERC1155/ERC1155.sol\":3156:3300  function setApprovalForAll(address operator, bool approved) public virtual {... */\n      pop\n      pop\n      jump\t// out\n        /* \"@openzeppelin/contracts/token/ERC1155/ERC1155.sol\":3367:3524  function isApprovedForAll(address account, address operator) public view virtual returns (bool) {... */\n    tag_67:\n        /* \"@openzeppelin/contracts/token/ERC1155/ERC1155.sol\":3457:3461  bool */\n      0x00\n        /* \"@openzeppelin/contracts/token/ERC1155/ERC1155.sol\":3480:3498  _operatorApprovals */\n      0x01\n        /* \"@openzeppelin/contracts/token/ERC1155/ERC1155.sol\":3480:3507  _operatorApprovals[account] */\n      0x00\n        /* \"@openzeppelin/contracts/token/ERC1155/ERC1155.sol\":3499:3506  account */\n      dup5\n        /* \"@openzeppelin/contracts/token/ERC1155/ERC1155.sol\":3480:3507  _operatorApprovals[account] */\n      0xffffffffffffffffffffffffffffffffffffffff\n      and\n      0xffffffffffffffffffffffffffffffffffffffff\n      and\n      dup2\n      mstore\n      0x20\n      add\n      swap1\n      dup2\n      mstore\n      0x20\n      add\n      0x00\n      keccak256\n        /* \"@openzeppelin/contracts/token/ERC1155/ERC1155.sol\":3480:3517  _operatorApprovals[account][operator] */\n      0x00\n        /* \"@openzeppelin/contracts/token/ERC1155/ERC1155.sol\":3508:3516  operator */\n      dup4\n        /* \"@openzeppelin/contracts/token/ERC1155/ERC1155.sol\":3480:3517  _operatorApprovals[account][operator] */\n      0xffffffffffffffffffffffffffffffffffffffff\n      and\n      0xffffffffffffffffffffffffffffffffffffffff\n      and\n      dup2\n      mstore\n      0x20\n      add\n      swap1\n      dup2\n      mstore\n      0x20\n      add\n      0x00\n      keccak256\n      0x00\n      swap1\n      sload\n      swap1\n      0x0100\n      exp\n      swap1\n      div\n      0xff\n      and\n        /* \"@openzeppelin/contracts/token/ERC1155/ERC1155.sol\":3473:3517  return _operatorApprovals[account][operator] */\n      swap1\n      pop\n        /* \"@openzeppelin/contracts/token/ERC1155/ERC1155.sol\":3367:3524  function isApprovedForAll(address account, address operator) public view virtual returns (bool) {... */\n      swap3\n      swap2\n      pop\n      pop\n      jump\t// out\n        /* \"@openzeppelin/contracts/token/ERC1155/ERC1155.sol\":3591:3942  function safeTransferFrom(address from, address to, uint256 id, uint256 value, bytes memory data) public virtual {... */\n    tag_72:\n        /* \"@openzeppelin/contracts/token/ERC1155/ERC1155.sol\":3714:3728  address sender */\n      0x00\n        /* \"@openzeppelin/contracts/token/ERC1155/ERC1155.sol\":3731:3743  _msgSender() */\n      tag_142\n        /* \"@openzeppelin/contracts/token/ERC1155/ERC1155.sol\":3731:3741  _msgSender */\n      tag_101\n        /* \"@openzeppelin/contracts/token/ERC1155/ERC1155.sol\":3731:3743  _msgSender() */\n      jump\t// in\n    tag_142:\n        /* \"@openzeppelin/contracts/token/ERC1155/ERC1155.sol\":3714:3743  address sender = _msgSender() */\n      swap1\n      pop\n        /* \"@openzeppelin/contracts/token/ERC1155/ERC1155.sol\":3765:3771  sender */\n      dup1\n        /* \"@openzeppelin/contracts/token/ERC1155/ERC1155.sol\":3757:3771  from != sender */\n      0xffffffffffffffffffffffffffffffffffffffff\n      and\n        /* \"@openzeppelin/contracts/token/ERC1155/ERC1155.sol\":3757:3761  from */\n      dup7\n        /* \"@openzeppelin/contracts/token/ERC1155/ERC1155.sol\":3757:3771  from != sender */\n      0xffffffffffffffffffffffffffffffffffffffff\n      and\n      eq\n      iszero\n        /* \"@openzeppelin/contracts/token/ERC1155/ERC1155.sol\":3757:3806  from != sender && !isApprovedForAll(from, sender) */\n      dup1\n      iszero\n      tag_143\n      jumpi\n      pop\n        /* \"@openzeppelin/contracts/token/ERC1155/ERC1155.sol\":3776:3806  isApprovedForAll(from, sender) */\n      tag_144\n        /* \"@openzeppelin/contracts/token/ERC1155/ERC1155.sol\":3793:3797  from */\n      dup7\n        /* \"@openzeppelin/contracts/token/ERC1155/ERC1155.sol\":3799:3805  sender */\n      dup3\n        /* \"@openzeppelin/contracts/token/ERC1155/ERC1155.sol\":3776:3792  isApprovedForAll */\n      tag_67\n        /* \"@openzeppelin/contracts/token/ERC1155/ERC1155.sol\":3776:3806  isApprovedForAll(from, sender) */\n      jump\t// in\n    tag_144:\n        /* \"@openzeppelin/contracts/token/ERC1155/ERC1155.sol\":3775:3806  !isApprovedForAll(from, sender) */\n      iszero\n        /* \"@openzeppelin/contracts/token/ERC1155/ERC1155.sol\":3757:3806  from != sender && !isApprovedForAll(from, sender) */\n    tag_143:\n        /* \"@openzeppelin/contracts/token/ERC1155/ERC1155.sol\":3753:3882  if (from != sender && !isApprovedForAll(from, sender)) {... */\n      iszero\n      tag_145\n      jumpi\n        /* \"@openzeppelin/contracts/token/ERC1155/ERC1155.sol\":3858:3864  sender */\n      dup1\n        /* \"@openzeppelin/contracts/token/ERC1155/ERC1155.sol\":3866:3870  from */\n      dup7\n        /* \"@openzeppelin/contracts/token/ERC1155/ERC1155.sol\":3829:3871  ERC1155MissingApprovalForAll(sender, from) */\n      mload(0x40)\n      0xe237d92200000000000000000000000000000000000000000000000000000000\n      dup2\n      mstore\n      0x04\n      add\n      tag_146\n      swap3\n      swap2\n      swap1\n      tag_106\n      jump\t// in\n    tag_146:\n      mload(0x40)\n      dup1\n      swap2\n      sub\n      swap1\n      revert\n        /* \"@openzeppelin/contracts/token/ERC1155/ERC1155.sol\":3753:3882  if (from != sender && !isApprovedForAll(from, sender)) {... */\n    tag_145:\n        /* \"@openzeppelin/contracts/token/ERC1155/ERC1155.sol\":3891:3935  _safeTransferFrom(from, to, id, value, data) */\n      tag_147\n        /* \"@openzeppelin/contracts/token/ERC1155/ERC1155.sol\":3909:3913  from */\n      dup7\n        /* \"@openzeppelin/contracts/token/ERC1155/ERC1155.sol\":3915:3917  to */\n      dup7\n        /* \"@openzeppelin/contracts/token/ERC1155/ERC1155.sol\":3919:3921  id */\n      dup7\n        /* \"@openzeppelin/contracts/token/ERC1155/ERC1155.sol\":3923:3928  value */\n      dup7\n        /* \"@openzeppelin/contracts/token/ERC1155/ERC1155.sol\":3930:3934  data */\n      dup7\n        /* \"@openzeppelin/contracts/token/ERC1155/ERC1155.sol\":3891:3908  _safeTransferFrom */\n      tag_148\n        /* \"@openzeppelin/contracts/token/ERC1155/ERC1155.sol\":3891:3935  _safeTransferFrom(from, to, id, value, data) */\n      jump\t// in\n    tag_147:\n        /* \"@openzeppelin/contracts/token/ERC1155/ERC1155.sol\":3704:3942  {... */\n      pop\n        /* \"@openzeppelin/contracts/token/ERC1155/ERC1155.sol\":3591:3942  function safeTransferFrom(address from, address to, uint256 id, uint256 value, bytes memory data) public virtual {... */\n      pop\n      pop\n      pop\n      pop\n      pop\n      jump\t// out\n        /* \"@openzeppelin/contracts/access/Ownable.sol\":2543:2758  function transferOwnership(address newOwner) public virtual onlyOwner {... */\n    tag_76:\n        /* \"@openzeppelin/contracts/access/Ownable.sol\":1531:1544  _checkOwner() */\n      tag_150\n        /* \"@openzeppelin/contracts/access/Ownable.sol\":1531:1542  _checkOwner */\n      tag_85\n        /* \"@openzeppelin/contracts/access/Ownable.sol\":1531:1544  _checkOwner() */\n      jump\t// in\n    tag_150:\n        /* \"@openzeppelin/contracts/access/Ownable.sol\":2647:2648  0 */\n      0x00\n        /* \"@openzeppelin/contracts/access/Ownable.sol\":2627:2649  newOwner == address(0) */\n      0xffffffffffffffffffffffffffffffffffffffff\n      and\n        /* \"@openzeppelin/contracts/access/Ownable.sol\":2627:2635  newOwner */\n      dup2\n        /* \"@openzeppelin/contracts/access/Ownable.sol\":2627:2649  newOwner == address(0) */\n      0xffffffffffffffffffffffffffffffffffffffff\n      and\n      sub\n        /* \"@openzeppelin/contracts/access/Ownable.sol\":2623:2714  if (newOwner == address(0)) {... */\n      tag_152\n      jumpi\n        /* \"@openzeppelin/contracts/access/Ownable.sol\":2700:2701  0 */\n      0x00\n        /* \"@openzeppelin/contracts/access/Ownable.sol\":2672:2703  OwnableInvalidOwner(address(0)) */\n      mload(0x40)\n      0x1e4fbdf700000000000000000000000000000000000000000000000000000000\n      dup2\n      mstore\n      0x04\n      add\n      tag_153\n      swap2\n      swap1\n      tag_59\n      jump\t// in\n    tag_153:\n      mload(0x40)\n      dup1\n      swap2\n      sub\n      swap1\n      revert\n        /* \"@openzeppelin/contracts/access/Ownable.sol\":2623:2714  if (newOwner == address(0)) {... */\n    tag_152:\n        /* \"@openzeppelin/contracts/access/Ownable.sol\":2723:2751  _transferOwnership(newOwner) */\n      tag_154\n        /* \"@openzeppelin/contracts/access/Ownable.sol\":2742:2750  newOwner */\n      dup2\n        /* \"@openzeppelin/contracts/access/Ownable.sol\":2723:2741  _transferOwnership */\n      tag_134\n        /* \"@openzeppelin/contracts/access/Ownable.sol\":2723:2751  _transferOwnership(newOwner) */\n      jump\t// in\n    tag_154:\n        /* \"@openzeppelin/contracts/access/Ownable.sol\":2543:2758  function transferOwnership(address newOwner) public virtual onlyOwner {... */\n      pop\n      jump\t// out\n        /* \"@openzeppelin/contracts/utils/introspection/ERC165.sol\":762:908  function supportsInterface(bytes4 interfaceId) public view virtual returns (bool) {... */\n    tag_82:\n        /* \"@openzeppelin/contracts/utils/introspection/ERC165.sol\":838:842  bool */\n      0x00\n        /* \"@openzeppelin/contracts/utils/introspection/ERC165.sol\":876:901  type(IERC165).interfaceId */\n      0x01ffc9a700000000000000000000000000000000000000000000000000000000\n        /* \"@openzeppelin/contracts/utils/introspection/ERC165.sol\":861:901  interfaceId == type(IERC165).interfaceId */\n      not(0xffffffffffffffffffffffffffffffffffffffffffffffffffffffff)\n      and\n        /* \"@openzeppelin/contracts/utils/introspection/ERC165.sol\":861:872  interfaceId */\n      dup3\n        /* \"@openzeppelin/contracts/utils/introspection/ERC165.sol\":861:901  interfaceId == type(IERC165).interfaceId */\n      not(0xffffffffffffffffffffffffffffffffffffffffffffffffffffffff)\n      and\n      eq\n        /* \"@openzeppelin/contracts/utils/introspection/ERC165.sol\":854:901  return interfaceId == type(IERC165).interfaceId */\n      swap1\n      pop\n        /* \"@openzeppelin/contracts/utils/introspection/ERC165.sol\":762:908  function supportsInterface(bytes4 interfaceId) public view virtual returns (bool) {... */\n      swap2\n      swap1\n      pop\n      jump\t// out\n        /* \"@openzeppelin/contracts/access/Ownable.sol\":1796:1958  function _checkOwner() internal view virtual {... */\n    tag_85:\n        /* \"@openzeppelin/contracts/access/Ownable.sol\":1866:1878  _msgSender() */\n      tag_157\n        /* \"@openzeppelin/contracts/access/Ownable.sol\":1866:1876  _msgSender */\n      tag_101\n        /* \"@openzeppelin/contracts/access/Ownable.sol\":1866:1878  _msgSender() */\n      jump\t// in\n    tag_157:\n        /* \"@openzeppelin/contracts/access/Ownable.sol\":1855:1878  owner() != _msgSender() */\n      0xffffffffffffffffffffffffffffffffffffffff\n      and\n        /* \"@openzeppelin/contracts/access/Ownable.sol\":1855:1862  owner() */\n      tag_158\n        /* \"@openzeppelin/contracts/access/Ownable.sol\":1855:1860  owner */\n      tag_57\n        /* \"@openzeppelin/contracts/access/Ownable.sol\":1855:1862  owner() */\n      jump\t// in\n    tag_158:\n        /* \"@openzeppelin/contracts/access/Ownable.sol\":1855:1878  owner() != _msgSender() */\n      0xffffffffffffffffffffffffffffffffffffffff\n      and\n      eq\n        /* \"@openzeppelin/contracts/access/Ownable.sol\":1851:1952  if (owner() != _msgSender()) {... */\n      tag_159\n      jumpi\n        /* \"@openzeppelin/contracts/access/Ownable.sol\":1928:1940  _msgSender() */\n      tag_160\n        /* \"@openzeppelin/contracts/access/Ownable.sol\":1928:1938  _msgSender */\n      tag_101\n        /* \"@openzeppelin/contracts/access/Ownable.sol\":1928:1940  _msgSender() */\n      jump\t// in\n    tag_160:\n        /* \"@openzeppelin/contracts/access/Ownable.sol\":1901:1941  OwnableUnauthorizedAccount(_msgSender()) */\n      mload(0x40)\n      0x118cdaa700000000000000000000000000000000000000000000000000000000\n      dup2\n      mstore\n      0x04\n      add\n      tag_161\n      swap2\n      swap1\n      tag_59\n      jump\t// in\n    tag_161:\n      mload(0x40)\n      dup1\n      swap2\n      sub\n      swap1\n      revert\n        /* \"@openzeppelin/contracts/access/Ownable.sol\":1851:1952  if (owner() != _msgSender()) {... */\n    tag_159:\n        /* \"@openzeppelin/contracts/access/Ownable.sol\":1796:1958  function _checkOwner() internal view virtual {... */\n      jump\t// out\n        /* \"@openzeppelin/contracts/token/ERC1155/ERC1155.sol\":10282:10368  function _setURI(string memory newuri) internal virtual {... */\n    tag_88:\n        /* \"@openzeppelin/contracts/token/ERC1155/ERC1155.sol\":10355:10361  newuri */\n      dup1\n        /* \"@openzeppelin/contracts/token/ERC1155/ERC1155.sol\":10348:10352  _uri */\n      0x02\n        /* \"@openzeppelin/contracts/token/ERC1155/ERC1155.sol\":10348:10361  _uri = newuri */\n      swap1\n      dup2\n      tag_163\n      swap2\n      swap1\n      tag_164\n      jump\t// in\n    tag_163:\n      pop\n        /* \"@openzeppelin/contracts/token/ERC1155/ERC1155.sol\":10282:10368  function _setURI(string memory newuri) internal virtual {... */\n      pop\n      jump\t// out\n        /* \"@openzeppelin/contracts/token/ERC1155/ERC1155.sol\":10746:11092  function _mint(address to, uint256 id, uint256 value, bytes memory data) internal {... */\n    tag_91:\n        /* \"@openzeppelin/contracts/token/ERC1155/ERC1155.sol\":10856:10857  0 */\n      0x00\n        /* \"@openzeppelin/contracts/token/ERC1155/ERC1155.sol\":10842:10858  to == address(0) */\n      0xffffffffffffffffffffffffffffffffffffffff\n      and\n        /* \"@openzeppelin/contracts/token/ERC1155/ERC1155.sol\":10842:10844  to */\n      dup5\n        /* \"@openzeppelin/contracts/token/ERC1155/ERC1155.sol\":10842:10858  to == address(0) */\n      0xffffffffffffffffffffffffffffffffffffffff\n      and\n      sub\n        /* \"@openzeppelin/contracts/token/ERC1155/ERC1155.sol\":10838:10926  if (to == address(0)) {... */\n      tag_166\n      jumpi\n        /* \"@openzeppelin/contracts/token/ERC1155/ERC1155.sol\":10912:10913  0 */\n      0x00\n        /* \"@openzeppelin/contracts/token/ERC1155/ERC1155.sol\":10881:10915  ERC1155InvalidReceiver(address(0)) */\n      mload(0x40)\n      0x57f447ce00000000000000000000000000000000000000000000000000000000\n      dup2\n      mstore\n      0x04\n      add\n      tag_167\n      swap2\n      swap1\n      tag_59\n      jump\t// in\n    tag_167:\n      mload(0x40)\n      dup1\n      swap2\n      sub\n      swap1\n      revert\n        /* \"@openzeppelin/contracts/token/ERC1155/ERC1155.sol\":10838:10926  if (to == address(0)) {... */\n    tag_166:\n        /* \"@openzeppelin/contracts/token/ERC1155/ERC1155.sol\":10936:10956  uint256[] memory ids */\n      0x00\n        /* \"@openzeppelin/contracts/token/ERC1155/ERC1155.sol\":10958:10981  uint256[] memory values */\n      dup1\n        /* \"@openzeppelin/contracts/token/ERC1155/ERC1155.sol\":10985:11014  _asSingletonArrays(id, value) */\n      tag_168\n        /* \"@openzeppelin/contracts/token/ERC1155/ERC1155.sol\":11004:11006  id */\n      dup6\n        /* \"@openzeppelin/contracts/token/ERC1155/ERC1155.sol\":11008:11013  value */\n      dup6\n        /* \"@openzeppelin/contracts/token/ERC1155/ERC1155.sol\":10985:11003  _asSingletonArrays */\n      tag_169\n        /* \"@openzeppelin/contracts/token/ERC1155/ERC1155.sol\":10985:11014  _asSingletonArrays(id, value) */\n      jump\t// in\n    tag_168:\n        /* \"@openzeppelin/contracts/token/ERC1155/ERC1155.sol\":10935:11014  (uint256[] memory ids, uint256[] memory values) = _asSingletonArrays(id, value) */\n      swap2\n      pop\n      swap2\n      pop\n        /* \"@openzeppelin/contracts/token/ERC1155/ERC1155.sol\":11024:11085  _updateWithAcceptanceCheck(address(0), to, ids, values, data) */\n      tag_170\n        /* \"@openzeppelin/contracts/token/ERC1155/ERC1155.sol\":11059:11060  0 */\n      0x00\n        /* \"@openzeppelin/contracts/token/ERC1155/ERC1155.sol\":11063:11065  to */\n      dup8\n        /* \"@openzeppelin/contracts/token/ERC1155/ERC1155.sol\":11067:11070  ids */\n      dup5\n        /* \"@openzeppelin/contracts/token/ERC1155/ERC1155.sol\":11072:11078  values */\n      dup5\n        /* \"@openzeppelin/contracts/token/ERC1155/ERC1155.sol\":11080:11084  data */\n      dup8\n        /* \"@openzeppelin/contracts/token/ERC1155/ERC1155.sol\":11024:11050  _updateWithAcceptanceCheck */\n      tag_171\n        /* \"@openzeppelin/contracts/token/ERC1155/ERC1155.sol\":11024:11085  _updateWithAcceptanceCheck(address(0), to, ids, values, data) */\n      jump\t// in\n    tag_170:\n        /* \"@openzeppelin/contracts/token/ERC1155/ERC1155.sol\":10828:11092  {... */\n      pop\n      pop\n        /* \"@openzeppelin/contracts/token/ERC1155/ERC1155.sol\":10746:11092  function _mint(address to, uint256 id, uint256 value, bytes memory data) internal {... */\n      pop\n      pop\n      pop\n      pop\n      jump\t// out\n        /* \"@openzeppelin/contracts/utils/Context.sol\":656:752  function _msgSender() internal view virtual returns (address) {... */\n    tag_101:\n        /* \"@openzeppelin/contracts/utils/Context.sol\":709:716  address */\n      0x00\n        /* \"@openzeppelin/contracts/utils/Context.sol\":735:745  msg.sender */\n      caller\n        /* \"@openzeppelin/contracts/utils/Context.sol\":728:745  return msg.sender */\n      swap1\n      pop\n        /* \"@openzeppelin/contracts/utils/Context.sol\":656:752  function _msgSender() internal view virtual returns (address) {... */\n      swap1\n      jump\t// out\n        /* \"@openzeppelin/contracts/token/ERC1155/ERC1155.sol\":9015:9460  function _safeBatchTransferFrom(... */\n    tag_108:\n        /* \"@openzeppelin/contracts/token/ERC1155/ERC1155.sol\":9222:9223  0 */\n      0x00\n        /* \"@openzeppelin/contracts/token/ERC1155/ERC1155.sol\":9208:9224  to == address(0) */\n      0xffffffffffffffffffffffffffffffffffffffff\n      and\n        /* \"@openzeppelin/contracts/token/ERC1155/ERC1155.sol\":9208:9210  to */\n      dup5\n        /* \"@openzeppelin/contracts/token/ERC1155/ERC1155.sol\":9208:9224  to == address(0) */\n      0xffffffffffffffffffffffffffffffffffffffff\n      and\n      sub\n        /* \"@openzeppelin/contracts/token/ERC1155/ERC1155.sol\":9204:9292  if (to == address(0)) {... */\n      tag_174\n      jumpi\n        /* \"@openzeppelin/contracts/token/ERC1155/ERC1155.sol\":9278:9279  0 */\n      0x00\n        /* \"@openzeppelin/contracts/token/ERC1155/ERC1155.sol\":9247:9281  ERC1155InvalidReceiver(address(0)) */\n      mload(0x40)\n      0x57f447ce00000000000000000000000000000000000000000000000000000000\n      dup2\n      mstore\n      0x04\n      add\n      tag_175\n      swap2\n      swap1\n      tag_59\n      jump\t// in\n    tag_175:\n      mload(0x40)\n      dup1\n      swap2\n      sub\n      swap1\n      revert\n        /* \"@openzeppelin/contracts/token/ERC1155/ERC1155.sol\":9204:9292  if (to == address(0)) {... */\n    tag_174:\n        /* \"@openzeppelin/contracts/token/ERC1155/ERC1155.sol\":9321:9322  0 */\n      0x00\n        /* \"@openzeppelin/contracts/token/ERC1155/ERC1155.sol\":9305:9323  from == address(0) */\n      0xffffffffffffffffffffffffffffffffffffffff\n      and\n        /* \"@openzeppelin/contracts/token/ERC1155/ERC1155.sol\":9305:9309  from */\n      dup6\n        /* \"@openzeppelin/contracts/token/ERC1155/ERC1155.sol\":9305:9323  from == address(0) */\n      0xffffffffffffffffffffffffffffffffffffffff\n      and\n      sub\n        /* \"@openzeppelin/contracts/token/ERC1155/ERC1155.sol\":9301:9389  if (from == address(0)) {... */\n      tag_176\n      jumpi\n        /* \"@openzeppelin/contracts/token/ERC1155/ERC1155.sol\":9375:9376  0 */\n      0x00\n        /* \"@openzeppelin/contracts/token/ERC1155/ERC1155.sol\":9346:9378  ERC1155InvalidSender(address(0)) */\n      mload(0x40)\n      0x01a8351400000000000000000000000000000000000000000000000000000000\n      dup2\n      mstore\n      0x04\n      add\n      tag_177\n      swap2\n      swap1\n      tag_59\n      jump\t// in\n    tag_177:\n      mload(0x40)\n      dup1\n      swap2\n      sub\n      swap1\n      revert\n        /* \"@openzeppelin/contracts/token/ERC1155/ERC1155.sol\":9301:9389  if (from == address(0)) {... */\n    tag_176:\n        /* \"@openzeppelin/contracts/token/ERC1155/ERC1155.sol\":9398:9453  _updateWithAcceptanceCheck(from, to, ids, values, data) */\n      tag_178\n        /* \"@openzeppelin/contracts/token/ERC1155/ERC1155.sol\":9425:9429  from */\n      dup6\n        /* \"@openzeppelin/contracts/token/ERC1155/ERC1155.sol\":9431:9433  to */\n      dup6\n        /* \"@openzeppelin/contracts/token/ERC1155/ERC1155.sol\":9435:9438  ids */\n      dup6\n        /* \"@openzeppelin/contracts/token/ERC1155/ERC1155.sol\":9440:9446  values */\n      dup6\n        /* \"@openzeppelin/contracts/token/ERC1155/ERC1155.sol\":9448:9452  data */\n      dup6\n        /* \"@openzeppelin/contracts/token/ERC1155/ERC1155.sol\":9398:9424  _updateWithAcceptanceCheck */\n      tag_171\n        /* \"@openzeppelin/contracts/token/ERC1155/ERC1155.sol\":9398:9453  _updateWithAcceptanceCheck(from, to, ids, values, data) */\n      jump\t// in\n    tag_178:\n        /* \"@openzeppelin/contracts/token/ERC1155/ERC1155.sol\":9015:9460  function _safeBatchTransferFrom(... */\n      pop\n      pop\n      pop\n      pop\n      pop\n      jump\t// out\n        /* \"@openzeppelin/contracts/utils/Arrays.sol\":4603:4800  function unsafeMemoryAccess(address[] memory arr, uint256 pos) internal pure returns (address res) {... */\n    tag_122:\n        /* \"@openzeppelin/contracts/utils/Arrays.sol\":4689:4700  address res */\n      0x00\n        /* \"@openzeppelin/contracts/utils/Arrays.sol\":4777:4781  0x20 */\n      0x20\n        /* \"@openzeppelin/contracts/utils/Arrays.sol\":4772:4775  pos */\n      dup3\n        /* \"@openzeppelin/contracts/utils/Arrays.sol\":4768:4782  mul(pos, 0x20) */\n      mul\n        /* \"@openzeppelin/contracts/utils/Arrays.sol\":4761:4765  0x20 */\n      0x20\n        /* \"@openzeppelin/contracts/utils/Arrays.sol\":4756:4759  arr */\n      dup5\n        /* \"@openzeppelin/contracts/utils/Arrays.sol\":4752:4766  add(arr, 0x20) */\n      add\n        /* \"@openzeppelin/contracts/utils/Arrays.sol\":4748:4783  add(add(arr, 0x20), mul(pos, 0x20)) */\n      add\n        /* \"@openzeppelin/contracts/utils/Arrays.sol\":4742:4784  mload(add(add(arr, 0x20), mul(pos, 0x20))) */\n      mload\n        /* \"@openzeppelin/contracts/utils/Arrays.sol\":4735:4784  res := mload(add(add(arr, 0x20), mul(pos, 0x20))) */\n      swap1\n      pop\n        /* \"@openzeppelin/contracts/utils/Arrays.sol\":4603:4800  function unsafeMemoryAccess(address[] memory arr, uint256 pos) internal pure returns (address res) {... */\n      swap3\n      swap2\n      pop\n      pop\n      jump\t// out\n        /* \"@openzeppelin/contracts/utils/Arrays.sol\":4204:4401  function unsafeMemoryAccess(uint256[] memory arr, uint256 pos) internal pure returns (uint256 res) {... */\n    tag_124:\n        /* \"@openzeppelin/contracts/utils/Arrays.sol\":4290:4301  uint256 res */\n      0x00\n        /* \"@openzeppelin/contracts/utils/Arrays.sol\":4378:4382  0x20 */\n      0x20\n        /* \"@openzeppelin/contracts/utils/Arrays.sol\":4373:4376  pos */\n      dup3\n        /* \"@openzeppelin/contracts/utils/Arrays.sol\":4369:4383  mul(pos, 0x20) */\n      mul\n        /* \"@openzeppelin/contracts/utils/Arrays.sol\":4362:4366  0x20 */\n      0x20\n        /* \"@openzeppelin/contracts/utils/Arrays.sol\":4357:4360  arr */\n      dup5\n        /* \"@openzeppelin/contracts/utils/Arrays.sol\":4353:4367  add(arr, 0x20) */\n      add\n        /* \"@openzeppelin/contracts/utils/Arrays.sol\":4349:4384  add(add(arr, 0x20), mul(pos, 0x20)) */\n      add\n        /* \"@openzeppelin/contracts/utils/Arrays.sol\":4343:4385  mload(add(add(arr, 0x20), mul(pos, 0x20))) */\n      mload\n        /* \"@openzeppelin/contracts/utils/Arrays.sol\":4336:4385  res := mload(add(add(arr, 0x20), mul(pos, 0x20))) */\n      swap1\n      pop\n        /* \"@openzeppelin/contracts/utils/Arrays.sol\":4204:4401  function unsafeMemoryAccess(uint256[] memory arr, uint256 pos) internal pure returns (uint256 res) {... */\n      swap3\n      swap2\n      pop\n      pop\n      jump\t// out\n        /* \"@openzeppelin/contracts/access/Ownable.sol\":2912:3099  function _transferOwnership(address newOwner) internal virtual {... */\n    tag_134:\n        /* \"@openzeppelin/contracts/access/Ownable.sol\":2985:3001  address oldOwner */\n      0x00\n        /* \"@openzeppelin/contracts/access/Ownable.sol\":3004:3010  _owner */\n      0x03\n      0x00\n      swap1\n      sload\n      swap1\n      0x0100\n      exp\n      swap1\n      div\n      0xffffffffffffffffffffffffffffffffffffffff\n      and\n        /* \"@openzeppelin/contracts/access/Ownable.sol\":2985:3010  address oldOwner = _owner */\n      swap1\n      pop\n        /* \"@openzeppelin/contracts/access/Ownable.sol\":3029:3037  newOwner */\n      dup2\n        /* \"@openzeppelin/contracts/access/Ownable.sol\":3020:3026  _owner */\n      0x03\n      0x00\n        /* \"@openzeppelin/contracts/access/Ownable.sol\":3020:3037  _owner = newOwner */\n      0x0100\n      exp\n      dup2\n      sload\n      dup2\n      0xffffffffffffffffffffffffffffffffffffffff\n      mul\n      not\n      and\n      swap1\n      dup4\n      0xffffffffffffffffffffffffffffffffffffffff\n      and\n      mul\n      or\n      swap1\n      sstore\n      pop\n        /* \"@openzeppelin/contracts/access/Ownable.sol\":3083:3091  newOwner */\n      dup2\n        /* \"@openzeppelin/contracts/access/Ownable.sol\":3052:3092  OwnershipTransferred(oldOwner, newOwner) */\n      0xffffffffffffffffffffffffffffffffffffffff\n      and\n        /* \"@openzeppelin/contracts/access/Ownable.sol\":3073:3081  oldOwner */\n      dup2\n        /* \"@openzeppelin/contracts/access/Ownable.sol\":3052:3092  OwnershipTransferred(oldOwner, newOwner) */\n      0xffffffffffffffffffffffffffffffffffffffff\n      and\n      0x8be0079c531659141344cd1fd0a4f28419497f9722a3daafe3b4186f6b6457e0\n      mload(0x40)\n      mload(0x40)\n      dup1\n      swap2\n      sub\n      swap1\n      log3\n        /* \"@openzeppelin/contracts/access/Ownable.sol\":2975:3099  {... */\n      pop\n        /* \"@openzeppelin/contracts/access/Ownable.sol\":2912:3099  function _transferOwnership(address newOwner) internal virtual {... */\n      pop\n      jump\t// out\n        /* \"@openzeppelin/contracts/token/ERC1155/ERC1155.sol\":13268:13583  function _setApprovalForAll(address owner, address operator, bool approved) internal virtual {... */\n    tag_139:\n        /* \"@openzeppelin/contracts/token/ERC1155/ERC1155.sol\":13395:13396  0 */\n      0x00\n        /* \"@openzeppelin/contracts/token/ERC1155/ERC1155.sol\":13375:13397  operator == address(0) */\n      0xffffffffffffffffffffffffffffffffffffffff\n      and\n        /* \"@openzeppelin/contracts/token/ERC1155/ERC1155.sol\":13375:13383  operator */\n      dup3\n        /* \"@openzeppelin/contracts/token/ERC1155/ERC1155.sol\":13375:13397  operator == address(0) */\n      0xffffffffffffffffffffffffffffffffffffffff\n      and\n      sub\n        /* \"@openzeppelin/contracts/token/ERC1155/ERC1155.sol\":13371:13465  if (operator == address(0)) {... */\n      tag_183\n      jumpi\n        /* \"@openzeppelin/contracts/token/ERC1155/ERC1155.sol\":13451:13452  0 */\n      0x00\n        /* \"@openzeppelin/contracts/token/ERC1155/ERC1155.sol\":13420:13454  ERC1155InvalidOperator(address(0)) */\n      mload(0x40)\n      0xced3e10000000000000000000000000000000000000000000000000000000000\n      dup2\n      mstore\n      0x04\n      add\n      tag_184\n      swap2\n      swap1\n      tag_59\n      jump\t// in\n    tag_184:\n      mload(0x40)\n      dup1\n      swap2\n      sub\n      swap1\n      revert\n        /* \"@openzeppelin/contracts/token/ERC1155/ERC1155.sol\":13371:13465  if (operator == address(0)) {... */\n    tag_183:\n        /* \"@openzeppelin/contracts/token/ERC1155/ERC1155.sol\":13512:13520  approved */\n      dup1\n        /* \"@openzeppelin/contracts/token/ERC1155/ERC1155.sol\":13474:13492  _operatorApprovals */\n      0x01\n        /* \"@openzeppelin/contracts/token/ERC1155/ERC1155.sol\":13474:13499  _operatorApprovals[owner] */\n      0x00\n        /* \"@openzeppelin/contracts/token/ERC1155/ERC1155.sol\":13493:13498  owner */\n      dup6\n        /* \"@openzeppelin/contracts/token/ERC1155/ERC1155.sol\":13474:13499  _operatorApprovals[owner] */\n      0xffffffffffffffffffffffffffffffffffffffff\n      and\n      0xffffffffffffffffffffffffffffffffffffffff\n      and\n      dup2\n      mstore\n      0x20\n      add\n      swap1\n      dup2\n      mstore\n      0x20\n      add\n      0x00\n      keccak256\n        /* \"@openzeppelin/contracts/token/ERC1155/ERC1155.sol\":13474:13509  _operatorApprovals[owner][operator] */\n      0x00\n        /* \"@openzeppelin/contracts/token/ERC1155/ERC1155.sol\":13500:13508  operator */\n      dup5\n        /* \"@openzeppelin/contracts/token/ERC1155/ERC1155.sol\":13474:13509  _operatorApprovals[owner][operator] */\n      0xffffffffffffffffffffffffffffffffffffffff\n      and\n      0xffffffffffffffffffffffffffffffffffffffff\n      and\n      dup2\n      mstore\n      0x20\n      add\n      swap1\n      dup2\n      mstore\n      0x20\n      add\n      0x00\n      keccak256\n      0x00\n        /* \"@openzeppelin/contracts/token/ERC1155/ERC1155.sol\":13474:13520  _operatorApprovals[owner][operator] = approved */\n      0x0100\n      exp\n      dup2\n      sload\n      dup2\n      0xff\n      mul\n      not\n      and\n      swap1\n      dup4\n      iszero\n      iszero\n      mul\n      or\n      swap1\n      sstore\n      pop\n        /* \"@openzeppelin/contracts/token/ERC1155/ERC1155.sol\":13557:13565  operator */\n      dup2\n        /* \"@openzeppelin/contracts/token/ERC1155/ERC1155.sol\":13535:13576  ApprovalForAll(owner, operator, approved) */\n      0xffffffffffffffffffffffffffffffffffffffff\n      and\n        /* \"@openzeppelin/contracts/token/ERC1155/ERC1155.sol\":13550:13555  owner */\n      dup4\n        /* \"@openzeppelin/contracts/token/ERC1155/ERC1155.sol\":13535:13576  ApprovalForAll(owner, operator, approved) */\n      0xffffffffffffffffffffffffffffffffffffffff\n      and\n      0x17307eab39ab6107e8899845ad3d59bd9653f200f220920489ca2b5937696c31\n        /* \"@openzeppelin/contracts/token/ERC1155/ERC1155.sol\":13567:13575  approved */\n      dup4\n        /* \"@openzeppelin/contracts/token/ERC1155/ERC1155.sol\":13535:13576  ApprovalForAll(owner, operator, approved) */\n      mload(0x40)\n      tag_185\n      swap2\n      swap1\n      tag_29\n      jump\t// in\n    tag_185:\n      mload(0x40)\n      dup1\n      swap2\n      sub\n      swap1\n      log3\n        /* \"@openzeppelin/contracts/token/ERC1155/ERC1155.sol\":13268:13583  function _setApprovalForAll(address owner, address operator, bool approved) internal virtual {... */\n      pop\n      pop\n      pop\n      jump\t// out\n        /* \"@openzeppelin/contracts/token/ERC1155/ERC1155.sol\":8151:8614  function _safeTransferFrom(address from, address to, uint256 id, uint256 value, bytes memory data) internal {... */\n    tag_148:\n        /* \"@openzeppelin/contracts/token/ERC1155/ERC1155.sol\":8287:8288  0 */\n      0x00\n        /* \"@openzeppelin/contracts/token/ERC1155/ERC1155.sol\":8273:8289  to == address(0) */\n      0xffffffffffffffffffffffffffffffffffffffff\n      and\n        /* \"@openzeppelin/contracts/token/ERC1155/ERC1155.sol\":8273:8275  to */\n      dup5\n        /* \"@openzeppelin/contracts/token/ERC1155/ERC1155.sol\":8273:8289  to == address(0) */\n      0xffffffffffffffffffffffffffffffffffffffff\n      and\n      sub\n        /* \"@openzeppelin/contracts/token/ERC1155/ERC1155.sol\":8269:8357  if (to == address(0)) {... */\n      tag_187\n      jumpi\n        /* \"@openzeppelin/contracts/token/ERC1155/ERC1155.sol\":8343:8344  0 */\n      0x00\n        /* \"@openzeppelin/contracts/token/ERC1155/ERC1155.sol\":8312:8346  ERC1155InvalidReceiver(address(0)) */\n      mload(0x40)\n      0x57f447ce00000000000000000000000000000000000000000000000000000000\n      dup2\n      mstore\n      0x04\n      add\n      tag_188\n      swap2\n      swap1\n      tag_59\n      jump\t// in\n    tag_188:\n      mload(0x40)\n      dup1\n      swap2\n      sub\n      swap1\n      revert\n        /* \"@openzeppelin/contracts/token/ERC1155/ERC1155.sol\":8269:8357  if (to == address(0)) {... */\n    tag_187:\n        /* \"@openzeppelin/contracts/token/ERC1155/ERC1155.sol\":8386:8387  0 */\n      0x00\n        /* \"@openzeppelin/contracts/token/ERC1155/ERC1155.sol\":8370:8388  from == address(0) */\n      0xffffffffffffffffffffffffffffffffffffffff\n      and\n        /* \"@openzeppelin/contracts/token/ERC1155/ERC1155.sol\":8370:8374  from */\n      dup6\n        /* \"@openzeppelin/contracts/token/ERC1155/ERC1155.sol\":8370:8388  from == address(0) */\n      0xffffffffffffffffffffffffffffffffffffffff\n      and\n      sub\n        /* \"@openzeppelin/contracts/token/ERC1155/ERC1155.sol\":8366:8454  if (from == address(0)) {... */\n      tag_189\n      jumpi\n        /* \"@openzeppelin/contracts/token/ERC1155/ERC1155.sol\":8440:8441  0 */\n      0x00\n        /* \"@openzeppelin/contracts/token/ERC1155/ERC1155.sol\":8411:8443  ERC1155InvalidSender(address(0)) */\n      mload(0x40)\n      0x01a8351400000000000000000000000000000000000000000000000000000000\n      dup2\n      mstore\n      0x04\n      add\n      tag_190\n      swap2\n      swap1\n      tag_59\n      jump\t// in\n    tag_190:\n      mload(0x40)\n      dup1\n      swap2\n      sub\n      swap1\n      revert\n        /* \"@openzeppelin/contracts/token/ERC1155/ERC1155.sol\":8366:8454  if (from == address(0)) {... */\n    tag_189:\n        /* \"@openzeppelin/contracts/token/ERC1155/ERC1155.sol\":8464:8484  uint256[] memory ids */\n      0x00\n        /* \"@openzeppelin/contracts/token/ERC1155/ERC1155.sol\":8486:8509  uint256[] memory values */\n      dup1\n        /* \"@openzeppelin/contracts/token/ERC1155/ERC1155.sol\":8513:8542  _asSingletonArrays(id, value) */\n      tag_191\n        /* \"@openzeppelin/contracts/token/ERC1155/ERC1155.sol\":8532:8534  id */\n      dup6\n        /* \"@openzeppelin/contracts/token/ERC1155/ERC1155.sol\":8536:8541  value */\n      dup6\n        /* \"@openzeppelin/contracts/token/ERC1155/ERC1155.sol\":8513:8531  _asSingletonArrays */\n      tag_169\n        /* \"@openzeppelin/contracts/token/ERC1155/ERC1155.sol\":8513:8542  _asSingletonArrays(id, value) */\n      jump\t// in\n    tag_191:\n        /* \"@openzeppelin/contracts/token/ERC1155/ERC1155.sol\":8463:8542  (uint256[] memory ids, uint256[] memory values) = _asSingletonArrays(id, value) */\n      swap2\n      pop\n      swap2\n      pop\n        /* \"@openzeppelin/contracts/token/ERC1155/ERC1155.sol\":8552:8607  _updateWithAcceptanceCheck(from, to, ids, values, data) */\n      tag_192\n        /* \"@openzeppelin/contracts/token/ERC1155/ERC1155.sol\":8579:8583  from */\n      dup8\n        /* \"@openzeppelin/contracts/token/ERC1155/ERC1155.sol\":8585:8587  to */\n      dup8\n        /* \"@openzeppelin/contracts/token/ERC1155/ERC1155.sol\":8589:8592  ids */\n      dup5\n        /* \"@openzeppelin/contracts/token/ERC1155/ERC1155.sol\":8594:8600  values */\n      dup5\n        /* \"@openzeppelin/contracts/token/ERC1155/ERC1155.sol\":8602:8606  data */\n      dup8\n        /* \"@openzeppelin/contracts/token/ERC1155/ERC1155.sol\":8552:8578  _updateWithAcceptanceCheck */\n      tag_171\n        /* \"@openzeppelin/contracts/token/ERC1155/ERC1155.sol\":8552:8607  _updateWithAcceptanceCheck(from, to, ids, values, data) */\n      jump\t// in\n    tag_192:\n        /* \"@openzeppelin/contracts/token/ERC1155/ERC1155.sol\":8259:8614  {... */\n      pop\n      pop\n        /* \"@openzeppelin/contracts/token/ERC1155/ERC1155.sol\":8151:8614  function _safeTransferFrom(address from, address to, uint256 id, uint256 value, bytes memory data) internal {... */\n      pop\n      pop\n      pop\n      pop\n      pop\n      jump\t// out\n        /* \"@openzeppelin/contracts/token/ERC1155/ERC1155.sol\":16080:16929  function _asSingletonArrays(... */\n    tag_169:\n        /* \"@openzeppelin/contracts/token/ERC1155/ERC1155.sol\":16188:16211  uint256[] memory array1 */\n      0x60\n        /* \"@openzeppelin/contracts/token/ERC1155/ERC1155.sol\":16213:16236  uint256[] memory array2 */\n      dup1\n        /* \"@openzeppelin/contracts/token/ERC1155/ERC1155.sol\":16374:16378  0x40 */\n      0x40\n        /* \"@openzeppelin/contracts/token/ERC1155/ERC1155.sol\":16368:16379  mload(0x40) */\n      mload\n        /* \"@openzeppelin/contracts/token/ERC1155/ERC1155.sol\":16358:16379  array1 := mload(0x40) */\n      swap2\n      pop\n        /* \"@openzeppelin/contracts/token/ERC1155/ERC1155.sol\":16444:16445  1 */\n      0x01\n        /* \"@openzeppelin/contracts/token/ERC1155/ERC1155.sol\":16436:16442  array1 */\n      dup3\n        /* \"@openzeppelin/contracts/token/ERC1155/ERC1155.sol\":16429:16446  mstore(array1, 1) */\n      mstore\n        /* \"@openzeppelin/contracts/token/ERC1155/ERC1155.sol\":16582:16590  element1 */\n      dup4\n        /* \"@openzeppelin/contracts/token/ERC1155/ERC1155.sol\":16575:16579  0x20 */\n      0x20\n        /* \"@openzeppelin/contracts/token/ERC1155/ERC1155.sol\":16567:16573  array1 */\n      dup4\n        /* \"@openzeppelin/contracts/token/ERC1155/ERC1155.sol\":16563:16580  add(array1, 0x20) */\n      add\n        /* \"@openzeppelin/contracts/token/ERC1155/ERC1155.sol\":16556:16591  mstore(add(array1, 0x20), element1) */\n      mstore\n        /* \"@openzeppelin/contracts/token/ERC1155/ERC1155.sol\":16704:16708  0x40 */\n      0x40\n        /* \"@openzeppelin/contracts/token/ERC1155/ERC1155.sol\":16696:16702  array1 */\n      dup3\n        /* \"@openzeppelin/contracts/token/ERC1155/ERC1155.sol\":16692:16709  add(array1, 0x40) */\n      add\n        /* \"@openzeppelin/contracts/token/ERC1155/ERC1155.sol\":16682:16709  array2 := add(array1, 0x40) */\n      swap1\n      pop\n        /* \"@openzeppelin/contracts/token/ERC1155/ERC1155.sol\":16737:16738  1 */\n      0x01\n        /* \"@openzeppelin/contracts/token/ERC1155/ERC1155.sol\":16729:16735  array2 */\n      dup2\n        /* \"@openzeppelin/contracts/token/ERC1155/ERC1155.sol\":16722:16739  mstore(array2, 1) */\n      mstore\n        /* \"@openzeppelin/contracts/token/ERC1155/ERC1155.sol\":16778:16786  element2 */\n      dup3\n        /* \"@openzeppelin/contracts/token/ERC1155/ERC1155.sol\":16771:16775  0x20 */\n      0x20\n        /* \"@openzeppelin/contracts/token/ERC1155/ERC1155.sol\":16763:16769  array2 */\n      dup3\n        /* \"@openzeppelin/contracts/token/ERC1155/ERC1155.sol\":16759:16776  add(array2, 0x20) */\n      add\n        /* \"@openzeppelin/contracts/token/ERC1155/ERC1155.sol\":16752:16787  mstore(add(array2, 0x20), element2) */\n      mstore\n        /* \"@openzeppelin/contracts/token/ERC1155/ERC1155.sol\":16907:16911  0x40 */\n      0x40\n        /* \"@openzeppelin/contracts/token/ERC1155/ERC1155.sol\":16899:16905  array2 */\n      dup2\n        /* \"@openzeppelin/contracts/token/ERC1155/ERC1155.sol\":16895:16912  add(array2, 0x40) */\n      add\n        /* \"@openzeppelin/contracts/token/ERC1155/ERC1155.sol\":16889:16893  0x40 */\n      0x40\n        /* \"@openzeppelin/contracts/token/ERC1155/ERC1155.sol\":16882:16913  mstore(0x40, add(array2, 0x40)) */\n      mstore\n        /* \"@openzeppelin/contracts/token/ERC1155/ERC1155.sol\":16080:16929  function _asSingletonArrays(... */\n      swap3\n      pop\n      swap3\n      swap1\n      pop\n      jump\t// out\n        /* \"@openzeppelin/contracts/token/ERC1155/ERC1155.sol\":7004:7694  function _updateWithAcceptanceCheck(... */\n    tag_171:\n        /* \"@openzeppelin/contracts/token/ERC1155/ERC1155.sol\":7205:7235  _update(from, to, ids, values) */\n      tag_195\n        /* \"@openzeppelin/contracts/token/ERC1155/ERC1155.sol\":7213:7217  from */\n      dup6\n        /* \"@openzeppelin/contracts/token/ERC1155/ERC1155.sol\":7219:7221  to */\n      dup6\n        /* \"@openzeppelin/contracts/token/ERC1155/ERC1155.sol\":7223:7226  ids */\n      dup6\n        /* \"@openzeppelin/contracts/token/ERC1155/ERC1155.sol\":7228:7234  values */\n      dup6\n        /* \"@openzeppelin/contracts/token/ERC1155/ERC1155.sol\":7205:7212  _update */\n      tag_196\n        /* \"@openzeppelin/contracts/token/ERC1155/ERC1155.sol\":7205:7235  _update(from, to, ids, values) */\n      jump\t// in\n    tag_195:\n        /* \"@openzeppelin/contracts/token/ERC1155/ERC1155.sol\":7263:7264  0 */\n      0x00\n        /* \"@openzeppelin/contracts/token/ERC1155/ERC1155.sol\":7249:7265  to != address(0) */\n      0xffffffffffffffffffffffffffffffffffffffff\n      and\n        /* \"@openzeppelin/contracts/token/ERC1155/ERC1155.sol\":7249:7251  to */\n      dup5\n        /* \"@openzeppelin/contracts/token/ERC1155/ERC1155.sol\":7249:7265  to != address(0) */\n      0xffffffffffffffffffffffffffffffffffffffff\n      and\n      eq\n        /* \"@openzeppelin/contracts/token/ERC1155/ERC1155.sol\":7245:7688  if (to != address(0)) {... */\n      tag_197\n      jumpi\n        /* \"@openzeppelin/contracts/token/ERC1155/ERC1155.sol\":7281:7297  address operator */\n      0x00\n        /* \"@openzeppelin/contracts/token/ERC1155/ERC1155.sol\":7300:7312  _msgSender() */\n      tag_198\n        /* \"@openzeppelin/contracts/token/ERC1155/ERC1155.sol\":7300:7310  _msgSender */\n      tag_101\n        /* \"@openzeppelin/contracts/token/ERC1155/ERC1155.sol\":7300:7312  _msgSender() */\n      jump\t// in\n    tag_198:\n        /* \"@openzeppelin/contracts/token/ERC1155/ERC1155.sol\":7281:7312  address operator = _msgSender() */\n      swap1\n      pop\n        /* \"@openzeppelin/contracts/token/ERC1155/ERC1155.sol\":7344:7345  1 */\n      0x01\n        /* \"@openzeppelin/contracts/token/ERC1155/ERC1155.sol\":7330:7333  ids */\n      dup5\n        /* \"@openzeppelin/contracts/token/ERC1155/ERC1155.sol\":7330:7340  ids.length */\n      mload\n        /* \"@openzeppelin/contracts/token/ERC1155/ERC1155.sol\":7330:7345  ids.length == 1 */\n      sub\n        /* \"@openzeppelin/contracts/token/ERC1155/ERC1155.sol\":7326:7678  if (ids.length == 1) {... */\n      tag_199\n      jumpi\n        /* \"@openzeppelin/contracts/token/ERC1155/ERC1155.sol\":7365:7375  uint256 id */\n      0x00\n        /* \"@openzeppelin/contracts/token/ERC1155/ERC1155.sol\":7378:7403  ids.unsafeMemoryAccess(0) */\n      tag_200\n        /* \"@openzeppelin/contracts/token/ERC1155/ERC1155.sol\":7401:7402  0 */\n      0x00\n        /* \"@openzeppelin/contracts/token/ERC1155/ERC1155.sol\":7378:7381  ids */\n      dup7\n        /* \"@openzeppelin/contracts/token/ERC1155/ERC1155.sol\":7378:7400  ids.unsafeMemoryAccess */\n      tag_124\n      swap1\n        /* \"@openzeppelin/contracts/token/ERC1155/ERC1155.sol\":7378:7403  ids.unsafeMemoryAccess(0) */\n      swap2\n      swap1\n      0xffffffff\n      and\n      jump\t// in\n    tag_200:\n        /* \"@openzeppelin/contracts/token/ERC1155/ERC1155.sol\":7365:7403  uint256 id = ids.unsafeMemoryAccess(0) */\n      swap1\n      pop\n        /* \"@openzeppelin/contracts/token/ERC1155/ERC1155.sol\":7421:7434  uint256 value */\n      0x00\n        /* \"@openzeppelin/contracts/token/ERC1155/ERC1155.sol\":7437:7465  values.unsafeMemoryAccess(0) */\n      tag_201\n        /* \"@openzeppelin/contracts/token/ERC1155/ERC1155.sol\":7463:7464  0 */\n      0x00\n        /* \"@openzeppelin/contracts/token/ERC1155/ERC1155.sol\":7437:7443  values */\n      dup7\n        /* \"@openzeppelin/contracts/token/ERC1155/ERC1155.sol\":7437:7462  values.unsafeMemoryAccess */\n      tag_124\n      swap1\n        /* \"@openzeppelin/contracts/token/ERC1155/ERC1155.sol\":7437:7465  values.unsafeMemoryAccess(0) */\n      swap2\n      swap1\n      0xffffffff\n      and\n      jump\t// in\n    tag_201:\n        /* \"@openzeppelin/contracts/token/ERC1155/ERC1155.sol\":7421:7465  uint256 value = values.unsafeMemoryAccess(0) */\n      swap1\n      pop\n        /* \"@openzeppelin/contracts/token/ERC1155/ERC1155.sol\":7483:7550  _doSafeTransferAcceptanceCheck(operator, from, to, id, value, data) */\n      tag_202\n        /* \"@openzeppelin/contracts/token/ERC1155/ERC1155.sol\":7514:7522  operator */\n      dup4\n        /* \"@openzeppelin/contracts/token/ERC1155/ERC1155.sol\":7524:7528  from */\n      dup10\n        /* \"@openzeppelin/contracts/token/ERC1155/ERC1155.sol\":7530:7532  to */\n      dup10\n        /* \"@openzeppelin/contracts/token/ERC1155/ERC1155.sol\":7534:7536  id */\n      dup6\n        /* \"@openzeppelin/contracts/token/ERC1155/ERC1155.sol\":7538:7543  value */\n      dup6\n        /* \"@openzeppelin/contracts/token/ERC1155/ERC1155.sol\":7545:7549  data */\n      dup10\n        /* \"@openzeppelin/contracts/token/ERC1155/ERC1155.sol\":7483:7513  _doSafeTransferAcceptanceCheck */\n      tag_203\n        /* \"@openzeppelin/contracts/token/ERC1155/ERC1155.sol\":7483:7550  _doSafeTransferAcceptanceCheck(operator, from, to, id, value, data) */\n      jump\t// in\n    tag_202:\n        /* \"@openzeppelin/contracts/token/ERC1155/ERC1155.sol\":7347:7565  {... */\n      pop\n      pop\n        /* \"@openzeppelin/contracts/token/ERC1155/ERC1155.sol\":7326:7678  if (ids.length == 1) {... */\n      jump(tag_204)\n    tag_199:\n        /* \"@openzeppelin/contracts/token/ERC1155/ERC1155.sol\":7589:7663  _doSafeBatchTransferAcceptanceCheck(operator, from, to, ids, values, data) */\n      tag_205\n        /* \"@openzeppelin/contracts/token/ERC1155/ERC1155.sol\":7625:7633  operator */\n      dup2\n        /* \"@openzeppelin/contracts/token/ERC1155/ERC1155.sol\":7635:7639  from */\n      dup8\n        /* \"@openzeppelin/contracts/token/ERC1155/ERC1155.sol\":7641:7643  to */\n      dup8\n        /* \"@openzeppelin/contracts/token/ERC1155/ERC1155.sol\":7645:7648  ids */\n      dup8\n        /* \"@openzeppelin/contracts/token/ERC1155/ERC1155.sol\":7650:7656  values */\n      dup8\n        /* \"@openzeppelin/contracts/token/ERC1155/ERC1155.sol\":7658:7662  data */\n      dup8\n        /* \"@openzeppelin/contracts/token/ERC1155/ERC1155.sol\":7589:7624  _doSafeBatchTransferAcceptanceCheck */\n      tag_206\n        /* \"@openzeppelin/contracts/token/ERC1155/ERC1155.sol\":7589:7663  _doSafeBatchTransferAcceptanceCheck(operator, from, to, ids, values, data) */\n      jump\t// in\n    tag_205:\n        /* \"@openzeppelin/contracts/token/ERC1155/ERC1155.sol\":7326:7678  if (ids.length == 1) {... */\n    tag_204:\n        /* \"@openzeppelin/contracts/token/ERC1155/ERC1155.sol\":7267:7688  {... */\n      pop\n        /* \"@openzeppelin/contracts/token/ERC1155/ERC1155.sol\":7245:7688  if (to != address(0)) {... */\n    tag_197:\n        /* \"@openzeppelin/contracts/token/ERC1155/ERC1155.sol\":7004:7694  function _updateWithAcceptanceCheck(... */\n      pop\n      pop\n      pop\n      pop\n      pop\n      jump\t// out\n        /* \"@openzeppelin/contracts/token/ERC1155/ERC1155.sol\":5144:6425  function _update(address from, address to, uint256[] memory ids, uint256[] memory values) internal virtual {... */\n    tag_196:\n        /* \"@openzeppelin/contracts/token/ERC1155/ERC1155.sol\":5279:5285  values */\n      dup1\n        /* \"@openzeppelin/contracts/token/ERC1155/ERC1155.sol\":5279:5292  values.length */\n      mload\n        /* \"@openzeppelin/contracts/token/ERC1155/ERC1155.sol\":5265:5268  ids */\n      dup3\n        /* \"@openzeppelin/contracts/token/ERC1155/ERC1155.sol\":5265:5275  ids.length */\n      mload\n        /* \"@openzeppelin/contracts/token/ERC1155/ERC1155.sol\":5265:5292  ids.length != values.length */\n      eq\n        /* \"@openzeppelin/contracts/token/ERC1155/ERC1155.sol\":5261:5378  if (ids.length != values.length) {... */\n      tag_208\n      jumpi\n        /* \"@openzeppelin/contracts/token/ERC1155/ERC1155.sol\":5341:5344  ids */\n      dup2\n        /* \"@openzeppelin/contracts/token/ERC1155/ERC1155.sol\":5341:5351  ids.length */\n      mload\n        /* \"@openzeppelin/contracts/token/ERC1155/ERC1155.sol\":5353:5359  values */\n      dup2\n        /* \"@openzeppelin/contracts/token/ERC1155/ERC1155.sol\":5353:5366  values.length */\n      mload\n        /* \"@openzeppelin/contracts/token/ERC1155/ERC1155.sol\":5315:5367  ERC1155InvalidArrayLength(ids.length, values.length) */\n      mload(0x40)\n      0x5b05999100000000000000000000000000000000000000000000000000000000\n      dup2\n      mstore\n      0x04\n      add\n      tag_209\n      swap3\n      swap2\n      swap1\n      tag_112\n      jump\t// in\n    tag_209:\n      mload(0x40)\n      dup1\n      swap2\n      sub\n      swap1\n      revert\n        /* \"@openzeppelin/contracts/token/ERC1155/ERC1155.sol\":5261:5378  if (ids.length != values.length) {... */\n    tag_208:\n        /* \"@openzeppelin/contracts/token/ERC1155/ERC1155.sol\":5388:5404  address operator */\n      0x00\n        /* \"@openzeppelin/contracts/token/ERC1155/ERC1155.sol\":5407:5419  _msgSender() */\n      tag_210\n        /* \"@openzeppelin/contracts/token/ERC1155/ERC1155.sol\":5407:5417  _msgSender */\n      tag_101\n        /* \"@openzeppelin/contracts/token/ERC1155/ERC1155.sol\":5407:5419  _msgSender() */\n      jump\t// in\n    tag_210:\n        /* \"@openzeppelin/contracts/token/ERC1155/ERC1155.sol\":5388:5419  address operator = _msgSender() */\n      swap1\n      pop\n        /* \"@openzeppelin/contracts/token/ERC1155/ERC1155.sol\":5435:5444  uint256 i */\n      0x00\n        /* \"@openzeppelin/contracts/token/ERC1155/ERC1155.sol\":5430:6121  for (uint256 i = 0; i < ids.length; ++i) {... */\n    tag_211:\n        /* \"@openzeppelin/contracts/token/ERC1155/ERC1155.sol\":5454:5457  ids */\n      dup4\n        /* \"@openzeppelin/contracts/token/ERC1155/ERC1155.sol\":5454:5464  ids.length */\n      mload\n        /* \"@openzeppelin/contracts/token/ERC1155/ERC1155.sol\":5450:5451  i */\n      dup2\n        /* \"@openzeppelin/contracts/token/ERC1155/ERC1155.sol\":5450:5464  i < ids.length */\n      lt\n        /* \"@openzeppelin/contracts/token/ERC1155/ERC1155.sol\":5430:6121  for (uint256 i = 0; i < ids.length; ++i) {... */\n      iszero\n      tag_212\n      jumpi\n        /* \"@openzeppelin/contracts/token/ERC1155/ERC1155.sol\":5485:5495  uint256 id */\n      0x00\n        /* \"@openzeppelin/contracts/token/ERC1155/ERC1155.sol\":5498:5523  ids.unsafeMemoryAccess(i) */\n      tag_214\n        /* \"@openzeppelin/contracts/token/ERC1155/ERC1155.sol\":5521:5522  i */\n      dup3\n        /* \"@openzeppelin/contracts/token/ERC1155/ERC1155.sol\":5498:5501  ids */\n      dup7\n        /* \"@openzeppelin/contracts/token/ERC1155/ERC1155.sol\":5498:5520  ids.unsafeMemoryAccess */\n      tag_124\n      swap1\n        /* \"@openzeppelin/contracts/token/ERC1155/ERC1155.sol\":5498:5523  ids.unsafeMemoryAccess(i) */\n      swap2\n      swap1\n      0xffffffff\n      and\n      jump\t// in\n    tag_214:\n        /* \"@openzeppelin/contracts/token/ERC1155/ERC1155.sol\":5485:5523  uint256 id = ids.unsafeMemoryAccess(i) */\n      swap1\n      pop\n        /* \"@openzeppelin/contracts/token/ERC1155/ERC1155.sol\":5537:5550  uint256 value */\n      0x00\n        /* \"@openzeppelin/contracts/token/ERC1155/ERC1155.sol\":5553:5581  values.unsafeMemoryAccess(i) */\n      tag_215\n        /* \"@openzeppelin/contracts/token/ERC1155/ERC1155.sol\":5579:5580  i */\n      dup4\n        /* \"@openzeppelin/contracts/token/ERC1155/ERC1155.sol\":5553:5559  values */\n      dup7\n        /* \"@openzeppelin/contracts/token/ERC1155/ERC1155.sol\":5553:5578  values.unsafeMemoryAccess */\n      tag_124\n      swap1\n        /* \"@openzeppelin/contracts/token/ERC1155/ERC1155.sol\":5553:5581  values.unsafeMemoryAccess(i) */\n      swap2\n      swap1\n      0xffffffff\n      and\n      jump\t// in\n    tag_215:\n        /* \"@openzeppelin/contracts/token/ERC1155/ERC1155.sol\":5537:5581  uint256 value = values.unsafeMemoryAccess(i) */\n      swap1\n      pop\n        /* \"@openzeppelin/contracts/token/ERC1155/ERC1155.sol\":5616:5617  0 */\n      0x00\n        /* \"@openzeppelin/contracts/token/ERC1155/ERC1155.sol\":5600:5618  from != address(0) */\n      0xffffffffffffffffffffffffffffffffffffffff\n      and\n        /* \"@openzeppelin/contracts/token/ERC1155/ERC1155.sol\":5600:5604  from */\n      dup9\n        /* \"@openzeppelin/contracts/token/ERC1155/ERC1155.sol\":5600:5618  from != address(0) */\n      0xffffffffffffffffffffffffffffffffffffffff\n      and\n      eq\n        /* \"@openzeppelin/contracts/token/ERC1155/ERC1155.sol\":5596:6016  if (from != address(0)) {... */\n      tag_216\n      jumpi\n        /* \"@openzeppelin/contracts/token/ERC1155/ERC1155.sol\":5638:5657  uint256 fromBalance */\n      0x00\n        /* \"@openzeppelin/contracts/token/ERC1155/ERC1155.sol\":5660:5669  _balances */\n      dup1\n        /* \"@openzeppelin/contracts/token/ERC1155/ERC1155.sol\":5660:5673  _balances[id] */\n      0x00\n        /* \"@openzeppelin/contracts/token/ERC1155/ERC1155.sol\":5670:5672  id */\n      dup5\n        /* \"@openzeppelin/contracts/token/ERC1155/ERC1155.sol\":5660:5673  _balances[id] */\n      dup2\n      mstore\n      0x20\n      add\n      swap1\n      dup2\n      mstore\n      0x20\n      add\n      0x00\n      keccak256\n        /* \"@openzeppelin/contracts/token/ERC1155/ERC1155.sol\":5660:5679  _balances[id][from] */\n      0x00\n        /* \"@openzeppelin/contracts/token/ERC1155/ERC1155.sol\":5674:5678  from */\n      dup11\n        /* \"@openzeppelin/contracts/token/ERC1155/ERC1155.sol\":5660:5679  _balances[id][from] */\n      0xffffffffffffffffffffffffffffffffffffffff\n      and\n      0xffffffffffffffffffffffffffffffffffffffff\n      and\n      dup2\n      mstore\n      0x20\n      add\n      swap1\n      dup2\n      mstore\n      0x20\n      add\n      0x00\n      keccak256\n      sload\n        /* \"@openzeppelin/contracts/token/ERC1155/ERC1155.sol\":5638:5679  uint256 fromBalance = _balances[id][from] */\n      swap1\n      pop\n        /* \"@openzeppelin/contracts/token/ERC1155/ERC1155.sol\":5715:5720  value */\n      dup2\n        /* \"@openzeppelin/contracts/token/ERC1155/ERC1155.sol\":5701:5712  fromBalance */\n      dup2\n        /* \"@openzeppelin/contracts/token/ERC1155/ERC1155.sol\":5701:5720  fromBalance < value */\n      lt\n        /* \"@openzeppelin/contracts/token/ERC1155/ERC1155.sol\":5697:5826  if (fromBalance < value) {... */\n      iszero\n      tag_217\n      jumpi\n        /* \"@openzeppelin/contracts/token/ERC1155/ERC1155.sol\":5778:5782  from */\n      dup9\n        /* \"@openzeppelin/contracts/token/ERC1155/ERC1155.sol\":5784:5795  fromBalance */\n      dup2\n        /* \"@openzeppelin/contracts/token/ERC1155/ERC1155.sol\":5797:5802  value */\n      dup4\n        /* \"@openzeppelin/contracts/token/ERC1155/ERC1155.sol\":5804:5806  id */\n      dup6\n        /* \"@openzeppelin/contracts/token/ERC1155/ERC1155.sol\":5751:5807  ERC1155InsufficientBalance(from, fromBalance, value, id) */\n      mload(0x40)\n      0x03dee4c500000000000000000000000000000000000000000000000000000000\n      dup2\n      mstore\n      0x04\n      add\n      tag_218\n      swap5\n      swap4\n      swap3\n      swap2\n      swap1\n      tag_219\n      jump\t// in\n    tag_218:\n      mload(0x40)\n      dup1\n      swap2\n      sub\n      swap1\n      revert\n        /* \"@openzeppelin/contracts/token/ERC1155/ERC1155.sol\":5697:5826  if (fromBalance < value) {... */\n    tag_217:\n        /* \"@openzeppelin/contracts/token/ERC1155/ERC1155.sol\":5978:5983  value */\n      dup2\n        /* \"@openzeppelin/contracts/token/ERC1155/ERC1155.sol\":5964:5975  fromBalance */\n      dup2\n        /* \"@openzeppelin/contracts/token/ERC1155/ERC1155.sol\":5964:5983  fromBalance - value */\n      sub\n        /* \"@openzeppelin/contracts/token/ERC1155/ERC1155.sol\":5942:5951  _balances */\n      0x00\n        /* \"@openzeppelin/contracts/token/ERC1155/ERC1155.sol\":5942:5955  _balances[id] */\n      dup1\n        /* \"@openzeppelin/contracts/token/ERC1155/ERC1155.sol\":5952:5954  id */\n      dup6\n        /* \"@openzeppelin/contracts/token/ERC1155/ERC1155.sol\":5942:5955  _balances[id] */\n      dup2\n      mstore\n      0x20\n      add\n      swap1\n      dup2\n      mstore\n      0x20\n      add\n      0x00\n      keccak256\n        /* \"@openzeppelin/contracts/token/ERC1155/ERC1155.sol\":5942:5961  _balances[id][from] */\n      0x00\n        /* \"@openzeppelin/contracts/token/ERC1155/ERC1155.sol\":5956:5960  from */\n      dup12\n        /* \"@openzeppelin/contracts/token/ERC1155/ERC1155.sol\":5942:5961  _balances[id][from] */\n      0xffffffffffffffffffffffffffffffffffffffff\n      and\n      0xffffffffffffffffffffffffffffffffffffffff\n      and\n      dup2\n      mstore\n      0x20\n      add\n      swap1\n      dup2\n      mstore\n      0x20\n      add\n      0x00\n      keccak256\n        /* \"@openzeppelin/contracts/token/ERC1155/ERC1155.sol\":5942:5983  _balances[id][from] = fromBalance - value */\n      dup2\n      swap1\n      sstore\n      pop\n        /* \"@openzeppelin/contracts/token/ERC1155/ERC1155.sol\":5620:6016  {... */\n      pop\n        /* \"@openzeppelin/contracts/token/ERC1155/ERC1155.sol\":5596:6016  if (from != address(0)) {... */\n    tag_216:\n        /* \"@openzeppelin/contracts/token/ERC1155/ERC1155.sol\":6048:6049  0 */\n      0x00\n        /* \"@openzeppelin/contracts/token/ERC1155/ERC1155.sol\":6034:6050  to != address(0) */\n      0xffffffffffffffffffffffffffffffffffffffff\n      and\n        /* \"@openzeppelin/contracts/token/ERC1155/ERC1155.sol\":6034:6036  to */\n      dup8\n        /* \"@openzeppelin/contracts/token/ERC1155/ERC1155.sol\":6034:6050  to != address(0) */\n      0xffffffffffffffffffffffffffffffffffffffff\n      and\n      eq\n        /* \"@openzeppelin/contracts/token/ERC1155/ERC1155.sol\":6030:6111  if (to != address(0)) {... */\n      tag_220\n      jumpi\n        /* \"@openzeppelin/contracts/token/ERC1155/ERC1155.sol\":6091:6096  value */\n      dup1\n        /* \"@openzeppelin/contracts/token/ERC1155/ERC1155.sol\":6070:6079  _balances */\n      0x00\n        /* \"@openzeppelin/contracts/token/ERC1155/ERC1155.sol\":6070:6083  _balances[id] */\n      dup1\n        /* \"@openzeppelin/contracts/token/ERC1155/ERC1155.sol\":6080:6082  id */\n      dup5\n        /* \"@openzeppelin/contracts/token/ERC1155/ERC1155.sol\":6070:6083  _balances[id] */\n      dup2\n      mstore\n      0x20\n      add\n      swap1\n      dup2\n      mstore\n      0x20\n      add\n      0x00\n      keccak256\n        /* \"@openzeppelin/contracts/token/ERC1155/ERC1155.sol\":6070:6087  _balances[id][to] */\n      0x00\n        /* \"@openzeppelin/contracts/token/ERC1155/ERC1155.sol\":6084:6086  to */\n      dup10\n        /* \"@openzeppelin/contracts/token/ERC1155/ERC1155.sol\":6070:6087  _balances[id][to] */\n      0xffffffffffffffffffffffffffffffffffffffff\n      and\n      0xffffffffffffffffffffffffffffffffffffffff\n      and\n      dup2\n      mstore\n      0x20\n      add\n      swap1\n      dup2\n      mstore\n      0x20\n      add\n      0x00\n      keccak256\n      0x00\n        /* \"@openzeppelin/contracts/token/ERC1155/ERC1155.sol\":6070:6096  _balances[id][to] += value */\n      dup3\n      dup3\n      sload\n      tag_221\n      swap2\n      swap1\n      tag_222\n      jump\t// in\n    tag_221:\n      swap3\n      pop\n      pop\n      dup2\n      swap1\n      sstore\n      pop\n        /* \"@openzeppelin/contracts/token/ERC1155/ERC1155.sol\":6030:6111  if (to != address(0)) {... */\n    tag_220:\n        /* \"@openzeppelin/contracts/token/ERC1155/ERC1155.sol\":5471:6121  {... */\n      pop\n      pop\n        /* \"@openzeppelin/contracts/token/ERC1155/ERC1155.sol\":5466:5469  ++i */\n      dup1\n      tag_223\n      swap1\n      tag_129\n      jump\t// in\n    tag_223:\n      swap1\n      pop\n        /* \"@openzeppelin/contracts/token/ERC1155/ERC1155.sol\":5430:6121  for (uint256 i = 0; i < ids.length; ++i) {... */\n      jump(tag_211)\n    tag_212:\n      pop\n        /* \"@openzeppelin/contracts/token/ERC1155/ERC1155.sol\":6149:6150  1 */\n      0x01\n        /* \"@openzeppelin/contracts/token/ERC1155/ERC1155.sol\":6135:6138  ids */\n      dup4\n        /* \"@openzeppelin/contracts/token/ERC1155/ERC1155.sol\":6135:6145  ids.length */\n      mload\n        /* \"@openzeppelin/contracts/token/ERC1155/ERC1155.sol\":6135:6150  ids.length == 1 */\n      sub\n        /* \"@openzeppelin/contracts/token/ERC1155/ERC1155.sol\":6131:6419  if (ids.length == 1) {... */\n      tag_224\n      jumpi\n        /* \"@openzeppelin/contracts/token/ERC1155/ERC1155.sol\":6166:6176  uint256 id */\n      0x00\n        /* \"@openzeppelin/contracts/token/ERC1155/ERC1155.sol\":6179:6204  ids.unsafeMemoryAccess(0) */\n      tag_225\n        /* \"@openzeppelin/contracts/token/ERC1155/ERC1155.sol\":6202:6203  0 */\n      0x00\n        /* \"@openzeppelin/contracts/token/ERC1155/ERC1155.sol\":6179:6182  ids */\n      dup6\n        /* \"@openzeppelin/contracts/token/ERC1155/ERC1155.sol\":6179:6201  ids.unsafeMemoryAccess */\n      tag_124\n      swap1\n        /* \"@openzeppelin/contracts/token/ERC1155/ERC1155.sol\":6179:6204  ids.unsafeMemoryAccess(0) */\n      swap2\n      swap1\n      0xffffffff\n      and\n      jump\t// in\n    tag_225:\n        /* \"@openzeppelin/contracts/token/ERC1155/ERC1155.sol\":6166:6204  uint256 id = ids.unsafeMemoryAccess(0) */\n      swap1\n      pop\n        /* \"@openzeppelin/contracts/token/ERC1155/ERC1155.sol\":6218:6231  uint256 value */\n      0x00\n        /* \"@openzeppelin/contracts/token/ERC1155/ERC1155.sol\":6234:6262  values.unsafeMemoryAccess(0) */\n      tag_226\n        /* \"@openzeppelin/contracts/token/ERC1155/ERC1155.sol\":6260:6261  0 */\n      0x00\n        /* \"@openzeppelin/contracts/token/ERC1155/ERC1155.sol\":6234:6240  values */\n      dup6\n        /* \"@openzeppelin/contracts/token/ERC1155/ERC1155.sol\":6234:6259  values.unsafeMemoryAccess */\n      tag_124\n      swap1\n        /* \"@openzeppelin/contracts/token/ERC1155/ERC1155.sol\":6234:6262  values.unsafeMemoryAccess(0) */\n      swap2\n      swap1\n      0xffffffff\n      and\n      jump\t// in\n    tag_226:\n        /* \"@openzeppelin/contracts/token/ERC1155/ERC1155.sol\":6218:6262  uint256 value = values.unsafeMemoryAccess(0) */\n      swap1\n      pop\n        /* \"@openzeppelin/contracts/token/ERC1155/ERC1155.sol\":6312:6314  to */\n      dup6\n        /* \"@openzeppelin/contracts/token/ERC1155/ERC1155.sol\":6281:6326  TransferSingle(operator, from, to, id, value) */\n      0xffffffffffffffffffffffffffffffffffffffff\n      and\n        /* \"@openzeppelin/contracts/token/ERC1155/ERC1155.sol\":6306:6310  from */\n      dup8\n        /* \"@openzeppelin/contracts/token/ERC1155/ERC1155.sol\":6281:6326  TransferSingle(operator, from, to, id, value) */\n      0xffffffffffffffffffffffffffffffffffffffff\n      and\n        /* \"@openzeppelin/contracts/token/ERC1155/ERC1155.sol\":6296:6304  operator */\n      dup5\n        /* \"@openzeppelin/contracts/token/ERC1155/ERC1155.sol\":6281:6326  TransferSingle(operator, from, to, id, value) */\n      0xffffffffffffffffffffffffffffffffffffffff\n      and\n      0xc3d58168c5ae7397731d063d5bbf3d657854427343f4c083240f7aacaa2d0f62\n        /* \"@openzeppelin/contracts/token/ERC1155/ERC1155.sol\":6316:6318  id */\n      dup6\n        /* \"@openzeppelin/contracts/token/ERC1155/ERC1155.sol\":6320:6325  value */\n      dup6\n        /* \"@openzeppelin/contracts/token/ERC1155/ERC1155.sol\":6281:6326  TransferSingle(operator, from, to, id, value) */\n      mload(0x40)\n      tag_227\n      swap3\n      swap2\n      swap1\n      tag_112\n      jump\t// in\n    tag_227:\n      mload(0x40)\n      dup1\n      swap2\n      sub\n      swap1\n      log4\n        /* \"@openzeppelin/contracts/token/ERC1155/ERC1155.sol\":6152:6337  {... */\n      pop\n      pop\n        /* \"@openzeppelin/contracts/token/ERC1155/ERC1155.sol\":6131:6419  if (ids.length == 1) {... */\n      jump(tag_228)\n    tag_224:\n        /* \"@openzeppelin/contracts/token/ERC1155/ERC1155.sol\":6392:6394  to */\n      dup4\n        /* \"@openzeppelin/contracts/token/ERC1155/ERC1155.sol\":6362:6408  TransferBatch(operator, from, to, ids, values) */\n      0xffffffffffffffffffffffffffffffffffffffff\n      and\n        /* \"@openzeppelin/contracts/token/ERC1155/ERC1155.sol\":6386:6390  from */\n      dup6\n        /* \"@openzeppelin/contracts/token/ERC1155/ERC1155.sol\":6362:6408  TransferBatch(operator, from, to, ids, values) */\n      0xffffffffffffffffffffffffffffffffffffffff\n      and\n        /* \"@openzeppelin/contracts/token/ERC1155/ERC1155.sol\":6376:6384  operator */\n      dup3\n        /* \"@openzeppelin/contracts/token/ERC1155/ERC1155.sol\":6362:6408  TransferBatch(operator, from, to, ids, values) */\n      0xffffffffffffffffffffffffffffffffffffffff\n      and\n      0x4a39dc06d4c0dbc64b70af90fd698a233a518aa5d07e595d983b8c0526c8f7fb\n        /* \"@openzeppelin/contracts/token/ERC1155/ERC1155.sol\":6396:6399  ids */\n      dup7\n        /* \"@openzeppelin/contracts/token/ERC1155/ERC1155.sol\":6401:6407  values */\n      dup7\n        /* \"@openzeppelin/contracts/token/ERC1155/ERC1155.sol\":6362:6408  TransferBatch(operator, from, to, ids, values) */\n      mload(0x40)\n      tag_229\n      swap3\n      swap2\n      swap1\n      tag_230\n      jump\t// in\n    tag_229:\n      mload(0x40)\n      dup1\n      swap2\n      sub\n      swap1\n      log4\n        /* \"@openzeppelin/contracts/token/ERC1155/ERC1155.sol\":6131:6419  if (ids.length == 1) {... */\n    tag_228:\n        /* \"@openzeppelin/contracts/token/ERC1155/ERC1155.sol\":5251:6425  {... */\n      pop\n        /* \"@openzeppelin/contracts/token/ERC1155/ERC1155.sol\":5144:6425  function _update(address from, address to, uint256[] memory ids, uint256[] memory values) internal virtual {... */\n      pop\n      pop\n      pop\n      pop\n      jump\t// out\n        /* \"@openzeppelin/contracts/token/ERC1155/ERC1155.sol\":13761:14735  function _doSafeTransferAcceptanceCheck(... */\n    tag_203:\n        /* \"@openzeppelin/contracts/token/ERC1155/ERC1155.sol\":13984:13985  0 */\n      0x00\n        /* \"@openzeppelin/contracts/token/ERC1155/ERC1155.sol\":13967:13969  to */\n      dup5\n        /* \"@openzeppelin/contracts/token/ERC1155/ERC1155.sol\":13967:13981  to.code.length */\n      0xffffffffffffffffffffffffffffffffffffffff\n      and\n      extcodesize\n        /* \"@openzeppelin/contracts/token/ERC1155/ERC1155.sol\":13967:13985  to.code.length > 0 */\n      gt\n        /* \"@openzeppelin/contracts/token/ERC1155/ERC1155.sol\":13963:14729  if (to.code.length > 0) {... */\n      iszero\n      tag_232\n      jumpi\n        /* \"@openzeppelin/contracts/token/ERC1155/ERC1155.sol\":14022:14024  to */\n      dup4\n        /* \"@openzeppelin/contracts/token/ERC1155/ERC1155.sol\":14005:14043  IERC1155Receiver(to).onERC1155Received */\n      0xffffffffffffffffffffffffffffffffffffffff\n      and\n      0xf23a6e61\n        /* \"@openzeppelin/contracts/token/ERC1155/ERC1155.sol\":14044:14052  operator */\n      dup8\n        /* \"@openzeppelin/contracts/token/ERC1155/ERC1155.sol\":14054:14058  from */\n      dup8\n        /* \"@openzeppelin/contracts/token/ERC1155/ERC1155.sol\":14060:14062  id */\n      dup7\n        /* \"@openzeppelin/contracts/token/ERC1155/ERC1155.sol\":14064:14069  value */\n      dup7\n        /* \"@openzeppelin/contracts/token/ERC1155/ERC1155.sol\":14071:14075  data */\n      dup7\n        /* \"@openzeppelin/contracts/token/ERC1155/ERC1155.sol\":14005:14076  IERC1155Receiver(to).onERC1155Received(operator, from, id, value, data) */\n      mload(0x40)\n      dup7\n      0xffffffff\n      and\n      0xe0\n      shl\n      dup2\n      mstore\n      0x04\n      add\n      tag_233\n      swap6\n      swap5\n      swap4\n      swap3\n      swap2\n      swap1\n      tag_234\n      jump\t// in\n    tag_233:\n      0x20\n      mload(0x40)\n      dup1\n      dup4\n      sub\n      dup2\n      0x00\n      dup8\n      gas\n      call\n      swap3\n      pop\n      pop\n      pop\n      dup1\n      iszero\n      tag_235\n      jumpi\n      pop\n      mload(0x40)\n      returndatasize\n      not(0x1f)\n      0x1f\n      dup3\n      add\n      and\n      dup3\n      add\n      dup1\n      0x40\n      mstore\n      pop\n      dup2\n      add\n      swap1\n      tag_236\n      swap2\n      swap1\n      tag_237\n      jump\t// in\n    tag_236:\n      0x01\n    tag_235:\n        /* \"@openzeppelin/contracts/token/ERC1155/ERC1155.sol\":14001:14719  try IERC1155Receiver(to).onERC1155Received(operator, from, id, value, data) returns (bytes4 response) {... */\n      tag_238\n      jumpi\n      returndatasize\n      dup1\n      0x00\n      dup2\n      eq\n      tag_243\n      jumpi\n      mload(0x40)\n      swap2\n      pop\n      and(add(returndatasize, 0x3f), not(0x1f))\n      dup3\n      add\n      0x40\n      mstore\n      returndatasize\n      dup3\n      mstore\n      returndatasize\n      0x00\n      0x20\n      dup5\n      add\n      returndatacopy\n      jump(tag_242)\n    tag_243:\n      0x60\n      swap2\n      pop\n    tag_242:\n      pop\n        /* \"@openzeppelin/contracts/token/ERC1155/ERC1155.sol\":14377:14378  0 */\n      0x00\n        /* \"@openzeppelin/contracts/token/ERC1155/ERC1155.sol\":14360:14366  reason */\n      dup2\n        /* \"@openzeppelin/contracts/token/ERC1155/ERC1155.sol\":14360:14373  reason.length */\n      mload\n        /* \"@openzeppelin/contracts/token/ERC1155/ERC1155.sol\":14360:14378  reason.length == 0 */\n      sub\n        /* \"@openzeppelin/contracts/token/ERC1155/ERC1155.sol\":14356:14705  if (reason.length == 0) {... */\n      tag_244\n      jumpi\n        /* \"@openzeppelin/contracts/token/ERC1155/ERC1155.sol\":14487:14489  to */\n      dup5\n        /* \"@openzeppelin/contracts/token/ERC1155/ERC1155.sol\":14464:14490  ERC1155InvalidReceiver(to) */\n      mload(0x40)\n      0x57f447ce00000000000000000000000000000000000000000000000000000000\n      dup2\n      mstore\n      0x04\n      add\n      tag_245\n      swap2\n      swap1\n      tag_59\n      jump\t// in\n    tag_245:\n      mload(0x40)\n      dup1\n      swap2\n      sub\n      swap1\n      revert\n        /* \"@openzeppelin/contracts/token/ERC1155/ERC1155.sol\":14356:14705  if (reason.length == 0) {... */\n    tag_244:\n        /* \"@openzeppelin/contracts/token/ERC1155/ERC1155.sol\":14657:14663  reason */\n      dup1\n        /* \"@openzeppelin/contracts/token/ERC1155/ERC1155.sol\":14651:14664  mload(reason) */\n      mload\n        /* \"@openzeppelin/contracts/token/ERC1155/ERC1155.sol\":14642:14648  reason */\n      dup2\n        /* \"@openzeppelin/contracts/token/ERC1155/ERC1155.sol\":14638:14640  32 */\n      0x20\n        /* \"@openzeppelin/contracts/token/ERC1155/ERC1155.sol\":14634:14649  add(32, reason) */\n      add\n        /* \"@openzeppelin/contracts/token/ERC1155/ERC1155.sol\":14627:14665  revert(add(32, reason), mload(reason)) */\n      revert\n        /* \"@openzeppelin/contracts/token/ERC1155/ERC1155.sol\":14001:14719  try IERC1155Receiver(to).onERC1155Received(operator, from, id, value, data) returns (bytes4 response) {... */\n    tag_238:\n        /* \"@openzeppelin/contracts/token/ERC1155/ERC1155.sol\":14137:14180  IERC1155Receiver.onERC1155Received.selector */\n      shl(0xe0, 0xf23a6e61)\n        /* \"@openzeppelin/contracts/token/ERC1155/ERC1155.sol\":14125:14180  response != IERC1155Receiver.onERC1155Received.selector */\n      not(0xffffffffffffffffffffffffffffffffffffffffffffffffffffffff)\n      and\n        /* \"@openzeppelin/contracts/token/ERC1155/ERC1155.sol\":14125:14133  response */\n      dup2\n        /* \"@openzeppelin/contracts/token/ERC1155/ERC1155.sol\":14125:14180  response != IERC1155Receiver.onERC1155Received.selector */\n      not(0xffffffffffffffffffffffffffffffffffffffffffffffffffffffff)\n      and\n      eq\n        /* \"@openzeppelin/contracts/token/ERC1155/ERC1155.sol\":14121:14295  if (response != IERC1155Receiver.onERC1155Received.selector) {... */\n      tag_248\n      jumpi\n        /* \"@openzeppelin/contracts/token/ERC1155/ERC1155.sol\":14273:14275  to */\n      dup5\n        /* \"@openzeppelin/contracts/token/ERC1155/ERC1155.sol\":14250:14276  ERC1155InvalidReceiver(to) */\n      mload(0x40)\n      0x57f447ce00000000000000000000000000000000000000000000000000000000\n      dup2\n      mstore\n      0x04\n      add\n      tag_249\n      swap2\n      swap1\n      tag_59\n      jump\t// in\n    tag_249:\n      mload(0x40)\n      dup1\n      swap2\n      sub\n      swap1\n      revert\n        /* \"@openzeppelin/contracts/token/ERC1155/ERC1155.sol\":14121:14295  if (response != IERC1155Receiver.onERC1155Received.selector) {... */\n    tag_248:\n        /* \"@openzeppelin/contracts/token/ERC1155/ERC1155.sol\":14077:14309  returns (bytes4 response) {... */\n      pop\n        /* \"@openzeppelin/contracts/token/ERC1155/ERC1155.sol\":13963:14729  if (to.code.length > 0) {... */\n    tag_232:\n        /* \"@openzeppelin/contracts/token/ERC1155/ERC1155.sol\":13761:14735  function _doSafeTransferAcceptanceCheck(... */\n      pop\n      pop\n      pop\n      pop\n      pop\n      pop\n      jump\t// out\n        /* \"@openzeppelin/contracts/token/ERC1155/ERC1155.sol\":14923:15964  function _doSafeBatchTransferAcceptanceCheck(... */\n    tag_206:\n        /* \"@openzeppelin/contracts/token/ERC1155/ERC1155.sol\":15171:15172  0 */\n      0x00\n        /* \"@openzeppelin/contracts/token/ERC1155/ERC1155.sol\":15154:15156  to */\n      dup5\n        /* \"@openzeppelin/contracts/token/ERC1155/ERC1155.sol\":15154:15168  to.code.length */\n      0xffffffffffffffffffffffffffffffffffffffff\n      and\n      extcodesize\n        /* \"@openzeppelin/contracts/token/ERC1155/ERC1155.sol\":15154:15172  to.code.length > 0 */\n      gt\n        /* \"@openzeppelin/contracts/token/ERC1155/ERC1155.sol\":15150:15958  if (to.code.length > 0) {... */\n      iszero\n      tag_251\n      jumpi\n        /* \"@openzeppelin/contracts/token/ERC1155/ERC1155.sol\":15209:15211  to */\n      dup4\n        /* \"@openzeppelin/contracts/token/ERC1155/ERC1155.sol\":15192:15235  IERC1155Receiver(to).onERC1155BatchReceived */\n      0xffffffffffffffffffffffffffffffffffffffff\n      and\n      0xbc197c81\n        /* \"@openzeppelin/contracts/token/ERC1155/ERC1155.sol\":15236:15244  operator */\n      dup8\n        /* \"@openzeppelin/contracts/token/ERC1155/ERC1155.sol\":15246:15250  from */\n      dup8\n        /* \"@openzeppelin/contracts/token/ERC1155/ERC1155.sol\":15252:15255  ids */\n      dup7\n        /* \"@openzeppelin/contracts/token/ERC1155/ERC1155.sol\":15257:15263  values */\n      dup7\n        /* \"@openzeppelin/contracts/token/ERC1155/ERC1155.sol\":15265:15269  data */\n      dup7\n        /* \"@openzeppelin/contracts/token/ERC1155/ERC1155.sol\":15192:15270  IERC1155Receiver(to).onERC1155BatchReceived(operator, from, ids, values, data) */\n      mload(0x40)\n      dup7\n      0xffffffff\n      and\n      0xe0\n      shl\n      dup2\n      mstore\n      0x04\n      add\n      tag_252\n      swap6\n      swap5\n      swap4\n      swap3\n      swap2\n      swap1\n      tag_253\n      jump\t// in\n    tag_252:\n      0x20\n      mload(0x40)\n      dup1\n      dup4\n      sub\n      dup2\n      0x00\n      dup8\n      gas\n      call\n      swap3\n      pop\n      pop\n      pop\n      dup1\n      iszero\n      tag_254\n      jumpi\n      pop\n      mload(0x40)\n      returndatasize\n      not(0x1f)\n      0x1f\n      dup3\n      add\n      and\n      dup3\n      add\n      dup1\n      0x40\n      mstore\n      pop\n      dup2\n      add\n      swap1\n      tag_255\n      swap2\n      swap1\n      tag_237\n      jump\t// in\n    tag_255:\n      0x01\n    tag_254:\n        /* \"@openzeppelin/contracts/token/ERC1155/ERC1155.sol\":15188:15948  try IERC1155Receiver(to).onERC1155BatchReceived(operator, from, ids, values, data) returns (... */\n      tag_256\n      jumpi\n      returndatasize\n      dup1\n      0x00\n      dup2\n      eq\n      tag_261\n      jumpi\n      mload(0x40)\n      swap2\n      pop\n      and(add(returndatasize, 0x3f), not(0x1f))\n      dup3\n      add\n      0x40\n      mstore\n      returndatasize\n      dup3\n      mstore\n      returndatasize\n      0x00\n      0x20\n      dup5\n      add\n      returndatacopy\n      jump(tag_260)\n    tag_261:\n      0x60\n      swap2\n      pop\n    tag_260:\n      pop\n        /* \"@openzeppelin/contracts/token/ERC1155/ERC1155.sol\":15606:15607  0 */\n      0x00\n        /* \"@openzeppelin/contracts/token/ERC1155/ERC1155.sol\":15589:15595  reason */\n      dup2\n        /* \"@openzeppelin/contracts/token/ERC1155/ERC1155.sol\":15589:15602  reason.length */\n      mload\n        /* \"@openzeppelin/contracts/token/ERC1155/ERC1155.sol\":15589:15607  reason.length == 0 */\n      sub\n        /* \"@openzeppelin/contracts/token/ERC1155/ERC1155.sol\":15585:15934  if (reason.length == 0) {... */\n      tag_262\n      jumpi\n        /* \"@openzeppelin/contracts/token/ERC1155/ERC1155.sol\":15716:15718  to */\n      dup5\n        /* \"@openzeppelin/contracts/token/ERC1155/ERC1155.sol\":15693:15719  ERC1155InvalidReceiver(to) */\n      mload(0x40)\n      0x57f447ce00000000000000000000000000000000000000000000000000000000\n      dup2\n      mstore\n      0x04\n      add\n      tag_263\n      swap2\n      swap1\n      tag_59\n      jump\t// in\n    tag_263:\n      mload(0x40)\n      dup1\n      swap2\n      sub\n      swap1\n      revert\n        /* \"@openzeppelin/contracts/token/ERC1155/ERC1155.sol\":15585:15934  if (reason.length == 0) {... */\n    tag_262:\n        /* \"@openzeppelin/contracts/token/ERC1155/ERC1155.sol\":15886:15892  reason */\n      dup1\n        /* \"@openzeppelin/contracts/token/ERC1155/ERC1155.sol\":15880:15893  mload(reason) */\n      mload\n        /* \"@openzeppelin/contracts/token/ERC1155/ERC1155.sol\":15871:15877  reason */\n      dup2\n        /* \"@openzeppelin/contracts/token/ERC1155/ERC1155.sol\":15867:15869  32 */\n      0x20\n        /* \"@openzeppelin/contracts/token/ERC1155/ERC1155.sol\":15863:15878  add(32, reason) */\n      add\n        /* \"@openzeppelin/contracts/token/ERC1155/ERC1155.sol\":15856:15894  revert(add(32, reason), mload(reason)) */\n      revert\n        /* \"@openzeppelin/contracts/token/ERC1155/ERC1155.sol\":15188:15948  try IERC1155Receiver(to).onERC1155BatchReceived(operator, from, ids, values, data) returns (... */\n    tag_256:\n        /* \"@openzeppelin/contracts/token/ERC1155/ERC1155.sol\":15361:15409  IERC1155Receiver.onERC1155BatchReceived.selector */\n      shl(0xe0, 0xbc197c81)\n        /* \"@openzeppelin/contracts/token/ERC1155/ERC1155.sol\":15349:15409  response != IERC1155Receiver.onERC1155BatchReceived.selector */\n      not(0xffffffffffffffffffffffffffffffffffffffffffffffffffffffff)\n      and\n        /* \"@openzeppelin/contracts/token/ERC1155/ERC1155.sol\":15349:15357  response */\n      dup2\n        /* \"@openzeppelin/contracts/token/ERC1155/ERC1155.sol\":15349:15409  response != IERC1155Receiver.onERC1155BatchReceived.selector */\n      not(0xffffffffffffffffffffffffffffffffffffffffffffffffffffffff)\n      and\n      eq\n        /* \"@openzeppelin/contracts/token/ERC1155/ERC1155.sol\":15345:15524  if (response != IERC1155Receiver.onERC1155BatchReceived.selector) {... */\n      tag_266\n      jumpi\n        /* \"@openzeppelin/contracts/token/ERC1155/ERC1155.sol\":15502:15504  to */\n      dup5\n        /* \"@openzeppelin/contracts/token/ERC1155/ERC1155.sol\":15479:15505  ERC1155InvalidReceiver(to) */\n      mload(0x40)\n      0x57f447ce00000000000000000000000000000000000000000000000000000000\n      dup2\n      mstore\n      0x04\n      add\n      tag_267\n      swap2\n      swap1\n      tag_59\n      jump\t// in\n    tag_267:\n      mload(0x40)\n      dup1\n      swap2\n      sub\n      swap1\n      revert\n        /* \"@openzeppelin/contracts/token/ERC1155/ERC1155.sol\":15345:15524  if (response != IERC1155Receiver.onERC1155BatchReceived.selector) {... */\n    tag_266:\n        /* \"@openzeppelin/contracts/token/ERC1155/ERC1155.sol\":15271:15538  returns (... */\n      pop\n        /* \"@openzeppelin/contracts/token/ERC1155/ERC1155.sol\":15150:15958  if (to.code.length > 0) {... */\n    tag_251:\n        /* \"@openzeppelin/contracts/token/ERC1155/ERC1155.sol\":14923:15964  function _doSafeBatchTransferAcceptanceCheck(... */\n      pop\n      pop\n      pop\n      pop\n      pop\n      pop\n      jump\t// out\n        /* \"#utility.yul\":7:82   */\n    tag_268:\n        /* \"#utility.yul\":40:46   */\n      0x00\n        /* \"#utility.yul\":73:75   */\n      0x40\n        /* \"#utility.yul\":67:76   */\n      mload\n        /* \"#utility.yul\":57:76   */\n      swap1\n      pop\n        /* \"#utility.yul\":7:82   */\n      swap1\n      jump\t// out\n        /* \"#utility.yul\":88:205   */\n    tag_269:\n        /* \"#utility.yul\":197:198   */\n      0x00\n        /* \"#utility.yul\":194:195   */\n      dup1\n        /* \"#utility.yul\":187:199   */\n      revert\n        /* \"#utility.yul\":211:328   */\n    tag_270:\n        /* \"#utility.yul\":320:321   */\n      0x00\n        /* \"#utility.yul\":317:318   */\n      dup1\n        /* \"#utility.yul\":310:322   */\n      revert\n        /* \"#utility.yul\":334:460   */\n    tag_271:\n        /* \"#utility.yul\":371:378   */\n      0x00\n        /* \"#utility.yul\":411:453   */\n      0xffffffffffffffffffffffffffffffffffffffff\n        /* \"#utility.yul\":404:409   */\n      dup3\n        /* \"#utility.yul\":400:454   */\n      and\n        /* \"#utility.yul\":389:454   */\n      swap1\n      pop\n        /* \"#utility.yul\":334:460   */\n      swap2\n      swap1\n      pop\n      jump\t// out\n        /* \"#utility.yul\":466:562   */\n    tag_272:\n        /* \"#utility.yul\":503:510   */\n      0x00\n        /* \"#utility.yul\":532:556   */\n      tag_344\n        /* \"#utility.yul\":550:555   */\n      dup3\n        /* \"#utility.yul\":532:556   */\n      tag_271\n      jump\t// in\n    tag_344:\n        /* \"#utility.yul\":521:556   */\n      swap1\n      pop\n        /* \"#utility.yul\":466:562   */\n      swap2\n      swap1\n      pop\n      jump\t// out\n        /* \"#utility.yul\":568:690   */\n    tag_273:\n        /* \"#utility.yul\":641:665   */\n      tag_346\n        /* \"#utility.yul\":659:664   */\n      dup2\n        /* \"#utility.yul\":641:665   */\n      tag_272\n      jump\t// in\n    tag_346:\n        /* \"#utility.yul\":634:639   */\n      dup2\n        /* \"#utility.yul\":631:666   */\n      eq\n        /* \"#utility.yul\":621:684   */\n      tag_347\n      jumpi\n        /* \"#utility.yul\":680:681   */\n      0x00\n        /* \"#utility.yul\":677:678   */\n      dup1\n        /* \"#utility.yul\":670:682   */\n      revert\n        /* \"#utility.yul\":621:684   */\n    tag_347:\n        /* \"#utility.yul\":568:690   */\n      pop\n      jump\t// out\n        /* \"#utility.yul\":696:835   */\n    tag_274:\n        /* \"#utility.yul\":742:747   */\n      0x00\n        /* \"#utility.yul\":780:786   */\n      dup2\n        /* \"#utility.yul\":767:787   */\n      calldataload\n        /* \"#utility.yul\":758:787   */\n      swap1\n      pop\n        /* \"#utility.yul\":796:829   */\n      tag_349\n        /* \"#utility.yul\":823:828   */\n      dup2\n        /* \"#utility.yul\":796:829   */\n      tag_273\n      jump\t// in\n    tag_349:\n        /* \"#utility.yul\":696:835   */\n      swap3\n      swap2\n      pop\n      pop\n      jump\t// out\n        /* \"#utility.yul\":841:918   */\n    tag_275:\n        /* \"#utility.yul\":878:885   */\n      0x00\n        /* \"#utility.yul\":907:912   */\n      dup2\n        /* \"#utility.yul\":896:912   */\n      swap1\n      pop\n        /* \"#utility.yul\":841:918   */\n      swap2\n      swap1\n      pop\n      jump\t// out\n        /* \"#utility.yul\":924:1046   */\n    tag_276:\n        /* \"#utility.yul\":997:1021   */\n      tag_352\n        /* \"#utility.yul\":1015:1020   */\n      dup2\n        /* \"#utility.yul\":997:1021   */\n      tag_275\n      jump\t// in\n    tag_352:\n        /* \"#utility.yul\":990:995   */\n      dup2\n        /* \"#utility.yul\":987:1022   */\n      eq\n        /* \"#utility.yul\":977:1040   */\n      tag_353\n      jumpi\n        /* \"#utility.yul\":1036:1037   */\n      0x00\n        /* \"#utility.yul\":1033:1034   */\n      dup1\n        /* \"#utility.yul\":1026:1038   */\n      revert\n        /* \"#utility.yul\":977:1040   */\n    tag_353:\n        /* \"#utility.yul\":924:1046   */\n      pop\n      jump\t// out\n        /* \"#utility.yul\":1052:1191   */\n    tag_277:\n        /* \"#utility.yul\":1098:1103   */\n      0x00\n        /* \"#utility.yul\":1136:1142   */\n      dup2\n        /* \"#utility.yul\":1123:1143   */\n      calldataload\n        /* \"#utility.yul\":1114:1143   */\n      swap1\n      pop\n        /* \"#utility.yul\":1152:1185   */\n      tag_355\n        /* \"#utility.yul\":1179:1184   */\n      dup2\n        /* \"#utility.yul\":1152:1185   */\n      tag_276\n      jump\t// in\n    tag_355:\n        /* \"#utility.yul\":1052:1191   */\n      swap3\n      swap2\n      pop\n      pop\n      jump\t// out\n        /* \"#utility.yul\":1197:1671   */\n    tag_20:\n        /* \"#utility.yul\":1265:1271   */\n      0x00\n        /* \"#utility.yul\":1273:1279   */\n      dup1\n        /* \"#utility.yul\":1322:1324   */\n      0x40\n        /* \"#utility.yul\":1310:1319   */\n      dup4\n        /* \"#utility.yul\":1301:1308   */\n      dup6\n        /* \"#utility.yul\":1297:1320   */\n      sub\n        /* \"#utility.yul\":1293:1325   */\n      slt\n        /* \"#utility.yul\":1290:1409   */\n      iszero\n      tag_357\n      jumpi\n        /* \"#utility.yul\":1328:1407   */\n      tag_358\n      tag_269\n      jump\t// in\n    tag_358:\n        /* \"#utility.yul\":1290:1409   */\n    tag_357:\n        /* \"#utility.yul\":1448:1449   */\n      0x00\n        /* \"#utility.yul\":1473:1526   */\n      tag_359\n        /* \"#utility.yul\":1518:1525   */\n      dup6\n        /* \"#utility.yul\":1509:1515   */\n      dup3\n        /* \"#utility.yul\":1498:1507   */\n      dup7\n        /* \"#utility.yul\":1494:1516   */\n      add\n        /* \"#utility.yul\":1473:1526   */\n      tag_274\n      jump\t// in\n    tag_359:\n        /* \"#utility.yul\":1463:1526   */\n      swap3\n      pop\n        /* \"#utility.yul\":1419:1536   */\n      pop\n        /* \"#utility.yul\":1575:1577   */\n      0x20\n        /* \"#utility.yul\":1601:1654   */\n      tag_360\n        /* \"#utility.yul\":1646:1653   */\n      dup6\n        /* \"#utility.yul\":1637:1643   */\n      dup3\n        /* \"#utility.yul\":1626:1635   */\n      dup7\n        /* \"#utility.yul\":1622:1644   */\n      add\n        /* \"#utility.yul\":1601:1654   */\n      tag_277\n      jump\t// in\n    tag_360:\n        /* \"#utility.yul\":1591:1654   */\n      swap2\n      pop\n        /* \"#utility.yul\":1546:1664   */\n      pop\n        /* \"#utility.yul\":1197:1671   */\n      swap3\n      pop\n      swap3\n      swap1\n      pop\n      jump\t// out\n        /* \"#utility.yul\":1677:1795   */\n    tag_278:\n        /* \"#utility.yul\":1764:1788   */\n      tag_362\n        /* \"#utility.yul\":1782:1787   */\n      dup2\n        /* \"#utility.yul\":1764:1788   */\n      tag_275\n      jump\t// in\n    tag_362:\n        /* \"#utility.yul\":1759:1762   */\n      dup3\n        /* \"#utility.yul\":1752:1789   */\n      mstore\n        /* \"#utility.yul\":1677:1795   */\n      pop\n      pop\n      jump\t// out\n        /* \"#utility.yul\":1801:2023   */\n    tag_23:\n        /* \"#utility.yul\":1894:1898   */\n      0x00\n        /* \"#utility.yul\":1932:1934   */\n      0x20\n        /* \"#utility.yul\":1921:1930   */\n      dup3\n        /* \"#utility.yul\":1917:1935   */\n      add\n        /* \"#utility.yul\":1909:1935   */\n      swap1\n      pop\n        /* \"#utility.yul\":1945:2016   */\n      tag_364\n        /* \"#utility.yul\":2013:2014   */\n      0x00\n        /* \"#utility.yul\":2002:2011   */\n      dup4\n        /* \"#utility.yul\":1998:2015   */\n      add\n        /* \"#utility.yul\":1989:1995   */\n      dup5\n        /* \"#utility.yul\":1945:2016   */\n      tag_278\n      jump\t// in\n    tag_364:\n        /* \"#utility.yul\":1801:2023   */\n      swap3\n      swap2\n      pop\n      pop\n      jump\t// out\n        /* \"#utility.yul\":2029:2178   */\n    tag_279:\n        /* \"#utility.yul\":2065:2072   */\n      0x00\n        /* \"#utility.yul\":2105:2171   */\n      0xffffffff00000000000000000000000000000000000000000000000000000000\n        /* \"#utility.yul\":2098:2103   */\n      dup3\n        /* \"#utility.yul\":2094:2172   */\n      and\n        /* \"#utility.yul\":2083:2172   */\n      swap1\n      pop\n        /* \"#utility.yul\":2029:2178   */\n      swap2\n      swap1\n      pop\n      jump\t// out\n        /* \"#utility.yul\":2184:2304   */\n    tag_280:\n        /* \"#utility.yul\":2256:2279   */\n      tag_367\n        /* \"#utility.yul\":2273:2278   */\n      dup2\n        /* \"#utility.yul\":2256:2279   */\n      tag_279\n      jump\t// in\n    tag_367:\n        /* \"#utility.yul\":2249:2254   */\n      dup2\n        /* \"#utility.yul\":2246:2280   */\n      eq\n        /* \"#utility.yul\":2236:2298   */\n      tag_368\n      jumpi\n        /* \"#utility.yul\":2294:2295   */\n      0x00\n        /* \"#utility.yul\":2291:2292   */\n      dup1\n        /* \"#utility.yul\":2284:2296   */\n      revert\n        /* \"#utility.yul\":2236:2298   */\n    tag_368:\n        /* \"#utility.yul\":2184:2304   */\n      pop\n      jump\t// out\n        /* \"#utility.yul\":2310:2447   */\n    tag_281:\n        /* \"#utility.yul\":2355:2360   */\n      0x00\n        /* \"#utility.yul\":2393:2399   */\n      dup2\n        /* \"#utility.yul\":2380:2400   */\n      calldataload\n        /* \"#utility.yul\":2371:2400   */\n      swap1\n      pop\n        /* \"#utility.yul\":2409:2441   */\n      tag_370\n        /* \"#utility.yul\":2435:2440   */\n      dup2\n        /* \"#utility.yul\":2409:2441   */\n      tag_280\n      jump\t// in\n    tag_370:\n        /* \"#utility.yul\":2310:2447   */\n      swap3\n      swap2\n      pop\n      pop\n      jump\t// out\n        /* \"#utility.yul\":2453:2780   */\n    tag_26:\n        /* \"#utility.yul\":2511:2517   */\n      0x00\n        /* \"#utility.yul\":2560:2562   */\n      0x20\n        /* \"#utility.yul\":2548:2557   */\n      dup3\n        /* \"#utility.yul\":2539:2546   */\n      dup5\n        /* \"#utility.yul\":2535:2558   */\n      sub\n        /* \"#utility.yul\":2531:2563   */\n      slt\n        /* \"#utility.yul\":2528:2647   */\n      iszero\n      tag_372\n      jumpi\n        /* \"#utility.yul\":2566:2645   */\n      tag_373\n      tag_269\n      jump\t// in\n    tag_373:\n        /* \"#utility.yul\":2528:2647   */\n    tag_372:\n        /* \"#utility.yul\":2686:2687   */\n      0x00\n        /* \"#utility.yul\":2711:2763   */\n      tag_374\n        /* \"#utility.yul\":2755:2762   */\n      dup5\n        /* \"#utility.yul\":2746:2752   */\n      dup3\n        /* \"#utility.yul\":2735:2744   */\n      dup6\n        /* \"#utility.yul\":2731:2753   */\n      add\n        /* \"#utility.yul\":2711:2763   */\n      tag_281\n      jump\t// in\n    tag_374:\n        /* \"#utility.yul\":2701:2763   */\n      swap2\n      pop\n        /* \"#utility.yul\":2657:2773   */\n      pop\n        /* \"#utility.yul\":2453:2780   */\n      swap3\n      swap2\n      pop\n      pop\n      jump\t// out\n        /* \"#utility.yul\":2786:2876   */\n    tag_282:\n        /* \"#utility.yul\":2820:2827   */\n      0x00\n        /* \"#utility.yul\":2863:2868   */\n      dup2\n        /* \"#utility.yul\":2856:2869   */\n      iszero\n        /* \"#utility.yul\":2849:2870   */\n      iszero\n        /* \"#utility.yul\":2838:2870   */\n      swap1\n      pop\n        /* \"#utility.yul\":2786:2876   */\n      swap2\n      swap1\n      pop\n      jump\t// out\n        /* \"#utility.yul\":2882:2991   */\n    tag_283:\n        /* \"#utility.yul\":2963:2984   */\n      tag_377\n        /* \"#utility.yul\":2978:2983   */\n      dup2\n        /* \"#utility.yul\":2963:2984   */\n      tag_282\n      jump\t// in\n    tag_377:\n        /* \"#utility.yul\":2958:2961   */\n      dup3\n        /* \"#utility.yul\":2951:2985   */\n      mstore\n        /* \"#utility.yul\":2882:2991   */\n      pop\n      pop\n      jump\t// out\n        /* \"#utility.yul\":2997:3207   */\n    tag_29:\n        /* \"#utility.yul\":3084:3088   */\n      0x00\n        /* \"#utility.yul\":3122:3124   */\n      0x20\n        /* \"#utility.yul\":3111:3120   */\n      dup3\n        /* \"#utility.yul\":3107:3125   */\n      add\n        /* \"#utility.yul\":3099:3125   */\n      swap1\n      pop\n        /* \"#utility.yul\":3135:3200   */\n      tag_379\n        /* \"#utility.yul\":3197:3198   */\n      0x00\n        /* \"#utility.yul\":3186:3195   */\n      dup4\n        /* \"#utility.yul\":3182:3199   */\n      add\n        /* \"#utility.yul\":3173:3179   */\n      dup5\n        /* \"#utility.yul\":3135:3200   */\n      tag_283\n      jump\t// in\n    tag_379:\n        /* \"#utility.yul\":2997:3207   */\n      swap3\n      swap2\n      pop\n      pop\n      jump\t// out\n        /* \"#utility.yul\":3213:3330   */\n    tag_284:\n        /* \"#utility.yul\":3322:3323   */\n      0x00\n        /* \"#utility.yul\":3319:3320   */\n      dup1\n        /* \"#utility.yul\":3312:3324   */\n      revert\n        /* \"#utility.yul\":3336:3453   */\n    tag_285:\n        /* \"#utility.yul\":3445:3446   */\n      0x00\n        /* \"#utility.yul\":3442:3443   */\n      dup1\n        /* \"#utility.yul\":3435:3447   */\n      revert\n        /* \"#utility.yul\":3459:3561   */\n    tag_286:\n        /* \"#utility.yul\":3500:3506   */\n      0x00\n        /* \"#utility.yul\":3551:3553   */\n      0x1f\n        /* \"#utility.yul\":3547:3554   */\n      not\n        /* \"#utility.yul\":3542:3544   */\n      0x1f\n        /* \"#utility.yul\":3535:3540   */\n      dup4\n        /* \"#utility.yul\":3531:3545   */\n      add\n        /* \"#utility.yul\":3527:3555   */\n      and\n        /* \"#utility.yul\":3517:3555   */\n      swap1\n      pop\n        /* \"#utility.yul\":3459:3561   */\n      swap2\n      swap1\n      pop\n      jump\t// out\n        /* \"#utility.yul\":3567:3747   */\n    tag_115:\n        /* \"#utility.yul\":3615:3692   */\n      0x4e487b7100000000000000000000000000000000000000000000000000000000\n        /* \"#utility.yul\":3612:3613   */\n      0x00\n        /* \"#utility.yul\":3605:3693   */\n      mstore\n        /* \"#utility.yul\":3712:3716   */\n      0x41\n        /* \"#utility.yul\":3709:3710   */\n      0x04\n        /* \"#utility.yul\":3702:3717   */\n      mstore\n        /* \"#utility.yul\":3736:3740   */\n      0x24\n        /* \"#utility.yul\":3733:3734   */\n      0x00\n        /* \"#utility.yul\":3726:3741   */\n      revert\n        /* \"#utility.yul\":3753:4034   */\n    tag_287:\n        /* \"#utility.yul\":3836:3863   */\n      tag_385\n        /* \"#utility.yul\":3858:3862   */\n      dup3\n        /* \"#utility.yul\":3836:3863   */\n      tag_286\n      jump\t// in\n    tag_385:\n        /* \"#utility.yul\":3828:3834   */\n      dup2\n        /* \"#utility.yul\":3824:3864   */\n      add\n        /* \"#utility.yul\":3966:3972   */\n      dup2\n        /* \"#utility.yul\":3954:3964   */\n      dup2\n        /* \"#utility.yul\":3951:3973   */\n      lt\n        /* \"#utility.yul\":3930:3948   */\n      0xffffffffffffffff\n        /* \"#utility.yul\":3918:3928   */\n      dup3\n        /* \"#utility.yul\":3915:3949   */\n      gt\n        /* \"#utility.yul\":3912:3974   */\n      or\n        /* \"#utility.yul\":3909:3997   */\n      iszero\n      tag_386\n      jumpi\n        /* \"#utility.yul\":3977:3995   */\n      tag_387\n      tag_115\n      jump\t// in\n    tag_387:\n        /* \"#utility.yul\":3909:3997   */\n    tag_386:\n        /* \"#utility.yul\":4017:4027   */\n      dup1\n        /* \"#utility.yul\":4013:4015   */\n      0x40\n        /* \"#utility.yul\":4006:4028   */\n      mstore\n        /* \"#utility.yul\":3796:4034   */\n      pop\n        /* \"#utility.yul\":3753:4034   */\n      pop\n      pop\n      jump\t// out\n        /* \"#utility.yul\":4040:4169   */\n    tag_288:\n        /* \"#utility.yul\":4074:4080   */\n      0x00\n        /* \"#utility.yul\":4101:4121   */\n      tag_389\n      tag_268\n      jump\t// in\n    tag_389:\n        /* \"#utility.yul\":4091:4121   */\n      swap1\n      pop\n        /* \"#utility.yul\":4130:4163   */\n      tag_390\n        /* \"#utility.yul\":4158:4162   */\n      dup3\n        /* \"#utility.yul\":4150:4156   */\n      dup3\n        /* \"#utility.yul\":4130:4163   */\n      tag_287\n      jump\t// in\n    tag_390:\n        /* \"#utility.yul\":4040:4169   */\n      swap2\n      swap1\n      pop\n      jump\t// out\n        /* \"#utility.yul\":4175:4483   */\n    tag_289:\n        /* \"#utility.yul\":4237:4241   */\n      0x00\n        /* \"#utility.yul\":4327:4345   */\n      0xffffffffffffffff\n        /* \"#utility.yul\":4319:4325   */\n      dup3\n        /* \"#utility.yul\":4316:4346   */\n      gt\n        /* \"#utility.yul\":4313:4369   */\n      iszero\n      tag_392\n      jumpi\n        /* \"#utility.yul\":4349:4367   */\n      tag_393\n      tag_115\n      jump\t// in\n    tag_393:\n        /* \"#utility.yul\":4313:4369   */\n    tag_392:\n        /* \"#utility.yul\":4387:4416   */\n      tag_394\n        /* \"#utility.yul\":4409:4415   */\n      dup3\n        /* \"#utility.yul\":4387:4416   */\n      tag_286\n      jump\t// in\n    tag_394:\n        /* \"#utility.yul\":4379:4416   */\n      swap1\n      pop\n        /* \"#utility.yul\":4471:4475   */\n      0x20\n        /* \"#utility.yul\":4465:4469   */\n      dup2\n        /* \"#utility.yul\":4461:4476   */\n      add\n        /* \"#utility.yul\":4453:4476   */\n      swap1\n      pop\n        /* \"#utility.yul\":4175:4483   */\n      swap2\n      swap1\n      pop\n      jump\t// out\n        /* \"#utility.yul\":4489:4635   */\n    tag_290:\n        /* \"#utility.yul\":4586:4592   */\n      dup3\n        /* \"#utility.yul\":4581:4584   */\n      dup2\n        /* \"#utility.yul\":4576:4579   */\n      dup4\n        /* \"#utility.yul\":4563:4593   */\n      calldatacopy\n        /* \"#utility.yul\":4627:4628   */\n      0x00\n        /* \"#utility.yul\":4618:4624   */\n      dup4\n        /* \"#utility.yul\":4613:4616   */\n      dup4\n        /* \"#utility.yul\":4609:4625   */\n      add\n        /* \"#utility.yul\":4602:4629   */\n      mstore\n        /* \"#utility.yul\":4489:4635   */\n      pop\n      pop\n      pop\n      jump\t// out\n        /* \"#utility.yul\":4641:5066   */\n    tag_291:\n        /* \"#utility.yul\":4719:4724   */\n      0x00\n        /* \"#utility.yul\":4744:4810   */\n      tag_397\n        /* \"#utility.yul\":4760:4809   */\n      tag_398\n        /* \"#utility.yul\":4802:4808   */\n      dup5\n        /* \"#utility.yul\":4760:4809   */\n      tag_289\n      jump\t// in\n    tag_398:\n        /* \"#utility.yul\":4744:4810   */\n      tag_288\n      jump\t// in\n    tag_397:\n        /* \"#utility.yul\":4735:4810   */\n      swap1\n      pop\n        /* \"#utility.yul\":4833:4839   */\n      dup3\n        /* \"#utility.yul\":4826:4831   */\n      dup2\n        /* \"#utility.yul\":4819:4840   */\n      mstore\n        /* \"#utility.yul\":4871:4875   */\n      0x20\n        /* \"#utility.yul\":4864:4869   */\n      dup2\n        /* \"#utility.yul\":4860:4876   */\n      add\n        /* \"#utility.yul\":4909:4912   */\n      dup5\n        /* \"#utility.yul\":4900:4906   */\n      dup5\n        /* \"#utility.yul\":4895:4898   */\n      dup5\n        /* \"#utility.yul\":4891:4907   */\n      add\n        /* \"#utility.yul\":4888:4913   */\n      gt\n        /* \"#utility.yul\":4885:4997   */\n      iszero\n      tag_399\n      jumpi\n        /* \"#utility.yul\":4916:4995   */\n      tag_400\n      tag_285\n      jump\t// in\n    tag_400:\n        /* \"#utility.yul\":4885:4997   */\n    tag_399:\n        /* \"#utility.yul\":5006:5060   */\n      tag_401\n        /* \"#utility.yul\":5053:5059   */\n      dup5\n        /* \"#utility.yul\":5048:5051   */\n      dup3\n        /* \"#utility.yul\":5043:5046   */\n      dup6\n        /* \"#utility.yul\":5006:5060   */\n      tag_290\n      jump\t// in\n    tag_401:\n        /* \"#utility.yul\":4725:5066   */\n      pop\n        /* \"#utility.yul\":4641:5066   */\n      swap4\n      swap3\n      pop\n      pop\n      pop\n      jump\t// out\n        /* \"#utility.yul\":5086:5426   */\n    tag_292:\n        /* \"#utility.yul\":5142:5147   */\n      0x00\n        /* \"#utility.yul\":5191:5194   */\n      dup3\n        /* \"#utility.yul\":5184:5188   */\n      0x1f\n        /* \"#utility.yul\":5176:5182   */\n      dup4\n        /* \"#utility.yul\":5172:5189   */\n      add\n        /* \"#utility.yul\":5168:5195   */\n      slt\n        /* \"#utility.yul\":5158:5280   */\n      tag_403\n      jumpi\n        /* \"#utility.yul\":5199:5278   */\n      tag_404\n      tag_284\n      jump\t// in\n    tag_404:\n        /* \"#utility.yul\":5158:5280   */\n    tag_403:\n        /* \"#utility.yul\":5316:5322   */\n      dup2\n        /* \"#utility.yul\":5303:5323   */\n      calldataload\n        /* \"#utility.yul\":5341:5420   */\n      tag_405\n        /* \"#utility.yul\":5416:5419   */\n      dup5\n        /* \"#utility.yul\":5408:5414   */\n      dup3\n        /* \"#utility.yul\":5401:5405   */\n      0x20\n        /* \"#utility.yul\":5393:5399   */\n      dup7\n        /* \"#utility.yul\":5389:5406   */\n      add\n        /* \"#utility.yul\":5341:5420   */\n      tag_291\n      jump\t// in\n    tag_405:\n        /* \"#utility.yul\":5332:5420   */\n      swap2\n      pop\n        /* \"#utility.yul\":5148:5426   */\n      pop\n        /* \"#utility.yul\":5086:5426   */\n      swap3\n      swap2\n      pop\n      pop\n      jump\t// out\n        /* \"#utility.yul\":5432:5941   */\n    tag_32:\n        /* \"#utility.yul\":5501:5507   */\n      0x00\n        /* \"#utility.yul\":5550:5552   */\n      0x20\n        /* \"#utility.yul\":5538:5547   */\n      dup3\n        /* \"#utility.yul\":5529:5536   */\n      dup5\n        /* \"#utility.yul\":5525:5548   */\n      sub\n        /* \"#utility.yul\":5521:5553   */\n      slt\n        /* \"#utility.yul\":5518:5637   */\n      iszero\n      tag_407\n      jumpi\n        /* \"#utility.yul\":5556:5635   */\n      tag_408\n      tag_269\n      jump\t// in\n    tag_408:\n        /* \"#utility.yul\":5518:5637   */\n    tag_407:\n        /* \"#utility.yul\":5704:5705   */\n      0x00\n        /* \"#utility.yul\":5693:5702   */\n      dup3\n        /* \"#utility.yul\":5689:5706   */\n      add\n        /* \"#utility.yul\":5676:5707   */\n      calldataload\n        /* \"#utility.yul\":5734:5752   */\n      0xffffffffffffffff\n        /* \"#utility.yul\":5726:5732   */\n      dup2\n        /* \"#utility.yul\":5723:5753   */\n      gt\n        /* \"#utility.yul\":5720:5837   */\n      iszero\n      tag_409\n      jumpi\n        /* \"#utility.yul\":5756:5835   */\n      tag_410\n      tag_270\n      jump\t// in\n    tag_410:\n        /* \"#utility.yul\":5720:5837   */\n    tag_409:\n        /* \"#utility.yul\":5861:5924   */\n      tag_411\n        /* \"#utility.yul\":5916:5923   */\n      dup5\n        /* \"#utility.yul\":5907:5913   */\n      dup3\n        /* \"#utility.yul\":5896:5905   */\n      dup6\n        /* \"#utility.yul\":5892:5914   */\n      add\n        /* \"#utility.yul\":5861:5924   */\n      tag_292\n      jump\t// in\n    tag_411:\n        /* \"#utility.yul\":5851:5924   */\n      swap2\n      pop\n        /* \"#utility.yul\":5647:5934   */\n      pop\n        /* \"#utility.yul\":5432:5941   */\n      swap3\n      swap2\n      pop\n      pop\n      jump\t// out\n        /* \"#utility.yul\":5947:6254   */\n    tag_293:\n        /* \"#utility.yul\":6008:6012   */\n      0x00\n        /* \"#utility.yul\":6098:6116   */\n      0xffffffffffffffff\n        /* \"#utility.yul\":6090:6096   */\n      dup3\n        /* \"#utility.yul\":6087:6117   */\n      gt\n        /* \"#utility.yul\":6084:6140   */\n      iszero\n      tag_413\n      jumpi\n        /* \"#utility.yul\":6120:6138   */\n      tag_414\n      tag_115\n      jump\t// in\n    tag_414:\n        /* \"#utility.yul\":6084:6140   */\n    tag_413:\n        /* \"#utility.yul\":6158:6187   */\n      tag_415\n        /* \"#utility.yul\":6180:6186   */\n      dup3\n        /* \"#utility.yul\":6158:6187   */\n      tag_286\n      jump\t// in\n    tag_415:\n        /* \"#utility.yul\":6150:6187   */\n      swap1\n      pop\n        /* \"#utility.yul\":6242:6246   */\n      0x20\n        /* \"#utility.yul\":6236:6240   */\n      dup2\n        /* \"#utility.yul\":6232:6247   */\n      add\n        /* \"#utility.yul\":6224:6247   */\n      swap1\n      pop\n        /* \"#utility.yul\":5947:6254   */\n      swap2\n      swap1\n      pop\n      jump\t// out\n        /* \"#utility.yul\":6260:6683   */\n    tag_294:\n        /* \"#utility.yul\":6337:6342   */\n      0x00\n        /* \"#utility.yul\":6362:6427   */\n      tag_417\n        /* \"#utility.yul\":6378:6426   */\n      tag_418\n        /* \"#utility.yul\":6419:6425   */\n      dup5\n        /* \"#utility.yul\":6378:6426   */\n      tag_293\n      jump\t// in\n    tag_418:\n        /* \"#utility.yul\":6362:6427   */\n      tag_288\n      jump\t// in\n    tag_417:\n        /* \"#utility.yul\":6353:6427   */\n      swap1\n      pop\n        /* \"#utility.yul\":6450:6456   */\n      dup3\n        /* \"#utility.yul\":6443:6448   */\n      dup2\n        /* \"#utility.yul\":6436:6457   */\n      mstore\n        /* \"#utility.yul\":6488:6492   */\n      0x20\n        /* \"#utility.yul\":6481:6486   */\n      dup2\n        /* \"#utility.yul\":6477:6493   */\n      add\n        /* \"#utility.yul\":6526:6529   */\n      dup5\n        /* \"#utility.yul\":6517:6523   */\n      dup5\n        /* \"#utility.yul\":6512:6515   */\n      dup5\n        /* \"#utility.yul\":6508:6524   */\n      add\n        /* \"#utility.yul\":6505:6530   */\n      gt\n        /* \"#utility.yul\":6502:6614   */\n      iszero\n      tag_419\n      jumpi\n        /* \"#utility.yul\":6533:6612   */\n      tag_420\n      tag_285\n      jump\t// in\n    tag_420:\n        /* \"#utility.yul\":6502:6614   */\n    tag_419:\n        /* \"#utility.yul\":6623:6677   */\n      tag_421\n        /* \"#utility.yul\":6670:6676   */\n      dup5\n        /* \"#utility.yul\":6665:6668   */\n      dup3\n        /* \"#utility.yul\":6660:6663   */\n      dup6\n        /* \"#utility.yul\":6623:6677   */\n      tag_290\n      jump\t// in\n    tag_421:\n        /* \"#utility.yul\":6343:6683   */\n      pop\n        /* \"#utility.yul\":6260:6683   */\n      swap4\n      swap3\n      pop\n      pop\n      pop\n      jump\t// out\n        /* \"#utility.yul\":6702:7040   */\n    tag_295:\n        /* \"#utility.yul\":6757:6762   */\n      0x00\n        /* \"#utility.yul\":6806:6809   */\n      dup3\n        /* \"#utility.yul\":6799:6803   */\n      0x1f\n        /* \"#utility.yul\":6791:6797   */\n      dup4\n        /* \"#utility.yul\":6787:6804   */\n      add\n        /* \"#utility.yul\":6783:6810   */\n      slt\n        /* \"#utility.yul\":6773:6895   */\n      tag_423\n      jumpi\n        /* \"#utility.yul\":6814:6893   */\n      tag_424\n      tag_284\n      jump\t// in\n    tag_424:\n        /* \"#utility.yul\":6773:6895   */\n    tag_423:\n        /* \"#utility.yul\":6931:6937   */\n      dup2\n        /* \"#utility.yul\":6918:6938   */\n      calldataload\n        /* \"#utility.yul\":6956:7034   */\n      tag_425\n        /* \"#utility.yul\":7030:7033   */\n      dup5\n        /* \"#utility.yul\":7022:7028   */\n      dup3\n        /* \"#utility.yul\":7015:7019   */\n      0x20\n        /* \"#utility.yul\":7007:7013   */\n      dup7\n        /* \"#utility.yul\":7003:7020   */\n      add\n        /* \"#utility.yul\":6956:7034   */\n      tag_294\n      jump\t// in\n    tag_425:\n        /* \"#utility.yul\":6947:7034   */\n      swap2\n      pop\n        /* \"#utility.yul\":6763:7040   */\n      pop\n        /* \"#utility.yul\":6702:7040   */\n      swap3\n      swap2\n      pop\n      pop\n      jump\t// out\n        /* \"#utility.yul\":7046:7843   */\n    tag_36:\n        /* \"#utility.yul\":7132:7138   */\n      0x00\n        /* \"#utility.yul\":7140:7146   */\n      dup1\n        /* \"#utility.yul\":7148:7154   */\n      0x00\n        /* \"#utility.yul\":7197:7199   */\n      0x60\n        /* \"#utility.yul\":7185:7194   */\n      dup5\n        /* \"#utility.yul\":7176:7183   */\n      dup7\n        /* \"#utility.yul\":7172:7195   */\n      sub\n        /* \"#utility.yul\":7168:7200   */\n      slt\n        /* \"#utility.yul\":7165:7284   */\n      iszero\n      tag_427\n      jumpi\n        /* \"#utility.yul\":7203:7282   */\n      tag_428\n      tag_269\n      jump\t// in\n    tag_428:\n        /* \"#utility.yul\":7165:7284   */\n    tag_427:\n        /* \"#utility.yul\":7323:7324   */\n      0x00\n        /* \"#utility.yul\":7348:7401   */\n      tag_429\n        /* \"#utility.yul\":7393:7400   */\n      dup7\n        /* \"#utility.yul\":7384:7390   */\n      dup3\n        /* \"#utility.yul\":7373:7382   */\n      dup8\n        /* \"#utility.yul\":7369:7391   */\n      add\n        /* \"#utility.yul\":7348:7401   */\n      tag_277\n      jump\t// in\n    tag_429:\n        /* \"#utility.yul\":7338:7401   */\n      swap4\n      pop\n        /* \"#utility.yul\":7294:7411   */\n      pop\n        /* \"#utility.yul\":7450:7452   */\n      0x20\n        /* \"#utility.yul\":7476:7529   */\n      tag_430\n        /* \"#utility.yul\":7521:7528   */\n      dup7\n        /* \"#utility.yul\":7512:7518   */\n      dup3\n        /* \"#utility.yul\":7501:7510   */\n      dup8\n        /* \"#utility.yul\":7497:7519   */\n      add\n        /* \"#utility.yul\":7476:7529   */\n      tag_277\n      jump\t// in\n    tag_430:\n        /* \"#utility.yul\":7466:7529   */\n      swap3\n      pop\n        /* \"#utility.yul\":7421:7539   */\n      pop\n        /* \"#utility.yul\":7606:7608   */\n      0x40\n        /* \"#utility.yul\":7595:7604   */\n      dup5\n        /* \"#utility.yul\":7591:7609   */\n      add\n        /* \"#utility.yul\":7578:7610   */\n      calldataload\n        /* \"#utility.yul\":7637:7655   */\n      0xffffffffffffffff\n        /* \"#utility.yul\":7629:7635   */\n      dup2\n        /* \"#utility.yul\":7626:7656   */\n      gt\n        /* \"#utility.yul\":7623:7740   */\n      iszero\n      tag_431\n      jumpi\n        /* \"#utility.yul\":7659:7738   */\n      tag_432\n      tag_270\n      jump\t// in\n    tag_432:\n        /* \"#utility.yul\":7623:7740   */\n    tag_431:\n        /* \"#utility.yul\":7764:7826   */\n      tag_433\n        /* \"#utility.yul\":7818:7825   */\n      dup7\n        /* \"#utility.yul\":7809:7815   */\n      dup3\n        /* \"#utility.yul\":7798:7807   */\n      dup8\n        /* \"#utility.yul\":7794:7816   */\n      add\n        /* \"#utility.yul\":7764:7826   */\n      tag_295\n      jump\t// in\n    tag_433:\n        /* \"#utility.yul\":7754:7826   */\n      swap2\n      pop\n        /* \"#utility.yul\":7549:7836   */\n      pop\n        /* \"#utility.yul\":7046:7843   */\n      swap3\n      pop\n      swap3\n      pop\n      swap3\n      jump\t// out\n        /* \"#utility.yul\":7849:8178   */\n    tag_40:\n        /* \"#utility.yul\":7908:7914   */\n      0x00\n        /* \"#utility.yul\":7957:7959   */\n      0x20\n        /* \"#utility.yul\":7945:7954   */\n      dup3\n        /* \"#utility.yul\":7936:7943   */\n      dup5\n        /* \"#utility.yul\":7932:7955   */\n      sub\n        /* \"#utility.yul\":7928:7960   */\n      slt\n        /* \"#utility.yul\":7925:8044   */\n      iszero\n      tag_435\n      jumpi\n        /* \"#utility.yul\":7963:8042   */\n      tag_436\n      tag_269\n      jump\t// in\n    tag_436:\n        /* \"#utility.yul\":7925:8044   */\n    tag_435:\n        /* \"#utility.yul\":8083:8084   */\n      0x00\n        /* \"#utility.yul\":8108:8161   */\n      tag_437\n        /* \"#utility.yul\":8153:8160   */\n      dup5\n        /* \"#utility.yul\":8144:8150   */\n      dup3\n        /* \"#utility.yul\":8133:8142   */\n      dup6\n        /* \"#utility.yul\":8129:8151   */\n      add\n        /* \"#utility.yul\":8108:8161   */\n      tag_277\n      jump\t// in\n    tag_437:\n        /* \"#utility.yul\":8098:8161   */\n      swap2\n      pop\n        /* \"#utility.yul\":8054:8171   */\n      pop\n        /* \"#utility.yul\":7849:8178   */\n      swap3\n      swap2\n      pop\n      pop\n      jump\t// out\n        /* \"#utility.yul\":8184:8283   */\n    tag_296:\n        /* \"#utility.yul\":8236:8242   */\n      0x00\n        /* \"#utility.yul\":8270:8275   */\n      dup2\n        /* \"#utility.yul\":8264:8276   */\n      mload\n        /* \"#utility.yul\":8254:8276   */\n      swap1\n      pop\n        /* \"#utility.yul\":8184:8283   */\n      swap2\n      swap1\n      pop\n      jump\t// out\n        /* \"#utility.yul\":8289:8458   */\n    tag_297:\n        /* \"#utility.yul\":8373:8384   */\n      0x00\n        /* \"#utility.yul\":8407:8413   */\n      dup3\n        /* \"#utility.yul\":8402:8405   */\n      dup3\n        /* \"#utility.yul\":8395:8414   */\n      mstore\n        /* \"#utility.yul\":8447:8451   */\n      0x20\n        /* \"#utility.yul\":8442:8445   */\n      dup3\n        /* \"#utility.yul\":8438:8452   */\n      add\n        /* \"#utility.yul\":8423:8452   */\n      swap1\n      pop\n        /* \"#utility.yul\":8289:8458   */\n      swap3\n      swap2\n      pop\n      pop\n      jump\t// out\n        /* \"#utility.yul\":8464:8710   */\n    tag_298:\n        /* \"#utility.yul\":8545:8546   */\n      0x00\n        /* \"#utility.yul\":8555:8668   */\n    tag_441:\n        /* \"#utility.yul\":8569:8575   */\n      dup4\n        /* \"#utility.yul\":8566:8567   */\n      dup2\n        /* \"#utility.yul\":8563:8576   */\n      lt\n        /* \"#utility.yul\":8555:8668   */\n      iszero\n      tag_443\n      jumpi\n        /* \"#utility.yul\":8654:8655   */\n      dup1\n        /* \"#utility.yul\":8649:8652   */\n      dup3\n        /* \"#utility.yul\":8645:8656   */\n      add\n        /* \"#utility.yul\":8639:8657   */\n      mload\n        /* \"#utility.yul\":8635:8636   */\n      dup2\n        /* \"#utility.yul\":8630:8633   */\n      dup5\n        /* \"#utility.yul\":8626:8637   */\n      add\n        /* \"#utility.yul\":8619:8658   */\n      mstore\n        /* \"#utility.yul\":8591:8593   */\n      0x20\n        /* \"#utility.yul\":8588:8589   */\n      dup2\n        /* \"#utility.yul\":8584:8594   */\n      add\n        /* \"#utility.yul\":8579:8594   */\n      swap1\n      pop\n        /* \"#utility.yul\":8555:8668   */\n      jump(tag_441)\n    tag_443:\n        /* \"#utility.yul\":8702:8703   */\n      0x00\n        /* \"#utility.yul\":8693:8699   */\n      dup5\n        /* \"#utility.yul\":8688:8691   */\n      dup5\n        /* \"#utility.yul\":8684:8700   */\n      add\n        /* \"#utility.yul\":8677:8704   */\n      mstore\n        /* \"#utility.yul\":8526:8710   */\n      pop\n        /* \"#utility.yul\":8464:8710   */\n      pop\n      pop\n      pop\n      jump\t// out\n        /* \"#utility.yul\":8716:9093   */\n    tag_299:\n        /* \"#utility.yul\":8804:8807   */\n      0x00\n        /* \"#utility.yul\":8832:8871   */\n      tag_445\n        /* \"#utility.yul\":8865:8870   */\n      dup3\n        /* \"#utility.yul\":8832:8871   */\n      tag_296\n      jump\t// in\n    tag_445:\n        /* \"#utility.yul\":8887:8958   */\n      tag_446\n        /* \"#utility.yul\":8951:8957   */\n      dup2\n        /* \"#utility.yul\":8946:8949   */\n      dup6\n        /* \"#utility.yul\":8887:8958   */\n      tag_297\n      jump\t// in\n    tag_446:\n        /* \"#utility.yul\":8880:8958   */\n      swap4\n      pop\n        /* \"#utility.yul\":8967:9032   */\n      tag_447\n        /* \"#utility.yul\":9025:9031   */\n      dup2\n        /* \"#utility.yul\":9020:9023   */\n      dup6\n        /* \"#utility.yul\":9013:9017   */\n      0x20\n        /* \"#utility.yul\":9006:9011   */\n      dup7\n        /* \"#utility.yul\":9002:9018   */\n      add\n        /* \"#utility.yul\":8967:9032   */\n      tag_298\n      jump\t// in\n    tag_447:\n        /* \"#utility.yul\":9057:9086   */\n      tag_448\n        /* \"#utility.yul\":9079:9085   */\n      dup2\n        /* \"#utility.yul\":9057:9086   */\n      tag_286\n      jump\t// in\n    tag_448:\n        /* \"#utility.yul\":9052:9055   */\n      dup5\n        /* \"#utility.yul\":9048:9087   */\n      add\n        /* \"#utility.yul\":9041:9087   */\n      swap2\n      pop\n        /* \"#utility.yul\":8808:9093   */\n      pop\n        /* \"#utility.yul\":8716:9093   */\n      swap3\n      swap2\n      pop\n      pop\n      jump\t// out\n        /* \"#utility.yul\":9099:9412   */\n    tag_43:\n        /* \"#utility.yul\":9212:9216   */\n      0x00\n        /* \"#utility.yul\":9250:9252   */\n      0x20\n        /* \"#utility.yul\":9239:9248   */\n      dup3\n        /* \"#utility.yul\":9235:9253   */\n      add\n        /* \"#utility.yul\":9227:9253   */\n      swap1\n      pop\n        /* \"#utility.yul\":9299:9308   */\n      dup2\n        /* \"#utility.yul\":9293:9297   */\n      dup2\n        /* \"#utility.yul\":9289:9309   */\n      sub\n        /* \"#utility.yul\":9285:9286   */\n      0x00\n        /* \"#utility.yul\":9274:9283   */\n      dup4\n        /* \"#utility.yul\":9270:9287   */\n      add\n        /* \"#utility.yul\":9263:9310   */\n      mstore\n        /* \"#utility.yul\":9327:9405   */\n      tag_450\n        /* \"#utility.yul\":9400:9404   */\n      dup2\n        /* \"#utility.yul\":9391:9397   */\n      dup5\n        /* \"#utility.yul\":9327:9405   */\n      tag_299\n      jump\t// in\n    tag_450:\n        /* \"#utility.yul\":9319:9405   */\n      swap1\n      pop\n        /* \"#utility.yul\":9099:9412   */\n      swap3\n      swap2\n      pop\n      pop\n      jump\t// out\n        /* \"#utility.yul\":9418:9729   */\n    tag_300:\n        /* \"#utility.yul\":9495:9499   */\n      0x00\n        /* \"#utility.yul\":9585:9603   */\n      0xffffffffffffffff\n        /* \"#utility.yul\":9577:9583   */\n      dup3\n        /* \"#utility.yul\":9574:9604   */\n      gt\n        /* \"#utility.yul\":9571:9627   */\n      iszero\n      tag_452\n      jumpi\n        /* \"#utility.yul\":9607:9625   */\n      tag_453\n      tag_115\n      jump\t// in\n    tag_453:\n        /* \"#utility.yul\":9571:9627   */\n    tag_452:\n        /* \"#utility.yul\":9657:9661   */\n      0x20\n        /* \"#utility.yul\":9649:9655   */\n      dup3\n        /* \"#utility.yul\":9645:9662   */\n      mul\n        /* \"#utility.yul\":9637:9662   */\n      swap1\n      pop\n        /* \"#utility.yul\":9717:9721   */\n      0x20\n        /* \"#utility.yul\":9711:9715   */\n      dup2\n        /* \"#utility.yul\":9707:9722   */\n      add\n        /* \"#utility.yul\":9699:9722   */\n      swap1\n      pop\n        /* \"#utility.yul\":9418:9729   */\n      swap2\n      swap1\n      pop\n      jump\t// out\n        /* \"#utility.yul\":9735:9852   */\n    tag_301:\n        /* \"#utility.yul\":9844:9845   */\n      0x00\n        /* \"#utility.yul\":9841:9842   */\n      dup1\n        /* \"#utility.yul\":9834:9846   */\n      revert\n        /* \"#utility.yul\":9875:10585   */\n    tag_302:\n        /* \"#utility.yul\":9971:9976   */\n      0x00\n        /* \"#utility.yul\":9996:10077   */\n      tag_456\n        /* \"#utility.yul\":10012:10076   */\n      tag_457\n        /* \"#utility.yul\":10069:10075   */\n      dup5\n        /* \"#utility.yul\":10012:10076   */\n      tag_300\n      jump\t// in\n    tag_457:\n        /* \"#utility.yul\":9996:10077   */\n      tag_288\n      jump\t// in\n    tag_456:\n        /* \"#utility.yul\":9987:10077   */\n      swap1\n      pop\n        /* \"#utility.yul\":10097:10102   */\n      dup1\n        /* \"#utility.yul\":10126:10132   */\n      dup4\n        /* \"#utility.yul\":10119:10124   */\n      dup3\n        /* \"#utility.yul\":10112:10133   */\n      mstore\n        /* \"#utility.yul\":10160:10164   */\n      0x20\n        /* \"#utility.yul\":10153:10158   */\n      dup3\n        /* \"#utility.yul\":10149:10165   */\n      add\n        /* \"#utility.yul\":10142:10165   */\n      swap1\n      pop\n        /* \"#utility.yul\":10213:10217   */\n      0x20\n        /* \"#utility.yul\":10205:10211   */\n      dup5\n        /* \"#utility.yul\":10201:10218   */\n      mul\n        /* \"#utility.yul\":10193:10199   */\n      dup4\n        /* \"#utility.yul\":10189:10219   */\n      add\n        /* \"#utility.yul\":10242:10245   */\n      dup6\n        /* \"#utility.yul\":10234:10240   */\n      dup2\n        /* \"#utility.yul\":10231:10246   */\n      gt\n        /* \"#utility.yul\":10228:10350   */\n      iszero\n      tag_458\n      jumpi\n        /* \"#utility.yul\":10261:10340   */\n      tag_459\n      tag_301\n      jump\t// in\n    tag_459:\n        /* \"#utility.yul\":10228:10350   */\n    tag_458:\n        /* \"#utility.yul\":10376:10382   */\n      dup4\n        /* \"#utility.yul\":10359:10579   */\n    tag_460:\n        /* \"#utility.yul\":10393:10399   */\n      dup2\n        /* \"#utility.yul\":10388:10391   */\n      dup2\n        /* \"#utility.yul\":10385:10400   */\n      lt\n        /* \"#utility.yul\":10359:10579   */\n      iszero\n      tag_462\n      jumpi\n        /* \"#utility.yul\":10468:10471   */\n      dup1\n        /* \"#utility.yul\":10497:10534   */\n      tag_463\n        /* \"#utility.yul\":10530:10533   */\n      dup9\n        /* \"#utility.yul\":10518:10528   */\n      dup3\n        /* \"#utility.yul\":10497:10534   */\n      tag_277\n      jump\t// in\n    tag_463:\n        /* \"#utility.yul\":10492:10495   */\n      dup5\n        /* \"#utility.yul\":10485:10535   */\n      mstore\n        /* \"#utility.yul\":10564:10568   */\n      0x20\n        /* \"#utility.yul\":10559:10562   */\n      dup5\n        /* \"#utility.yul\":10555:10569   */\n      add\n        /* \"#utility.yul\":10548:10569   */\n      swap4\n      pop\n        /* \"#utility.yul\":10435:10579   */\n      pop\n        /* \"#utility.yul\":10419:10423   */\n      0x20\n        /* \"#utility.yul\":10414:10417   */\n      dup2\n        /* \"#utility.yul\":10410:10424   */\n      add\n        /* \"#utility.yul\":10403:10424   */\n      swap1\n      pop\n        /* \"#utility.yul\":10359:10579   */\n      jump(tag_460)\n    tag_462:\n        /* \"#utility.yul\":10363:10384   */\n      pop\n        /* \"#utility.yul\":9977:10585   */\n      pop\n      pop\n        /* \"#utility.yul\":9875:10585   */\n      swap4\n      swap3\n      pop\n      pop\n      pop\n      jump\t// out\n        /* \"#utility.yul\":10608:10978   */\n    tag_303:\n        /* \"#utility.yul\":10679:10684   */\n      0x00\n        /* \"#utility.yul\":10728:10731   */\n      dup3\n        /* \"#utility.yul\":10721:10725   */\n      0x1f\n        /* \"#utility.yul\":10713:10719   */\n      dup4\n        /* \"#utility.yul\":10709:10726   */\n      add\n        /* \"#utility.yul\":10705:10732   */\n      slt\n        /* \"#utility.yul\":10695:10817   */\n      tag_465\n      jumpi\n        /* \"#utility.yul\":10736:10815   */\n      tag_466\n      tag_284\n      jump\t// in\n    tag_466:\n        /* \"#utility.yul\":10695:10817   */\n    tag_465:\n        /* \"#utility.yul\":10853:10859   */\n      dup2\n        /* \"#utility.yul\":10840:10860   */\n      calldataload\n        /* \"#utility.yul\":10878:10972   */\n      tag_467\n        /* \"#utility.yul\":10968:10971   */\n      dup5\n        /* \"#utility.yul\":10960:10966   */\n      dup3\n        /* \"#utility.yul\":10953:10957   */\n      0x20\n        /* \"#utility.yul\":10945:10951   */\n      dup7\n        /* \"#utility.yul\":10941:10958   */\n      add\n        /* \"#utility.yul\":10878:10972   */\n      tag_302\n      jump\t// in\n    tag_467:\n        /* \"#utility.yul\":10869:10972   */\n      swap2\n      pop\n        /* \"#utility.yul\":10685:10978   */\n      pop\n        /* \"#utility.yul\":10608:10978   */\n      swap3\n      swap2\n      pop\n      pop\n      jump\t// out\n        /* \"#utility.yul\":10984:12493   */\n    tag_46:\n        /* \"#utility.yul\":11138:11144   */\n      0x00\n        /* \"#utility.yul\":11146:11152   */\n      dup1\n        /* \"#utility.yul\":11154:11160   */\n      0x00\n        /* \"#utility.yul\":11162:11168   */\n      dup1\n        /* \"#utility.yul\":11170:11176   */\n      0x00\n        /* \"#utility.yul\":11219:11222   */\n      0xa0\n        /* \"#utility.yul\":11207:11216   */\n      dup7\n        /* \"#utility.yul\":11198:11205   */\n      dup9\n        /* \"#utility.yul\":11194:11217   */\n      sub\n        /* \"#utility.yul\":11190:11223   */\n      slt\n        /* \"#utility.yul\":11187:11307   */\n      iszero\n      tag_469\n      jumpi\n        /* \"#utility.yul\":11226:11305   */\n      tag_470\n      tag_269\n      jump\t// in\n    tag_470:\n        /* \"#utility.yul\":11187:11307   */\n    tag_469:\n        /* \"#utility.yul\":11346:11347   */\n      0x00\n        /* \"#utility.yul\":11371:11424   */\n      tag_471\n        /* \"#utility.yul\":11416:11423   */\n      dup9\n        /* \"#utility.yul\":11407:11413   */\n      dup3\n        /* \"#utility.yul\":11396:11405   */\n      dup10\n        /* \"#utility.yul\":11392:11414   */\n      add\n        /* \"#utility.yul\":11371:11424   */\n      tag_274\n      jump\t// in\n    tag_471:\n        /* \"#utility.yul\":11361:11424   */\n      swap6\n      pop\n        /* \"#utility.yul\":11317:11434   */\n      pop\n        /* \"#utility.yul\":11473:11475   */\n      0x20\n        /* \"#utility.yul\":11499:11552   */\n      tag_472\n        /* \"#utility.yul\":11544:11551   */\n      dup9\n        /* \"#utility.yul\":11535:11541   */\n      dup3\n        /* \"#utility.yul\":11524:11533   */\n      dup10\n        /* \"#utility.yul\":11520:11542   */\n      add\n        /* \"#utility.yul\":11499:11552   */\n      tag_274\n      jump\t// in\n    tag_472:\n        /* \"#utility.yul\":11489:11552   */\n      swap5\n      pop\n        /* \"#utility.yul\":11444:11562   */\n      pop\n        /* \"#utility.yul\":11629:11631   */\n      0x40\n        /* \"#utility.yul\":11618:11627   */\n      dup7\n        /* \"#utility.yul\":11614:11632   */\n      add\n        /* \"#utility.yul\":11601:11633   */\n      calldataload\n        /* \"#utility.yul\":11660:11678   */\n      0xffffffffffffffff\n        /* \"#utility.yul\":11652:11658   */\n      dup2\n        /* \"#utility.yul\":11649:11679   */\n      gt\n        /* \"#utility.yul\":11646:11763   */\n      iszero\n      tag_473\n      jumpi\n        /* \"#utility.yul\":11682:11761   */\n      tag_474\n      tag_270\n      jump\t// in\n    tag_474:\n        /* \"#utility.yul\":11646:11763   */\n    tag_473:\n        /* \"#utility.yul\":11787:11865   */\n      tag_475\n        /* \"#utility.yul\":11857:11864   */\n      dup9\n        /* \"#utility.yul\":11848:11854   */\n      dup3\n        /* \"#utility.yul\":11837:11846   */\n      dup10\n        /* \"#utility.yul\":11833:11855   */\n      add\n        /* \"#utility.yul\":11787:11865   */\n      tag_303\n      jump\t// in\n    tag_475:\n        /* \"#utility.yul\":11777:11865   */\n      swap4\n      pop\n        /* \"#utility.yul\":11572:11875   */\n      pop\n        /* \"#utility.yul\":11942:11944   */\n      0x60\n        /* \"#utility.yul\":11931:11940   */\n      dup7\n        /* \"#utility.yul\":11927:11945   */\n      add\n        /* \"#utility.yul\":11914:11946   */\n      calldataload\n        /* \"#utility.yul\":11973:11991   */\n      0xffffffffffffffff\n        /* \"#utility.yul\":11965:11971   */\n      dup2\n        /* \"#utility.yul\":11962:11992   */\n      gt\n        /* \"#utility.yul\":11959:12076   */\n      iszero\n      tag_476\n      jumpi\n        /* \"#utility.yul\":11995:12074   */\n      tag_477\n      tag_270\n      jump\t// in\n    tag_477:\n        /* \"#utility.yul\":11959:12076   */\n    tag_476:\n        /* \"#utility.yul\":12100:12178   */\n      tag_478\n        /* \"#utility.yul\":12170:12177   */\n      dup9\n        /* \"#utility.yul\":12161:12167   */\n      dup3\n        /* \"#utility.yul\":12150:12159   */\n      dup10\n        /* \"#utility.yul\":12146:12168   */\n      add\n        /* \"#utility.yul\":12100:12178   */\n      tag_303\n      jump\t// in\n    tag_478:\n        /* \"#utility.yul\":12090:12178   */\n      swap3\n      pop\n        /* \"#utility.yul\":11885:12188   */\n      pop\n        /* \"#utility.yul\":12255:12258   */\n      0x80\n        /* \"#utility.yul\":12244:12253   */\n      dup7\n        /* \"#utility.yul\":12240:12259   */\n      add\n        /* \"#utility.yul\":12227:12260   */\n      calldataload\n        /* \"#utility.yul\":12287:12305   */\n      0xffffffffffffffff\n        /* \"#utility.yul\":12279:12285   */\n      dup2\n        /* \"#utility.yul\":12276:12306   */\n      gt\n        /* \"#utility.yul\":12273:12390   */\n      iszero\n      tag_479\n      jumpi\n        /* \"#utility.yul\":12309:12388   */\n      tag_480\n      tag_270\n      jump\t// in\n    tag_480:\n        /* \"#utility.yul\":12273:12390   */\n    tag_479:\n        /* \"#utility.yul\":12414:12476   */\n      tag_481\n        /* \"#utility.yul\":12468:12475   */\n      dup9\n        /* \"#utility.yul\":12459:12465   */\n      dup3\n        /* \"#utility.yul\":12448:12457   */\n      dup10\n        /* \"#utility.yul\":12444:12466   */\n      add\n        /* \"#utility.yul\":12414:12476   */\n      tag_295\n      jump\t// in\n    tag_481:\n        /* \"#utility.yul\":12404:12476   */\n      swap2\n      pop\n        /* \"#utility.yul\":12198:12486   */\n      pop\n        /* \"#utility.yul\":10984:12493   */\n      swap3\n      swap6\n      pop\n      swap3\n      swap6\n      swap1\n      swap4\n      pop\n      jump\t// out\n        /* \"#utility.yul\":12499:12810   */\n    tag_304:\n        /* \"#utility.yul\":12576:12580   */\n      0x00\n        /* \"#utility.yul\":12666:12684   */\n      0xffffffffffffffff\n        /* \"#utility.yul\":12658:12664   */\n      dup3\n        /* \"#utility.yul\":12655:12685   */\n      gt\n        /* \"#utility.yul\":12652:12708   */\n      iszero\n      tag_483\n      jumpi\n        /* \"#utility.yul\":12688:12706   */\n      tag_484\n      tag_115\n      jump\t// in\n    tag_484:\n        /* \"#utility.yul\":12652:12708   */\n    tag_483:\n        /* \"#utility.yul\":12738:12742   */\n      0x20\n        /* \"#utility.yul\":12730:12736   */\n      dup3\n        /* \"#utility.yul\":12726:12743   */\n      mul\n        /* \"#utility.yul\":12718:12743   */\n      swap1\n      pop\n        /* \"#utility.yul\":12798:12802   */\n      0x20\n        /* \"#utility.yul\":12792:12796   */\n      dup2\n        /* \"#utility.yul\":12788:12803   */\n      add\n        /* \"#utility.yul\":12780:12803   */\n      swap1\n      pop\n        /* \"#utility.yul\":12499:12810   */\n      swap2\n      swap1\n      pop\n      jump\t// out\n        /* \"#utility.yul\":12833:13543   */\n    tag_305:\n        /* \"#utility.yul\":12929:12934   */\n      0x00\n        /* \"#utility.yul\":12954:13035   */\n      tag_486\n        /* \"#utility.yul\":12970:13034   */\n      tag_487\n        /* \"#utility.yul\":13027:13033   */\n      dup5\n        /* \"#utility.yul\":12970:13034   */\n      tag_304\n      jump\t// in\n    tag_487:\n        /* \"#utility.yul\":12954:13035   */\n      tag_288\n      jump\t// in\n    tag_486:\n        /* \"#utility.yul\":12945:13035   */\n      swap1\n      pop\n        /* \"#utility.yul\":13055:13060   */\n      dup1\n        /* \"#utility.yul\":13084:13090   */\n      dup4\n        /* \"#utility.yul\":13077:13082   */\n      dup3\n        /* \"#utility.yul\":13070:13091   */\n      mstore\n        /* \"#utility.yul\":13118:13122   */\n      0x20\n        /* \"#utility.yul\":13111:13116   */\n      dup3\n        /* \"#utility.yul\":13107:13123   */\n      add\n        /* \"#utility.yul\":13100:13123   */\n      swap1\n      pop\n        /* \"#utility.yul\":13171:13175   */\n      0x20\n        /* \"#utility.yul\":13163:13169   */\n      dup5\n        /* \"#utility.yul\":13159:13176   */\n      mul\n        /* \"#utility.yul\":13151:13157   */\n      dup4\n        /* \"#utility.yul\":13147:13177   */\n      add\n        /* \"#utility.yul\":13200:13203   */\n      dup6\n        /* \"#utility.yul\":13192:13198   */\n      dup2\n        /* \"#utility.yul\":13189:13204   */\n      gt\n        /* \"#utility.yul\":13186:13308   */\n      iszero\n      tag_488\n      jumpi\n        /* \"#utility.yul\":13219:13298   */\n      tag_489\n      tag_301\n      jump\t// in\n    tag_489:\n        /* \"#utility.yul\":13186:13308   */\n    tag_488:\n        /* \"#utility.yul\":13334:13340   */\n      dup4\n        /* \"#utility.yul\":13317:13537   */\n    tag_490:\n        /* \"#utility.yul\":13351:13357   */\n      dup2\n        /* \"#utility.yul\":13346:13349   */\n      dup2\n        /* \"#utility.yul\":13343:13358   */\n      lt\n        /* \"#utility.yul\":13317:13537   */\n      iszero\n      tag_492\n      jumpi\n        /* \"#utility.yul\":13426:13429   */\n      dup1\n        /* \"#utility.yul\":13455:13492   */\n      tag_493\n        /* \"#utility.yul\":13488:13491   */\n      dup9\n        /* \"#utility.yul\":13476:13486   */\n      dup3\n        /* \"#utility.yul\":13455:13492   */\n      tag_274\n      jump\t// in\n    tag_493:\n        /* \"#utility.yul\":13450:13453   */\n      dup5\n        /* \"#utility.yul\":13443:13493   */\n      mstore\n        /* \"#utility.yul\":13522:13526   */\n      0x20\n        /* \"#utility.yul\":13517:13520   */\n      dup5\n        /* \"#utility.yul\":13513:13527   */\n      add\n        /* \"#utility.yul\":13506:13527   */\n      swap4\n      pop\n        /* \"#utility.yul\":13393:13537   */\n      pop\n        /* \"#utility.yul\":13377:13381   */\n      0x20\n        /* \"#utility.yul\":13372:13375   */\n      dup2\n        /* \"#utility.yul\":13368:13382   */\n      add\n        /* \"#utility.yul\":13361:13382   */\n      swap1\n      pop\n        /* \"#utility.yul\":13317:13537   */\n      jump(tag_490)\n    tag_492:\n        /* \"#utility.yul\":13321:13342   */\n      pop\n        /* \"#utility.yul\":12935:13543   */\n      pop\n      pop\n        /* \"#utility.yul\":12833:13543   */\n      swap4\n      swap3\n      pop\n      pop\n      pop\n      jump\t// out\n        /* \"#utility.yul\":13566:13936   */\n    tag_306:\n        /* \"#utility.yul\":13637:13642   */\n      0x00\n        /* \"#utility.yul\":13686:13689   */\n      dup3\n        /* \"#utility.yul\":13679:13683   */\n      0x1f\n        /* \"#utility.yul\":13671:13677   */\n      dup4\n        /* \"#utility.yul\":13667:13684   */\n      add\n        /* \"#utility.yul\":13663:13690   */\n      slt\n        /* \"#utility.yul\":13653:13775   */\n      tag_495\n      jumpi\n        /* \"#utility.yul\":13694:13773   */\n      tag_496\n      tag_284\n      jump\t// in\n    tag_496:\n        /* \"#utility.yul\":13653:13775   */\n    tag_495:\n        /* \"#utility.yul\":13811:13817   */\n      dup2\n        /* \"#utility.yul\":13798:13818   */\n      calldataload\n        /* \"#utility.yul\":13836:13930   */\n      tag_497\n        /* \"#utility.yul\":13926:13929   */\n      dup5\n        /* \"#utility.yul\":13918:13924   */\n      dup3\n        /* \"#utility.yul\":13911:13915   */\n      0x20\n        /* \"#utility.yul\":13903:13909   */\n      dup7\n        /* \"#utility.yul\":13899:13916   */\n      add\n        /* \"#utility.yul\":13836:13930   */\n      tag_305\n      jump\t// in\n    tag_497:\n        /* \"#utility.yul\":13827:13930   */\n      swap2\n      pop\n        /* \"#utility.yul\":13643:13936   */\n      pop\n        /* \"#utility.yul\":13566:13936   */\n      swap3\n      swap2\n      pop\n      pop\n      jump\t// out\n        /* \"#utility.yul\":13942:14836   */\n    tag_50:\n        /* \"#utility.yul\":14060:14066   */\n      0x00\n        /* \"#utility.yul\":14068:14074   */\n      dup1\n        /* \"#utility.yul\":14117:14119   */\n      0x40\n        /* \"#utility.yul\":14105:14114   */\n      dup4\n        /* \"#utility.yul\":14096:14103   */\n      dup6\n        /* \"#utility.yul\":14092:14115   */\n      sub\n        /* \"#utility.yul\":14088:14120   */\n      slt\n        /* \"#utility.yul\":14085:14204   */\n      iszero\n      tag_499\n      jumpi\n        /* \"#utility.yul\":14123:14202   */\n      tag_500\n      tag_269\n      jump\t// in\n    tag_500:\n        /* \"#utility.yul\":14085:14204   */\n    tag_499:\n        /* \"#utility.yul\":14271:14272   */\n      0x00\n        /* \"#utility.yul\":14260:14269   */\n      dup4\n        /* \"#utility.yul\":14256:14273   */\n      add\n        /* \"#utility.yul\":14243:14274   */\n      calldataload\n        /* \"#utility.yul\":14301:14319   */\n      0xffffffffffffffff\n        /* \"#utility.yul\":14293:14299   */\n      dup2\n        /* \"#utility.yul\":14290:14320   */\n      gt\n        /* \"#utility.yul\":14287:14404   */\n      iszero\n      tag_501\n      jumpi\n        /* \"#utility.yul\":14323:14402   */\n      tag_502\n      tag_270\n      jump\t// in\n    tag_502:\n        /* \"#utility.yul\":14287:14404   */\n    tag_501:\n        /* \"#utility.yul\":14428:14506   */\n      tag_503\n        /* \"#utility.yul\":14498:14505   */\n      dup6\n        /* \"#utility.yul\":14489:14495   */\n      dup3\n        /* \"#utility.yul\":14478:14487   */\n      dup7\n        /* \"#utility.yul\":14474:14496   */\n      add\n        /* \"#utility.yul\":14428:14506   */\n      tag_306\n      jump\t// in\n    tag_503:\n        /* \"#utility.yul\":14418:14506   */\n      swap3\n      pop\n        /* \"#utility.yul\":14214:14516   */\n      pop\n        /* \"#utility.yul\":14583:14585   */\n      0x20\n        /* \"#utility.yul\":14572:14581   */\n      dup4\n        /* \"#utility.yul\":14568:14586   */\n      add\n        /* \"#utility.yul\":14555:14587   */\n      calldataload\n        /* \"#utility.yul\":14614:14632   */\n      0xffffffffffffffff\n        /* \"#utility.yul\":14606:14612   */\n      dup2\n        /* \"#utility.yul\":14603:14633   */\n      gt\n        /* \"#utility.yul\":14600:14717   */\n      iszero\n      tag_504\n      jumpi\n        /* \"#utility.yul\":14636:14715   */\n      tag_505\n      tag_270\n      jump\t// in\n    tag_505:\n        /* \"#utility.yul\":14600:14717   */\n    tag_504:\n        /* \"#utility.yul\":14741:14819   */\n      tag_506\n        /* \"#utility.yul\":14811:14818   */\n      dup6\n        /* \"#utility.yul\":14802:14808   */\n      dup3\n        /* \"#utility.yul\":14791:14800   */\n      dup7\n        /* \"#utility.yul\":14787:14809   */\n      add\n        /* \"#utility.yul\":14741:14819   */\n      tag_303\n      jump\t// in\n    tag_506:\n        /* \"#utility.yul\":14731:14819   */\n      swap2\n      pop\n        /* \"#utility.yul\":14526:14829   */\n      pop\n        /* \"#utility.yul\":13942:14836   */\n      swap3\n      pop\n      swap3\n      swap1\n      pop\n      jump\t// out\n        /* \"#utility.yul\":14842:14956   */\n    tag_307:\n        /* \"#utility.yul\":14909:14915   */\n      0x00\n        /* \"#utility.yul\":14943:14948   */\n      dup2\n        /* \"#utility.yul\":14937:14949   */\n      mload\n        /* \"#utility.yul\":14927:14949   */\n      swap1\n      pop\n        /* \"#utility.yul\":14842:14956   */\n      swap2\n      swap1\n      pop\n      jump\t// out\n        /* \"#utility.yul\":14962:15146   */\n    tag_308:\n        /* \"#utility.yul\":15061:15072   */\n      0x00\n        /* \"#utility.yul\":15095:15101   */\n      dup3\n        /* \"#utility.yul\":15090:15093   */\n      dup3\n        /* \"#utility.yul\":15083:15102   */\n      mstore\n        /* \"#utility.yul\":15135:15139   */\n      0x20\n        /* \"#utility.yul\":15130:15133   */\n      dup3\n        /* \"#utility.yul\":15126:15140   */\n      add\n        /* \"#utility.yul\":15111:15140   */\n      swap1\n      pop\n        /* \"#utility.yul\":14962:15146   */\n      swap3\n      swap2\n      pop\n      pop\n      jump\t// out\n        /* \"#utility.yul\":15152:15284   */\n    tag_309:\n        /* \"#utility.yul\":15219:15223   */\n      0x00\n        /* \"#utility.yul\":15242:15245   */\n      dup2\n        /* \"#utility.yul\":15234:15245   */\n      swap1\n      pop\n        /* \"#utility.yul\":15272:15276   */\n      0x20\n        /* \"#utility.yul\":15267:15270   */\n      dup3\n        /* \"#utility.yul\":15263:15277   */\n      add\n        /* \"#utility.yul\":15255:15277   */\n      swap1\n      pop\n        /* \"#utility.yul\":15152:15284   */\n      swap2\n      swap1\n      pop\n      jump\t// out\n        /* \"#utility.yul\":15290:15398   */\n    tag_310:\n        /* \"#utility.yul\":15367:15391   */\n      tag_511\n        /* \"#utility.yul\":15385:15390   */\n      dup2\n        /* \"#utility.yul\":15367:15391   */\n      tag_275\n      jump\t// in\n    tag_511:\n        /* \"#utility.yul\":15362:15365   */\n      dup3\n        /* \"#utility.yul\":15355:15392   */\n      mstore\n        /* \"#utility.yul\":15290:15398   */\n      pop\n      pop\n      jump\t// out\n        /* \"#utility.yul\":15404:15583   */\n    tag_311:\n        /* \"#utility.yul\":15473:15483   */\n      0x00\n        /* \"#utility.yul\":15494:15540   */\n      tag_513\n        /* \"#utility.yul\":15536:15539   */\n      dup4\n        /* \"#utility.yul\":15528:15534   */\n      dup4\n        /* \"#utility.yul\":15494:15540   */\n      tag_310\n      jump\t// in\n    tag_513:\n        /* \"#utility.yul\":15572:15576   */\n      0x20\n        /* \"#utility.yul\":15567:15570   */\n      dup4\n        /* \"#utility.yul\":15563:15577   */\n      add\n        /* \"#utility.yul\":15549:15577   */\n      swap1\n      pop\n        /* \"#utility.yul\":15404:15583   */\n      swap3\n      swap2\n      pop\n      pop\n      jump\t// out\n        /* \"#utility.yul\":15589:15702   */\n    tag_312:\n        /* \"#utility.yul\":15659:15663   */\n      0x00\n        /* \"#utility.yul\":15691:15695   */\n      0x20\n        /* \"#utility.yul\":15686:15689   */\n      dup3\n        /* \"#utility.yul\":15682:15696   */\n      add\n        /* \"#utility.yul\":15674:15696   */\n      swap1\n      pop\n        /* \"#utility.yul\":15589:15702   */\n      swap2\n      swap1\n      pop\n      jump\t// out\n        /* \"#utility.yul\":15738:16470   */\n    tag_313:\n        /* \"#utility.yul\":15857:15860   */\n      0x00\n        /* \"#utility.yul\":15886:15940   */\n      tag_516\n        /* \"#utility.yul\":15934:15939   */\n      dup3\n        /* \"#utility.yul\":15886:15940   */\n      tag_307\n      jump\t// in\n    tag_516:\n        /* \"#utility.yul\":15956:16042   */\n      tag_517\n        /* \"#utility.yul\":16035:16041   */\n      dup2\n        /* \"#utility.yul\":16030:16033   */\n      dup6\n        /* \"#utility.yul\":15956:16042   */\n      tag_308\n      jump\t// in\n    tag_517:\n        /* \"#utility.yul\":15949:16042   */\n      swap4\n      pop\n        /* \"#utility.yul\":16066:16122   */\n      tag_518\n        /* \"#utility.yul\":16116:16121   */\n      dup4\n        /* \"#utility.yul\":16066:16122   */\n      tag_309\n      jump\t// in\n    tag_518:\n        /* \"#utility.yul\":16145:16152   */\n      dup1\n        /* \"#utility.yul\":16176:16177   */\n      0x00\n        /* \"#utility.yul\":16161:16445   */\n    tag_519:\n        /* \"#utility.yul\":16186:16192   */\n      dup4\n        /* \"#utility.yul\":16183:16184   */\n      dup2\n        /* \"#utility.yul\":16180:16193   */\n      lt\n        /* \"#utility.yul\":16161:16445   */\n      iszero\n      tag_521\n      jumpi\n        /* \"#utility.yul\":16262:16268   */\n      dup2\n        /* \"#utility.yul\":16256:16269   */\n      mload\n        /* \"#utility.yul\":16289:16352   */\n      tag_522\n        /* \"#utility.yul\":16348:16351   */\n      dup9\n        /* \"#utility.yul\":16333:16346   */\n      dup3\n        /* \"#utility.yul\":16289:16352   */\n      tag_311\n      jump\t// in\n    tag_522:\n        /* \"#utility.yul\":16282:16352   */\n      swap8\n      pop\n        /* \"#utility.yul\":16375:16435   */\n      tag_523\n        /* \"#utility.yul\":16428:16434   */\n      dup4\n        /* \"#utility.yul\":16375:16435   */\n      tag_312\n      jump\t// in\n    tag_523:\n        /* \"#utility.yul\":16365:16435   */\n      swap3\n      pop\n        /* \"#utility.yul\":16221:16445   */\n      pop\n        /* \"#utility.yul\":16208:16209   */\n      0x01\n        /* \"#utility.yul\":16205:16206   */\n      dup2\n        /* \"#utility.yul\":16201:16210   */\n      add\n        /* \"#utility.yul\":16196:16210   */\n      swap1\n      pop\n        /* \"#utility.yul\":16161:16445   */\n      jump(tag_519)\n    tag_521:\n        /* \"#utility.yul\":16165:16179   */\n      pop\n        /* \"#utility.yul\":16461:16464   */\n      dup6\n        /* \"#utility.yul\":16454:16464   */\n      swap4\n      pop\n        /* \"#utility.yul\":15862:16470   */\n      pop\n      pop\n      pop\n        /* \"#utility.yul\":15738:16470   */\n      swap3\n      swap2\n      pop\n      pop\n      jump\t// out\n        /* \"#utility.yul\":16476:16849   */\n    tag_53:\n        /* \"#utility.yul\":16619:16623   */\n      0x00\n        /* \"#utility.yul\":16657:16659   */\n      0x20\n        /* \"#utility.yul\":16646:16655   */\n      dup3\n        /* \"#utility.yul\":16642:16660   */\n      add\n        /* \"#utility.yul\":16634:16660   */\n      swap1\n      pop\n        /* \"#utility.yul\":16706:16715   */\n      dup2\n        /* \"#utility.yul\":16700:16704   */\n      dup2\n        /* \"#utility.yul\":16696:16716   */\n      sub\n        /* \"#utility.yul\":16692:16693   */\n      0x00\n        /* \"#utility.yul\":16681:16690   */\n      dup4\n        /* \"#utility.yul\":16677:16694   */\n      add\n        /* \"#utility.yul\":16670:16717   */\n      mstore\n        /* \"#utility.yul\":16734:16842   */\n      tag_525\n        /* \"#utility.yul\":16837:16841   */\n      dup2\n        /* \"#utility.yul\":16828:16834   */\n      dup5\n        /* \"#utility.yul\":16734:16842   */\n      tag_313\n      jump\t// in\n    tag_525:\n        /* \"#utility.yul\":16726:16842   */\n      swap1\n      pop\n        /* \"#utility.yul\":16476:16849   */\n      swap3\n      swap2\n      pop\n      pop\n      jump\t// out\n        /* \"#utility.yul\":16855:16973   */\n    tag_314:\n        /* \"#utility.yul\":16942:16966   */\n      tag_527\n        /* \"#utility.yul\":16960:16965   */\n      dup2\n        /* \"#utility.yul\":16942:16966   */\n      tag_272\n      jump\t// in\n    tag_527:\n        /* \"#utility.yul\":16937:16940   */\n      dup3\n        /* \"#utility.yul\":16930:16967   */\n      mstore\n        /* \"#utility.yul\":16855:16973   */\n      pop\n      pop\n      jump\t// out\n        /* \"#utility.yul\":16979:17201   */\n    tag_59:\n        /* \"#utility.yul\":17072:17076   */\n      0x00\n        /* \"#utility.yul\":17110:17112   */\n      0x20\n        /* \"#utility.yul\":17099:17108   */\n      dup3\n        /* \"#utility.yul\":17095:17113   */\n      add\n        /* \"#utility.yul\":17087:17113   */\n      swap1\n      pop\n        /* \"#utility.yul\":17123:17194   */\n      tag_529\n        /* \"#utility.yul\":17191:17192   */\n      0x00\n        /* \"#utility.yul\":17180:17189   */\n      dup4\n        /* \"#utility.yul\":17176:17193   */\n      add\n        /* \"#utility.yul\":17167:17173   */\n      dup5\n        /* \"#utility.yul\":17123:17194   */\n      tag_314\n      jump\t// in\n    tag_529:\n        /* \"#utility.yul\":16979:17201   */\n      swap3\n      swap2\n      pop\n      pop\n      jump\t// out\n        /* \"#utility.yul\":17207:17323   */\n    tag_315:\n        /* \"#utility.yul\":17277:17298   */\n      tag_531\n        /* \"#utility.yul\":17292:17297   */\n      dup2\n        /* \"#utility.yul\":17277:17298   */\n      tag_282\n      jump\t// in\n    tag_531:\n        /* \"#utility.yul\":17270:17275   */\n      dup2\n        /* \"#utility.yul\":17267:17299   */\n      eq\n        /* \"#utility.yul\":17257:17317   */\n      tag_532\n      jumpi\n        /* \"#utility.yul\":17313:17314   */\n      0x00\n        /* \"#utility.yul\":17310:17311   */\n      dup1\n        /* \"#utility.yul\":17303:17315   */\n      revert\n        /* \"#utility.yul\":17257:17317   */\n    tag_532:\n        /* \"#utility.yul\":17207:17323   */\n      pop\n      jump\t// out\n        /* \"#utility.yul\":17329:17462   */\n    tag_316:\n        /* \"#utility.yul\":17372:17377   */\n      0x00\n        /* \"#utility.yul\":17410:17416   */\n      dup2\n        /* \"#utility.yul\":17397:17417   */\n      calldataload\n        /* \"#utility.yul\":17388:17417   */\n      swap1\n      pop\n        /* \"#utility.yul\":17426:17456   */\n      tag_534\n        /* \"#utility.yul\":17450:17455   */\n      dup2\n        /* \"#utility.yul\":17426:17456   */\n      tag_315\n      jump\t// in\n    tag_534:\n        /* \"#utility.yul\":17329:17462   */\n      swap3\n      swap2\n      pop\n      pop\n      jump\t// out\n        /* \"#utility.yul\":17468:17936   */\n    tag_62:\n        /* \"#utility.yul\":17533:17539   */\n      0x00\n        /* \"#utility.yul\":17541:17547   */\n      dup1\n        /* \"#utility.yul\":17590:17592   */\n      0x40\n        /* \"#utility.yul\":17578:17587   */\n      dup4\n        /* \"#utility.yul\":17569:17576   */\n      dup6\n        /* \"#utility.yul\":17565:17588   */\n      sub\n        /* \"#utility.yul\":17561:17593   */\n      slt\n        /* \"#utility.yul\":17558:17677   */\n      iszero\n      tag_536\n      jumpi\n        /* \"#utility.yul\":17596:17675   */\n      tag_537\n      tag_269\n      jump\t// in\n    tag_537:\n        /* \"#utility.yul\":17558:17677   */\n    tag_536:\n        /* \"#utility.yul\":17716:17717   */\n      0x00\n        /* \"#utility.yul\":17741:17794   */\n      tag_538\n        /* \"#utility.yul\":17786:17793   */\n      dup6\n        /* \"#utility.yul\":17777:17783   */\n      dup3\n        /* \"#utility.yul\":17766:17775   */\n      dup7\n        /* \"#utility.yul\":17762:17784   */\n      add\n        /* \"#utility.yul\":17741:17794   */\n      tag_274\n      jump\t// in\n    tag_538:\n        /* \"#utility.yul\":17731:17794   */\n      swap3\n      pop\n        /* \"#utility.yul\":17687:17804   */\n      pop\n        /* \"#utility.yul\":17843:17845   */\n      0x20\n        /* \"#utility.yul\":17869:17919   */\n      tag_539\n        /* \"#utility.yul\":17911:17918   */\n      dup6\n        /* \"#utility.yul\":17902:17908   */\n      dup3\n        /* \"#utility.yul\":17891:17900   */\n      dup7\n        /* \"#utility.yul\":17887:17909   */\n      add\n        /* \"#utility.yul\":17869:17919   */\n      tag_316\n      jump\t// in\n    tag_539:\n        /* \"#utility.yul\":17859:17919   */\n      swap2\n      pop\n        /* \"#utility.yul\":17814:17929   */\n      pop\n        /* \"#utility.yul\":17468:17936   */\n      swap3\n      pop\n      swap3\n      swap1\n      pop\n      jump\t// out\n        /* \"#utility.yul\":17942:18416   */\n    tag_66:\n        /* \"#utility.yul\":18010:18016   */\n      0x00\n        /* \"#utility.yul\":18018:18024   */\n      dup1\n        /* \"#utility.yul\":18067:18069   */\n      0x40\n        /* \"#utility.yul\":18055:18064   */\n      dup4\n        /* \"#utility.yul\":18046:18053   */\n      dup6\n        /* \"#utility.yul\":18042:18065   */\n      sub\n        /* \"#utility.yul\":18038:18070   */\n      slt\n        /* \"#utility.yul\":18035:18154   */\n      iszero\n      tag_541\n      jumpi\n        /* \"#utility.yul\":18073:18152   */\n      tag_542\n      tag_269\n      jump\t// in\n    tag_542:\n        /* \"#utility.yul\":18035:18154   */\n    tag_541:\n        /* \"#utility.yul\":18193:18194   */\n      0x00\n        /* \"#utility.yul\":18218:18271   */\n      tag_543\n        /* \"#utility.yul\":18263:18270   */\n      dup6\n        /* \"#utility.yul\":18254:18260   */\n      dup3\n        /* \"#utility.yul\":18243:18252   */\n      dup7\n        /* \"#utility.yul\":18239:18261   */\n      add\n        /* \"#utility.yul\":18218:18271   */\n      tag_274\n      jump\t// in\n    tag_543:\n        /* \"#utility.yul\":18208:18271   */\n      swap3\n      pop\n        /* \"#utility.yul\":18164:18281   */\n      pop\n        /* \"#utility.yul\":18320:18322   */\n      0x20\n        /* \"#utility.yul\":18346:18399   */\n      tag_544\n        /* \"#utility.yul\":18391:18398   */\n      dup6\n        /* \"#utility.yul\":18382:18388   */\n      dup3\n        /* \"#utility.yul\":18371:18380   */\n      dup7\n        /* \"#utility.yul\":18367:18389   */\n      add\n        /* \"#utility.yul\":18346:18399   */\n      tag_274\n      jump\t// in\n    tag_544:\n        /* \"#utility.yul\":18336:18399   */\n      swap2\n      pop\n        /* \"#utility.yul\":18291:18409   */\n      pop\n        /* \"#utility.yul\":17942:18416   */\n      swap3\n      pop\n      swap3\n      swap1\n      pop\n      jump\t// out\n        /* \"#utility.yul\":18422:19511   */\n    tag_71:\n        /* \"#utility.yul\":18526:18532   */\n      0x00\n        /* \"#utility.yul\":18534:18540   */\n      dup1\n        /* \"#utility.yul\":18542:18548   */\n      0x00\n        /* \"#utility.yul\":18550:18556   */\n      dup1\n        /* \"#utility.yul\":18558:18564   */\n      0x00\n        /* \"#utility.yul\":18607:18610   */\n      0xa0\n        /* \"#utility.yul\":18595:18604   */\n      dup7\n        /* \"#utility.yul\":18586:18593   */\n      dup9\n        /* \"#utility.yul\":18582:18605   */\n      sub\n        /* \"#utility.yul\":18578:18611   */\n      slt\n        /* \"#utility.yul\":18575:18695   */\n      iszero\n      tag_546\n      jumpi\n        /* \"#utility.yul\":18614:18693   */\n      tag_547\n      tag_269\n      jump\t// in\n    tag_547:\n        /* \"#utility.yul\":18575:18695   */\n    tag_546:\n        /* \"#utility.yul\":18734:18735   */\n      0x00\n        /* \"#utility.yul\":18759:18812   */\n      tag_548\n        /* \"#utility.yul\":18804:18811   */\n      dup9\n        /* \"#utility.yul\":18795:18801   */\n      dup3\n        /* \"#utility.yul\":18784:18793   */\n      dup10\n        /* \"#utility.yul\":18780:18802   */\n      add\n        /* \"#utility.yul\":18759:18812   */\n      tag_274\n      jump\t// in\n    tag_548:\n        /* \"#utility.yul\":18749:18812   */\n      swap6\n      pop\n        /* \"#utility.yul\":18705:18822   */\n      pop\n        /* \"#utility.yul\":18861:18863   */\n      0x20\n        /* \"#utility.yul\":18887:18940   */\n      tag_549\n        /* \"#utility.yul\":18932:18939   */\n      dup9\n        /* \"#utility.yul\":18923:18929   */\n      dup3\n        /* \"#utility.yul\":18912:18921   */\n      dup10\n        /* \"#utility.yul\":18908:18930   */\n      add\n        /* \"#utility.yul\":18887:18940   */\n      tag_274\n      jump\t// in\n    tag_549:\n        /* \"#utility.yul\":18877:18940   */\n      swap5\n      pop\n        /* \"#utility.yul\":18832:18950   */\n      pop\n        /* \"#utility.yul\":18989:18991   */\n      0x40\n        /* \"#utility.yul\":19015:19068   */\n      tag_550\n        /* \"#utility.yul\":19060:19067   */\n      dup9\n        /* \"#utility.yul\":19051:19057   */\n      dup3\n        /* \"#utility.yul\":19040:19049   */\n      dup10\n        /* \"#utility.yul\":19036:19058   */\n      add\n        /* \"#utility.yul\":19015:19068   */\n      tag_277\n      jump\t// in\n    tag_550:\n        /* \"#utility.yul\":19005:19068   */\n      swap4\n      pop\n        /* \"#utility.yul\":18960:19078   */\n      pop\n        /* \"#utility.yul\":19117:19119   */\n      0x60\n        /* \"#utility.yul\":19143:19196   */\n      tag_551\n        /* \"#utility.yul\":19188:19195   */\n      dup9\n        /* \"#utility.yul\":19179:19185   */\n      dup3\n        /* \"#utility.yul\":19168:19177   */\n      dup10\n        /* \"#utility.yul\":19164:19186   */\n      add\n        /* \"#utility.yul\":19143:19196   */\n      tag_277\n      jump\t// in\n    tag_551:\n        /* \"#utility.yul\":19133:19196   */\n      swap3\n      pop\n        /* \"#utility.yul\":19088:19206   */\n      pop\n        /* \"#utility.yul\":19273:19276   */\n      0x80\n        /* \"#utility.yul\":19262:19271   */\n      dup7\n        /* \"#utility.yul\":19258:19277   */\n      add\n        /* \"#utility.yul\":19245:19278   */\n      calldataload\n        /* \"#utility.yul\":19305:19323   */\n      0xffffffffffffffff\n        /* \"#utility.yul\":19297:19303   */\n      dup2\n        /* \"#utility.yul\":19294:19324   */\n      gt\n        /* \"#utility.yul\":19291:19408   */\n      iszero\n      tag_552\n      jumpi\n        /* \"#utility.yul\":19327:19406   */\n      tag_553\n      tag_270\n      jump\t// in\n    tag_553:\n        /* \"#utility.yul\":19291:19408   */\n    tag_552:\n        /* \"#utility.yul\":19432:19494   */\n      tag_554\n        /* \"#utility.yul\":19486:19493   */\n      dup9\n        /* \"#utility.yul\":19477:19483   */\n      dup3\n        /* \"#utility.yul\":19466:19475   */\n      dup10\n        /* \"#utility.yul\":19462:19484   */\n      add\n        /* \"#utility.yul\":19432:19494   */\n      tag_295\n      jump\t// in\n    tag_554:\n        /* \"#utility.yul\":19422:19494   */\n      swap2\n      pop\n        /* \"#utility.yul\":19216:19504   */\n      pop\n        /* \"#utility.yul\":18422:19511   */\n      swap3\n      swap6\n      pop\n      swap3\n      swap6\n      swap1\n      swap4\n      pop\n      jump\t// out\n        /* \"#utility.yul\":19517:19846   */\n    tag_75:\n        /* \"#utility.yul\":19576:19582   */\n      0x00\n        /* \"#utility.yul\":19625:19627   */\n      0x20\n        /* \"#utility.yul\":19613:19622   */\n      dup3\n        /* \"#utility.yul\":19604:19611   */\n      dup5\n        /* \"#utility.yul\":19600:19623   */\n      sub\n        /* \"#utility.yul\":19596:19628   */\n      slt\n        /* \"#utility.yul\":19593:19712   */\n      iszero\n      tag_556\n      jumpi\n        /* \"#utility.yul\":19631:19710   */\n      tag_557\n      tag_269\n      jump\t// in\n    tag_557:\n        /* \"#utility.yul\":19593:19712   */\n    tag_556:\n        /* \"#utility.yul\":19751:19752   */\n      0x00\n        /* \"#utility.yul\":19776:19829   */\n      tag_558\n        /* \"#utility.yul\":19821:19828   */\n      dup5\n        /* \"#utility.yul\":19812:19818   */\n      dup3\n        /* \"#utility.yul\":19801:19810   */\n      dup6\n        /* \"#utility.yul\":19797:19819   */\n      add\n        /* \"#utility.yul\":19776:19829   */\n      tag_274\n      jump\t// in\n    tag_558:\n        /* \"#utility.yul\":19766:19829   */\n      swap2\n      pop\n        /* \"#utility.yul\":19722:19839   */\n      pop\n        /* \"#utility.yul\":19517:19846   */\n      swap3\n      swap2\n      pop\n      pop\n      jump\t// out\n        /* \"#utility.yul\":19852:20032   */\n    tag_317:\n        /* \"#utility.yul\":19900:19977   */\n      0x4e487b7100000000000000000000000000000000000000000000000000000000\n        /* \"#utility.yul\":19897:19898   */\n      0x00\n        /* \"#utility.yul\":19890:19978   */\n      mstore\n        /* \"#utility.yul\":19997:20001   */\n      0x22\n        /* \"#utility.yul\":19994:19995   */\n      0x04\n        /* \"#utility.yul\":19987:20002   */\n      mstore\n        /* \"#utility.yul\":20021:20025   */\n      0x24\n        /* \"#utility.yul\":20018:20019   */\n      0x00\n        /* \"#utility.yul\":20011:20026   */\n      revert\n        /* \"#utility.yul\":20038:20358   */\n    tag_94:\n        /* \"#utility.yul\":20082:20088   */\n      0x00\n        /* \"#utility.yul\":20119:20120   */\n      0x02\n        /* \"#utility.yul\":20113:20117   */\n      dup3\n        /* \"#utility.yul\":20109:20121   */\n      div\n        /* \"#utility.yul\":20099:20121   */\n      swap1\n      pop\n        /* \"#utility.yul\":20166:20167   */\n      0x01\n        /* \"#utility.yul\":20160:20164   */\n      dup3\n        /* \"#utility.yul\":20156:20168   */\n      and\n        /* \"#utility.yul\":20187:20205   */\n      dup1\n        /* \"#utility.yul\":20177:20258   */\n      tag_561\n      jumpi\n        /* \"#utility.yul\":20243:20247   */\n      0x7f\n        /* \"#utility.yul\":20235:20241   */\n      dup3\n        /* \"#utility.yul\":20231:20248   */\n      and\n        /* \"#utility.yul\":20221:20248   */\n      swap2\n      pop\n        /* \"#utility.yul\":20177:20258   */\n    tag_561:\n        /* \"#utility.yul\":20305:20307   */\n      0x20\n        /* \"#utility.yul\":20297:20303   */\n      dup3\n        /* \"#utility.yul\":20294:20308   */\n      lt\n        /* \"#utility.yul\":20274:20292   */\n      dup2\n        /* \"#utility.yul\":20271:20309   */\n      sub\n        /* \"#utility.yul\":20268:20352   */\n      tag_562\n      jumpi\n        /* \"#utility.yul\":20324:20342   */\n      tag_563\n      tag_317\n      jump\t// in\n    tag_563:\n        /* \"#utility.yul\":20268:20352   */\n    tag_562:\n        /* \"#utility.yul\":20089:20358   */\n      pop\n        /* \"#utility.yul\":20038:20358   */\n      swap2\n      swap1\n      pop\n      jump\t// out\n        /* \"#utility.yul\":20364:20696   */\n    tag_106:\n        /* \"#utility.yul\":20485:20489   */\n      0x00\n        /* \"#utility.yul\":20523:20525   */\n      0x40\n        /* \"#utility.yul\":20512:20521   */\n      dup3\n        /* \"#utility.yul\":20508:20526   */\n      add\n        /* \"#utility.yul\":20500:20526   */\n      swap1\n      pop\n        /* \"#utility.yul\":20536:20607   */\n      tag_565\n        /* \"#utility.yul\":20604:20605   */\n      0x00\n        /* \"#utility.yul\":20593:20602   */\n      dup4\n        /* \"#utility.yul\":20589:20606   */\n      add\n        /* \"#utility.yul\":20580:20586   */\n      dup6\n        /* \"#utility.yul\":20536:20607   */\n      tag_314\n      jump\t// in\n    tag_565:\n        /* \"#utility.yul\":20617:20689   */\n      tag_566\n        /* \"#utility.yul\":20685:20687   */\n      0x20\n        /* \"#utility.yul\":20674:20683   */\n      dup4\n        /* \"#utility.yul\":20670:20688   */\n      add\n        /* \"#utility.yul\":20661:20667   */\n      dup5\n        /* \"#utility.yul\":20617:20689   */\n      tag_314\n      jump\t// in\n    tag_566:\n        /* \"#utility.yul\":20364:20696   */\n      swap4\n      swap3\n      pop\n      pop\n      pop\n      jump\t// out\n        /* \"#utility.yul\":20702:21034   */\n    tag_112:\n        /* \"#utility.yul\":20823:20827   */\n      0x00\n        /* \"#utility.yul\":20861:20863   */\n      0x40\n        /* \"#utility.yul\":20850:20859   */\n      dup3\n        /* \"#utility.yul\":20846:20864   */\n      add\n        /* \"#utility.yul\":20838:20864   */\n      swap1\n      pop\n        /* \"#utility.yul\":20874:20945   */\n      tag_568\n        /* \"#utility.yul\":20942:20943   */\n      0x00\n        /* \"#utility.yul\":20931:20940   */\n      dup4\n        /* \"#utility.yul\":20927:20944   */\n      add\n        /* \"#utility.yul\":20918:20924   */\n      dup6\n        /* \"#utility.yul\":20874:20945   */\n      tag_278\n      jump\t// in\n    tag_568:\n        /* \"#utility.yul\":20955:21027   */\n      tag_569\n        /* \"#utility.yul\":21023:21025   */\n      0x20\n        /* \"#utility.yul\":21012:21021   */\n      dup4\n        /* \"#utility.yul\":21008:21026   */\n      add\n        /* \"#utility.yul\":20999:21005   */\n      dup5\n        /* \"#utility.yul\":20955:21027   */\n      tag_278\n      jump\t// in\n    tag_569:\n        /* \"#utility.yul\":20702:21034   */\n      swap4\n      swap3\n      pop\n      pop\n      pop\n      jump\t// out\n        /* \"#utility.yul\":21040:21220   */\n    tag_127:\n        /* \"#utility.yul\":21088:21165   */\n      0x4e487b7100000000000000000000000000000000000000000000000000000000\n        /* \"#utility.yul\":21085:21086   */\n      0x00\n        /* \"#utility.yul\":21078:21166   */\n      mstore\n        /* \"#utility.yul\":21185:21189   */\n      0x32\n        /* \"#utility.yul\":21182:21183   */\n      0x04\n        /* \"#utility.yul\":21175:21190   */\n      mstore\n        /* \"#utility.yul\":21209:21213   */\n      0x24\n        /* \"#utility.yul\":21206:21207   */\n      0x00\n        /* \"#utility.yul\":21199:21214   */\n      revert\n        /* \"#utility.yul\":21226:21406   */\n    tag_318:\n        /* \"#utility.yul\":21274:21351   */\n      0x4e487b7100000000000000000000000000000000000000000000000000000000\n        /* \"#utility.yul\":21271:21272   */\n      0x00\n        /* \"#utility.yul\":21264:21352   */\n      mstore\n        /* \"#utility.yul\":21371:21375   */\n      0x11\n        /* \"#utility.yul\":21368:21369   */\n      0x04\n        /* \"#utility.yul\":21361:21376   */\n      mstore\n        /* \"#utility.yul\":21395:21399   */\n      0x24\n        /* \"#utility.yul\":21392:21393   */\n      0x00\n        /* \"#utility.yul\":21385:21400   */\n      revert\n        /* \"#utility.yul\":21412:21645   */\n    tag_129:\n        /* \"#utility.yul\":21451:21454   */\n      0x00\n        /* \"#utility.yul\":21474:21498   */\n      tag_573\n        /* \"#utility.yul\":21492:21497   */\n      dup3\n        /* \"#utility.yul\":21474:21498   */\n      tag_275\n      jump\t// in\n    tag_573:\n        /* \"#utility.yul\":21465:21498   */\n      swap2\n      pop\n        /* \"#utility.yul\":21520:21586   */\n      0xffffffffffffffffffffffffffffffffffffffffffffffffffffffffffffffff\n        /* \"#utility.yul\":21513:21518   */\n      dup3\n        /* \"#utility.yul\":21510:21587   */\n      sub\n        /* \"#utility.yul\":21507:21610   */\n      tag_574\n      jumpi\n        /* \"#utility.yul\":21590:21608   */\n      tag_575\n      tag_318\n      jump\t// in\n    tag_575:\n        /* \"#utility.yul\":21507:21610   */\n    tag_574:\n        /* \"#utility.yul\":21637:21638   */\n      0x01\n        /* \"#utility.yul\":21630:21635   */\n      dup3\n        /* \"#utility.yul\":21626:21639   */\n      add\n        /* \"#utility.yul\":21619:21639   */\n      swap1\n      pop\n        /* \"#utility.yul\":21412:21645   */\n      swap2\n      swap1\n      pop\n      jump\t// out\n        /* \"#utility.yul\":21651:21792   */\n    tag_319:\n        /* \"#utility.yul\":21700:21704   */\n      0x00\n        /* \"#utility.yul\":21723:21726   */\n      dup2\n        /* \"#utility.yul\":21715:21726   */\n      swap1\n      pop\n        /* \"#utility.yul\":21746:21749   */\n      dup2\n        /* \"#utility.yul\":21743:21744   */\n      0x00\n        /* \"#utility.yul\":21736:21750   */\n      mstore\n        /* \"#utility.yul\":21780:21784   */\n      0x20\n        /* \"#utility.yul\":21777:21778   */\n      0x00\n        /* \"#utility.yul\":21767:21785   */\n      keccak256\n        /* \"#utility.yul\":21759:21785   */\n      swap1\n      pop\n        /* \"#utility.yul\":21651:21792   */\n      swap2\n      swap1\n      pop\n      jump\t// out\n        /* \"#utility.yul\":21798:21891   */\n    tag_320:\n        /* \"#utility.yul\":21835:21841   */\n      0x00\n        /* \"#utility.yul\":21882:21884   */\n      0x20\n        /* \"#utility.yul\":21877:21879   */\n      0x1f\n        /* \"#utility.yul\":21870:21875   */\n      dup4\n        /* \"#utility.yul\":21866:21880   */\n      add\n        /* \"#utility.yul\":21862:21885   */\n      div\n        /* \"#utility.yul\":21852:21885   */\n      swap1\n      pop\n        /* \"#utility.yul\":21798:21891   */\n      swap2\n      swap1\n      pop\n      jump\t// out\n        /* \"#utility.yul\":21897:22004   */\n    tag_321:\n        /* \"#utility.yul\":21941:21949   */\n      0x00\n        /* \"#utility.yul\":21991:21996   */\n      dup3\n        /* \"#utility.yul\":21985:21989   */\n      dup3\n        /* \"#utility.yul\":21981:21997   */\n      shl\n        /* \"#utility.yul\":21960:21997   */\n      swap1\n      pop\n        /* \"#utility.yul\":21897:22004   */\n      swap3\n      swap2\n      pop\n      pop\n      jump\t// out\n        /* \"#utility.yul\":22010:22403   */\n    tag_322:\n        /* \"#utility.yul\":22079:22085   */\n      0x00\n        /* \"#utility.yul\":22129:22130   */\n      0x08\n        /* \"#utility.yul\":22117:22127   */\n      dup4\n        /* \"#utility.yul\":22113:22131   */\n      mul\n        /* \"#utility.yul\":22152:22249   */\n      tag_580\n        /* \"#utility.yul\":22182:22248   */\n      0xffffffffffffffffffffffffffffffffffffffffffffffffffffffffffffffff\n        /* \"#utility.yul\":22171:22180   */\n      dup3\n        /* \"#utility.yul\":22152:22249   */\n      tag_321\n      jump\t// in\n    tag_580:\n        /* \"#utility.yul\":22270:22309   */\n      tag_581\n        /* \"#utility.yul\":22300:22308   */\n      dup7\n        /* \"#utility.yul\":22289:22298   */\n      dup4\n        /* \"#utility.yul\":22270:22309   */\n      tag_321\n      jump\t// in\n    tag_581:\n        /* \"#utility.yul\":22258:22309   */\n      swap6\n      pop\n        /* \"#utility.yul\":22342:22346   */\n      dup1\n        /* \"#utility.yul\":22338:22347   */\n      not\n        /* \"#utility.yul\":22331:22336   */\n      dup5\n        /* \"#utility.yul\":22327:22348   */\n      and\n        /* \"#utility.yul\":22318:22348   */\n      swap4\n      pop\n        /* \"#utility.yul\":22391:22395   */\n      dup1\n        /* \"#utility.yul\":22381:22389   */\n      dup7\n        /* \"#utility.yul\":22377:22396   */\n      and\n        /* \"#utility.yul\":22370:22375   */\n      dup5\n        /* \"#utility.yul\":22367:22397   */\n      or\n        /* \"#utility.yul\":22357:22397   */\n      swap3\n      pop\n        /* \"#utility.yul\":22086:22403   */\n      pop\n      pop\n        /* \"#utility.yul\":22010:22403   */\n      swap4\n      swap3\n      pop\n      pop\n      pop\n      jump\t// out\n        /* \"#utility.yul\":22409:22469   */\n    tag_323:\n        /* \"#utility.yul\":22437:22440   */\n      0x00\n        /* \"#utility.yul\":22458:22463   */\n      dup2\n        /* \"#utility.yul\":22451:22463   */\n      swap1\n      pop\n        /* \"#utility.yul\":22409:22469   */\n      swap2\n      swap1\n      pop\n      jump\t// out\n        /* \"#utility.yul\":22475:22617   */\n    tag_324:\n        /* \"#utility.yul\":22525:22534   */\n      0x00\n        /* \"#utility.yul\":22558:22611   */\n      tag_584\n        /* \"#utility.yul\":22576:22610   */\n      tag_585\n        /* \"#utility.yul\":22585:22609   */\n      tag_586\n        /* \"#utility.yul\":22603:22608   */\n      dup5\n        /* \"#utility.yul\":22585:22609   */\n      tag_275\n      jump\t// in\n    tag_586:\n        /* \"#utility.yul\":22576:22610   */\n      tag_323\n      jump\t// in\n    tag_585:\n        /* \"#utility.yul\":22558:22611   */\n      tag_275\n      jump\t// in\n    tag_584:\n        /* \"#utility.yul\":22545:22611   */\n      swap1\n      pop\n        /* \"#utility.yul\":22475:22617   */\n      swap2\n      swap1\n      pop\n      jump\t// out\n        /* \"#utility.yul\":22623:22698   */\n    tag_325:\n        /* \"#utility.yul\":22666:22669   */\n      0x00\n        /* \"#utility.yul\":22687:22692   */\n      dup2\n        /* \"#utility.yul\":22680:22692   */\n      swap1\n      pop\n        /* \"#utility.yul\":22623:22698   */\n      swap2\n      swap1\n      pop\n      jump\t// out\n        /* \"#utility.yul\":22704:22973   */\n    tag_326:\n        /* \"#utility.yul\":22814:22853   */\n      tag_589\n        /* \"#utility.yul\":22845:22852   */\n      dup4\n        /* \"#utility.yul\":22814:22853   */\n      tag_324\n      jump\t// in\n    tag_589:\n        /* \"#utility.yul\":22875:22966   */\n      tag_590\n        /* \"#utility.yul\":22924:22965   */\n      tag_591\n        /* \"#utility.yul\":22948:22964   */\n      dup3\n        /* \"#utility.yul\":22924:22965   */\n      tag_325\n      jump\t// in\n    tag_591:\n        /* \"#utility.yul\":22916:22922   */\n      dup5\n        /* \"#utility.yul\":22909:22913   */\n      dup5\n        /* \"#utility.yul\":22903:22914   */\n      sload\n        /* \"#utility.yul\":22875:22966   */\n      tag_322\n      jump\t// in\n    tag_590:\n        /* \"#utility.yul\":22869:22873   */\n      dup3\n        /* \"#utility.yul\":22862:22967   */\n      sstore\n        /* \"#utility.yul\":22780:22973   */\n      pop\n        /* \"#utility.yul\":22704:22973   */\n      pop\n      pop\n      pop\n      jump\t// out\n        /* \"#utility.yul\":22979:23052   */\n    tag_327:\n        /* \"#utility.yul\":23024:23027   */\n      0x00\n        /* \"#utility.yul\":22979:23052   */\n      swap1\n      jump\t// out\n        /* \"#utility.yul\":23058:23247   */\n    tag_328:\n        /* \"#utility.yul\":23135:23167   */\n      tag_594\n      tag_327\n      jump\t// in\n    tag_594:\n        /* \"#utility.yul\":23176:23241   */\n      tag_595\n        /* \"#utility.yul\":23234:23240   */\n      dup2\n        /* \"#utility.yul\":23226:23232   */\n      dup5\n        /* \"#utility.yul\":23220:23224   */\n      dup5\n        /* \"#utility.yul\":23176:23241   */\n      tag_326\n      jump\t// in\n    tag_595:\n        /* \"#utility.yul\":23111:23247   */\n      pop\n        /* \"#utility.yul\":23058:23247   */\n      pop\n      pop\n      jump\t// out\n        /* \"#utility.yul\":23253:23439   */\n    tag_329:\n        /* \"#utility.yul\":23313:23433   */\n    tag_597:\n        /* \"#utility.yul\":23330:23333   */\n      dup2\n        /* \"#utility.yul\":23323:23328   */\n      dup2\n        /* \"#utility.yul\":23320:23334   */\n      lt\n        /* \"#utility.yul\":23313:23433   */\n      iszero\n      tag_599\n      jumpi\n        /* \"#utility.yul\":23384:23423   */\n      tag_600\n        /* \"#utility.yul\":23421:23422   */\n      0x00\n        /* \"#utility.yul\":23414:23419   */\n      dup3\n        /* \"#utility.yul\":23384:23423   */\n      tag_328\n      jump\t// in\n    tag_600:\n        /* \"#utility.yul\":23357:23358   */\n      0x01\n        /* \"#utility.yul\":23350:23355   */\n      dup2\n        /* \"#utility.yul\":23346:23359   */\n      add\n        /* \"#utility.yul\":23337:23359   */\n      swap1\n      pop\n        /* \"#utility.yul\":23313:23433   */\n      jump(tag_597)\n    tag_599:\n        /* \"#utility.yul\":23253:23439   */\n      pop\n      pop\n      jump\t// out\n        /* \"#utility.yul\":23445:23988   */\n    tag_330:\n        /* \"#utility.yul\":23546:23548   */\n      0x1f\n        /* \"#utility.yul\":23541:23544   */\n      dup3\n        /* \"#utility.yul\":23538:23549   */\n      gt\n        /* \"#utility.yul\":23535:23981   */\n      iszero\n      tag_602\n      jumpi\n        /* \"#utility.yul\":23580:23618   */\n      tag_603\n        /* \"#utility.yul\":23612:23617   */\n      dup2\n        /* \"#utility.yul\":23580:23618   */\n      tag_319\n      jump\t// in\n    tag_603:\n        /* \"#utility.yul\":23664:23693   */\n      tag_604\n        /* \"#utility.yul\":23682:23692   */\n      dup5\n        /* \"#utility.yul\":23664:23693   */\n      tag_320\n      jump\t// in\n    tag_604:\n        /* \"#utility.yul\":23654:23662   */\n      dup2\n        /* \"#utility.yul\":23650:23694   */\n      add\n        /* \"#utility.yul\":23847:23849   */\n      0x20\n        /* \"#utility.yul\":23835:23845   */\n      dup6\n        /* \"#utility.yul\":23832:23850   */\n      lt\n        /* \"#utility.yul\":23829:23878   */\n      iszero\n      tag_605\n      jumpi\n        /* \"#utility.yul\":23868:23876   */\n      dup2\n        /* \"#utility.yul\":23853:23876   */\n      swap1\n      pop\n        /* \"#utility.yul\":23829:23878   */\n    tag_605:\n        /* \"#utility.yul\":23891:23971   */\n      tag_606\n        /* \"#utility.yul\":23947:23969   */\n      tag_607\n        /* \"#utility.yul\":23965:23968   */\n      dup6\n        /* \"#utility.yul\":23947:23969   */\n      tag_320\n      jump\t// in\n    tag_607:\n        /* \"#utility.yul\":23937:23945   */\n      dup4\n        /* \"#utility.yul\":23933:23970   */\n      add\n        /* \"#utility.yul\":23920:23931   */\n      dup3\n        /* \"#utility.yul\":23891:23971   */\n      tag_329\n      jump\t// in\n    tag_606:\n        /* \"#utility.yul\":23550:23981   */\n      pop\n      pop\n        /* \"#utility.yul\":23535:23981   */\n    tag_602:\n        /* \"#utility.yul\":23445:23988   */\n      pop\n      pop\n      pop\n      jump\t// out\n        /* \"#utility.yul\":23994:24111   */\n    tag_331:\n        /* \"#utility.yul\":24048:24056   */\n      0x00\n        /* \"#utility.yul\":24098:24103   */\n      dup3\n        /* \"#utility.yul\":24092:24096   */\n      dup3\n        /* \"#utility.yul\":24088:24104   */\n      shr\n        /* \"#utility.yul\":24067:24104   */\n      swap1\n      pop\n        /* \"#utility.yul\":23994:24111   */\n      swap3\n      swap2\n      pop\n      pop\n      jump\t// out\n        /* \"#utility.yul\":24117:24286   */\n    tag_332:\n        /* \"#utility.yul\":24161:24167   */\n      0x00\n        /* \"#utility.yul\":24194:24245   */\n      tag_610\n        /* \"#utility.yul\":24242:24243   */\n      0x00\n        /* \"#utility.yul\":24238:24244   */\n      not\n        /* \"#utility.yul\":24230:24235   */\n      dup5\n        /* \"#utility.yul\":24227:24228   */\n      0x08\n        /* \"#utility.yul\":24223:24236   */\n      mul\n        /* \"#utility.yul\":24194:24245   */\n      tag_331\n      jump\t// in\n    tag_610:\n        /* \"#utility.yul\":24190:24246   */\n      not\n        /* \"#utility.yul\":24275:24279   */\n      dup1\n        /* \"#utility.yul\":24269:24273   */\n      dup4\n        /* \"#utility.yul\":24265:24280   */\n      and\n        /* \"#utility.yul\":24255:24280   */\n      swap2\n      pop\n        /* \"#utility.yul\":24168:24286   */\n      pop\n        /* \"#utility.yul\":24117:24286   */\n      swap3\n      swap2\n      pop\n      pop\n      jump\t// out\n        /* \"#utility.yul\":24291:24586   */\n    tag_333:\n        /* \"#utility.yul\":24367:24371   */\n      0x00\n        /* \"#utility.yul\":24513:24542   */\n      tag_612\n        /* \"#utility.yul\":24538:24541   */\n      dup4\n        /* \"#utility.yul\":24532:24536   */\n      dup4\n        /* \"#utility.yul\":24513:24542   */\n      tag_332\n      jump\t// in\n    tag_612:\n        /* \"#utility.yul\":24505:24542   */\n      swap2\n      pop\n        /* \"#utility.yul\":24575:24578   */\n      dup3\n        /* \"#utility.yul\":24572:24573   */\n      0x02\n        /* \"#utility.yul\":24568:24579   */\n      mul\n        /* \"#utility.yul\":24562:24566   */\n      dup3\n        /* \"#utility.yul\":24559:24580   */\n      or\n        /* \"#utility.yul\":24551:24580   */\n      swap1\n      pop\n        /* \"#utility.yul\":24291:24586   */\n      swap3\n      swap2\n      pop\n      pop\n      jump\t// out\n        /* \"#utility.yul\":24591:25986   */\n    tag_164:\n        /* \"#utility.yul\":24708:24745   */\n      tag_614\n        /* \"#utility.yul\":24741:24744   */\n      dup3\n        /* \"#utility.yul\":24708:24745   */\n      tag_296\n      jump\t// in\n    tag_614:\n        /* \"#utility.yul\":24810:24828   */\n      0xffffffffffffffff\n        /* \"#utility.yul\":24802:24808   */\n      dup2\n        /* \"#utility.yul\":24799:24829   */\n      gt\n        /* \"#utility.yul\":24796:24852   */\n      iszero\n      tag_615\n      jumpi\n        /* \"#utility.yul\":24832:24850   */\n      tag_616\n      tag_115\n      jump\t// in\n    tag_616:\n        /* \"#utility.yul\":24796:24852   */\n    tag_615:\n        /* \"#utility.yul\":24876:24914   */\n      tag_617\n        /* \"#utility.yul\":24908:24912   */\n      dup3\n        /* \"#utility.yul\":24902:24913   */\n      sload\n        /* \"#utility.yul\":24876:24914   */\n      tag_94\n      jump\t// in\n    tag_617:\n        /* \"#utility.yul\":24961:25028   */\n      tag_618\n        /* \"#utility.yul\":25021:25027   */\n      dup3\n        /* \"#utility.yul\":25013:25019   */\n      dup3\n        /* \"#utility.yul\":25007:25011   */\n      dup6\n        /* \"#utility.yul\":24961:25028   */\n      tag_330\n      jump\t// in\n    tag_618:\n        /* \"#utility.yul\":25055:25056   */\n      0x00\n        /* \"#utility.yul\":25079:25083   */\n      0x20\n        /* \"#utility.yul\":25066:25083   */\n      swap1\n      pop\n        /* \"#utility.yul\":25111:25113   */\n      0x1f\n        /* \"#utility.yul\":25103:25109   */\n      dup4\n        /* \"#utility.yul\":25100:25114   */\n      gt\n        /* \"#utility.yul\":25128:25129   */\n      0x01\n        /* \"#utility.yul\":25123:25741   */\n      dup2\n      eq\n      tag_620\n      jumpi\n        /* \"#utility.yul\":25785:25786   */\n      0x00\n        /* \"#utility.yul\":25802:25808   */\n      dup5\n        /* \"#utility.yul\":25799:25876   */\n      iszero\n      tag_621\n      jumpi\n        /* \"#utility.yul\":25851:25860   */\n      dup3\n        /* \"#utility.yul\":25846:25849   */\n      dup8\n        /* \"#utility.yul\":25842:25861   */\n      add\n        /* \"#utility.yul\":25836:25862   */\n      mload\n        /* \"#utility.yul\":25827:25862   */\n      swap1\n      pop\n        /* \"#utility.yul\":25799:25876   */\n    tag_621:\n        /* \"#utility.yul\":25902:25969   */\n      tag_622\n        /* \"#utility.yul\":25962:25968   */\n      dup6\n        /* \"#utility.yul\":25955:25960   */\n      dup3\n        /* \"#utility.yul\":25902:25969   */\n      tag_333\n      jump\t// in\n    tag_622:\n        /* \"#utility.yul\":25896:25900   */\n      dup7\n        /* \"#utility.yul\":25889:25970   */\n      sstore\n        /* \"#utility.yul\":25758:25980   */\n      pop\n        /* \"#utility.yul\":25093:25980   */\n      jump(tag_619)\n        /* \"#utility.yul\":25123:25741   */\n    tag_620:\n        /* \"#utility.yul\":25175:25179   */\n      0x1f\n        /* \"#utility.yul\":25171:25180   */\n      not\n        /* \"#utility.yul\":25163:25169   */\n      dup5\n        /* \"#utility.yul\":25159:25181   */\n      and\n        /* \"#utility.yul\":25209:25246   */\n      tag_623\n        /* \"#utility.yul\":25241:25245   */\n      dup7\n        /* \"#utility.yul\":25209:25246   */\n      tag_319\n      jump\t// in\n    tag_623:\n        /* \"#utility.yul\":25268:25269   */\n      0x00\n        /* \"#utility.yul\":25282:25490   */\n    tag_624:\n        /* \"#utility.yul\":25296:25303   */\n      dup3\n        /* \"#utility.yul\":25293:25294   */\n      dup2\n        /* \"#utility.yul\":25290:25304   */\n      lt\n        /* \"#utility.yul\":25282:25490   */\n      iszero\n      tag_626\n      jumpi\n        /* \"#utility.yul\":25375:25384   */\n      dup5\n        /* \"#utility.yul\":25370:25373   */\n      dup10\n        /* \"#utility.yul\":25366:25385   */\n      add\n        /* \"#utility.yul\":25360:25386   */\n      mload\n        /* \"#utility.yul\":25352:25358   */\n      dup3\n        /* \"#utility.yul\":25345:25387   */\n      sstore\n        /* \"#utility.yul\":25426:25427   */\n      0x01\n        /* \"#utility.yul\":25418:25424   */\n      dup3\n        /* \"#utility.yul\":25414:25428   */\n      add\n        /* \"#utility.yul\":25404:25428   */\n      swap2\n      pop\n        /* \"#utility.yul\":25473:25475   */\n      0x20\n        /* \"#utility.yul\":25462:25471   */\n      dup6\n        /* \"#utility.yul\":25458:25476   */\n      add\n        /* \"#utility.yul\":25445:25476   */\n      swap5\n      pop\n        /* \"#utility.yul\":25319:25323   */\n      0x20\n        /* \"#utility.yul\":25316:25317   */\n      dup2\n        /* \"#utility.yul\":25312:25324   */\n      add\n        /* \"#utility.yul\":25307:25324   */\n      swap1\n      pop\n        /* \"#utility.yul\":25282:25490   */\n      jump(tag_624)\n    tag_626:\n        /* \"#utility.yul\":25518:25524   */\n      dup7\n        /* \"#utility.yul\":25509:25516   */\n      dup4\n        /* \"#utility.yul\":25506:25525   */\n      lt\n        /* \"#utility.yul\":25503:25682   */\n      iszero\n      tag_627\n      jumpi\n        /* \"#utility.yul\":25576:25585   */\n      dup5\n        /* \"#utility.yul\":25571:25574   */\n      dup10\n        /* \"#utility.yul\":25567:25586   */\n      add\n        /* \"#utility.yul\":25561:25587   */\n      mload\n        /* \"#utility.yul\":25619:25667   */\n      tag_628\n        /* \"#utility.yul\":25661:25665   */\n      0x1f\n        /* \"#utility.yul\":25653:25659   */\n      dup10\n        /* \"#utility.yul\":25649:25666   */\n      and\n        /* \"#utility.yul\":25638:25647   */\n      dup3\n        /* \"#utility.yul\":25619:25667   */\n      tag_332\n      jump\t// in\n    tag_628:\n        /* \"#utility.yul\":25611:25617   */\n      dup4\n        /* \"#utility.yul\":25604:25668   */\n      sstore\n        /* \"#utility.yul\":25526:25682   */\n      pop\n        /* \"#utility.yul\":25503:25682   */\n    tag_627:\n        /* \"#utility.yul\":25728:25729   */\n      0x01\n        /* \"#utility.yul\":25724:25725   */\n      0x02\n        /* \"#utility.yul\":25716:25722   */\n      dup9\n        /* \"#utility.yul\":25712:25726   */\n      mul\n        /* \"#utility.yul\":25708:25730   */\n      add\n        /* \"#utility.yul\":25702:25706   */\n      dup9\n        /* \"#utility.yul\":25695:25731   */\n      sstore\n        /* \"#utility.yul\":25130:25741   */\n      pop\n      pop\n      pop\n        /* \"#utility.yul\":25093:25980   */\n    tag_619:\n      pop\n        /* \"#utility.yul\":24683:25986   */\n      pop\n      pop\n      pop\n        /* \"#utility.yul\":24591:25986   */\n      pop\n      pop\n      jump\t// out\n        /* \"#utility.yul\":25992:26545   */\n    tag_219:\n        /* \"#utility.yul\":26169:26173   */\n      0x00\n        /* \"#utility.yul\":26207:26210   */\n      0x80\n        /* \"#utility.yul\":26196:26205   */\n      dup3\n        /* \"#utility.yul\":26192:26211   */\n      add\n        /* \"#utility.yul\":26184:26211   */\n      swap1\n      pop\n        /* \"#utility.yul\":26221:26292   */\n      tag_630\n        /* \"#utility.yul\":26289:26290   */\n      0x00\n        /* \"#utility.yul\":26278:26287   */\n      dup4\n        /* \"#utility.yul\":26274:26291   */\n      add\n        /* \"#utility.yul\":26265:26271   */\n      dup8\n        /* \"#utility.yul\":26221:26292   */\n      tag_314\n      jump\t// in\n    tag_630:\n        /* \"#utility.yul\":26302:26374   */\n      tag_631\n        /* \"#utility.yul\":26370:26372   */\n      0x20\n        /* \"#utility.yul\":26359:26368   */\n      dup4\n        /* \"#utility.yul\":26355:26373   */\n      add\n        /* \"#utility.yul\":26346:26352   */\n      dup7\n        /* \"#utility.yul\":26302:26374   */\n      tag_278\n      jump\t// in\n    tag_631:\n        /* \"#utility.yul\":26384:26456   */\n      tag_632\n        /* \"#utility.yul\":26452:26454   */\n      0x40\n        /* \"#utility.yul\":26441:26450   */\n      dup4\n        /* \"#utility.yul\":26437:26455   */\n      add\n        /* \"#utility.yul\":26428:26434   */\n      dup6\n        /* \"#utility.yul\":26384:26456   */\n      tag_278\n      jump\t// in\n    tag_632:\n        /* \"#utility.yul\":26466:26538   */\n      tag_633\n        /* \"#utility.yul\":26534:26536   */\n      0x60\n        /* \"#utility.yul\":26523:26532   */\n      dup4\n        /* \"#utility.yul\":26519:26537   */\n      add\n        /* \"#utility.yul\":26510:26516   */\n      dup5\n        /* \"#utility.yul\":26466:26538   */\n      tag_278\n      jump\t// in\n    tag_633:\n        /* \"#utility.yul\":25992:26545   */\n      swap6\n      swap5\n      pop\n      pop\n      pop\n      pop\n      pop\n      jump\t// out\n        /* \"#utility.yul\":26551:26742   */\n    tag_222:\n        /* \"#utility.yul\":26591:26594   */\n      0x00\n        /* \"#utility.yul\":26610:26630   */\n      tag_635\n        /* \"#utility.yul\":26628:26629   */\n      dup3\n        /* \"#utility.yul\":26610:26630   */\n      tag_275\n      jump\t// in\n    tag_635:\n        /* \"#utility.yul\":26605:26630   */\n      swap2\n      pop\n        /* \"#utility.yul\":26644:26664   */\n      tag_636\n        /* \"#utility.yul\":26662:26663   */\n      dup4\n        /* \"#utility.yul\":26644:26664   */\n      tag_275\n      jump\t// in\n    tag_636:\n        /* \"#utility.yul\":26639:26664   */\n      swap3\n      pop\n        /* \"#utility.yul\":26687:26688   */\n      dup3\n        /* \"#utility.yul\":26684:26685   */\n      dup3\n        /* \"#utility.yul\":26680:26689   */\n      add\n        /* \"#utility.yul\":26673:26689   */\n      swap1\n      pop\n        /* \"#utility.yul\":26708:26711   */\n      dup1\n        /* \"#utility.yul\":26705:26706   */\n      dup3\n        /* \"#utility.yul\":26702:26712   */\n      gt\n        /* \"#utility.yul\":26699:26735   */\n      iszero\n      tag_637\n      jumpi\n        /* \"#utility.yul\":26715:26733   */\n      tag_638\n      tag_318\n      jump\t// in\n    tag_638:\n        /* \"#utility.yul\":26699:26735   */\n    tag_637:\n        /* \"#utility.yul\":26551:26742   */\n      swap3\n      swap2\n      pop\n      pop\n      jump\t// out\n        /* \"#utility.yul\":26748:27382   */\n    tag_230:\n        /* \"#utility.yul\":26969:26973   */\n      0x00\n        /* \"#utility.yul\":27007:27009   */\n      0x40\n        /* \"#utility.yul\":26996:27005   */\n      dup3\n        /* \"#utility.yul\":26992:27010   */\n      add\n        /* \"#utility.yul\":26984:27010   */\n      swap1\n      pop\n        /* \"#utility.yul\":27056:27065   */\n      dup2\n        /* \"#utility.yul\":27050:27054   */\n      dup2\n        /* \"#utility.yul\":27046:27066   */\n      sub\n        /* \"#utility.yul\":27042:27043   */\n      0x00\n        /* \"#utility.yul\":27031:27040   */\n      dup4\n        /* \"#utility.yul\":27027:27044   */\n      add\n        /* \"#utility.yul\":27020:27067   */\n      mstore\n        /* \"#utility.yul\":27084:27192   */\n      tag_640\n        /* \"#utility.yul\":27187:27191   */\n      dup2\n        /* \"#utility.yul\":27178:27184   */\n      dup6\n        /* \"#utility.yul\":27084:27192   */\n      tag_313\n      jump\t// in\n    tag_640:\n        /* \"#utility.yul\":27076:27192   */\n      swap1\n      pop\n        /* \"#utility.yul\":27239:27248   */\n      dup2\n        /* \"#utility.yul\":27233:27237   */\n      dup2\n        /* \"#utility.yul\":27229:27249   */\n      sub\n        /* \"#utility.yul\":27224:27226   */\n      0x20\n        /* \"#utility.yul\":27213:27222   */\n      dup4\n        /* \"#utility.yul\":27209:27227   */\n      add\n        /* \"#utility.yul\":27202:27250   */\n      mstore\n        /* \"#utility.yul\":27267:27375   */\n      tag_641\n        /* \"#utility.yul\":27370:27374   */\n      dup2\n        /* \"#utility.yul\":27361:27367   */\n      dup5\n        /* \"#utility.yul\":27267:27375   */\n      tag_313\n      jump\t// in\n    tag_641:\n        /* \"#utility.yul\":27259:27375   */\n      swap1\n      pop\n        /* \"#utility.yul\":26748:27382   */\n      swap4\n      swap3\n      pop\n      pop\n      pop\n      jump\t// out\n        /* \"#utility.yul\":27388:27486   */\n    tag_334:\n        /* \"#utility.yul\":27439:27445   */\n      0x00\n        /* \"#utility.yul\":27473:27478   */\n      dup2\n        /* \"#utility.yul\":27467:27479   */\n      mload\n        /* \"#utility.yul\":27457:27479   */\n      swap1\n      pop\n        /* \"#utility.yul\":27388:27486   */\n      swap2\n      swap1\n      pop\n      jump\t// out\n        /* \"#utility.yul\":27492:27660   */\n    tag_335:\n        /* \"#utility.yul\":27575:27586   */\n      0x00\n        /* \"#utility.yul\":27609:27615   */\n      dup3\n        /* \"#utility.yul\":27604:27607   */\n      dup3\n        /* \"#utility.yul\":27597:27616   */\n      mstore\n        /* \"#utility.yul\":27649:27653   */\n      0x20\n        /* \"#utility.yul\":27644:27647   */\n      dup3\n        /* \"#utility.yul\":27640:27654   */\n      add\n        /* \"#utility.yul\":27625:27654   */\n      swap1\n      pop\n        /* \"#utility.yul\":27492:27660   */\n      swap3\n      swap2\n      pop\n      pop\n      jump\t// out\n        /* \"#utility.yul\":27666:28039   */\n    tag_336:\n        /* \"#utility.yul\":27752:27755   */\n      0x00\n        /* \"#utility.yul\":27780:27818   */\n      tag_645\n        /* \"#utility.yul\":27812:27817   */\n      dup3\n        /* \"#utility.yul\":27780:27818   */\n      tag_334\n      jump\t// in\n    tag_645:\n        /* \"#utility.yul\":27834:27904   */\n      tag_646\n        /* \"#utility.yul\":27897:27903   */\n      dup2\n        /* \"#utility.yul\":27892:27895   */\n      dup6\n        /* \"#utility.yul\":27834:27904   */\n      tag_335\n      jump\t// in\n    tag_646:\n        /* \"#utility.yul\":27827:27904   */\n      swap4\n      pop\n        /* \"#utility.yul\":27913:27978   */\n      tag_647\n        /* \"#utility.yul\":27971:27977   */\n      dup2\n        /* \"#utility.yul\":27966:27969   */\n      dup6\n        /* \"#utility.yul\":27959:27963   */\n      0x20\n        /* \"#utility.yul\":27952:27957   */\n      dup7\n        /* \"#utility.yul\":27948:27964   */\n      add\n        /* \"#utility.yul\":27913:27978   */\n      tag_298\n      jump\t// in\n    tag_647:\n        /* \"#utility.yul\":28003:28032   */\n      tag_648\n        /* \"#utility.yul\":28025:28031   */\n      dup2\n        /* \"#utility.yul\":28003:28032   */\n      tag_286\n      jump\t// in\n    tag_648:\n        /* \"#utility.yul\":27998:28001   */\n      dup5\n        /* \"#utility.yul\":27994:28033   */\n      add\n        /* \"#utility.yul\":27987:28033   */\n      swap2\n      pop\n        /* \"#utility.yul\":27756:28039   */\n      pop\n        /* \"#utility.yul\":27666:28039   */\n      swap3\n      swap2\n      pop\n      pop\n      jump\t// out\n        /* \"#utility.yul\":28045:28796   */\n    tag_234:\n        /* \"#utility.yul\":28268:28272   */\n      0x00\n        /* \"#utility.yul\":28306:28309   */\n      0xa0\n        /* \"#utility.yul\":28295:28304   */\n      dup3\n        /* \"#utility.yul\":28291:28310   */\n      add\n        /* \"#utility.yul\":28283:28310   */\n      swap1\n      pop\n        /* \"#utility.yul\":28320:28391   */\n      tag_650\n        /* \"#utility.yul\":28388:28389   */\n      0x00\n        /* \"#utility.yul\":28377:28386   */\n      dup4\n        /* \"#utility.yul\":28373:28390   */\n      add\n        /* \"#utility.yul\":28364:28370   */\n      dup9\n        /* \"#utility.yul\":28320:28391   */\n      tag_314\n      jump\t// in\n    tag_650:\n        /* \"#utility.yul\":28401:28473   */\n      tag_651\n        /* \"#utility.yul\":28469:28471   */\n      0x20\n        /* \"#utility.yul\":28458:28467   */\n      dup4\n        /* \"#utility.yul\":28454:28472   */\n      add\n        /* \"#utility.yul\":28445:28451   */\n      dup8\n        /* \"#utility.yul\":28401:28473   */\n      tag_314\n      jump\t// in\n    tag_651:\n        /* \"#utility.yul\":28483:28555   */\n      tag_652\n        /* \"#utility.yul\":28551:28553   */\n      0x40\n        /* \"#utility.yul\":28540:28549   */\n      dup4\n        /* \"#utility.yul\":28536:28554   */\n      add\n        /* \"#utility.yul\":28527:28533   */\n      dup7\n        /* \"#utility.yul\":28483:28555   */\n      tag_278\n      jump\t// in\n    tag_652:\n        /* \"#utility.yul\":28565:28637   */\n      tag_653\n        /* \"#utility.yul\":28633:28635   */\n      0x60\n        /* \"#utility.yul\":28622:28631   */\n      dup4\n        /* \"#utility.yul\":28618:28636   */\n      add\n        /* \"#utility.yul\":28609:28615   */\n      dup6\n        /* \"#utility.yul\":28565:28637   */\n      tag_278\n      jump\t// in\n    tag_653:\n        /* \"#utility.yul\":28685:28694   */\n      dup2\n        /* \"#utility.yul\":28679:28683   */\n      dup2\n        /* \"#utility.yul\":28675:28695   */\n      sub\n        /* \"#utility.yul\":28669:28672   */\n      0x80\n        /* \"#utility.yul\":28658:28667   */\n      dup4\n        /* \"#utility.yul\":28654:28673   */\n      add\n        /* \"#utility.yul\":28647:28696   */\n      mstore\n        /* \"#utility.yul\":28713:28789   */\n      tag_654\n        /* \"#utility.yul\":28784:28788   */\n      dup2\n        /* \"#utility.yul\":28775:28781   */\n      dup5\n        /* \"#utility.yul\":28713:28789   */\n      tag_336\n      jump\t// in\n    tag_654:\n        /* \"#utility.yul\":28705:28789   */\n      swap1\n      pop\n        /* \"#utility.yul\":28045:28796   */\n      swap7\n      swap6\n      pop\n      pop\n      pop\n      pop\n      pop\n      pop\n      jump\t// out\n        /* \"#utility.yul\":28802:28943   */\n    tag_337:\n        /* \"#utility.yul\":28858:28863   */\n      0x00\n        /* \"#utility.yul\":28889:28895   */\n      dup2\n        /* \"#utility.yul\":28883:28896   */\n      mload\n        /* \"#utility.yul\":28874:28896   */\n      swap1\n      pop\n        /* \"#utility.yul\":28905:28937   */\n      tag_656\n        /* \"#utility.yul\":28931:28936   */\n      dup2\n        /* \"#utility.yul\":28905:28937   */\n      tag_280\n      jump\t// in\n    tag_656:\n        /* \"#utility.yul\":28802:28943   */\n      swap3\n      swap2\n      pop\n      pop\n      jump\t// out\n        /* \"#utility.yul\":28949:29298   */\n    tag_237:\n        /* \"#utility.yul\":29018:29024   */\n      0x00\n        /* \"#utility.yul\":29067:29069   */\n      0x20\n        /* \"#utility.yul\":29055:29064   */\n      dup3\n        /* \"#utility.yul\":29046:29053   */\n      dup5\n        /* \"#utility.yul\":29042:29065   */\n      sub\n        /* \"#utility.yul\":29038:29070   */\n      slt\n        /* \"#utility.yul\":29035:29154   */\n      iszero\n      tag_658\n      jumpi\n        /* \"#utility.yul\":29073:29152   */\n      tag_659\n      tag_269\n      jump\t// in\n    tag_659:\n        /* \"#utility.yul\":29035:29154   */\n    tag_658:\n        /* \"#utility.yul\":29193:29194   */\n      0x00\n        /* \"#utility.yul\":29218:29281   */\n      tag_660\n        /* \"#utility.yul\":29273:29280   */\n      dup5\n        /* \"#utility.yul\":29264:29270   */\n      dup3\n        /* \"#utility.yul\":29253:29262   */\n      dup6\n        /* \"#utility.yul\":29249:29271   */\n      add\n        /* \"#utility.yul\":29218:29281   */\n      tag_337\n      jump\t// in\n    tag_660:\n        /* \"#utility.yul\":29208:29281   */\n      swap2\n      pop\n        /* \"#utility.yul\":29164:29291   */\n      pop\n        /* \"#utility.yul\":28949:29298   */\n      swap3\n      swap2\n      pop\n      pop\n      jump\t// out\n        /* \"#utility.yul\":29304:30357   */\n    tag_253:\n        /* \"#utility.yul\":29627:29631   */\n      0x00\n        /* \"#utility.yul\":29665:29668   */\n      0xa0\n        /* \"#utility.yul\":29654:29663   */\n      dup3\n        /* \"#utility.yul\":29650:29669   */\n      add\n        /* \"#utility.yul\":29642:29669   */\n      swap1\n      pop\n        /* \"#utility.yul\":29679:29750   */\n      tag_662\n        /* \"#utility.yul\":29747:29748   */\n      0x00\n        /* \"#utility.yul\":29736:29745   */\n      dup4\n        /* \"#utility.yul\":29732:29749   */\n      add\n        /* \"#utility.yul\":29723:29729   */\n      dup9\n        /* \"#utility.yul\":29679:29750   */\n      tag_314\n      jump\t// in\n    tag_662:\n        /* \"#utility.yul\":29760:29832   */\n      tag_663\n        /* \"#utility.yul\":29828:29830   */\n      0x20\n        /* \"#utility.yul\":29817:29826   */\n      dup4\n        /* \"#utility.yul\":29813:29831   */\n      add\n        /* \"#utility.yul\":29804:29810   */\n      dup8\n        /* \"#utility.yul\":29760:29832   */\n      tag_314\n      jump\t// in\n    tag_663:\n        /* \"#utility.yul\":29879:29888   */\n      dup2\n        /* \"#utility.yul\":29873:29877   */\n      dup2\n        /* \"#utility.yul\":29869:29889   */\n      sub\n        /* \"#utility.yul\":29864:29866   */\n      0x40\n        /* \"#utility.yul\":29853:29862   */\n      dup4\n        /* \"#utility.yul\":29849:29867   */\n      add\n        /* \"#utility.yul\":29842:29890   */\n      mstore\n        /* \"#utility.yul\":29907:30015   */\n      tag_664\n        /* \"#utility.yul\":30010:30014   */\n      dup2\n        /* \"#utility.yul\":30001:30007   */\n      dup7\n        /* \"#utility.yul\":29907:30015   */\n      tag_313\n      jump\t// in\n    tag_664:\n        /* \"#utility.yul\":29899:30015   */\n      swap1\n      pop\n        /* \"#utility.yul\":30062:30071   */\n      dup2\n        /* \"#utility.yul\":30056:30060   */\n      dup2\n        /* \"#utility.yul\":30052:30072   */\n      sub\n        /* \"#utility.yul\":30047:30049   */\n      0x60\n        /* \"#utility.yul\":30036:30045   */\n      dup4\n        /* \"#utility.yul\":30032:30050   */\n      add\n        /* \"#utility.yul\":30025:30073   */\n      mstore\n        /* \"#utility.yul\":30090:30198   */\n      tag_665\n        /* \"#utility.yul\":30193:30197   */\n      dup2\n        /* \"#utility.yul\":30184:30190   */\n      dup6\n        /* \"#utility.yul\":30090:30198   */\n      tag_313\n      jump\t// in\n    tag_665:\n        /* \"#utility.yul\":30082:30198   */\n      swap1\n      pop\n        /* \"#utility.yul\":30246:30255   */\n      dup2\n        /* \"#utility.yul\":30240:30244   */\n      dup2\n        /* \"#utility.yul\":30236:30256   */\n      sub\n        /* \"#utility.yul\":30230:30233   */\n      0x80\n        /* \"#utility.yul\":30219:30228   */\n      dup4\n        /* \"#utility.yul\":30215:30234   */\n      add\n        /* \"#utility.yul\":30208:30257   */\n      mstore\n        /* \"#utility.yul\":30274:30350   */\n      tag_666\n        /* \"#utility.yul\":30345:30349   */\n      dup2\n        /* \"#utility.yul\":30336:30342   */\n      dup5\n        /* \"#utility.yul\":30274:30350   */\n      tag_336\n      jump\t// in\n    tag_666:\n        /* \"#utility.yul\":30266:30350   */\n      swap1\n      pop\n        /* \"#utility.yul\":29304:30357   */\n      swap7\n      swap6\n      pop\n      pop\n      pop\n      pop\n      pop\n      pop\n      jump\t// out\n\n    auxdata: 0xa2646970667358221220433c600ade8096133d9b8ceb9326466287c759eeeaba4cc25d01b6b0b5e059c064736f6c63430008140033\n}\n",
				"bytecode": {
					"linkReferences": {},
					"object": "608060405234801562000010575f80fd5b5060405162002be238038062002be2833981810160405281019062000036919062000221565b8060405180602001604052805f8152506200005781620000e460201b60201c565b505f73ffffffffffffffffffffffffffffffffffffffff168173ffffffffffffffffffffffffffffffffffffffff1603620000cb575f6040517f1e4fbdf7000000000000000000000000000000000000000000000000000000008152600401620000c2919062000262565b60405180910390fd5b620000dc81620000f960201b60201c565b5050620005c5565b8060029081620000f59190620004e1565b5050565b5f60035f9054906101000a900473ffffffffffffffffffffffffffffffffffffffff1690508160035f6101000a81548173ffffffffffffffffffffffffffffffffffffffff021916908373ffffffffffffffffffffffffffffffffffffffff1602179055508173ffffffffffffffffffffffffffffffffffffffff168173ffffffffffffffffffffffffffffffffffffffff167f8be0079c531659141344cd1fd0a4f28419497f9722a3daafe3b4186f6b6457e060405160405180910390a35050565b5f80fd5b5f73ffffffffffffffffffffffffffffffffffffffff82169050919050565b5f620001eb82620001c0565b9050919050565b620001fd81620001df565b811462000208575f80fd5b50565b5f815190506200021b81620001f2565b92915050565b5f60208284031215620002395762000238620001bc565b5b5f62000248848285016200020b565b91505092915050565b6200025c81620001df565b82525050565b5f602082019050620002775f83018462000251565b92915050565b5f81519050919050565b7f4e487b71000000000000000000000000000000000000000000000000000000005f52604160045260245ffd5b7f4e487b71000000000000000000000000000000000000000000000000000000005f52602260045260245ffd5b5f6002820490506001821680620002f957607f821691505b6020821081036200030f576200030e620002b4565b5b50919050565b5f819050815f5260205f209050919050565b5f6020601f8301049050919050565b5f82821b905092915050565b5f60088302620003737fffffffffffffffffffffffffffffffffffffffffffffffffffffffffffffffff8262000336565b6200037f868362000336565b95508019841693508086168417925050509392505050565b5f819050919050565b5f819050919050565b5f620003c9620003c3620003bd8462000397565b620003a0565b62000397565b9050919050565b5f819050919050565b620003e483620003a9565b620003fc620003f382620003d0565b84845462000342565b825550505050565b5f90565b6200041262000404565b6200041f818484620003d9565b505050565b5b8181101562000446576200043a5f8262000408565b60018101905062000425565b5050565b601f82111562000495576200045f8162000315565b6200046a8462000327565b810160208510156200047a578190505b62000492620004898562000327565b83018262000424565b50505b505050565b5f82821c905092915050565b5f620004b75f19846008026200049a565b1980831691505092915050565b5f620004d18383620004a6565b9150826002028217905092915050565b620004ec826200027d565b67ffffffffffffffff81111562000508576200050762000287565b5b620005148254620002e1565b620005218282856200044a565b5f60209050601f83116001811462000557575f841562000542578287015190505b6200054e8582620004c4565b865550620005bd565b601f198416620005678662000315565b5f5b82811015620005905784890151825560018201915060208501945060208101905062000569565b86831015620005b05784890151620005ac601f891682620004a6565b8355505b6001600288020188555050505b505050505050565b61260f80620005d35f395ff3fe608060405234801561000f575f80fd5b50600436106100cc575f3560e01c80634e1273f41161008a578063a22cb46511610064578063a22cb4651461020c578063e985e9c514610228578063f242432a14610258578063f2fde38b14610274576100cc565b80634e1273f4146101b4578063715018a6146101e45780638da5cb5b146101ee576100cc565b8062fdd58e146100d057806301ffc9a71461010057806302fe53051461013057806308dc9f421461014c5780630e89341c146101685780632eb2c2d614610198575b5f80fd5b6100ea60048036038101906100e59190611694565b610290565b6040516100f791906116e1565b60405180910390f35b61011a6004803603810190610115919061174f565b6102e5565b6040516101279190611794565b60405180910390f35b61014a600480360381019061014591906118e9565b6103c6565b005b610166600480360381019061016191906119ce565b6103da565b005b610182600480360381019061017d9190611a3a565b6103eb565b60405161018f9190611adf565b60405180910390f35b6101b260048036038101906101ad9190611bc3565b61047d565b005b6101ce60048036038101906101c99190611d4e565b610524565b6040516101db9190611e7b565b60405180910390f35b6101ec610631565b005b6101f6610644565b6040516102039190611eaa565b60405180910390f35b61022660048036038101906102219190611eed565b61066c565b005b610242600480360381019061023d9190611f2b565b610682565b60405161024f9190611794565b60405180910390f35b610272600480360381019061026d9190611f69565b610710565b005b61028e60048036038101906102899190611ffc565b6107b7565b005b5f805f8381526020019081526020015f205f8473ffffffffffffffffffffffffffffffffffffffff1673ffffffffffffffffffffffffffffffffffffffff1681526020019081526020015f2054905092915050565b5f7fd9b67a26000000000000000000000000000000000000000000000000000000007bffffffffffffffffffffffffffffffffffffffffffffffffffffffff1916827bffffffffffffffffffffffffffffffffffffffffffffffffffffffff191614806103af57507f0e89341c000000000000000000000000000000000000000000000000000000007bffffffffffffffffffffffffffffffffffffffffffffffffffffffff1916827bffffffffffffffffffffffffffffffffffffffffffffffffffffffff1916145b806103bf57506103be8261083b565b5b9050919050565b6103ce6108a4565b6103d78161092b565b50565b6103e63384848461093e565b505050565b6060600280546103fa90612054565b80601f016020809104026020016040519081016040528092919081815260200182805461042690612054565b80156104715780601f1061044857610100808354040283529160200191610471565b820191905f5260205f20905b81548152906001019060200180831161045457829003601f168201915b50505050509050919050565b5f6104866109d3565b90508073ffffffffffffffffffffffffffffffffffffffff168673ffffffffffffffffffffffffffffffffffffffff16141580156104cb57506104c98682610682565b155b1561050f5780866040517fe237d922000000000000000000000000000000000000000000000000000000008152600401610506929190612084565b60405180910390fd5b61051c86868686866109da565b505050505050565b6060815183511461057057815183516040517f5b0599910000000000000000000000000000000000000000000000000000000081526004016105679291906120ab565b60405180910390fd5b5f835167ffffffffffffffff81111561058c5761058b6117c5565b5b6040519080825280602002602001820160405280156105ba5781602001602082028036833780820191505090505b5090505f5b8451811015610626576105f66105de8287610ace90919063ffffffff16565b6105f18387610ae190919063ffffffff16565b610290565b828281518110610609576106086120d2565b5b6020026020010181815250508061061f9061212c565b90506105bf565b508091505092915050565b6106396108a4565b6106425f610af4565b565b5f60035f9054906101000a900473ffffffffffffffffffffffffffffffffffffffff16905090565b61067e6106776109d3565b8383610bb7565b5050565b5f60015f8473ffffffffffffffffffffffffffffffffffffffff1673ffffffffffffffffffffffffffffffffffffffff1681526020019081526020015f205f8373ffffffffffffffffffffffffffffffffffffffff1673ffffffffffffffffffffffffffffffffffffffff1681526020019081526020015f205f9054906101000a900460ff16905092915050565b5f6107196109d3565b90508073ffffffffffffffffffffffffffffffffffffffff168673ffffffffffffffffffffffffffffffffffffffff161415801561075e575061075c8682610682565b155b156107a25780866040517fe237d922000000000000000000000000000000000000000000000000000000008152600401610799929190612084565b60405180910390fd5b6107af8686868686610d20565b505050505050565b6107bf6108a4565b5f73ffffffffffffffffffffffffffffffffffffffff168173ffffffffffffffffffffffffffffffffffffffff160361082f575f6040517f1e4fbdf70000000000000000000000000000000000000000000000000000000081526004016108269190611eaa565b60405180910390fd5b61083881610af4565b50565b5f7f01ffc9a7000000000000000000000000000000000000000000000000000000007bffffffffffffffffffffffffffffffffffffffffffffffffffffffff1916827bffffffffffffffffffffffffffffffffffffffffffffffffffffffff1916149050919050565b6108ac6109d3565b73ffffffffffffffffffffffffffffffffffffffff166108ca610644565b73ffffffffffffffffffffffffffffffffffffffff1614610929576108ed6109d3565b6040517f118cdaa70000000000000000000000000000000000000000000000000000000081526004016109209190611eaa565b60405180910390fd5b565b806002908161093a9190612310565b5050565b5f73ffffffffffffffffffffffffffffffffffffffff168473ffffffffffffffffffffffffffffffffffffffff16036109ae575f6040517f57f447ce0000000000000000000000000000000000000000000000000000000081526004016109a59190611eaa565b60405180910390fd5b5f806109ba8585610e26565b915091506109cb5f87848487610e56565b505050505050565b5f33905090565b5f73ffffffffffffffffffffffffffffffffffffffff168473ffffffffffffffffffffffffffffffffffffffff1603610a4a575f6040517f57f447ce000000000000000000000000000000000000000000000000000000008152600401610a419190611eaa565b60405180910390fd5b5f73ffffffffffffffffffffffffffffffffffffffff168573ffffffffffffffffffffffffffffffffffffffff1603610aba575f6040517f01a83514000000000000000000000000000000000000000000000000000000008152600401610ab19190611eaa565b60405180910390fd5b610ac78585858585610e56565b5050505050565b5f60208202602084010151905092915050565b5f60208202602084010151905092915050565b5f60035f9054906101000a900473ffffffffffffffffffffffffffffffffffffffff1690508160035f6101000a81548173ffffffffffffffffffffffffffffffffffffffff021916908373ffffffffffffffffffffffffffffffffffffffff1602179055508173ffffffffffffffffffffffffffffffffffffffff168173ffffffffffffffffffffffffffffffffffffffff167f8be0079c531659141344cd1fd0a4f28419497f9722a3daafe3b4186f6b6457e060405160405180910390a35050565b5f73ffffffffffffffffffffffffffffffffffffffff168273ffffffffffffffffffffffffffffffffffffffff1603610c27575f6040517fced3e100000000000000000000000000000000000000000000000000000000008152600401610c1e9190611eaa565b60405180910390fd5b8060015f8573ffffffffffffffffffffffffffffffffffffffff1673ffffffffffffffffffffffffffffffffffffffff1681526020019081526020015f205f8473ffffffffffffffffffffffffffffffffffffffff1673ffffffffffffffffffffffffffffffffffffffff1681526020019081526020015f205f6101000a81548160ff0219169083151502179055508173ffffffffffffffffffffffffffffffffffffffff168373ffffffffffffffffffffffffffffffffffffffff167f17307eab39ab6107e8899845ad3d59bd9653f200f220920489ca2b5937696c3183604051610d139190611794565b60405180910390a3505050565b5f73ffffffffffffffffffffffffffffffffffffffff168473ffffffffffffffffffffffffffffffffffffffff1603610d90575f6040517f57f447ce000000000000000000000000000000000000000000000000000000008152600401610d879190611eaa565b60405180910390fd5b5f73ffffffffffffffffffffffffffffffffffffffff168573ffffffffffffffffffffffffffffffffffffffff1603610e00575f6040517f01a83514000000000000000000000000000000000000000000000000000000008152600401610df79190611eaa565b60405180910390fd5b5f80610e0c8585610e26565b91509150610e1d8787848487610e56565b50505050505050565b60608060405191506001825283602083015260408201905060018152826020820152604081016040529250929050565b610e6285858585610f02565b5f73ffffffffffffffffffffffffffffffffffffffff168473ffffffffffffffffffffffffffffffffffffffff1614610efb575f610e9e6109d3565b90506001845103610eea575f610ebd5f86610ae190919063ffffffff16565b90505f610ed35f86610ae190919063ffffffff16565b9050610ee3838989858589611298565b5050610ef9565b610ef8818787878787611447565b5b505b5050505050565b8051825114610f4c57815181516040517f5b059991000000000000000000000000000000000000000000000000000000008152600401610f439291906120ab565b60405180910390fd5b5f610f556109d3565b90505f5b8351811015611157575f610f768286610ae190919063ffffffff16565b90505f610f8c8386610ae190919063ffffffff16565b90505f73ffffffffffffffffffffffffffffffffffffffff168873ffffffffffffffffffffffffffffffffffffffff16146110af575f805f8481526020019081526020015f205f8a73ffffffffffffffffffffffffffffffffffffffff1673ffffffffffffffffffffffffffffffffffffffff1681526020019081526020015f205490508181101561105b57888183856040517f03dee4c500000000000000000000000000000000000000000000000000000000815260040161105294939291906123df565b60405180910390fd5b8181035f808581526020019081526020015f205f8b73ffffffffffffffffffffffffffffffffffffffff1673ffffffffffffffffffffffffffffffffffffffff1681526020019081526020015f2081905550505b5f73ffffffffffffffffffffffffffffffffffffffff168773ffffffffffffffffffffffffffffffffffffffff161461114457805f808481526020019081526020015f205f8973ffffffffffffffffffffffffffffffffffffffff1673ffffffffffffffffffffffffffffffffffffffff1681526020019081526020015f205f82825461113c9190612422565b925050819055505b5050806111509061212c565b9050610f59565b506001835103611212575f6111755f85610ae190919063ffffffff16565b90505f61118b5f85610ae190919063ffffffff16565b90508573ffffffffffffffffffffffffffffffffffffffff168773ffffffffffffffffffffffffffffffffffffffff168473ffffffffffffffffffffffffffffffffffffffff167fc3d58168c5ae7397731d063d5bbf3d657854427343f4c083240f7aacaa2d0f6285856040516112039291906120ab565b60405180910390a45050611291565b8373ffffffffffffffffffffffffffffffffffffffff168573ffffffffffffffffffffffffffffffffffffffff168273ffffffffffffffffffffffffffffffffffffffff167f4a39dc06d4c0dbc64b70af90fd698a233a518aa5d07e595d983b8c0526c8f7fb8686604051611288929190612455565b60405180910390a45b5050505050565b5f8473ffffffffffffffffffffffffffffffffffffffff163b111561143f578373ffffffffffffffffffffffffffffffffffffffff1663f23a6e6187878686866040518663ffffffff1660e01b81526004016112f89594939291906124dc565b6020604051808303815f875af192505050801561133357506040513d601f19601f820116820180604052508101906113309190612548565b60015b6113b4573d805f8114611361576040519150601f19603f3d011682016040523d82523d5f602084013e611366565b606091505b505f8151036113ac57846040517f57f447ce0000000000000000000000000000000000000000000000000000000081526004016113a39190611eaa565b60405180910390fd5b805181602001fd5b63f23a6e6160e01b7bffffffffffffffffffffffffffffffffffffffffffffffffffffffff1916817bffffffffffffffffffffffffffffffffffffffffffffffffffffffff19161461143d57846040517f57f447ce0000000000000000000000000000000000000000000000000000000081526004016114349190611eaa565b60405180910390fd5b505b505050505050565b5f8473ffffffffffffffffffffffffffffffffffffffff163b11156115ee578373ffffffffffffffffffffffffffffffffffffffff1663bc197c8187878686866040518663ffffffff1660e01b81526004016114a7959493929190612573565b6020604051808303815f875af19250505080156114e257506040513d601f19601f820116820180604052508101906114df9190612548565b60015b611563573d805f8114611510576040519150601f19603f3d011682016040523d82523d5f602084013e611515565b606091505b505f81510361155b57846040517f57f447ce0000000000000000000000000000000000000000000000000000000081526004016115529190611eaa565b60405180910390fd5b805181602001fd5b63bc197c8160e01b7bffffffffffffffffffffffffffffffffffffffffffffffffffffffff1916817bffffffffffffffffffffffffffffffffffffffffffffffffffffffff1916146115ec57846040517f57f447ce0000000000000000000000000000000000000000000000000000000081526004016115e39190611eaa565b60405180910390fd5b505b505050505050565b5f604051905090565b5f80fd5b5f80fd5b5f73ffffffffffffffffffffffffffffffffffffffff82169050919050565b5f61163082611607565b9050919050565b61164081611626565b811461164a575f80fd5b50565b5f8135905061165b81611637565b92915050565b5f819050919050565b61167381611661565b811461167d575f80fd5b50565b5f8135905061168e8161166a565b92915050565b5f80604083850312156116aa576116a96115ff565b5b5f6116b78582860161164d565b92505060206116c885828601611680565b9150509250929050565b6116db81611661565b82525050565b5f6020820190506116f45f8301846116d2565b92915050565b5f7fffffffff0000000000000000000000000000000000000000000000000000000082169050919050565b61172e816116fa565b8114611738575f80fd5b50565b5f8135905061174981611725565b92915050565b5f60208284031215611764576117636115ff565b5b5f6117718482850161173b565b91505092915050565b5f8115159050919050565b61178e8161177a565b82525050565b5f6020820190506117a75f830184611785565b92915050565b5f80fd5b5f80fd5b5f601f19601f8301169050919050565b7f4e487b71000000000000000000000000000000000000000000000000000000005f52604160045260245ffd5b6117fb826117b5565b810181811067ffffffffffffffff8211171561181a576118196117c5565b5b80604052505050565b5f61182c6115f6565b905061183882826117f2565b919050565b5f67ffffffffffffffff821115611857576118566117c5565b5b611860826117b5565b9050602081019050919050565b828183375f83830152505050565b5f61188d6118888461183d565b611823565b9050828152602081018484840111156118a9576118a86117b1565b5b6118b484828561186d565b509392505050565b5f82601f8301126118d0576118cf6117ad565b5b81356118e084826020860161187b565b91505092915050565b5f602082840312156118fe576118fd6115ff565b5b5f82013567ffffffffffffffff81111561191b5761191a611603565b5b611927848285016118bc565b91505092915050565b5f67ffffffffffffffff82111561194a576119496117c5565b5b611953826117b5565b9050602081019050919050565b5f61197261196d84611930565b611823565b90508281526020810184848401111561198e5761198d6117b1565b5b61199984828561186d565b509392505050565b5f82601f8301126119b5576119b46117ad565b5b81356119c5848260208601611960565b91505092915050565b5f805f606084860312156119e5576119e46115ff565b5b5f6119f286828701611680565b9350506020611a0386828701611680565b925050604084013567ffffffffffffffff811115611a2457611a23611603565b5b611a30868287016119a1565b9150509250925092565b5f60208284031215611a4f57611a4e6115ff565b5b5f611a5c84828501611680565b91505092915050565b5f81519050919050565b5f82825260208201905092915050565b5f5b83811015611a9c578082015181840152602081019050611a81565b5f8484015250505050565b5f611ab182611a65565b611abb8185611a6f565b9350611acb818560208601611a7f565b611ad4816117b5565b840191505092915050565b5f6020820190508181035f830152611af78184611aa7565b905092915050565b5f67ffffffffffffffff821115611b1957611b186117c5565b5b602082029050602081019050919050565b5f80fd5b5f611b40611b3b84611aff565b611823565b90508083825260208201905060208402830185811115611b6357611b62611b2a565b5b835b81811015611b8c5780611b788882611680565b845260208401935050602081019050611b65565b5050509392505050565b5f82601f830112611baa57611ba96117ad565b5b8135611bba848260208601611b2e565b91505092915050565b5f805f805f60a08688031215611bdc57611bdb6115ff565b5b5f611be98882890161164d565b9550506020611bfa8882890161164d565b945050604086013567ffffffffffffffff811115611c1b57611c1a611603565b5b611c2788828901611b96565b935050606086013567ffffffffffffffff811115611c4857611c47611603565b5b611c5488828901611b96565b925050608086013567ffffffffffffffff811115611c7557611c74611603565b5b611c81888289016119a1565b9150509295509295909350565b5f67ffffffffffffffff821115611ca857611ca76117c5565b5b602082029050602081019050919050565b5f611ccb611cc684611c8e565b611823565b90508083825260208201905060208402830185811115611cee57611ced611b2a565b5b835b81811015611d175780611d03888261164d565b845260208401935050602081019050611cf0565b5050509392505050565b5f82601f830112611d3557611d346117ad565b5b8135611d45848260208601611cb9565b91505092915050565b5f8060408385031215611d6457611d636115ff565b5b5f83013567ffffffffffffffff811115611d8157611d80611603565b5b611d8d85828601611d21565b925050602083013567ffffffffffffffff811115611dae57611dad611603565b5b611dba85828601611b96565b9150509250929050565b5f81519050919050565b5f82825260208201905092915050565b5f819050602082019050919050565b611df681611661565b82525050565b5f611e078383611ded565b60208301905092915050565b5f602082019050919050565b5f611e2982611dc4565b611e338185611dce565b9350611e3e83611dde565b805f5b83811015611e6e578151611e558882611dfc565b9750611e6083611e13565b925050600181019050611e41565b5085935050505092915050565b5f6020820190508181035f830152611e938184611e1f565b905092915050565b611ea481611626565b82525050565b5f602082019050611ebd5f830184611e9b565b92915050565b611ecc8161177a565b8114611ed6575f80fd5b50565b5f81359050611ee781611ec3565b92915050565b5f8060408385031215611f0357611f026115ff565b5b5f611f108582860161164d565b9250506020611f2185828601611ed9565b9150509250929050565b5f8060408385031215611f4157611f406115ff565b5b5f611f4e8582860161164d565b9250506020611f5f8582860161164d565b9150509250929050565b5f805f805f60a08688031215611f8257611f816115ff565b5b5f611f8f8882890161164d565b9550506020611fa08882890161164d565b9450506040611fb188828901611680565b9350506060611fc288828901611680565b925050608086013567ffffffffffffffff811115611fe357611fe2611603565b5b611fef888289016119a1565b9150509295509295909350565b5f60208284031215612011576120106115ff565b5b5f61201e8482850161164d565b91505092915050565b7f4e487b71000000000000000000000000000000000000000000000000000000005f52602260045260245ffd5b5f600282049050600182168061206b57607f821691505b60208210810361207e5761207d612027565b5b50919050565b5f6040820190506120975f830185611e9b565b6120a46020830184611e9b565b9392505050565b5f6040820190506120be5f8301856116d2565b6120cb60208301846116d2565b9392505050565b7f4e487b71000000000000000000000000000000000000000000000000000000005f52603260045260245ffd5b7f4e487b71000000000000000000000000000000000000000000000000000000005f52601160045260245ffd5b5f61213682611661565b91507fffffffffffffffffffffffffffffffffffffffffffffffffffffffffffffffff8203612168576121676120ff565b5b600182019050919050565b5f819050815f5260205f209050919050565b5f6020601f8301049050919050565b5f82821b905092915050565b5f600883026121cf7fffffffffffffffffffffffffffffffffffffffffffffffffffffffffffffffff82612194565b6121d98683612194565b95508019841693508086168417925050509392505050565b5f819050919050565b5f61221461220f61220a84611661565b6121f1565b611661565b9050919050565b5f819050919050565b61222d836121fa565b6122416122398261221b565b8484546121a0565b825550505050565b5f90565b612255612249565b612260818484612224565b505050565b5b81811015612283576122785f8261224d565b600181019050612266565b5050565b601f8211156122c85761229981612173565b6122a284612185565b810160208510156122b1578190505b6122c56122bd85612185565b830182612265565b50505b505050565b5f82821c905092915050565b5f6122e85f19846008026122cd565b1980831691505092915050565b5f61230083836122d9565b9150826002028217905092915050565b61231982611a65565b67ffffffffffffffff811115612332576123316117c5565b5b61233c8254612054565b612347828285612287565b5f60209050601f831160018114612378575f8415612366578287015190505b61237085826122f5565b8655506123d7565b601f19841661238686612173565b5f5b828110156123ad57848901518255600182019150602085019450602081019050612388565b868310156123ca57848901516123c6601f8916826122d9565b8355505b6001600288020188555050505b505050505050565b5f6080820190506123f25f830187611e9b565b6123ff60208301866116d2565b61240c60408301856116d2565b61241960608301846116d2565b95945050505050565b5f61242c82611661565b915061243783611661565b925082820190508082111561244f5761244e6120ff565b5b92915050565b5f6040820190508181035f83015261246d8185611e1f565b905081810360208301526124818184611e1f565b90509392505050565b5f81519050919050565b5f82825260208201905092915050565b5f6124ae8261248a565b6124b88185612494565b93506124c8818560208601611a7f565b6124d1816117b5565b840191505092915050565b5f60a0820190506124ef5f830188611e9b565b6124fc6020830187611e9b565b61250960408301866116d2565b61251660608301856116d2565b818103608083015261252881846124a4565b90509695505050505050565b5f8151905061254281611725565b92915050565b5f6020828403121561255d5761255c6115ff565b5b5f61256a84828501612534565b91505092915050565b5f60a0820190506125865f830188611e9b565b6125936020830187611e9b565b81810360408301526125a58186611e1f565b905081810360608301526125b98185611e1f565b905081810360808301526125cd81846124a4565b9050969550505050505056fea2646970667358221220433c600ade8096133d9b8ceb9326466287c759eeeaba4cc25d01b6b0b5e059c064736f6c63430008140033",
					"opcodes": "PUSH1 0x80 PUSH1 0x40 MSTORE CALLVALUE DUP1 ISZERO PUSH3 0x10 JUMPI PUSH0 DUP1 REVERT JUMPDEST POP PUSH1 0x40 MLOAD PUSH3 0x2BE2 CODESIZE SUB DUP1 PUSH3 0x2BE2 DUP4 CODECOPY DUP2 DUP2 ADD PUSH1 0x40 MSTORE DUP2 ADD SWAP1 PUSH3 0x36 SWAP2 SWAP1 PUSH3 0x221 JUMP JUMPDEST DUP1 PUSH1 0x40 MLOAD DUP1 PUSH1 0x20 ADD PUSH1 0x40 MSTORE DUP1 PUSH0 DUP2 MSTORE POP PUSH3 0x57 DUP2 PUSH3 0xE4 PUSH1 0x20 SHL PUSH1 0x20 SHR JUMP JUMPDEST POP PUSH0 PUSH20 0xFFFFFFFFFFFFFFFFFFFFFFFFFFFFFFFFFFFFFFFF AND DUP2 PUSH20 0xFFFFFFFFFFFFFFFFFFFFFFFFFFFFFFFFFFFFFFFF AND SUB PUSH3 0xCB JUMPI PUSH0 PUSH1 0x40 MLOAD PUSH32 0x1E4FBDF700000000000000000000000000000000000000000000000000000000 DUP2 MSTORE PUSH1 0x4 ADD PUSH3 0xC2 SWAP2 SWAP1 PUSH3 0x262 JUMP JUMPDEST PUSH1 0x40 MLOAD DUP1 SWAP2 SUB SWAP1 REVERT JUMPDEST PUSH3 0xDC DUP2 PUSH3 0xF9 PUSH1 0x20 SHL PUSH1 0x20 SHR JUMP JUMPDEST POP POP PUSH3 0x5C5 JUMP JUMPDEST DUP1 PUSH1 0x2 SWAP1 DUP2 PUSH3 0xF5 SWAP2 SWAP1 PUSH3 0x4E1 JUMP JUMPDEST POP POP JUMP JUMPDEST PUSH0 PUSH1 0x3 PUSH0 SWAP1 SLOAD SWAP1 PUSH2 0x100 EXP SWAP1 DIV PUSH20 0xFFFFFFFFFFFFFFFFFFFFFFFFFFFFFFFFFFFFFFFF AND SWAP1 POP DUP2 PUSH1 0x3 PUSH0 PUSH2 0x100 EXP DUP2 SLOAD DUP2 PUSH20 0xFFFFFFFFFFFFFFFFFFFFFFFFFFFFFFFFFFFFFFFF MUL NOT AND SWAP1 DUP4 PUSH20 0xFFFFFFFFFFFFFFFFFFFFFFFFFFFFFFFFFFFFFFFF AND MUL OR SWAP1 SSTORE POP DUP2 PUSH20 0xFFFFFFFFFFFFFFFFFFFFFFFFFFFFFFFFFFFFFFFF AND DUP2 PUSH20 0xFFFFFFFFFFFFFFFFFFFFFFFFFFFFFFFFFFFFFFFF AND PUSH32 0x8BE0079C531659141344CD1FD0A4F28419497F9722A3DAAFE3B4186F6B6457E0 PUSH1 0x40 MLOAD PUSH1 0x40 MLOAD DUP1 SWAP2 SUB SWAP1 LOG3 POP POP JUMP JUMPDEST PUSH0 DUP1 REVERT JUMPDEST PUSH0 PUSH20 0xFFFFFFFFFFFFFFFFFFFFFFFFFFFFFFFFFFFFFFFF DUP3 AND SWAP1 POP SWAP2 SWAP1 POP JUMP JUMPDEST PUSH0 PUSH3 0x1EB DUP3 PUSH3 0x1C0 JUMP JUMPDEST SWAP1 POP SWAP2 SWAP1 POP JUMP JUMPDEST PUSH3 0x1FD DUP2 PUSH3 0x1DF JUMP JUMPDEST DUP2 EQ PUSH3 0x208 JUMPI PUSH0 DUP1 REVERT JUMPDEST POP JUMP JUMPDEST PUSH0 DUP2 MLOAD SWAP1 POP PUSH3 0x21B DUP2 PUSH3 0x1F2 JUMP JUMPDEST SWAP3 SWAP2 POP POP JUMP JUMPDEST PUSH0 PUSH1 0x20 DUP3 DUP5 SUB SLT ISZERO PUSH3 0x239 JUMPI PUSH3 0x238 PUSH3 0x1BC JUMP JUMPDEST JUMPDEST PUSH0 PUSH3 0x248 DUP5 DUP3 DUP6 ADD PUSH3 0x20B JUMP JUMPDEST SWAP2 POP POP SWAP3 SWAP2 POP POP JUMP JUMPDEST PUSH3 0x25C DUP2 PUSH3 0x1DF JUMP JUMPDEST DUP3 MSTORE POP POP JUMP JUMPDEST PUSH0 PUSH1 0x20 DUP3 ADD SWAP1 POP PUSH3 0x277 PUSH0 DUP4 ADD DUP5 PUSH3 0x251 JUMP JUMPDEST SWAP3 SWAP2 POP POP JUMP JUMPDEST PUSH0 DUP2 MLOAD SWAP1 POP SWAP2 SWAP1 POP JUMP JUMPDEST PUSH32 0x4E487B7100000000000000000000000000000000000000000000000000000000 PUSH0 MSTORE PUSH1 0x41 PUSH1 0x4 MSTORE PUSH1 0x24 PUSH0 REVERT JUMPDEST PUSH32 0x4E487B7100000000000000000000000000000000000000000000000000000000 PUSH0 MSTORE PUSH1 0x22 PUSH1 0x4 MSTORE PUSH1 0x24 PUSH0 REVERT JUMPDEST PUSH0 PUSH1 0x2 DUP3 DIV SWAP1 POP PUSH1 0x1 DUP3 AND DUP1 PUSH3 0x2F9 JUMPI PUSH1 0x7F DUP3 AND SWAP2 POP JUMPDEST PUSH1 0x20 DUP3 LT DUP2 SUB PUSH3 0x30F JUMPI PUSH3 0x30E PUSH3 0x2B4 JUMP JUMPDEST JUMPDEST POP SWAP2 SWAP1 POP JUMP JUMPDEST PUSH0 DUP2 SWAP1 POP DUP2 PUSH0 MSTORE PUSH1 0x20 PUSH0 KECCAK256 SWAP1 POP SWAP2 SWAP1 POP JUMP JUMPDEST PUSH0 PUSH1 0x20 PUSH1 0x1F DUP4 ADD DIV SWAP1 POP SWAP2 SWAP1 POP JUMP JUMPDEST PUSH0 DUP3 DUP3 SHL SWAP1 POP SWAP3 SWAP2 POP POP JUMP JUMPDEST PUSH0 PUSH1 0x8 DUP4 MUL PUSH3 0x373 PUSH32 0xFFFFFFFFFFFFFFFFFFFFFFFFFFFFFFFFFFFFFFFFFFFFFFFFFFFFFFFFFFFFFFFF DUP3 PUSH3 0x336 JUMP JUMPDEST PUSH3 0x37F DUP7 DUP4 PUSH3 0x336 JUMP JUMPDEST SWAP6 POP DUP1 NOT DUP5 AND SWAP4 POP DUP1 DUP7 AND DUP5 OR SWAP3 POP POP POP SWAP4 SWAP3 POP POP POP JUMP JUMPDEST PUSH0 DUP2 SWAP1 POP SWAP2 SWAP1 POP JUMP JUMPDEST PUSH0 DUP2 SWAP1 POP SWAP2 SWAP1 POP JUMP JUMPDEST PUSH0 PUSH3 0x3C9 PUSH3 0x3C3 PUSH3 0x3BD DUP5 PUSH3 0x397 JUMP JUMPDEST PUSH3 0x3A0 JUMP JUMPDEST PUSH3 0x397 JUMP JUMPDEST SWAP1 POP SWAP2 SWAP1 POP JUMP JUMPDEST PUSH0 DUP2 SWAP1 POP SWAP2 SWAP1 POP JUMP JUMPDEST PUSH3 0x3E4 DUP4 PUSH3 0x3A9 JUMP JUMPDEST PUSH3 0x3FC PUSH3 0x3F3 DUP3 PUSH3 0x3D0 JUMP JUMPDEST DUP5 DUP5 SLOAD PUSH3 0x342 JUMP JUMPDEST DUP3 SSTORE POP POP POP POP JUMP JUMPDEST PUSH0 SWAP1 JUMP JUMPDEST PUSH3 0x412 PUSH3 0x404 JUMP JUMPDEST PUSH3 0x41F DUP2 DUP5 DUP5 PUSH3 0x3D9 JUMP JUMPDEST POP POP POP JUMP JUMPDEST JUMPDEST DUP2 DUP2 LT ISZERO PUSH3 0x446 JUMPI PUSH3 0x43A PUSH0 DUP3 PUSH3 0x408 JUMP JUMPDEST PUSH1 0x1 DUP2 ADD SWAP1 POP PUSH3 0x425 JUMP JUMPDEST POP POP JUMP JUMPDEST PUSH1 0x1F DUP3 GT ISZERO PUSH3 0x495 JUMPI PUSH3 0x45F DUP2 PUSH3 0x315 JUMP JUMPDEST PUSH3 0x46A DUP5 PUSH3 0x327 JUMP JUMPDEST DUP2 ADD PUSH1 0x20 DUP6 LT ISZERO PUSH3 0x47A JUMPI DUP2 SWAP1 POP JUMPDEST PUSH3 0x492 PUSH3 0x489 DUP6 PUSH3 0x327 JUMP JUMPDEST DUP4 ADD DUP3 PUSH3 0x424 JUMP JUMPDEST POP POP JUMPDEST POP POP POP JUMP JUMPDEST PUSH0 DUP3 DUP3 SHR SWAP1 POP SWAP3 SWAP2 POP POP JUMP JUMPDEST PUSH0 PUSH3 0x4B7 PUSH0 NOT DUP5 PUSH1 0x8 MUL PUSH3 0x49A JUMP JUMPDEST NOT DUP1 DUP4 AND SWAP2 POP POP SWAP3 SWAP2 POP POP JUMP JUMPDEST PUSH0 PUSH3 0x4D1 DUP4 DUP4 PUSH3 0x4A6 JUMP JUMPDEST SWAP2 POP DUP3 PUSH1 0x2 MUL DUP3 OR SWAP1 POP SWAP3 SWAP2 POP POP JUMP JUMPDEST PUSH3 0x4EC DUP3 PUSH3 0x27D JUMP JUMPDEST PUSH8 0xFFFFFFFFFFFFFFFF DUP2 GT ISZERO PUSH3 0x508 JUMPI PUSH3 0x507 PUSH3 0x287 JUMP JUMPDEST JUMPDEST PUSH3 0x514 DUP3 SLOAD PUSH3 0x2E1 JUMP JUMPDEST PUSH3 0x521 DUP3 DUP3 DUP6 PUSH3 0x44A JUMP JUMPDEST PUSH0 PUSH1 0x20 SWAP1 POP PUSH1 0x1F DUP4 GT PUSH1 0x1 DUP2 EQ PUSH3 0x557 JUMPI PUSH0 DUP5 ISZERO PUSH3 0x542 JUMPI DUP3 DUP8 ADD MLOAD SWAP1 POP JUMPDEST PUSH3 0x54E DUP6 DUP3 PUSH3 0x4C4 JUMP JUMPDEST DUP7 SSTORE POP PUSH3 0x5BD JUMP JUMPDEST PUSH1 0x1F NOT DUP5 AND PUSH3 0x567 DUP7 PUSH3 0x315 JUMP JUMPDEST PUSH0 JUMPDEST DUP3 DUP2 LT ISZERO PUSH3 0x590 JUMPI DUP5 DUP10 ADD MLOAD DUP3 SSTORE PUSH1 0x1 DUP3 ADD SWAP2 POP PUSH1 0x20 DUP6 ADD SWAP5 POP PUSH1 0x20 DUP2 ADD SWAP1 POP PUSH3 0x569 JUMP JUMPDEST DUP7 DUP4 LT ISZERO PUSH3 0x5B0 JUMPI DUP5 DUP10 ADD MLOAD PUSH3 0x5AC PUSH1 0x1F DUP10 AND DUP3 PUSH3 0x4A6 JUMP JUMPDEST DUP4 SSTORE POP JUMPDEST PUSH1 0x1 PUSH1 0x2 DUP9 MUL ADD DUP9 SSTORE POP POP POP JUMPDEST POP POP POP POP POP POP JUMP JUMPDEST PUSH2 0x260F DUP1 PUSH3 0x5D3 PUSH0 CODECOPY PUSH0 RETURN INVALID PUSH1 0x80 PUSH1 0x40 MSTORE CALLVALUE DUP1 ISZERO PUSH2 0xF JUMPI PUSH0 DUP1 REVERT JUMPDEST POP PUSH1 0x4 CALLDATASIZE LT PUSH2 0xCC JUMPI PUSH0 CALLDATALOAD PUSH1 0xE0 SHR DUP1 PUSH4 0x4E1273F4 GT PUSH2 0x8A JUMPI DUP1 PUSH4 0xA22CB465 GT PUSH2 0x64 JUMPI DUP1 PUSH4 0xA22CB465 EQ PUSH2 0x20C JUMPI DUP1 PUSH4 0xE985E9C5 EQ PUSH2 0x228 JUMPI DUP1 PUSH4 0xF242432A EQ PUSH2 0x258 JUMPI DUP1 PUSH4 0xF2FDE38B EQ PUSH2 0x274 JUMPI PUSH2 0xCC JUMP JUMPDEST DUP1 PUSH4 0x4E1273F4 EQ PUSH2 0x1B4 JUMPI DUP1 PUSH4 0x715018A6 EQ PUSH2 0x1E4 JUMPI DUP1 PUSH4 0x8DA5CB5B EQ PUSH2 0x1EE JUMPI PUSH2 0xCC JUMP JUMPDEST DUP1 PUSH3 0xFDD58E EQ PUSH2 0xD0 JUMPI DUP1 PUSH4 0x1FFC9A7 EQ PUSH2 0x100 JUMPI DUP1 PUSH4 0x2FE5305 EQ PUSH2 0x130 JUMPI DUP1 PUSH4 0x8DC9F42 EQ PUSH2 0x14C JUMPI DUP1 PUSH4 0xE89341C EQ PUSH2 0x168 JUMPI DUP1 PUSH4 0x2EB2C2D6 EQ PUSH2 0x198 JUMPI JUMPDEST PUSH0 DUP1 REVERT JUMPDEST PUSH2 0xEA PUSH1 0x4 DUP1 CALLDATASIZE SUB DUP2 ADD SWAP1 PUSH2 0xE5 SWAP2 SWAP1 PUSH2 0x1694 JUMP JUMPDEST PUSH2 0x290 JUMP JUMPDEST PUSH1 0x40 MLOAD PUSH2 0xF7 SWAP2 SWAP1 PUSH2 0x16E1 JUMP JUMPDEST PUSH1 0x40 MLOAD DUP1 SWAP2 SUB SWAP1 RETURN JUMPDEST PUSH2 0x11A PUSH1 0x4 DUP1 CALLDATASIZE SUB DUP2 ADD SWAP1 PUSH2 0x115 SWAP2 SWAP1 PUSH2 0x174F JUMP JUMPDEST PUSH2 0x2E5 JUMP JUMPDEST PUSH1 0x40 MLOAD PUSH2 0x127 SWAP2 SWAP1 PUSH2 0x1794 JUMP JUMPDEST PUSH1 0x40 MLOAD DUP1 SWAP2 SUB SWAP1 RETURN JUMPDEST PUSH2 0x14A PUSH1 0x4 DUP1 CALLDATASIZE SUB DUP2 ADD SWAP1 PUSH2 0x145 SWAP2 SWAP1 PUSH2 0x18E9 JUMP JUMPDEST PUSH2 0x3C6 JUMP JUMPDEST STOP JUMPDEST PUSH2 0x166 PUSH1 0x4 DUP1 CALLDATASIZE SUB DUP2 ADD SWAP1 PUSH2 0x161 SWAP2 SWAP1 PUSH2 0x19CE JUMP JUMPDEST PUSH2 0x3DA JUMP JUMPDEST STOP JUMPDEST PUSH2 0x182 PUSH1 0x4 DUP1 CALLDATASIZE SUB DUP2 ADD SWAP1 PUSH2 0x17D SWAP2 SWAP1 PUSH2 0x1A3A JUMP JUMPDEST PUSH2 0x3EB JUMP JUMPDEST PUSH1 0x40 MLOAD PUSH2 0x18F SWAP2 SWAP1 PUSH2 0x1ADF JUMP JUMPDEST PUSH1 0x40 MLOAD DUP1 SWAP2 SUB SWAP1 RETURN JUMPDEST PUSH2 0x1B2 PUSH1 0x4 DUP1 CALLDATASIZE SUB DUP2 ADD SWAP1 PUSH2 0x1AD SWAP2 SWAP1 PUSH2 0x1BC3 JUMP JUMPDEST PUSH2 0x47D JUMP JUMPDEST STOP JUMPDEST PUSH2 0x1CE PUSH1 0x4 DUP1 CALLDATASIZE SUB DUP2 ADD SWAP1 PUSH2 0x1C9 SWAP2 SWAP1 PUSH2 0x1D4E JUMP JUMPDEST PUSH2 0x524 JUMP JUMPDEST PUSH1 0x40 MLOAD PUSH2 0x1DB SWAP2 SWAP1 PUSH2 0x1E7B JUMP JUMPDEST PUSH1 0x40 MLOAD DUP1 SWAP2 SUB SWAP1 RETURN JUMPDEST PUSH2 0x1EC PUSH2 0x631 JUMP JUMPDEST STOP JUMPDEST PUSH2 0x1F6 PUSH2 0x644 JUMP JUMPDEST PUSH1 0x40 MLOAD PUSH2 0x203 SWAP2 SWAP1 PUSH2 0x1EAA JUMP JUMPDEST PUSH1 0x40 MLOAD DUP1 SWAP2 SUB SWAP1 RETURN JUMPDEST PUSH2 0x226 PUSH1 0x4 DUP1 CALLDATASIZE SUB DUP2 ADD SWAP1 PUSH2 0x221 SWAP2 SWAP1 PUSH2 0x1EED JUMP JUMPDEST PUSH2 0x66C JUMP JUMPDEST STOP JUMPDEST PUSH2 0x242 PUSH1 0x4 DUP1 CALLDATASIZE SUB DUP2 ADD SWAP1 PUSH2 0x23D SWAP2 SWAP1 PUSH2 0x1F2B JUMP JUMPDEST PUSH2 0x682 JUMP JUMPDEST PUSH1 0x40 MLOAD PUSH2 0x24F SWAP2 SWAP1 PUSH2 0x1794 JUMP JUMPDEST PUSH1 0x40 MLOAD DUP1 SWAP2 SUB SWAP1 RETURN JUMPDEST PUSH2 0x272 PUSH1 0x4 DUP1 CALLDATASIZE SUB DUP2 ADD SWAP1 PUSH2 0x26D SWAP2 SWAP1 PUSH2 0x1F69 JUMP JUMPDEST PUSH2 0x710 JUMP JUMPDEST STOP JUMPDEST PUSH2 0x28E PUSH1 0x4 DUP1 CALLDATASIZE SUB DUP2 ADD SWAP1 PUSH2 0x289 SWAP2 SWAP1 PUSH2 0x1FFC JUMP JUMPDEST PUSH2 0x7B7 JUMP JUMPDEST STOP JUMPDEST PUSH0 DUP1 PUSH0 DUP4 DUP2 MSTORE PUSH1 0x20 ADD SWAP1 DUP2 MSTORE PUSH1 0x20 ADD PUSH0 KECCAK256 PUSH0 DUP5 PUSH20 0xFFFFFFFFFFFFFFFFFFFFFFFFFFFFFFFFFFFFFFFF AND PUSH20 0xFFFFFFFFFFFFFFFFFFFFFFFFFFFFFFFFFFFFFFFF AND DUP2 MSTORE PUSH1 0x20 ADD SWAP1 DUP2 MSTORE PUSH1 0x20 ADD PUSH0 KECCAK256 SLOAD SWAP1 POP SWAP3 SWAP2 POP POP JUMP JUMPDEST PUSH0 PUSH32 0xD9B67A2600000000000000000000000000000000000000000000000000000000 PUSH28 0xFFFFFFFFFFFFFFFFFFFFFFFFFFFFFFFFFFFFFFFFFFFFFFFFFFFFFFFF NOT AND DUP3 PUSH28 0xFFFFFFFFFFFFFFFFFFFFFFFFFFFFFFFFFFFFFFFFFFFFFFFFFFFFFFFF NOT AND EQ DUP1 PUSH2 0x3AF JUMPI POP PUSH32 0xE89341C00000000000000000000000000000000000000000000000000000000 PUSH28 0xFFFFFFFFFFFFFFFFFFFFFFFFFFFFFFFFFFFFFFFFFFFFFFFFFFFFFFFF NOT AND DUP3 PUSH28 0xFFFFFFFFFFFFFFFFFFFFFFFFFFFFFFFFFFFFFFFFFFFFFFFFFFFFFFFF NOT AND EQ JUMPDEST DUP1 PUSH2 0x3BF JUMPI POP PUSH2 0x3BE DUP3 PUSH2 0x83B JUMP JUMPDEST JUMPDEST SWAP1 POP SWAP2 SWAP1 POP JUMP JUMPDEST PUSH2 0x3CE PUSH2 0x8A4 JUMP JUMPDEST PUSH2 0x3D7 DUP2 PUSH2 0x92B JUMP JUMPDEST POP JUMP JUMPDEST PUSH2 0x3E6 CALLER DUP5 DUP5 DUP5 PUSH2 0x93E JUMP JUMPDEST POP POP POP JUMP JUMPDEST PUSH1 0x60 PUSH1 0x2 DUP1 SLOAD PUSH2 0x3FA SWAP1 PUSH2 0x2054 JUMP JUMPDEST DUP1 PUSH1 0x1F ADD PUSH1 0x20 DUP1 SWAP2 DIV MUL PUSH1 0x20 ADD PUSH1 0x40 MLOAD SWAP1 DUP2 ADD PUSH1 0x40 MSTORE DUP1 SWAP3 SWAP2 SWAP1 DUP2 DUP2 MSTORE PUSH1 0x20 ADD DUP3 DUP1 SLOAD PUSH2 0x426 SWAP1 PUSH2 0x2054 JUMP JUMPDEST DUP1 ISZERO PUSH2 0x471 JUMPI DUP1 PUSH1 0x1F LT PUSH2 0x448 JUMPI PUSH2 0x100 DUP1 DUP4 SLOAD DIV MUL DUP4 MSTORE SWAP2 PUSH1 0x20 ADD SWAP2 PUSH2 0x471 JUMP JUMPDEST DUP3 ADD SWAP2 SWAP1 PUSH0 MSTORE PUSH1 0x20 PUSH0 KECCAK256 SWAP1 JUMPDEST DUP2 SLOAD DUP2 MSTORE SWAP1 PUSH1 0x1 ADD SWAP1 PUSH1 0x20 ADD DUP1 DUP4 GT PUSH2 0x454 JUMPI DUP3 SWAP1 SUB PUSH1 0x1F AND DUP3 ADD SWAP2 JUMPDEST POP POP POP POP POP SWAP1 POP SWAP2 SWAP1 POP JUMP JUMPDEST PUSH0 PUSH2 0x486 PUSH2 0x9D3 JUMP JUMPDEST SWAP1 POP DUP1 PUSH20 0xFFFFFFFFFFFFFFFFFFFFFFFFFFFFFFFFFFFFFFFF AND DUP7 PUSH20 0xFFFFFFFFFFFFFFFFFFFFFFFFFFFFFFFFFFFFFFFF AND EQ ISZERO DUP1 ISZERO PUSH2 0x4CB JUMPI POP PUSH2 0x4C9 DUP7 DUP3 PUSH2 0x682 JUMP JUMPDEST ISZERO JUMPDEST ISZERO PUSH2 0x50F JUMPI DUP1 DUP7 PUSH1 0x40 MLOAD PUSH32 0xE237D92200000000000000000000000000000000000000000000000000000000 DUP2 MSTORE PUSH1 0x4 ADD PUSH2 0x506 SWAP3 SWAP2 SWAP1 PUSH2 0x2084 JUMP JUMPDEST PUSH1 0x40 MLOAD DUP1 SWAP2 SUB SWAP1 REVERT JUMPDEST PUSH2 0x51C DUP7 DUP7 DUP7 DUP7 DUP7 PUSH2 0x9DA JUMP JUMPDEST POP POP POP POP POP POP JUMP JUMPDEST PUSH1 0x60 DUP2 MLOAD DUP4 MLOAD EQ PUSH2 0x570 JUMPI DUP2 MLOAD DUP4 MLOAD PUSH1 0x40 MLOAD PUSH32 0x5B05999100000000000000000000000000000000000000000000000000000000 DUP2 MSTORE PUSH1 0x4 ADD PUSH2 0x567 SWAP3 SWAP2 SWAP1 PUSH2 0x20AB JUMP JUMPDEST PUSH1 0x40 MLOAD DUP1 SWAP2 SUB SWAP1 REVERT JUMPDEST PUSH0 DUP4 MLOAD PUSH8 0xFFFFFFFFFFFFFFFF DUP2 GT ISZERO PUSH2 0x58C JUMPI PUSH2 0x58B PUSH2 0x17C5 JUMP JUMPDEST JUMPDEST PUSH1 0x40 MLOAD SWAP1 DUP1 DUP3 MSTORE DUP1 PUSH1 0x20 MUL PUSH1 0x20 ADD DUP3 ADD PUSH1 0x40 MSTORE DUP1 ISZERO PUSH2 0x5BA JUMPI DUP2 PUSH1 0x20 ADD PUSH1 0x20 DUP3 MUL DUP1 CALLDATASIZE DUP4 CALLDATACOPY DUP1 DUP3 ADD SWAP2 POP POP SWAP1 POP JUMPDEST POP SWAP1 POP PUSH0 JUMPDEST DUP5 MLOAD DUP2 LT ISZERO PUSH2 0x626 JUMPI PUSH2 0x5F6 PUSH2 0x5DE DUP3 DUP8 PUSH2 0xACE SWAP1 SWAP2 SWAP1 PUSH4 0xFFFFFFFF AND JUMP JUMPDEST PUSH2 0x5F1 DUP4 DUP8 PUSH2 0xAE1 SWAP1 SWAP2 SWAP1 PUSH4 0xFFFFFFFF AND JUMP JUMPDEST PUSH2 0x290 JUMP JUMPDEST DUP3 DUP3 DUP2 MLOAD DUP2 LT PUSH2 0x609 JUMPI PUSH2 0x608 PUSH2 0x20D2 JUMP JUMPDEST JUMPDEST PUSH1 0x20 MUL PUSH1 0x20 ADD ADD DUP2 DUP2 MSTORE POP POP DUP1 PUSH2 0x61F SWAP1 PUSH2 0x212C JUMP JUMPDEST SWAP1 POP PUSH2 0x5BF JUMP JUMPDEST POP DUP1 SWAP2 POP POP SWAP3 SWAP2 POP POP JUMP JUMPDEST PUSH2 0x639 PUSH2 0x8A4 JUMP JUMPDEST PUSH2 0x642 PUSH0 PUSH2 0xAF4 JUMP JUMPDEST JUMP JUMPDEST PUSH0 PUSH1 0x3 PUSH0 SWAP1 SLOAD SWAP1 PUSH2 0x100 EXP SWAP1 DIV PUSH20 0xFFFFFFFFFFFFFFFFFFFFFFFFFFFFFFFFFFFFFFFF AND SWAP1 POP SWAP1 JUMP JUMPDEST PUSH2 0x67E PUSH2 0x677 PUSH2 0x9D3 JUMP JUMPDEST DUP4 DUP4 PUSH2 0xBB7 JUMP JUMPDEST POP POP JUMP JUMPDEST PUSH0 PUSH1 0x1 PUSH0 DUP5 PUSH20 0xFFFFFFFFFFFFFFFFFFFFFFFFFFFFFFFFFFFFFFFF AND PUSH20 0xFFFFFFFFFFFFFFFFFFFFFFFFFFFFFFFFFFFFFFFF AND DUP2 MSTORE PUSH1 0x20 ADD SWAP1 DUP2 MSTORE PUSH1 0x20 ADD PUSH0 KECCAK256 PUSH0 DUP4 PUSH20 0xFFFFFFFFFFFFFFFFFFFFFFFFFFFFFFFFFFFFFFFF AND PUSH20 0xFFFFFFFFFFFFFFFFFFFFFFFFFFFFFFFFFFFFFFFF AND DUP2 MSTORE PUSH1 0x20 ADD SWAP1 DUP2 MSTORE PUSH1 0x20 ADD PUSH0 KECCAK256 PUSH0 SWAP1 SLOAD SWAP1 PUSH2 0x100 EXP SWAP1 DIV PUSH1 0xFF AND SWAP1 POP SWAP3 SWAP2 POP POP JUMP JUMPDEST PUSH0 PUSH2 0x719 PUSH2 0x9D3 JUMP JUMPDEST SWAP1 POP DUP1 PUSH20 0xFFFFFFFFFFFFFFFFFFFFFFFFFFFFFFFFFFFFFFFF AND DUP7 PUSH20 0xFFFFFFFFFFFFFFFFFFFFFFFFFFFFFFFFFFFFFFFF AND EQ ISZERO DUP1 ISZERO PUSH2 0x75E JUMPI POP PUSH2 0x75C DUP7 DUP3 PUSH2 0x682 JUMP JUMPDEST ISZERO JUMPDEST ISZERO PUSH2 0x7A2 JUMPI DUP1 DUP7 PUSH1 0x40 MLOAD PUSH32 0xE237D92200000000000000000000000000000000000000000000000000000000 DUP2 MSTORE PUSH1 0x4 ADD PUSH2 0x799 SWAP3 SWAP2 SWAP1 PUSH2 0x2084 JUMP JUMPDEST PUSH1 0x40 MLOAD DUP1 SWAP2 SUB SWAP1 REVERT JUMPDEST PUSH2 0x7AF DUP7 DUP7 DUP7 DUP7 DUP7 PUSH2 0xD20 JUMP JUMPDEST POP POP POP POP POP POP JUMP JUMPDEST PUSH2 0x7BF PUSH2 0x8A4 JUMP JUMPDEST PUSH0 PUSH20 0xFFFFFFFFFFFFFFFFFFFFFFFFFFFFFFFFFFFFFFFF AND DUP2 PUSH20 0xFFFFFFFFFFFFFFFFFFFFFFFFFFFFFFFFFFFFFFFF AND SUB PUSH2 0x82F JUMPI PUSH0 PUSH1 0x40 MLOAD PUSH32 0x1E4FBDF700000000000000000000000000000000000000000000000000000000 DUP2 MSTORE PUSH1 0x4 ADD PUSH2 0x826 SWAP2 SWAP1 PUSH2 0x1EAA JUMP JUMPDEST PUSH1 0x40 MLOAD DUP1 SWAP2 SUB SWAP1 REVERT JUMPDEST PUSH2 0x838 DUP2 PUSH2 0xAF4 JUMP JUMPDEST POP JUMP JUMPDEST PUSH0 PUSH32 0x1FFC9A700000000000000000000000000000000000000000000000000000000 PUSH28 0xFFFFFFFFFFFFFFFFFFFFFFFFFFFFFFFFFFFFFFFFFFFFFFFFFFFFFFFF NOT AND DUP3 PUSH28 0xFFFFFFFFFFFFFFFFFFFFFFFFFFFFFFFFFFFFFFFFFFFFFFFFFFFFFFFF NOT AND EQ SWAP1 POP SWAP2 SWAP1 POP JUMP JUMPDEST PUSH2 0x8AC PUSH2 0x9D3 JUMP JUMPDEST PUSH20 0xFFFFFFFFFFFFFFFFFFFFFFFFFFFFFFFFFFFFFFFF AND PUSH2 0x8CA PUSH2 0x644 JUMP JUMPDEST PUSH20 0xFFFFFFFFFFFFFFFFFFFFFFFFFFFFFFFFFFFFFFFF AND EQ PUSH2 0x929 JUMPI PUSH2 0x8ED PUSH2 0x9D3 JUMP JUMPDEST PUSH1 0x40 MLOAD PUSH32 0x118CDAA700000000000000000000000000000000000000000000000000000000 DUP2 MSTORE PUSH1 0x4 ADD PUSH2 0x920 SWAP2 SWAP1 PUSH2 0x1EAA JUMP JUMPDEST PUSH1 0x40 MLOAD DUP1 SWAP2 SUB SWAP1 REVERT JUMPDEST JUMP JUMPDEST DUP1 PUSH1 0x2 SWAP1 DUP2 PUSH2 0x93A SWAP2 SWAP1 PUSH2 0x2310 JUMP JUMPDEST POP POP JUMP JUMPDEST PUSH0 PUSH20 0xFFFFFFFFFFFFFFFFFFFFFFFFFFFFFFFFFFFFFFFF AND DUP5 PUSH20 0xFFFFFFFFFFFFFFFFFFFFFFFFFFFFFFFFFFFFFFFF AND SUB PUSH2 0x9AE JUMPI PUSH0 PUSH1 0x40 MLOAD PUSH32 0x57F447CE00000000000000000000000000000000000000000000000000000000 DUP2 MSTORE PUSH1 0x4 ADD PUSH2 0x9A5 SWAP2 SWAP1 PUSH2 0x1EAA JUMP JUMPDEST PUSH1 0x40 MLOAD DUP1 SWAP2 SUB SWAP1 REVERT JUMPDEST PUSH0 DUP1 PUSH2 0x9BA DUP6 DUP6 PUSH2 0xE26 JUMP JUMPDEST SWAP2 POP SWAP2 POP PUSH2 0x9CB PUSH0 DUP8 DUP5 DUP5 DUP8 PUSH2 0xE56 JUMP JUMPDEST POP POP POP POP POP POP JUMP JUMPDEST PUSH0 CALLER SWAP1 POP SWAP1 JUMP JUMPDEST PUSH0 PUSH20 0xFFFFFFFFFFFFFFFFFFFFFFFFFFFFFFFFFFFFFFFF AND DUP5 PUSH20 0xFFFFFFFFFFFFFFFFFFFFFFFFFFFFFFFFFFFFFFFF AND SUB PUSH2 0xA4A JUMPI PUSH0 PUSH1 0x40 MLOAD PUSH32 0x57F447CE00000000000000000000000000000000000000000000000000000000 DUP2 MSTORE PUSH1 0x4 ADD PUSH2 0xA41 SWAP2 SWAP1 PUSH2 0x1EAA JUMP JUMPDEST PUSH1 0x40 MLOAD DUP1 SWAP2 SUB SWAP1 REVERT JUMPDEST PUSH0 PUSH20 0xFFFFFFFFFFFFFFFFFFFFFFFFFFFFFFFFFFFFFFFF AND DUP6 PUSH20 0xFFFFFFFFFFFFFFFFFFFFFFFFFFFFFFFFFFFFFFFF AND SUB PUSH2 0xABA JUMPI PUSH0 PUSH1 0x40 MLOAD PUSH32 0x1A8351400000000000000000000000000000000000000000000000000000000 DUP2 MSTORE PUSH1 0x4 ADD PUSH2 0xAB1 SWAP2 SWAP1 PUSH2 0x1EAA JUMP JUMPDEST PUSH1 0x40 MLOAD DUP1 SWAP2 SUB SWAP1 REVERT JUMPDEST PUSH2 0xAC7 DUP6 DUP6 DUP6 DUP6 DUP6 PUSH2 0xE56 JUMP JUMPDEST POP POP POP POP POP JUMP JUMPDEST PUSH0 PUSH1 0x20 DUP3 MUL PUSH1 0x20 DUP5 ADD ADD MLOAD SWAP1 POP SWAP3 SWAP2 POP POP JUMP JUMPDEST PUSH0 PUSH1 0x20 DUP3 MUL PUSH1 0x20 DUP5 ADD ADD MLOAD SWAP1 POP SWAP3 SWAP2 POP POP JUMP JUMPDEST PUSH0 PUSH1 0x3 PUSH0 SWAP1 SLOAD SWAP1 PUSH2 0x100 EXP SWAP1 DIV PUSH20 0xFFFFFFFFFFFFFFFFFFFFFFFFFFFFFFFFFFFFFFFF AND SWAP1 POP DUP2 PUSH1 0x3 PUSH0 PUSH2 0x100 EXP DUP2 SLOAD DUP2 PUSH20 0xFFFFFFFFFFFFFFFFFFFFFFFFFFFFFFFFFFFFFFFF MUL NOT AND SWAP1 DUP4 PUSH20 0xFFFFFFFFFFFFFFFFFFFFFFFFFFFFFFFFFFFFFFFF AND MUL OR SWAP1 SSTORE POP DUP2 PUSH20 0xFFFFFFFFFFFFFFFFFFFFFFFFFFFFFFFFFFFFFFFF AND DUP2 PUSH20 0xFFFFFFFFFFFFFFFFFFFFFFFFFFFFFFFFFFFFFFFF AND PUSH32 0x8BE0079C531659141344CD1FD0A4F28419497F9722A3DAAFE3B4186F6B6457E0 PUSH1 0x40 MLOAD PUSH1 0x40 MLOAD DUP1 SWAP2 SUB SWAP1 LOG3 POP POP JUMP JUMPDEST PUSH0 PUSH20 0xFFFFFFFFFFFFFFFFFFFFFFFFFFFFFFFFFFFFFFFF AND DUP3 PUSH20 0xFFFFFFFFFFFFFFFFFFFFFFFFFFFFFFFFFFFFFFFF AND SUB PUSH2 0xC27 JUMPI PUSH0 PUSH1 0x40 MLOAD PUSH32 0xCED3E10000000000000000000000000000000000000000000000000000000000 DUP2 MSTORE PUSH1 0x4 ADD PUSH2 0xC1E SWAP2 SWAP1 PUSH2 0x1EAA JUMP JUMPDEST PUSH1 0x40 MLOAD DUP1 SWAP2 SUB SWAP1 REVERT JUMPDEST DUP1 PUSH1 0x1 PUSH0 DUP6 PUSH20 0xFFFFFFFFFFFFFFFFFFFFFFFFFFFFFFFFFFFFFFFF AND PUSH20 0xFFFFFFFFFFFFFFFFFFFFFFFFFFFFFFFFFFFFFFFF AND DUP2 MSTORE PUSH1 0x20 ADD SWAP1 DUP2 MSTORE PUSH1 0x20 ADD PUSH0 KECCAK256 PUSH0 DUP5 PUSH20 0xFFFFFFFFFFFFFFFFFFFFFFFFFFFFFFFFFFFFFFFF AND PUSH20 0xFFFFFFFFFFFFFFFFFFFFFFFFFFFFFFFFFFFFFFFF AND DUP2 MSTORE PUSH1 0x20 ADD SWAP1 DUP2 MSTORE PUSH1 0x20 ADD PUSH0 KECCAK256 PUSH0 PUSH2 0x100 EXP DUP2 SLOAD DUP2 PUSH1 0xFF MUL NOT AND SWAP1 DUP4 ISZERO ISZERO MUL OR SWAP1 SSTORE POP DUP2 PUSH20 0xFFFFFFFFFFFFFFFFFFFFFFFFFFFFFFFFFFFFFFFF AND DUP4 PUSH20 0xFFFFFFFFFFFFFFFFFFFFFFFFFFFFFFFFFFFFFFFF AND PUSH32 0x17307EAB39AB6107E8899845AD3D59BD9653F200F220920489CA2B5937696C31 DUP4 PUSH1 0x40 MLOAD PUSH2 0xD13 SWAP2 SWAP1 PUSH2 0x1794 JUMP JUMPDEST PUSH1 0x40 MLOAD DUP1 SWAP2 SUB SWAP1 LOG3 POP POP POP JUMP JUMPDEST PUSH0 PUSH20 0xFFFFFFFFFFFFFFFFFFFFFFFFFFFFFFFFFFFFFFFF AND DUP5 PUSH20 0xFFFFFFFFFFFFFFFFFFFFFFFFFFFFFFFFFFFFFFFF AND SUB PUSH2 0xD90 JUMPI PUSH0 PUSH1 0x40 MLOAD PUSH32 0x57F447CE00000000000000000000000000000000000000000000000000000000 DUP2 MSTORE PUSH1 0x4 ADD PUSH2 0xD87 SWAP2 SWAP1 PUSH2 0x1EAA JUMP JUMPDEST PUSH1 0x40 MLOAD DUP1 SWAP2 SUB SWAP1 REVERT JUMPDEST PUSH0 PUSH20 0xFFFFFFFFFFFFFFFFFFFFFFFFFFFFFFFFFFFFFFFF AND DUP6 PUSH20 0xFFFFFFFFFFFFFFFFFFFFFFFFFFFFFFFFFFFFFFFF AND SUB PUSH2 0xE00 JUMPI PUSH0 PUSH1 0x40 MLOAD PUSH32 0x1A8351400000000000000000000000000000000000000000000000000000000 DUP2 MSTORE PUSH1 0x4 ADD PUSH2 0xDF7 SWAP2 SWAP1 PUSH2 0x1EAA JUMP JUMPDEST PUSH1 0x40 MLOAD DUP1 SWAP2 SUB SWAP1 REVERT JUMPDEST PUSH0 DUP1 PUSH2 0xE0C DUP6 DUP6 PUSH2 0xE26 JUMP JUMPDEST SWAP2 POP SWAP2 POP PUSH2 0xE1D DUP8 DUP8 DUP5 DUP5 DUP8 PUSH2 0xE56 JUMP JUMPDEST POP POP POP POP POP POP POP JUMP JUMPDEST PUSH1 0x60 DUP1 PUSH1 0x40 MLOAD SWAP2 POP PUSH1 0x1 DUP3 MSTORE DUP4 PUSH1 0x20 DUP4 ADD MSTORE PUSH1 0x40 DUP3 ADD SWAP1 POP PUSH1 0x1 DUP2 MSTORE DUP3 PUSH1 0x20 DUP3 ADD MSTORE PUSH1 0x40 DUP2 ADD PUSH1 0x40 MSTORE SWAP3 POP SWAP3 SWAP1 POP JUMP JUMPDEST PUSH2 0xE62 DUP6 DUP6 DUP6 DUP6 PUSH2 0xF02 JUMP JUMPDEST PUSH0 PUSH20 0xFFFFFFFFFFFFFFFFFFFFFFFFFFFFFFFFFFFFFFFF AND DUP5 PUSH20 0xFFFFFFFFFFFFFFFFFFFFFFFFFFFFFFFFFFFFFFFF AND EQ PUSH2 0xEFB JUMPI PUSH0 PUSH2 0xE9E PUSH2 0x9D3 JUMP JUMPDEST SWAP1 POP PUSH1 0x1 DUP5 MLOAD SUB PUSH2 0xEEA JUMPI PUSH0 PUSH2 0xEBD PUSH0 DUP7 PUSH2 0xAE1 SWAP1 SWAP2 SWAP1 PUSH4 0xFFFFFFFF AND JUMP JUMPDEST SWAP1 POP PUSH0 PUSH2 0xED3 PUSH0 DUP7 PUSH2 0xAE1 SWAP1 SWAP2 SWAP1 PUSH4 0xFFFFFFFF AND JUMP JUMPDEST SWAP1 POP PUSH2 0xEE3 DUP4 DUP10 DUP10 DUP6 DUP6 DUP10 PUSH2 0x1298 JUMP JUMPDEST POP POP PUSH2 0xEF9 JUMP JUMPDEST PUSH2 0xEF8 DUP2 DUP8 DUP8 DUP8 DUP8 DUP8 PUSH2 0x1447 JUMP JUMPDEST JUMPDEST POP JUMPDEST POP POP POP POP POP JUMP JUMPDEST DUP1 MLOAD DUP3 MLOAD EQ PUSH2 0xF4C JUMPI DUP2 MLOAD DUP2 MLOAD PUSH1 0x40 MLOAD PUSH32 0x5B05999100000000000000000000000000000000000000000000000000000000 DUP2 MSTORE PUSH1 0x4 ADD PUSH2 0xF43 SWAP3 SWAP2 SWAP1 PUSH2 0x20AB JUMP JUMPDEST PUSH1 0x40 MLOAD DUP1 SWAP2 SUB SWAP1 REVERT JUMPDEST PUSH0 PUSH2 0xF55 PUSH2 0x9D3 JUMP JUMPDEST SWAP1 POP PUSH0 JUMPDEST DUP4 MLOAD DUP2 LT ISZERO PUSH2 0x1157 JUMPI PUSH0 PUSH2 0xF76 DUP3 DUP7 PUSH2 0xAE1 SWAP1 SWAP2 SWAP1 PUSH4 0xFFFFFFFF AND JUMP JUMPDEST SWAP1 POP PUSH0 PUSH2 0xF8C DUP4 DUP7 PUSH2 0xAE1 SWAP1 SWAP2 SWAP1 PUSH4 0xFFFFFFFF AND JUMP JUMPDEST SWAP1 POP PUSH0 PUSH20 0xFFFFFFFFFFFFFFFFFFFFFFFFFFFFFFFFFFFFFFFF AND DUP9 PUSH20 0xFFFFFFFFFFFFFFFFFFFFFFFFFFFFFFFFFFFFFFFF AND EQ PUSH2 0x10AF JUMPI PUSH0 DUP1 PUSH0 DUP5 DUP2 MSTORE PUSH1 0x20 ADD SWAP1 DUP2 MSTORE PUSH1 0x20 ADD PUSH0 KECCAK256 PUSH0 DUP11 PUSH20 0xFFFFFFFFFFFFFFFFFFFFFFFFFFFFFFFFFFFFFFFF AND PUSH20 0xFFFFFFFFFFFFFFFFFFFFFFFFFFFFFFFFFFFFFFFF AND DUP2 MSTORE PUSH1 0x20 ADD SWAP1 DUP2 MSTORE PUSH1 0x20 ADD PUSH0 KECCAK256 SLOAD SWAP1 POP DUP2 DUP2 LT ISZERO PUSH2 0x105B JUMPI DUP9 DUP2 DUP4 DUP6 PUSH1 0x40 MLOAD PUSH32 0x3DEE4C500000000000000000000000000000000000000000000000000000000 DUP2 MSTORE PUSH1 0x4 ADD PUSH2 0x1052 SWAP5 SWAP4 SWAP3 SWAP2 SWAP1 PUSH2 0x23DF JUMP JUMPDEST PUSH1 0x40 MLOAD DUP1 SWAP2 SUB SWAP1 REVERT JUMPDEST DUP2 DUP2 SUB PUSH0 DUP1 DUP6 DUP2 MSTORE PUSH1 0x20 ADD SWAP1 DUP2 MSTORE PUSH1 0x20 ADD PUSH0 KECCAK256 PUSH0 DUP12 PUSH20 0xFFFFFFFFFFFFFFFFFFFFFFFFFFFFFFFFFFFFFFFF AND PUSH20 0xFFFFFFFFFFFFFFFFFFFFFFFFFFFFFFFFFFFFFFFF AND DUP2 MSTORE PUSH1 0x20 ADD SWAP1 DUP2 MSTORE PUSH1 0x20 ADD PUSH0 KECCAK256 DUP2 SWAP1 SSTORE POP POP JUMPDEST PUSH0 PUSH20 0xFFFFFFFFFFFFFFFFFFFFFFFFFFFFFFFFFFFFFFFF AND DUP8 PUSH20 0xFFFFFFFFFFFFFFFFFFFFFFFFFFFFFFFFFFFFFFFF AND EQ PUSH2 0x1144 JUMPI DUP1 PUSH0 DUP1 DUP5 DUP2 MSTORE PUSH1 0x20 ADD SWAP1 DUP2 MSTORE PUSH1 0x20 ADD PUSH0 KECCAK256 PUSH0 DUP10 PUSH20 0xFFFFFFFFFFFFFFFFFFFFFFFFFFFFFFFFFFFFFFFF AND PUSH20 0xFFFFFFFFFFFFFFFFFFFFFFFFFFFFFFFFFFFFFFFF AND DUP2 MSTORE PUSH1 0x20 ADD SWAP1 DUP2 MSTORE PUSH1 0x20 ADD PUSH0 KECCAK256 PUSH0 DUP3 DUP3 SLOAD PUSH2 0x113C SWAP2 SWAP1 PUSH2 0x2422 JUMP JUMPDEST SWAP3 POP POP DUP2 SWAP1 SSTORE POP JUMPDEST POP POP DUP1 PUSH2 0x1150 SWAP1 PUSH2 0x212C JUMP JUMPDEST SWAP1 POP PUSH2 0xF59 JUMP JUMPDEST POP PUSH1 0x1 DUP4 MLOAD SUB PUSH2 0x1212 JUMPI PUSH0 PUSH2 0x1175 PUSH0 DUP6 PUSH2 0xAE1 SWAP1 SWAP2 SWAP1 PUSH4 0xFFFFFFFF AND JUMP JUMPDEST SWAP1 POP PUSH0 PUSH2 0x118B PUSH0 DUP6 PUSH2 0xAE1 SWAP1 SWAP2 SWAP1 PUSH4 0xFFFFFFFF AND JUMP JUMPDEST SWAP1 POP DUP6 PUSH20 0xFFFFFFFFFFFFFFFFFFFFFFFFFFFFFFFFFFFFFFFF AND DUP8 PUSH20 0xFFFFFFFFFFFFFFFFFFFFFFFFFFFFFFFFFFFFFFFF AND DUP5 PUSH20 0xFFFFFFFFFFFFFFFFFFFFFFFFFFFFFFFFFFFFFFFF AND PUSH32 0xC3D58168C5AE7397731D063D5BBF3D657854427343F4C083240F7AACAA2D0F62 DUP6 DUP6 PUSH1 0x40 MLOAD PUSH2 0x1203 SWAP3 SWAP2 SWAP1 PUSH2 0x20AB JUMP JUMPDEST PUSH1 0x40 MLOAD DUP1 SWAP2 SUB SWAP1 LOG4 POP POP PUSH2 0x1291 JUMP JUMPDEST DUP4 PUSH20 0xFFFFFFFFFFFFFFFFFFFFFFFFFFFFFFFFFFFFFFFF AND DUP6 PUSH20 0xFFFFFFFFFFFFFFFFFFFFFFFFFFFFFFFFFFFFFFFF AND DUP3 PUSH20 0xFFFFFFFFFFFFFFFFFFFFFFFFFFFFFFFFFFFFFFFF AND PUSH32 0x4A39DC06D4C0DBC64B70AF90FD698A233A518AA5D07E595D983B8C0526C8F7FB DUP7 DUP7 PUSH1 0x40 MLOAD PUSH2 0x1288 SWAP3 SWAP2 SWAP1 PUSH2 0x2455 JUMP JUMPDEST PUSH1 0x40 MLOAD DUP1 SWAP2 SUB SWAP1 LOG4 JUMPDEST POP POP POP POP POP JUMP JUMPDEST PUSH0 DUP5 PUSH20 0xFFFFFFFFFFFFFFFFFFFFFFFFFFFFFFFFFFFFFFFF AND EXTCODESIZE GT ISZERO PUSH2 0x143F JUMPI DUP4 PUSH20 0xFFFFFFFFFFFFFFFFFFFFFFFFFFFFFFFFFFFFFFFF AND PUSH4 0xF23A6E61 DUP8 DUP8 DUP7 DUP7 DUP7 PUSH1 0x40 MLOAD DUP7 PUSH4 0xFFFFFFFF AND PUSH1 0xE0 SHL DUP2 MSTORE PUSH1 0x4 ADD PUSH2 0x12F8 SWAP6 SWAP5 SWAP4 SWAP3 SWAP2 SWAP1 PUSH2 0x24DC JUMP JUMPDEST PUSH1 0x20 PUSH1 0x40 MLOAD DUP1 DUP4 SUB DUP2 PUSH0 DUP8 GAS CALL SWAP3 POP POP POP DUP1 ISZERO PUSH2 0x1333 JUMPI POP PUSH1 0x40 MLOAD RETURNDATASIZE PUSH1 0x1F NOT PUSH1 0x1F DUP3 ADD AND DUP3 ADD DUP1 PUSH1 0x40 MSTORE POP DUP2 ADD SWAP1 PUSH2 0x1330 SWAP2 SWAP1 PUSH2 0x2548 JUMP JUMPDEST PUSH1 0x1 JUMPDEST PUSH2 0x13B4 JUMPI RETURNDATASIZE DUP1 PUSH0 DUP2 EQ PUSH2 0x1361 JUMPI PUSH1 0x40 MLOAD SWAP2 POP PUSH1 0x1F NOT PUSH1 0x3F RETURNDATASIZE ADD AND DUP3 ADD PUSH1 0x40 MSTORE RETURNDATASIZE DUP3 MSTORE RETURNDATASIZE PUSH0 PUSH1 0x20 DUP5 ADD RETURNDATACOPY PUSH2 0x1366 JUMP JUMPDEST PUSH1 0x60 SWAP2 POP JUMPDEST POP PUSH0 DUP2 MLOAD SUB PUSH2 0x13AC JUMPI DUP5 PUSH1 0x40 MLOAD PUSH32 0x57F447CE00000000000000000000000000000000000000000000000000000000 DUP2 MSTORE PUSH1 0x4 ADD PUSH2 0x13A3 SWAP2 SWAP1 PUSH2 0x1EAA JUMP JUMPDEST PUSH1 0x40 MLOAD DUP1 SWAP2 SUB SWAP1 REVERT JUMPDEST DUP1 MLOAD DUP2 PUSH1 0x20 ADD REVERT JUMPDEST PUSH4 0xF23A6E61 PUSH1 0xE0 SHL PUSH28 0xFFFFFFFFFFFFFFFFFFFFFFFFFFFFFFFFFFFFFFFFFFFFFFFFFFFFFFFF NOT AND DUP2 PUSH28 0xFFFFFFFFFFFFFFFFFFFFFFFFFFFFFFFFFFFFFFFFFFFFFFFFFFFFFFFF NOT AND EQ PUSH2 0x143D JUMPI DUP5 PUSH1 0x40 MLOAD PUSH32 0x57F447CE00000000000000000000000000000000000000000000000000000000 DUP2 MSTORE PUSH1 0x4 ADD PUSH2 0x1434 SWAP2 SWAP1 PUSH2 0x1EAA JUMP JUMPDEST PUSH1 0x40 MLOAD DUP1 SWAP2 SUB SWAP1 REVERT JUMPDEST POP JUMPDEST POP POP POP POP POP POP JUMP JUMPDEST PUSH0 DUP5 PUSH20 0xFFFFFFFFFFFFFFFFFFFFFFFFFFFFFFFFFFFFFFFF AND EXTCODESIZE GT ISZERO PUSH2 0x15EE JUMPI DUP4 PUSH20 0xFFFFFFFFFFFFFFFFFFFFFFFFFFFFFFFFFFFFFFFF AND PUSH4 0xBC197C81 DUP8 DUP8 DUP7 DUP7 DUP7 PUSH1 0x40 MLOAD DUP7 PUSH4 0xFFFFFFFF AND PUSH1 0xE0 SHL DUP2 MSTORE PUSH1 0x4 ADD PUSH2 0x14A7 SWAP6 SWAP5 SWAP4 SWAP3 SWAP2 SWAP1 PUSH2 0x2573 JUMP JUMPDEST PUSH1 0x20 PUSH1 0x40 MLOAD DUP1 DUP4 SUB DUP2 PUSH0 DUP8 GAS CALL SWAP3 POP POP POP DUP1 ISZERO PUSH2 0x14E2 JUMPI POP PUSH1 0x40 MLOAD RETURNDATASIZE PUSH1 0x1F NOT PUSH1 0x1F DUP3 ADD AND DUP3 ADD DUP1 PUSH1 0x40 MSTORE POP DUP2 ADD SWAP1 PUSH2 0x14DF SWAP2 SWAP1 PUSH2 0x2548 JUMP JUMPDEST PUSH1 0x1 JUMPDEST PUSH2 0x1563 JUMPI RETURNDATASIZE DUP1 PUSH0 DUP2 EQ PUSH2 0x1510 JUMPI PUSH1 0x40 MLOAD SWAP2 POP PUSH1 0x1F NOT PUSH1 0x3F RETURNDATASIZE ADD AND DUP3 ADD PUSH1 0x40 MSTORE RETURNDATASIZE DUP3 MSTORE RETURNDATASIZE PUSH0 PUSH1 0x20 DUP5 ADD RETURNDATACOPY PUSH2 0x1515 JUMP JUMPDEST PUSH1 0x60 SWAP2 POP JUMPDEST POP PUSH0 DUP2 MLOAD SUB PUSH2 0x155B JUMPI DUP5 PUSH1 0x40 MLOAD PUSH32 0x57F447CE00000000000000000000000000000000000000000000000000000000 DUP2 MSTORE PUSH1 0x4 ADD PUSH2 0x1552 SWAP2 SWAP1 PUSH2 0x1EAA JUMP JUMPDEST PUSH1 0x40 MLOAD DUP1 SWAP2 SUB SWAP1 REVERT JUMPDEST DUP1 MLOAD DUP2 PUSH1 0x20 ADD REVERT JUMPDEST PUSH4 0xBC197C81 PUSH1 0xE0 SHL PUSH28 0xFFFFFFFFFFFFFFFFFFFFFFFFFFFFFFFFFFFFFFFFFFFFFFFFFFFFFFFF NOT AND DUP2 PUSH28 0xFFFFFFFFFFFFFFFFFFFFFFFFFFFFFFFFFFFFFFFFFFFFFFFFFFFFFFFF NOT AND EQ PUSH2 0x15EC JUMPI DUP5 PUSH1 0x40 MLOAD PUSH32 0x57F447CE00000000000000000000000000000000000000000000000000000000 DUP2 MSTORE PUSH1 0x4 ADD PUSH2 0x15E3 SWAP2 SWAP1 PUSH2 0x1EAA JUMP JUMPDEST PUSH1 0x40 MLOAD DUP1 SWAP2 SUB SWAP1 REVERT JUMPDEST POP JUMPDEST POP POP POP POP POP POP JUMP JUMPDEST PUSH0 PUSH1 0x40 MLOAD SWAP1 POP SWAP1 JUMP JUMPDEST PUSH0 DUP1 REVERT JUMPDEST PUSH0 DUP1 REVERT JUMPDEST PUSH0 PUSH20 0xFFFFFFFFFFFFFFFFFFFFFFFFFFFFFFFFFFFFFFFF DUP3 AND SWAP1 POP SWAP2 SWAP1 POP JUMP JUMPDEST PUSH0 PUSH2 0x1630 DUP3 PUSH2 0x1607 JUMP JUMPDEST SWAP1 POP SWAP2 SWAP1 POP JUMP JUMPDEST PUSH2 0x1640 DUP2 PUSH2 0x1626 JUMP JUMPDEST DUP2 EQ PUSH2 0x164A JUMPI PUSH0 DUP1 REVERT JUMPDEST POP JUMP JUMPDEST PUSH0 DUP2 CALLDATALOAD SWAP1 POP PUSH2 0x165B DUP2 PUSH2 0x1637 JUMP JUMPDEST SWAP3 SWAP2 POP POP JUMP JUMPDEST PUSH0 DUP2 SWAP1 POP SWAP2 SWAP1 POP JUMP JUMPDEST PUSH2 0x1673 DUP2 PUSH2 0x1661 JUMP JUMPDEST DUP2 EQ PUSH2 0x167D JUMPI PUSH0 DUP1 REVERT JUMPDEST POP JUMP JUMPDEST PUSH0 DUP2 CALLDATALOAD SWAP1 POP PUSH2 0x168E DUP2 PUSH2 0x166A JUMP JUMPDEST SWAP3 SWAP2 POP POP JUMP JUMPDEST PUSH0 DUP1 PUSH1 0x40 DUP4 DUP6 SUB SLT ISZERO PUSH2 0x16AA JUMPI PUSH2 0x16A9 PUSH2 0x15FF JUMP JUMPDEST JUMPDEST PUSH0 PUSH2 0x16B7 DUP6 DUP3 DUP7 ADD PUSH2 0x164D JUMP JUMPDEST SWAP3 POP POP PUSH1 0x20 PUSH2 0x16C8 DUP6 DUP3 DUP7 ADD PUSH2 0x1680 JUMP JUMPDEST SWAP2 POP POP SWAP3 POP SWAP3 SWAP1 POP JUMP JUMPDEST PUSH2 0x16DB DUP2 PUSH2 0x1661 JUMP JUMPDEST DUP3 MSTORE POP POP JUMP JUMPDEST PUSH0 PUSH1 0x20 DUP3 ADD SWAP1 POP PUSH2 0x16F4 PUSH0 DUP4 ADD DUP5 PUSH2 0x16D2 JUMP JUMPDEST SWAP3 SWAP2 POP POP JUMP JUMPDEST PUSH0 PUSH32 0xFFFFFFFF00000000000000000000000000000000000000000000000000000000 DUP3 AND SWAP1 POP SWAP2 SWAP1 POP JUMP JUMPDEST PUSH2 0x172E DUP2 PUSH2 0x16FA JUMP JUMPDEST DUP2 EQ PUSH2 0x1738 JUMPI PUSH0 DUP1 REVERT JUMPDEST POP JUMP JUMPDEST PUSH0 DUP2 CALLDATALOAD SWAP1 POP PUSH2 0x1749 DUP2 PUSH2 0x1725 JUMP JUMPDEST SWAP3 SWAP2 POP POP JUMP JUMPDEST PUSH0 PUSH1 0x20 DUP3 DUP5 SUB SLT ISZERO PUSH2 0x1764 JUMPI PUSH2 0x1763 PUSH2 0x15FF JUMP JUMPDEST JUMPDEST PUSH0 PUSH2 0x1771 DUP5 DUP3 DUP6 ADD PUSH2 0x173B JUMP JUMPDEST SWAP2 POP POP SWAP3 SWAP2 POP POP JUMP JUMPDEST PUSH0 DUP2 ISZERO ISZERO SWAP1 POP SWAP2 SWAP1 POP JUMP JUMPDEST PUSH2 0x178E DUP2 PUSH2 0x177A JUMP JUMPDEST DUP3 MSTORE POP POP JUMP JUMPDEST PUSH0 PUSH1 0x20 DUP3 ADD SWAP1 POP PUSH2 0x17A7 PUSH0 DUP4 ADD DUP5 PUSH2 0x1785 JUMP JUMPDEST SWAP3 SWAP2 POP POP JUMP JUMPDEST PUSH0 DUP1 REVERT JUMPDEST PUSH0 DUP1 REVERT JUMPDEST PUSH0 PUSH1 0x1F NOT PUSH1 0x1F DUP4 ADD AND SWAP1 POP SWAP2 SWAP1 POP JUMP JUMPDEST PUSH32 0x4E487B7100000000000000000000000000000000000000000000000000000000 PUSH0 MSTORE PUSH1 0x41 PUSH1 0x4 MSTORE PUSH1 0x24 PUSH0 REVERT JUMPDEST PUSH2 0x17FB DUP3 PUSH2 0x17B5 JUMP JUMPDEST DUP2 ADD DUP2 DUP2 LT PUSH8 0xFFFFFFFFFFFFFFFF DUP3 GT OR ISZERO PUSH2 0x181A JUMPI PUSH2 0x1819 PUSH2 0x17C5 JUMP JUMPDEST JUMPDEST DUP1 PUSH1 0x40 MSTORE POP POP POP JUMP JUMPDEST PUSH0 PUSH2 0x182C PUSH2 0x15F6 JUMP JUMPDEST SWAP1 POP PUSH2 0x1838 DUP3 DUP3 PUSH2 0x17F2 JUMP JUMPDEST SWAP2 SWAP1 POP JUMP JUMPDEST PUSH0 PUSH8 0xFFFFFFFFFFFFFFFF DUP3 GT ISZERO PUSH2 0x1857 JUMPI PUSH2 0x1856 PUSH2 0x17C5 JUMP JUMPDEST JUMPDEST PUSH2 0x1860 DUP3 PUSH2 0x17B5 JUMP JUMPDEST SWAP1 POP PUSH1 0x20 DUP2 ADD SWAP1 POP SWAP2 SWAP1 POP JUMP JUMPDEST DUP3 DUP2 DUP4 CALLDATACOPY PUSH0 DUP4 DUP4 ADD MSTORE POP POP POP JUMP JUMPDEST PUSH0 PUSH2 0x188D PUSH2 0x1888 DUP5 PUSH2 0x183D JUMP JUMPDEST PUSH2 0x1823 JUMP JUMPDEST SWAP1 POP DUP3 DUP2 MSTORE PUSH1 0x20 DUP2 ADD DUP5 DUP5 DUP5 ADD GT ISZERO PUSH2 0x18A9 JUMPI PUSH2 0x18A8 PUSH2 0x17B1 JUMP JUMPDEST JUMPDEST PUSH2 0x18B4 DUP5 DUP3 DUP6 PUSH2 0x186D JUMP JUMPDEST POP SWAP4 SWAP3 POP POP POP JUMP JUMPDEST PUSH0 DUP3 PUSH1 0x1F DUP4 ADD SLT PUSH2 0x18D0 JUMPI PUSH2 0x18CF PUSH2 0x17AD JUMP JUMPDEST JUMPDEST DUP2 CALLDATALOAD PUSH2 0x18E0 DUP5 DUP3 PUSH1 0x20 DUP7 ADD PUSH2 0x187B JUMP JUMPDEST SWAP2 POP POP SWAP3 SWAP2 POP POP JUMP JUMPDEST PUSH0 PUSH1 0x20 DUP3 DUP5 SUB SLT ISZERO PUSH2 0x18FE JUMPI PUSH2 0x18FD PUSH2 0x15FF JUMP JUMPDEST JUMPDEST PUSH0 DUP3 ADD CALLDATALOAD PUSH8 0xFFFFFFFFFFFFFFFF DUP2 GT ISZERO PUSH2 0x191B JUMPI PUSH2 0x191A PUSH2 0x1603 JUMP JUMPDEST JUMPDEST PUSH2 0x1927 DUP5 DUP3 DUP6 ADD PUSH2 0x18BC JUMP JUMPDEST SWAP2 POP POP SWAP3 SWAP2 POP POP JUMP JUMPDEST PUSH0 PUSH8 0xFFFFFFFFFFFFFFFF DUP3 GT ISZERO PUSH2 0x194A JUMPI PUSH2 0x1949 PUSH2 0x17C5 JUMP JUMPDEST JUMPDEST PUSH2 0x1953 DUP3 PUSH2 0x17B5 JUMP JUMPDEST SWAP1 POP PUSH1 0x20 DUP2 ADD SWAP1 POP SWAP2 SWAP1 POP JUMP JUMPDEST PUSH0 PUSH2 0x1972 PUSH2 0x196D DUP5 PUSH2 0x1930 JUMP JUMPDEST PUSH2 0x1823 JUMP JUMPDEST SWAP1 POP DUP3 DUP2 MSTORE PUSH1 0x20 DUP2 ADD DUP5 DUP5 DUP5 ADD GT ISZERO PUSH2 0x198E JUMPI PUSH2 0x198D PUSH2 0x17B1 JUMP JUMPDEST JUMPDEST PUSH2 0x1999 DUP5 DUP3 DUP6 PUSH2 0x186D JUMP JUMPDEST POP SWAP4 SWAP3 POP POP POP JUMP JUMPDEST PUSH0 DUP3 PUSH1 0x1F DUP4 ADD SLT PUSH2 0x19B5 JUMPI PUSH2 0x19B4 PUSH2 0x17AD JUMP JUMPDEST JUMPDEST DUP2 CALLDATALOAD PUSH2 0x19C5 DUP5 DUP3 PUSH1 0x20 DUP7 ADD PUSH2 0x1960 JUMP JUMPDEST SWAP2 POP POP SWAP3 SWAP2 POP POP JUMP JUMPDEST PUSH0 DUP1 PUSH0 PUSH1 0x60 DUP5 DUP7 SUB SLT ISZERO PUSH2 0x19E5 JUMPI PUSH2 0x19E4 PUSH2 0x15FF JUMP JUMPDEST JUMPDEST PUSH0 PUSH2 0x19F2 DUP7 DUP3 DUP8 ADD PUSH2 0x1680 JUMP JUMPDEST SWAP4 POP POP PUSH1 0x20 PUSH2 0x1A03 DUP7 DUP3 DUP8 ADD PUSH2 0x1680 JUMP JUMPDEST SWAP3 POP POP PUSH1 0x40 DUP5 ADD CALLDATALOAD PUSH8 0xFFFFFFFFFFFFFFFF DUP2 GT ISZERO PUSH2 0x1A24 JUMPI PUSH2 0x1A23 PUSH2 0x1603 JUMP JUMPDEST JUMPDEST PUSH2 0x1A30 DUP7 DUP3 DUP8 ADD PUSH2 0x19A1 JUMP JUMPDEST SWAP2 POP POP SWAP3 POP SWAP3 POP SWAP3 JUMP JUMPDEST PUSH0 PUSH1 0x20 DUP3 DUP5 SUB SLT ISZERO PUSH2 0x1A4F JUMPI PUSH2 0x1A4E PUSH2 0x15FF JUMP JUMPDEST JUMPDEST PUSH0 PUSH2 0x1A5C DUP5 DUP3 DUP6 ADD PUSH2 0x1680 JUMP JUMPDEST SWAP2 POP POP SWAP3 SWAP2 POP POP JUMP JUMPDEST PUSH0 DUP2 MLOAD SWAP1 POP SWAP2 SWAP1 POP JUMP JUMPDEST PUSH0 DUP3 DUP3 MSTORE PUSH1 0x20 DUP3 ADD SWAP1 POP SWAP3 SWAP2 POP POP JUMP JUMPDEST PUSH0 JUMPDEST DUP4 DUP2 LT ISZERO PUSH2 0x1A9C JUMPI DUP1 DUP3 ADD MLOAD DUP2 DUP5 ADD MSTORE PUSH1 0x20 DUP2 ADD SWAP1 POP PUSH2 0x1A81 JUMP JUMPDEST PUSH0 DUP5 DUP5 ADD MSTORE POP POP POP POP JUMP JUMPDEST PUSH0 PUSH2 0x1AB1 DUP3 PUSH2 0x1A65 JUMP JUMPDEST PUSH2 0x1ABB DUP2 DUP6 PUSH2 0x1A6F JUMP JUMPDEST SWAP4 POP PUSH2 0x1ACB DUP2 DUP6 PUSH1 0x20 DUP7 ADD PUSH2 0x1A7F JUMP JUMPDEST PUSH2 0x1AD4 DUP2 PUSH2 0x17B5 JUMP JUMPDEST DUP5 ADD SWAP2 POP POP SWAP3 SWAP2 POP POP JUMP JUMPDEST PUSH0 PUSH1 0x20 DUP3 ADD SWAP1 POP DUP2 DUP2 SUB PUSH0 DUP4 ADD MSTORE PUSH2 0x1AF7 DUP2 DUP5 PUSH2 0x1AA7 JUMP JUMPDEST SWAP1 POP SWAP3 SWAP2 POP POP JUMP JUMPDEST PUSH0 PUSH8 0xFFFFFFFFFFFFFFFF DUP3 GT ISZERO PUSH2 0x1B19 JUMPI PUSH2 0x1B18 PUSH2 0x17C5 JUMP JUMPDEST JUMPDEST PUSH1 0x20 DUP3 MUL SWAP1 POP PUSH1 0x20 DUP2 ADD SWAP1 POP SWAP2 SWAP1 POP JUMP JUMPDEST PUSH0 DUP1 REVERT JUMPDEST PUSH0 PUSH2 0x1B40 PUSH2 0x1B3B DUP5 PUSH2 0x1AFF JUMP JUMPDEST PUSH2 0x1823 JUMP JUMPDEST SWAP1 POP DUP1 DUP4 DUP3 MSTORE PUSH1 0x20 DUP3 ADD SWAP1 POP PUSH1 0x20 DUP5 MUL DUP4 ADD DUP6 DUP2 GT ISZERO PUSH2 0x1B63 JUMPI PUSH2 0x1B62 PUSH2 0x1B2A JUMP JUMPDEST JUMPDEST DUP4 JUMPDEST DUP2 DUP2 LT ISZERO PUSH2 0x1B8C JUMPI DUP1 PUSH2 0x1B78 DUP9 DUP3 PUSH2 0x1680 JUMP JUMPDEST DUP5 MSTORE PUSH1 0x20 DUP5 ADD SWAP4 POP POP PUSH1 0x20 DUP2 ADD SWAP1 POP PUSH2 0x1B65 JUMP JUMPDEST POP POP POP SWAP4 SWAP3 POP POP POP JUMP JUMPDEST PUSH0 DUP3 PUSH1 0x1F DUP4 ADD SLT PUSH2 0x1BAA JUMPI PUSH2 0x1BA9 PUSH2 0x17AD JUMP JUMPDEST JUMPDEST DUP2 CALLDATALOAD PUSH2 0x1BBA DUP5 DUP3 PUSH1 0x20 DUP7 ADD PUSH2 0x1B2E JUMP JUMPDEST SWAP2 POP POP SWAP3 SWAP2 POP POP JUMP JUMPDEST PUSH0 DUP1 PUSH0 DUP1 PUSH0 PUSH1 0xA0 DUP7 DUP9 SUB SLT ISZERO PUSH2 0x1BDC JUMPI PUSH2 0x1BDB PUSH2 0x15FF JUMP JUMPDEST JUMPDEST PUSH0 PUSH2 0x1BE9 DUP9 DUP3 DUP10 ADD PUSH2 0x164D JUMP JUMPDEST SWAP6 POP POP PUSH1 0x20 PUSH2 0x1BFA DUP9 DUP3 DUP10 ADD PUSH2 0x164D JUMP JUMPDEST SWAP5 POP POP PUSH1 0x40 DUP7 ADD CALLDATALOAD PUSH8 0xFFFFFFFFFFFFFFFF DUP2 GT ISZERO PUSH2 0x1C1B JUMPI PUSH2 0x1C1A PUSH2 0x1603 JUMP JUMPDEST JUMPDEST PUSH2 0x1C27 DUP9 DUP3 DUP10 ADD PUSH2 0x1B96 JUMP JUMPDEST SWAP4 POP POP PUSH1 0x60 DUP7 ADD CALLDATALOAD PUSH8 0xFFFFFFFFFFFFFFFF DUP2 GT ISZERO PUSH2 0x1C48 JUMPI PUSH2 0x1C47 PUSH2 0x1603 JUMP JUMPDEST JUMPDEST PUSH2 0x1C54 DUP9 DUP3 DUP10 ADD PUSH2 0x1B96 JUMP JUMPDEST SWAP3 POP POP PUSH1 0x80 DUP7 ADD CALLDATALOAD PUSH8 0xFFFFFFFFFFFFFFFF DUP2 GT ISZERO PUSH2 0x1C75 JUMPI PUSH2 0x1C74 PUSH2 0x1603 JUMP JUMPDEST JUMPDEST PUSH2 0x1C81 DUP9 DUP3 DUP10 ADD PUSH2 0x19A1 JUMP JUMPDEST SWAP2 POP POP SWAP3 SWAP6 POP SWAP3 SWAP6 SWAP1 SWAP4 POP JUMP JUMPDEST PUSH0 PUSH8 0xFFFFFFFFFFFFFFFF DUP3 GT ISZERO PUSH2 0x1CA8 JUMPI PUSH2 0x1CA7 PUSH2 0x17C5 JUMP JUMPDEST JUMPDEST PUSH1 0x20 DUP3 MUL SWAP1 POP PUSH1 0x20 DUP2 ADD SWAP1 POP SWAP2 SWAP1 POP JUMP JUMPDEST PUSH0 PUSH2 0x1CCB PUSH2 0x1CC6 DUP5 PUSH2 0x1C8E JUMP JUMPDEST PUSH2 0x1823 JUMP JUMPDEST SWAP1 POP DUP1 DUP4 DUP3 MSTORE PUSH1 0x20 DUP3 ADD SWAP1 POP PUSH1 0x20 DUP5 MUL DUP4 ADD DUP6 DUP2 GT ISZERO PUSH2 0x1CEE JUMPI PUSH2 0x1CED PUSH2 0x1B2A JUMP JUMPDEST JUMPDEST DUP4 JUMPDEST DUP2 DUP2 LT ISZERO PUSH2 0x1D17 JUMPI DUP1 PUSH2 0x1D03 DUP9 DUP3 PUSH2 0x164D JUMP JUMPDEST DUP5 MSTORE PUSH1 0x20 DUP5 ADD SWAP4 POP POP PUSH1 0x20 DUP2 ADD SWAP1 POP PUSH2 0x1CF0 JUMP JUMPDEST POP POP POP SWAP4 SWAP3 POP POP POP JUMP JUMPDEST PUSH0 DUP3 PUSH1 0x1F DUP4 ADD SLT PUSH2 0x1D35 JUMPI PUSH2 0x1D34 PUSH2 0x17AD JUMP JUMPDEST JUMPDEST DUP2 CALLDATALOAD PUSH2 0x1D45 DUP5 DUP3 PUSH1 0x20 DUP7 ADD PUSH2 0x1CB9 JUMP JUMPDEST SWAP2 POP POP SWAP3 SWAP2 POP POP JUMP JUMPDEST PUSH0 DUP1 PUSH1 0x40 DUP4 DUP6 SUB SLT ISZERO PUSH2 0x1D64 JUMPI PUSH2 0x1D63 PUSH2 0x15FF JUMP JUMPDEST JUMPDEST PUSH0 DUP4 ADD CALLDATALOAD PUSH8 0xFFFFFFFFFFFFFFFF DUP2 GT ISZERO PUSH2 0x1D81 JUMPI PUSH2 0x1D80 PUSH2 0x1603 JUMP JUMPDEST JUMPDEST PUSH2 0x1D8D DUP6 DUP3 DUP7 ADD PUSH2 0x1D21 JUMP JUMPDEST SWAP3 POP POP PUSH1 0x20 DUP4 ADD CALLDATALOAD PUSH8 0xFFFFFFFFFFFFFFFF DUP2 GT ISZERO PUSH2 0x1DAE JUMPI PUSH2 0x1DAD PUSH2 0x1603 JUMP JUMPDEST JUMPDEST PUSH2 0x1DBA DUP6 DUP3 DUP7 ADD PUSH2 0x1B96 JUMP JUMPDEST SWAP2 POP POP SWAP3 POP SWAP3 SWAP1 POP JUMP JUMPDEST PUSH0 DUP2 MLOAD SWAP1 POP SWAP2 SWAP1 POP JUMP JUMPDEST PUSH0 DUP3 DUP3 MSTORE PUSH1 0x20 DUP3 ADD SWAP1 POP SWAP3 SWAP2 POP POP JUMP JUMPDEST PUSH0 DUP2 SWAP1 POP PUSH1 0x20 DUP3 ADD SWAP1 POP SWAP2 SWAP1 POP JUMP JUMPDEST PUSH2 0x1DF6 DUP2 PUSH2 0x1661 JUMP JUMPDEST DUP3 MSTORE POP POP JUMP JUMPDEST PUSH0 PUSH2 0x1E07 DUP4 DUP4 PUSH2 0x1DED JUMP JUMPDEST PUSH1 0x20 DUP4 ADD SWAP1 POP SWAP3 SWAP2 POP POP JUMP JUMPDEST PUSH0 PUSH1 0x20 DUP3 ADD SWAP1 POP SWAP2 SWAP1 POP JUMP JUMPDEST PUSH0 PUSH2 0x1E29 DUP3 PUSH2 0x1DC4 JUMP JUMPDEST PUSH2 0x1E33 DUP2 DUP6 PUSH2 0x1DCE JUMP JUMPDEST SWAP4 POP PUSH2 0x1E3E DUP4 PUSH2 0x1DDE JUMP JUMPDEST DUP1 PUSH0 JUMPDEST DUP4 DUP2 LT ISZERO PUSH2 0x1E6E JUMPI DUP2 MLOAD PUSH2 0x1E55 DUP9 DUP3 PUSH2 0x1DFC JUMP JUMPDEST SWAP8 POP PUSH2 0x1E60 DUP4 PUSH2 0x1E13 JUMP JUMPDEST SWAP3 POP POP PUSH1 0x1 DUP2 ADD SWAP1 POP PUSH2 0x1E41 JUMP JUMPDEST POP DUP6 SWAP4 POP POP POP POP SWAP3 SWAP2 POP POP JUMP JUMPDEST PUSH0 PUSH1 0x20 DUP3 ADD SWAP1 POP DUP2 DUP2 SUB PUSH0 DUP4 ADD MSTORE PUSH2 0x1E93 DUP2 DUP5 PUSH2 0x1E1F JUMP JUMPDEST SWAP1 POP SWAP3 SWAP2 POP POP JUMP JUMPDEST PUSH2 0x1EA4 DUP2 PUSH2 0x1626 JUMP JUMPDEST DUP3 MSTORE POP POP JUMP JUMPDEST PUSH0 PUSH1 0x20 DUP3 ADD SWAP1 POP PUSH2 0x1EBD PUSH0 DUP4 ADD DUP5 PUSH2 0x1E9B JUMP JUMPDEST SWAP3 SWAP2 POP POP JUMP JUMPDEST PUSH2 0x1ECC DUP2 PUSH2 0x177A JUMP JUMPDEST DUP2 EQ PUSH2 0x1ED6 JUMPI PUSH0 DUP1 REVERT JUMPDEST POP JUMP JUMPDEST PUSH0 DUP2 CALLDATALOAD SWAP1 POP PUSH2 0x1EE7 DUP2 PUSH2 0x1EC3 JUMP JUMPDEST SWAP3 SWAP2 POP POP JUMP JUMPDEST PUSH0 DUP1 PUSH1 0x40 DUP4 DUP6 SUB SLT ISZERO PUSH2 0x1F03 JUMPI PUSH2 0x1F02 PUSH2 0x15FF JUMP JUMPDEST JUMPDEST PUSH0 PUSH2 0x1F10 DUP6 DUP3 DUP7 ADD PUSH2 0x164D JUMP JUMPDEST SWAP3 POP POP PUSH1 0x20 PUSH2 0x1F21 DUP6 DUP3 DUP7 ADD PUSH2 0x1ED9 JUMP JUMPDEST SWAP2 POP POP SWAP3 POP SWAP3 SWAP1 POP JUMP JUMPDEST PUSH0 DUP1 PUSH1 0x40 DUP4 DUP6 SUB SLT ISZERO PUSH2 0x1F41 JUMPI PUSH2 0x1F40 PUSH2 0x15FF JUMP JUMPDEST JUMPDEST PUSH0 PUSH2 0x1F4E DUP6 DUP3 DUP7 ADD PUSH2 0x164D JUMP JUMPDEST SWAP3 POP POP PUSH1 0x20 PUSH2 0x1F5F DUP6 DUP3 DUP7 ADD PUSH2 0x164D JUMP JUMPDEST SWAP2 POP POP SWAP3 POP SWAP3 SWAP1 POP JUMP JUMPDEST PUSH0 DUP1 PUSH0 DUP1 PUSH0 PUSH1 0xA0 DUP7 DUP9 SUB SLT ISZERO PUSH2 0x1F82 JUMPI PUSH2 0x1F81 PUSH2 0x15FF JUMP JUMPDEST JUMPDEST PUSH0 PUSH2 0x1F8F DUP9 DUP3 DUP10 ADD PUSH2 0x164D JUMP JUMPDEST SWAP6 POP POP PUSH1 0x20 PUSH2 0x1FA0 DUP9 DUP3 DUP10 ADD PUSH2 0x164D JUMP JUMPDEST SWAP5 POP POP PUSH1 0x40 PUSH2 0x1FB1 DUP9 DUP3 DUP10 ADD PUSH2 0x1680 JUMP JUMPDEST SWAP4 POP POP PUSH1 0x60 PUSH2 0x1FC2 DUP9 DUP3 DUP10 ADD PUSH2 0x1680 JUMP JUMPDEST SWAP3 POP POP PUSH1 0x80 DUP7 ADD CALLDATALOAD PUSH8 0xFFFFFFFFFFFFFFFF DUP2 GT ISZERO PUSH2 0x1FE3 JUMPI PUSH2 0x1FE2 PUSH2 0x1603 JUMP JUMPDEST JUMPDEST PUSH2 0x1FEF DUP9 DUP3 DUP10 ADD PUSH2 0x19A1 JUMP JUMPDEST SWAP2 POP POP SWAP3 SWAP6 POP SWAP3 SWAP6 SWAP1 SWAP4 POP JUMP JUMPDEST PUSH0 PUSH1 0x20 DUP3 DUP5 SUB SLT ISZERO PUSH2 0x2011 JUMPI PUSH2 0x2010 PUSH2 0x15FF JUMP JUMPDEST JUMPDEST PUSH0 PUSH2 0x201E DUP5 DUP3 DUP6 ADD PUSH2 0x164D JUMP JUMPDEST SWAP2 POP POP SWAP3 SWAP2 POP POP JUMP JUMPDEST PUSH32 0x4E487B7100000000000000000000000000000000000000000000000000000000 PUSH0 MSTORE PUSH1 0x22 PUSH1 0x4 MSTORE PUSH1 0x24 PUSH0 REVERT JUMPDEST PUSH0 PUSH1 0x2 DUP3 DIV SWAP1 POP PUSH1 0x1 DUP3 AND DUP1 PUSH2 0x206B JUMPI PUSH1 0x7F DUP3 AND SWAP2 POP JUMPDEST PUSH1 0x20 DUP3 LT DUP2 SUB PUSH2 0x207E JUMPI PUSH2 0x207D PUSH2 0x2027 JUMP JUMPDEST JUMPDEST POP SWAP2 SWAP1 POP JUMP JUMPDEST PUSH0 PUSH1 0x40 DUP3 ADD SWAP1 POP PUSH2 0x2097 PUSH0 DUP4 ADD DUP6 PUSH2 0x1E9B JUMP JUMPDEST PUSH2 0x20A4 PUSH1 0x20 DUP4 ADD DUP5 PUSH2 0x1E9B JUMP JUMPDEST SWAP4 SWAP3 POP POP POP JUMP JUMPDEST PUSH0 PUSH1 0x40 DUP3 ADD SWAP1 POP PUSH2 0x20BE PUSH0 DUP4 ADD DUP6 PUSH2 0x16D2 JUMP JUMPDEST PUSH2 0x20CB PUSH1 0x20 DUP4 ADD DUP5 PUSH2 0x16D2 JUMP JUMPDEST SWAP4 SWAP3 POP POP POP JUMP JUMPDEST PUSH32 0x4E487B7100000000000000000000000000000000000000000000000000000000 PUSH0 MSTORE PUSH1 0x32 PUSH1 0x4 MSTORE PUSH1 0x24 PUSH0 REVERT JUMPDEST PUSH32 0x4E487B7100000000000000000000000000000000000000000000000000000000 PUSH0 MSTORE PUSH1 0x11 PUSH1 0x4 MSTORE PUSH1 0x24 PUSH0 REVERT JUMPDEST PUSH0 PUSH2 0x2136 DUP3 PUSH2 0x1661 JUMP JUMPDEST SWAP2 POP PUSH32 0xFFFFFFFFFFFFFFFFFFFFFFFFFFFFFFFFFFFFFFFFFFFFFFFFFFFFFFFFFFFFFFFF DUP3 SUB PUSH2 0x2168 JUMPI PUSH2 0x2167 PUSH2 0x20FF JUMP JUMPDEST JUMPDEST PUSH1 0x1 DUP3 ADD SWAP1 POP SWAP2 SWAP1 POP JUMP JUMPDEST PUSH0 DUP2 SWAP1 POP DUP2 PUSH0 MSTORE PUSH1 0x20 PUSH0 KECCAK256 SWAP1 POP SWAP2 SWAP1 POP JUMP JUMPDEST PUSH0 PUSH1 0x20 PUSH1 0x1F DUP4 ADD DIV SWAP1 POP SWAP2 SWAP1 POP JUMP JUMPDEST PUSH0 DUP3 DUP3 SHL SWAP1 POP SWAP3 SWAP2 POP POP JUMP JUMPDEST PUSH0 PUSH1 0x8 DUP4 MUL PUSH2 0x21CF PUSH32 0xFFFFFFFFFFFFFFFFFFFFFFFFFFFFFFFFFFFFFFFFFFFFFFFFFFFFFFFFFFFFFFFF DUP3 PUSH2 0x2194 JUMP JUMPDEST PUSH2 0x21D9 DUP7 DUP4 PUSH2 0x2194 JUMP JUMPDEST SWAP6 POP DUP1 NOT DUP5 AND SWAP4 POP DUP1 DUP7 AND DUP5 OR SWAP3 POP POP POP SWAP4 SWAP3 POP POP POP JUMP JUMPDEST PUSH0 DUP2 SWAP1 POP SWAP2 SWAP1 POP JUMP JUMPDEST PUSH0 PUSH2 0x2214 PUSH2 0x220F PUSH2 0x220A DUP5 PUSH2 0x1661 JUMP JUMPDEST PUSH2 0x21F1 JUMP JUMPDEST PUSH2 0x1661 JUMP JUMPDEST SWAP1 POP SWAP2 SWAP1 POP JUMP JUMPDEST PUSH0 DUP2 SWAP1 POP SWAP2 SWAP1 POP JUMP JUMPDEST PUSH2 0x222D DUP4 PUSH2 0x21FA JUMP JUMPDEST PUSH2 0x2241 PUSH2 0x2239 DUP3 PUSH2 0x221B JUMP JUMPDEST DUP5 DUP5 SLOAD PUSH2 0x21A0 JUMP JUMPDEST DUP3 SSTORE POP POP POP POP JUMP JUMPDEST PUSH0 SWAP1 JUMP JUMPDEST PUSH2 0x2255 PUSH2 0x2249 JUMP JUMPDEST PUSH2 0x2260 DUP2 DUP5 DUP5 PUSH2 0x2224 JUMP JUMPDEST POP POP POP JUMP JUMPDEST JUMPDEST DUP2 DUP2 LT ISZERO PUSH2 0x2283 JUMPI PUSH2 0x2278 PUSH0 DUP3 PUSH2 0x224D JUMP JUMPDEST PUSH1 0x1 DUP2 ADD SWAP1 POP PUSH2 0x2266 JUMP JUMPDEST POP POP JUMP JUMPDEST PUSH1 0x1F DUP3 GT ISZERO PUSH2 0x22C8 JUMPI PUSH2 0x2299 DUP2 PUSH2 0x2173 JUMP JUMPDEST PUSH2 0x22A2 DUP5 PUSH2 0x2185 JUMP JUMPDEST DUP2 ADD PUSH1 0x20 DUP6 LT ISZERO PUSH2 0x22B1 JUMPI DUP2 SWAP1 POP JUMPDEST PUSH2 0x22C5 PUSH2 0x22BD DUP6 PUSH2 0x2185 JUMP JUMPDEST DUP4 ADD DUP3 PUSH2 0x2265 JUMP JUMPDEST POP POP JUMPDEST POP POP POP JUMP JUMPDEST PUSH0 DUP3 DUP3 SHR SWAP1 POP SWAP3 SWAP2 POP POP JUMP JUMPDEST PUSH0 PUSH2 0x22E8 PUSH0 NOT DUP5 PUSH1 0x8 MUL PUSH2 0x22CD JUMP JUMPDEST NOT DUP1 DUP4 AND SWAP2 POP POP SWAP3 SWAP2 POP POP JUMP JUMPDEST PUSH0 PUSH2 0x2300 DUP4 DUP4 PUSH2 0x22D9 JUMP JUMPDEST SWAP2 POP DUP3 PUSH1 0x2 MUL DUP3 OR SWAP1 POP SWAP3 SWAP2 POP POP JUMP JUMPDEST PUSH2 0x2319 DUP3 PUSH2 0x1A65 JUMP JUMPDEST PUSH8 0xFFFFFFFFFFFFFFFF DUP2 GT ISZERO PUSH2 0x2332 JUMPI PUSH2 0x2331 PUSH2 0x17C5 JUMP JUMPDEST JUMPDEST PUSH2 0x233C DUP3 SLOAD PUSH2 0x2054 JUMP JUMPDEST PUSH2 0x2347 DUP3 DUP3 DUP6 PUSH2 0x2287 JUMP JUMPDEST PUSH0 PUSH1 0x20 SWAP1 POP PUSH1 0x1F DUP4 GT PUSH1 0x1 DUP2 EQ PUSH2 0x2378 JUMPI PUSH0 DUP5 ISZERO PUSH2 0x2366 JUMPI DUP3 DUP8 ADD MLOAD SWAP1 POP JUMPDEST PUSH2 0x2370 DUP6 DUP3 PUSH2 0x22F5 JUMP JUMPDEST DUP7 SSTORE POP PUSH2 0x23D7 JUMP JUMPDEST PUSH1 0x1F NOT DUP5 AND PUSH2 0x2386 DUP7 PUSH2 0x2173 JUMP JUMPDEST PUSH0 JUMPDEST DUP3 DUP2 LT ISZERO PUSH2 0x23AD JUMPI DUP5 DUP10 ADD MLOAD DUP3 SSTORE PUSH1 0x1 DUP3 ADD SWAP2 POP PUSH1 0x20 DUP6 ADD SWAP5 POP PUSH1 0x20 DUP2 ADD SWAP1 POP PUSH2 0x2388 JUMP JUMPDEST DUP7 DUP4 LT ISZERO PUSH2 0x23CA JUMPI DUP5 DUP10 ADD MLOAD PUSH2 0x23C6 PUSH1 0x1F DUP10 AND DUP3 PUSH2 0x22D9 JUMP JUMPDEST DUP4 SSTORE POP JUMPDEST PUSH1 0x1 PUSH1 0x2 DUP9 MUL ADD DUP9 SSTORE POP POP POP JUMPDEST POP POP POP POP POP POP JUMP JUMPDEST PUSH0 PUSH1 0x80 DUP3 ADD SWAP1 POP PUSH2 0x23F2 PUSH0 DUP4 ADD DUP8 PUSH2 0x1E9B JUMP JUMPDEST PUSH2 0x23FF PUSH1 0x20 DUP4 ADD DUP7 PUSH2 0x16D2 JUMP JUMPDEST PUSH2 0x240C PUSH1 0x40 DUP4 ADD DUP6 PUSH2 0x16D2 JUMP JUMPDEST PUSH2 0x2419 PUSH1 0x60 DUP4 ADD DUP5 PUSH2 0x16D2 JUMP JUMPDEST SWAP6 SWAP5 POP POP POP POP POP JUMP JUMPDEST PUSH0 PUSH2 0x242C DUP3 PUSH2 0x1661 JUMP JUMPDEST SWAP2 POP PUSH2 0x2437 DUP4 PUSH2 0x1661 JUMP JUMPDEST SWAP3 POP DUP3 DUP3 ADD SWAP1 POP DUP1 DUP3 GT ISZERO PUSH2 0x244F JUMPI PUSH2 0x244E PUSH2 0x20FF JUMP JUMPDEST JUMPDEST SWAP3 SWAP2 POP POP JUMP JUMPDEST PUSH0 PUSH1 0x40 DUP3 ADD SWAP1 POP DUP2 DUP2 SUB PUSH0 DUP4 ADD MSTORE PUSH2 0x246D DUP2 DUP6 PUSH2 0x1E1F JUMP JUMPDEST SWAP1 POP DUP2 DUP2 SUB PUSH1 0x20 DUP4 ADD MSTORE PUSH2 0x2481 DUP2 DUP5 PUSH2 0x1E1F JUMP JUMPDEST SWAP1 POP SWAP4 SWAP3 POP POP POP JUMP JUMPDEST PUSH0 DUP2 MLOAD SWAP1 POP SWAP2 SWAP1 POP JUMP JUMPDEST PUSH0 DUP3 DUP3 MSTORE PUSH1 0x20 DUP3 ADD SWAP1 POP SWAP3 SWAP2 POP POP JUMP JUMPDEST PUSH0 PUSH2 0x24AE DUP3 PUSH2 0x248A JUMP JUMPDEST PUSH2 0x24B8 DUP2 DUP6 PUSH2 0x2494 JUMP JUMPDEST SWAP4 POP PUSH2 0x24C8 DUP2 DUP6 PUSH1 0x20 DUP7 ADD PUSH2 0x1A7F JUMP JUMPDEST PUSH2 0x24D1 DUP2 PUSH2 0x17B5 JUMP JUMPDEST DUP5 ADD SWAP2 POP POP SWAP3 SWAP2 POP POP JUMP JUMPDEST PUSH0 PUSH1 0xA0 DUP3 ADD SWAP1 POP PUSH2 0x24EF PUSH0 DUP4 ADD DUP9 PUSH2 0x1E9B JUMP JUMPDEST PUSH2 0x24FC PUSH1 0x20 DUP4 ADD DUP8 PUSH2 0x1E9B JUMP JUMPDEST PUSH2 0x2509 PUSH1 0x40 DUP4 ADD DUP7 PUSH2 0x16D2 JUMP JUMPDEST PUSH2 0x2516 PUSH1 0x60 DUP4 ADD DUP6 PUSH2 0x16D2 JUMP JUMPDEST DUP2 DUP2 SUB PUSH1 0x80 DUP4 ADD MSTORE PUSH2 0x2528 DUP2 DUP5 PUSH2 0x24A4 JUMP JUMPDEST SWAP1 POP SWAP7 SWAP6 POP POP POP POP POP POP JUMP JUMPDEST PUSH0 DUP2 MLOAD SWAP1 POP PUSH2 0x2542 DUP2 PUSH2 0x1725 JUMP JUMPDEST SWAP3 SWAP2 POP POP JUMP JUMPDEST PUSH0 PUSH1 0x20 DUP3 DUP5 SUB SLT ISZERO PUSH2 0x255D JUMPI PUSH2 0x255C PUSH2 0x15FF JUMP JUMPDEST JUMPDEST PUSH0 PUSH2 0x256A DUP5 DUP3 DUP6 ADD PUSH2 0x2534 JUMP JUMPDEST SWAP2 POP POP SWAP3 SWAP2 POP POP JUMP JUMPDEST PUSH0 PUSH1 0xA0 DUP3 ADD SWAP1 POP PUSH2 0x2586 PUSH0 DUP4 ADD DUP9 PUSH2 0x1E9B JUMP JUMPDEST PUSH2 0x2593 PUSH1 0x20 DUP4 ADD DUP8 PUSH2 0x1E9B JUMP JUMPDEST DUP2 DUP2 SUB PUSH1 0x40 DUP4 ADD MSTORE PUSH2 0x25A5 DUP2 DUP7 PUSH2 0x1E1F JUMP JUMPDEST SWAP1 POP DUP2 DUP2 SUB PUSH1 0x60 DUP4 ADD MSTORE PUSH2 0x25B9 DUP2 DUP6 PUSH2 0x1E1F JUMP JUMPDEST SWAP1 POP DUP2 DUP2 SUB PUSH1 0x80 DUP4 ADD MSTORE PUSH2 0x25CD DUP2 DUP5 PUSH2 0x24A4 JUMP JUMPDEST SWAP1 POP SWAP7 SWAP6 POP POP POP POP POP POP JUMP INVALID LOG2 PUSH5 0x6970667358 0x22 SLT KECCAK256 NUMBER EXTCODECOPY PUSH1 0xA 0xDE DUP1 SWAP7 SGT RETURNDATASIZE SWAP12 DUP13 0xEB SWAP4 0x26 CHAINID PUSH3 0x87C759 0xEE 0xEA 0xBA 0x4C 0xC2 0x5D ADD 0xB6 0xB0 0xB5 0xE0 MSIZE 0xC0 PUSH5 0x736F6C6343 STOP ADDMOD EQ STOP CALLER "
				},
				"gasEstimates": {
					"creation": {
						"codeDepositCost": "1948600",
						"executionCost": "infinite",
						"totalCost": "infinite"
					},
					"external": {
						"balanceOf(address,uint256)": "infinite",
						"balanceOfBatch(address[],uint256[])": "infinite",
						"isApprovedForAll(address,address)": "infinite",
						"mint(uint256,uint256,bytes)": "infinite",
						"owner()": "2582",
						"renounceOwnership()": "infinite",
						"safeBatchTransferFrom(address,address,uint256[],uint256[],bytes)": "infinite",
						"safeTransferFrom(address,address,uint256,uint256,bytes)": "infinite",
						"setApprovalForAll(address,bool)": "infinite",
						"setURI(string)": "infinite",
						"supportsInterface(bytes4)": "786",
						"transferOwnership(address)": "infinite",
						"uri(uint256)": "infinite"
					}
				},
				"methodIdentifiers": {
					"balanceOf(address,uint256)": "00fdd58e",
					"balanceOfBatch(address[],uint256[])": "4e1273f4",
					"isApprovedForAll(address,address)": "e985e9c5",
					"mint(uint256,uint256,bytes)": "08dc9f42",
					"owner()": "8da5cb5b",
					"renounceOwnership()": "715018a6",
					"safeBatchTransferFrom(address,address,uint256[],uint256[],bytes)": "2eb2c2d6",
					"safeTransferFrom(address,address,uint256,uint256,bytes)": "f242432a",
					"setApprovalForAll(address,bool)": "a22cb465",
					"setURI(string)": "02fe5305",
					"supportsInterface(bytes4)": "01ffc9a7",
					"transferOwnership(address)": "f2fde38b",
					"uri(uint256)": "0e89341c"
				}
			},
			"storageLayout": {
				"storage": [
					{
						"astId": 326,
						"contract": "contracts/my_contract_calyptus/ERC1155Token.sol:MyCollection",
						"label": "_balances",
						"offset": 0,
						"slot": "0",
						"type": "t_mapping(t_uint256,t_mapping(t_address,t_uint256))"
					},
					{
						"astId": 332,
						"contract": "contracts/my_contract_calyptus/ERC1155Token.sol:MyCollection",
						"label": "_operatorApprovals",
						"offset": 0,
						"slot": "1",
						"type": "t_mapping(t_address,t_mapping(t_address,t_bool))"
					},
					{
						"astId": 334,
						"contract": "contracts/my_contract_calyptus/ERC1155Token.sol:MyCollection",
						"label": "_uri",
						"offset": 0,
						"slot": "2",
						"type": "t_string_storage"
					},
					{
						"astId": 8,
						"contract": "contracts/my_contract_calyptus/ERC1155Token.sol:MyCollection",
						"label": "_owner",
						"offset": 0,
						"slot": "3",
						"type": "t_address"
					}
				],
				"types": {
					"t_address": {
						"encoding": "inplace",
						"label": "address",
						"numberOfBytes": "20"
					},
					"t_bool": {
						"encoding": "inplace",
						"label": "bool",
						"numberOfBytes": "1"
					},
					"t_mapping(t_address,t_bool)": {
						"encoding": "mapping",
						"key": "t_address",
						"label": "mapping(address => bool)",
						"numberOfBytes": "32",
						"value": "t_bool"
					},
					"t_mapping(t_address,t_mapping(t_address,t_bool))": {
						"encoding": "mapping",
						"key": "t_address",
						"label": "mapping(address => mapping(address => bool))",
						"numberOfBytes": "32",
						"value": "t_mapping(t_address,t_bool)"
					},
					"t_mapping(t_address,t_uint256)": {
						"encoding": "mapping",
						"key": "t_address",
						"label": "mapping(address => uint256)",
						"numberOfBytes": "32",
						"value": "t_uint256"
					},
					"t_mapping(t_uint256,t_mapping(t_address,t_uint256))": {
						"encoding": "mapping",
						"key": "t_uint256",
						"label": "mapping(uint256 => mapping(address => uint256))",
						"numberOfBytes": "32",
						"value": "t_mapping(t_address,t_uint256)"
					},
					"t_string_storage": {
						"encoding": "bytes",
						"label": "string",
						"numberOfBytes": "32"
					},
					"t_uint256": {
						"encoding": "inplace",
						"label": "uint256",
						"numberOfBytes": "32"
					}
				}
			},
			"userdoc": {
				"kind": "user",
				"methods": {},
				"version": 1
			}
		}
	}
}