{
	"contracts/my_contract_calyptus/Example.sol": {
		"Example": {
			"abi": [
				{
					"inputs": [],
					"name": "decrement",
					"outputs": [],
					"stateMutability": "nonpayable",
					"type": "function"
				},
				{
					"inputs": [],
					"name": "increment",
					"outputs": [],
					"stateMutability": "nonpayable",
					"type": "function"
				},
				{
					"inputs": [],
					"name": "variable",
					"outputs": [
						{
							"internalType": "uint8",
							"name": "",
							"type": "uint8"
						}
					],
					"stateMutability": "view",
					"type": "function"
				}
			],
			"devdoc": {
				"kind": "dev",
				"methods": {},
				"version": 1
			},
			"evm": {
				"assembly": "    /* \"contracts/my_contract_calyptus/Example.sol\":56:225  contract Example {... */\n  mstore(0x40, 0x80)\n  callvalue\n  dup1\n  iszero\n  tag_1\n  jumpi\n  0x00\n  dup1\n  revert\ntag_1:\n  pop\n  dataSize(sub_0)\n  dup1\n  dataOffset(sub_0)\n  0x00\n  codecopy\n  0x00\n  return\nstop\n\nsub_0: assembly {\n        /* \"contracts/my_contract_calyptus/Example.sol\":56:225  contract Example {... */\n      mstore(0x40, 0x80)\n      callvalue\n      dup1\n      iszero\n      tag_1\n      jumpi\n      0x00\n      dup1\n      revert\n    tag_1:\n      pop\n      jumpi(tag_2, lt(calldatasize, 0x04))\n      shr(0xe0, calldataload(0x00))\n      dup1\n      0x2baeceb7\n      eq\n      tag_3\n      jumpi\n      dup1\n      0xb6854a21\n      eq\n      tag_4\n      jumpi\n      dup1\n      0xd09de08a\n      eq\n      tag_5\n      jumpi\n    tag_2:\n      0x00\n      dup1\n      revert\n        /* \"contracts/my_contract_calyptus/Example.sol\":107:162  function decrement() public {... */\n    tag_3:\n      tag_6\n      tag_7\n      jump\t// in\n    tag_6:\n      stop\n        /* \"contracts/my_contract_calyptus/Example.sol\":79:100  uint8 public variable */\n    tag_4:\n      tag_8\n      tag_9\n      jump\t// in\n    tag_8:\n      mload(0x40)\n      tag_10\n      swap2\n      swap1\n      tag_11\n      jump\t// in\n    tag_10:\n      mload(0x40)\n      dup1\n      swap2\n      sub\n      swap1\n      return\n        /* \"contracts/my_contract_calyptus/Example.sol\":168:223  function increment() public {... */\n    tag_5:\n      tag_12\n      tag_13\n      jump\t// in\n    tag_12:\n      stop\n        /* \"contracts/my_contract_calyptus/Example.sol\":107:162  function decrement() public {... */\n    tag_7:\n        /* \"contracts/my_contract_calyptus/Example.sol\":145:153  variable */\n      0x00\n      dup1\n        /* \"contracts/my_contract_calyptus/Example.sol\":145:155  variable-- */\n      dup2\n      dup2\n      swap1\n      sload\n      swap1\n      0x0100\n      exp\n      swap1\n      div\n      0xff\n      and\n      dup1\n      swap3\n      swap2\n      swap1\n      tag_15\n      swap1\n      tag_16\n      jump\t// in\n    tag_15:\n      swap2\n      swap1\n      0x0100\n      exp\n      dup2\n      sload\n      dup2\n      0xff\n      mul\n      not\n      and\n      swap1\n      dup4\n      0xff\n      and\n      mul\n      or\n      swap1\n      sstore\n      pop\n      pop\n        /* \"contracts/my_contract_calyptus/Example.sol\":107:162  function decrement() public {... */\n      jump\t// out\n        /* \"contracts/my_contract_calyptus/Example.sol\":79:100  uint8 public variable */\n    tag_9:\n      0x00\n      dup1\n      sload\n      swap1\n      0x0100\n      exp\n      swap1\n      div\n      0xff\n      and\n      dup2\n      jump\t// out\n        /* \"contracts/my_contract_calyptus/Example.sol\":168:223  function increment() public {... */\n    tag_13:\n        /* \"contracts/my_contract_calyptus/Example.sol\":206:214  variable */\n      0x00\n      dup1\n        /* \"contracts/my_contract_calyptus/Example.sol\":206:216  variable++ */\n      dup2\n      dup2\n      swap1\n      sload\n      swap1\n      0x0100\n      exp\n      swap1\n      div\n      0xff\n      and\n      dup1\n      swap3\n      swap2\n      swap1\n      tag_18\n      swap1\n      tag_19\n      jump\t// in\n    tag_18:\n      swap2\n      swap1\n      0x0100\n      exp\n      dup2\n      sload\n      dup2\n      0xff\n      mul\n      not\n      and\n      swap1\n      dup4\n      0xff\n      and\n      mul\n      or\n      swap1\n      sstore\n      pop\n      pop\n        /* \"contracts/my_contract_calyptus/Example.sol\":168:223  function increment() public {... */\n      jump\t// out\n        /* \"#utility.yul\":7:119   */\n    tag_21:\n        /* \"#utility.yul\":90:112   */\n      tag_23\n        /* \"#utility.yul\":106:111   */\n      dup2\n        /* \"#utility.yul\":90:112   */\n      tag_24\n      jump\t// in\n    tag_23:\n        /* \"#utility.yul\":85:88   */\n      dup3\n        /* \"#utility.yul\":78:113   */\n      mstore\n        /* \"#utility.yul\":68:119   */\n      pop\n      pop\n      jump\t// out\n        /* \"#utility.yul\":125:339   */\n    tag_11:\n      0x00\n        /* \"#utility.yul\":252:254   */\n      0x20\n        /* \"#utility.yul\":241:250   */\n      dup3\n        /* \"#utility.yul\":237:255   */\n      add\n        /* \"#utility.yul\":229:255   */\n      swap1\n      pop\n        /* \"#utility.yul\":265:332   */\n      tag_26\n        /* \"#utility.yul\":329:330   */\n      0x00\n        /* \"#utility.yul\":318:327   */\n      dup4\n        /* \"#utility.yul\":314:331   */\n      add\n        /* \"#utility.yul\":305:311   */\n      dup5\n        /* \"#utility.yul\":265:332   */\n      tag_21\n      jump\t// in\n    tag_26:\n        /* \"#utility.yul\":219:339   */\n      swap3\n      swap2\n      pop\n      pop\n      jump\t// out\n        /* \"#utility.yul\":345:431   */\n    tag_24:\n      0x00\n        /* \"#utility.yul\":420:424   */\n      0xff\n        /* \"#utility.yul\":413:418   */\n      dup3\n        /* \"#utility.yul\":409:425   */\n      and\n        /* \"#utility.yul\":398:425   */\n      swap1\n      pop\n        /* \"#utility.yul\":388:431   */\n      swap2\n      swap1\n      pop\n      jump\t// out\n        /* \"#utility.yul\":437:604   */\n    tag_16:\n      0x00\n        /* \"#utility.yul\":497:519   */\n      tag_29\n        /* \"#utility.yul\":513:518   */\n      dup3\n        /* \"#utility.yul\":497:519   */\n      tag_24\n      jump\t// in\n    tag_29:\n        /* \"#utility.yul\":488:519   */\n      swap2\n      pop\n        /* \"#utility.yul\":541:545   */\n      0x00\n        /* \"#utility.yul\":534:539   */\n      dup3\n        /* \"#utility.yul\":531:546   */\n      eq\n        /* \"#utility.yul\":528:530   */\n      iszero\n      tag_30\n      jumpi\n        /* \"#utility.yul\":549:567   */\n      tag_31\n      tag_32\n      jump\t// in\n    tag_31:\n        /* \"#utility.yul\":528:530   */\n    tag_30:\n        /* \"#utility.yul\":596:597   */\n      0x01\n        /* \"#utility.yul\":589:594   */\n      dup3\n        /* \"#utility.yul\":585:598   */\n      sub\n        /* \"#utility.yul\":578:598   */\n      swap1\n      pop\n        /* \"#utility.yul\":478:604   */\n      swap2\n      swap1\n      pop\n      jump\t// out\n        /* \"#utility.yul\":610:777   */\n    tag_19:\n      0x00\n        /* \"#utility.yul\":670:692   */\n      tag_34\n        /* \"#utility.yul\":686:691   */\n      dup3\n        /* \"#utility.yul\":670:692   */\n      tag_24\n      jump\t// in\n    tag_34:\n        /* \"#utility.yul\":661:692   */\n      swap2\n      pop\n        /* \"#utility.yul\":714:718   */\n      0xff\n        /* \"#utility.yul\":707:712   */\n      dup3\n        /* \"#utility.yul\":704:719   */\n      eq\n        /* \"#utility.yul\":701:703   */\n      iszero\n      tag_35\n      jumpi\n        /* \"#utility.yul\":722:740   */\n      tag_36\n      tag_32\n      jump\t// in\n    tag_36:\n        /* \"#utility.yul\":701:703   */\n    tag_35:\n        /* \"#utility.yul\":769:770   */\n      0x01\n        /* \"#utility.yul\":762:767   */\n      dup3\n        /* \"#utility.yul\":758:771   */\n      add\n        /* \"#utility.yul\":751:771   */\n      swap1\n      pop\n        /* \"#utility.yul\":651:777   */\n      swap2\n      swap1\n      pop\n      jump\t// out\n        /* \"#utility.yul\":783:963   */\n    tag_32:\n        /* \"#utility.yul\":831:908   */\n      0x4e487b7100000000000000000000000000000000000000000000000000000000\n        /* \"#utility.yul\":828:829   */\n      0x00\n        /* \"#utility.yul\":821:909   */\n      mstore\n        /* \"#utility.yul\":928:932   */\n      0x11\n        /* \"#utility.yul\":925:926   */\n      0x04\n        /* \"#utility.yul\":918:933   */\n      mstore\n        /* \"#utility.yul\":952:956   */\n      0x24\n        /* \"#utility.yul\":949:950   */\n      0x00\n        /* \"#utility.yul\":942:957   */\n      revert\n\n    auxdata: 0xa26469706673582212204687d61df09d1162f2e3ec8d38b567e541dab32270b3b544baf63a245183298664736f6c63430008000033\n}\n",
				"bytecode": {
					"linkReferences": {},
					"object": "608060405234801561001057600080fd5b506101eb806100206000396000f3fe608060405234801561001057600080fd5b50600436106100415760003560e01c80632baeceb714610046578063b6854a2114610050578063d09de08a1461006e575b600080fd5b61004e610078565b005b6100586100b1565b604051610065919061010a565b60405180910390f35b6100766100c2565b005b60008081819054906101000a900460ff168092919061009690610132565b91906101000a81548160ff021916908360ff16021790555050565b60008054906101000a900460ff1681565b60008081819054906101000a900460ff16809291906100e09061015c565b91906101000a81548160ff021916908360ff16021790555050565b61010481610125565b82525050565b600060208201905061011f60008301846100fb565b92915050565b600060ff82169050919050565b600061013d82610125565b9150600082141561015157610150610186565b5b600182039050919050565b600061016782610125565b915060ff82141561017b5761017a610186565b5b600182019050919050565b7f4e487b7100000000000000000000000000000000000000000000000000000000600052601160045260246000fdfea26469706673582212204687d61df09d1162f2e3ec8d38b567e541dab32270b3b544baf63a245183298664736f6c63430008000033",
					"opcodes": "PUSH1 0x80 PUSH1 0x40 MSTORE CALLVALUE DUP1 ISZERO PUSH2 0x10 JUMPI PUSH1 0x0 DUP1 REVERT JUMPDEST POP PUSH2 0x1EB DUP1 PUSH2 0x20 PUSH1 0x0 CODECOPY PUSH1 0x0 RETURN INVALID PUSH1 0x80 PUSH1 0x40 MSTORE CALLVALUE DUP1 ISZERO PUSH2 0x10 JUMPI PUSH1 0x0 DUP1 REVERT JUMPDEST POP PUSH1 0x4 CALLDATASIZE LT PUSH2 0x41 JUMPI PUSH1 0x0 CALLDATALOAD PUSH1 0xE0 SHR DUP1 PUSH4 0x2BAECEB7 EQ PUSH2 0x46 JUMPI DUP1 PUSH4 0xB6854A21 EQ PUSH2 0x50 JUMPI DUP1 PUSH4 0xD09DE08A EQ PUSH2 0x6E JUMPI JUMPDEST PUSH1 0x0 DUP1 REVERT JUMPDEST PUSH2 0x4E PUSH2 0x78 JUMP JUMPDEST STOP JUMPDEST PUSH2 0x58 PUSH2 0xB1 JUMP JUMPDEST PUSH1 0x40 MLOAD PUSH2 0x65 SWAP2 SWAP1 PUSH2 0x10A JUMP JUMPDEST PUSH1 0x40 MLOAD DUP1 SWAP2 SUB SWAP1 RETURN JUMPDEST PUSH2 0x76 PUSH2 0xC2 JUMP JUMPDEST STOP JUMPDEST PUSH1 0x0 DUP1 DUP2 DUP2 SWAP1 SLOAD SWAP1 PUSH2 0x100 EXP SWAP1 DIV PUSH1 0xFF AND DUP1 SWAP3 SWAP2 SWAP1 PUSH2 0x96 SWAP1 PUSH2 0x132 JUMP JUMPDEST SWAP2 SWAP1 PUSH2 0x100 EXP DUP2 SLOAD DUP2 PUSH1 0xFF MUL NOT AND SWAP1 DUP4 PUSH1 0xFF AND MUL OR SWAP1 SSTORE POP POP JUMP JUMPDEST PUSH1 0x0 DUP1 SLOAD SWAP1 PUSH2 0x100 EXP SWAP1 DIV PUSH1 0xFF AND DUP2 JUMP JUMPDEST PUSH1 0x0 DUP1 DUP2 DUP2 SWAP1 SLOAD SWAP1 PUSH2 0x100 EXP SWAP1 DIV PUSH1 0xFF AND DUP1 SWAP3 SWAP2 SWAP1 PUSH2 0xE0 SWAP1 PUSH2 0x15C JUMP JUMPDEST SWAP2 SWAP1 PUSH2 0x100 EXP DUP2 SLOAD DUP2 PUSH1 0xFF MUL NOT AND SWAP1 DUP4 PUSH1 0xFF AND MUL OR SWAP1 SSTORE POP POP JUMP JUMPDEST PUSH2 0x104 DUP2 PUSH2 0x125 JUMP JUMPDEST DUP3 MSTORE POP POP JUMP JUMPDEST PUSH1 0x0 PUSH1 0x20 DUP3 ADD SWAP1 POP PUSH2 0x11F PUSH1 0x0 DUP4 ADD DUP5 PUSH2 0xFB JUMP JUMPDEST SWAP3 SWAP2 POP POP JUMP JUMPDEST PUSH1 0x0 PUSH1 0xFF DUP3 AND SWAP1 POP SWAP2 SWAP1 POP JUMP JUMPDEST PUSH1 0x0 PUSH2 0x13D DUP3 PUSH2 0x125 JUMP JUMPDEST SWAP2 POP PUSH1 0x0 DUP3 EQ ISZERO PUSH2 0x151 JUMPI PUSH2 0x150 PUSH2 0x186 JUMP JUMPDEST JUMPDEST PUSH1 0x1 DUP3 SUB SWAP1 POP SWAP2 SWAP1 POP JUMP JUMPDEST PUSH1 0x0 PUSH2 0x167 DUP3 PUSH2 0x125 JUMP JUMPDEST SWAP2 POP PUSH1 0xFF DUP3 EQ ISZERO PUSH2 0x17B JUMPI PUSH2 0x17A PUSH2 0x186 JUMP JUMPDEST JUMPDEST PUSH1 0x1 DUP3 ADD SWAP1 POP SWAP2 SWAP1 POP JUMP JUMPDEST PUSH32 0x4E487B7100000000000000000000000000000000000000000000000000000000 PUSH1 0x0 MSTORE PUSH1 0x11 PUSH1 0x4 MSTORE PUSH1 0x24 PUSH1 0x0 REVERT INVALID LOG2 PUSH5 0x6970667358 0x22 SLT KECCAK256 CHAINID DUP8 0xD6 SAR CREATE SWAP14 GT PUSH3 0xF2E3EC DUP14 CODESIZE 0xB5 PUSH8 0xE541DAB32270B3B5 DIFFICULTY 0xBA 0xF6 GASPRICE 0x24 MLOAD DUP4 0x29 DUP7 PUSH5 0x736F6C6343 STOP ADDMOD STOP STOP CALLER "
				},
				"gasEstimates": {
					"creation": {
						"codeDepositCost": "98200",
						"executionCost": "147",
						"totalCost": "98347"
					},
					"external": {
						"decrement()": "21980",
						"increment()": "22024",
						"variable()": "1168"
					}
				},
				"methodIdentifiers": {
					"decrement()": "2baeceb7",
					"increment()": "d09de08a",
					"variable()": "b6854a21"
				}
			},
			"storageLayout": {
				"storage": [
					{
						"astId": 3,
						"contract": "contracts/my_contract_calyptus/Example.sol:Example",
						"label": "variable",
						"offset": 0,
						"slot": "0",
						"type": "t_uint8"
					}
				],
				"types": {
					"t_uint8": {
						"encoding": "inplace",
						"label": "uint8",
						"numberOfBytes": "1"
					}
				}
			},
			"userdoc": {
				"kind": "user",
				"methods": {},
				"version": 1
			}
		}
	}
}