{
	"contracts/my_contract_calyptus/SepoliaTestnet.sol": {
		"Counter": {
			"abi": [
				{
					"inputs": [],
					"stateMutability": "nonpayable",
					"type": "constructor"
				},
				{
					"inputs": [],
					"name": "decrement",
					"outputs": [],
					"stateMutability": "nonpayable",
					"type": "function"
				},
				{
					"inputs": [],
					"name": "increment",
					"outputs": [],
					"stateMutability": "nonpayable",
					"type": "function"
				},
				{
					"inputs": [],
					"name": "variable",
					"outputs": [
						{
							"internalType": "uint8",
							"name": "",
							"type": "uint8"
						}
					],
					"stateMutability": "view",
					"type": "function"
				}
			],
			"devdoc": {
				"kind": "dev",
				"methods": {},
				"version": 1
			},
			"evm": {
				"assembly": "    /* \"contracts/my_contract_calyptus/SepoliaTestnet.sol\":60:267  contract Counter {... */\n  mstore(0x40, 0x80)\n    /* \"contracts/my_contract_calyptus/SepoliaTestnet.sol\":110:151  constructor() {... */\n  callvalue\n  dup1\n  iszero\n  tag_1\n  jumpi\n  0x00\n  dup1\n  revert\ntag_1:\n  pop\n    /* \"contracts/my_contract_calyptus/SepoliaTestnet.sol\":144:145  5 */\n  0x05\n    /* \"contracts/my_contract_calyptus/SepoliaTestnet.sol\":133:141  variable */\n  0x00\n  dup1\n    /* \"contracts/my_contract_calyptus/SepoliaTestnet.sol\":133:145  variable = 5 */\n  0x0100\n  exp\n  dup2\n  sload\n  dup2\n  0xff\n  mul\n  not\n  and\n  swap1\n  dup4\n  0xff\n  and\n  mul\n  or\n  swap1\n  sstore\n  pop\n    /* \"contracts/my_contract_calyptus/SepoliaTestnet.sol\":60:267  contract Counter {... */\n  dataSize(sub_0)\n  dup1\n  dataOffset(sub_0)\n  0x00\n  codecopy\n  0x00\n  return\nstop\n\nsub_0: assembly {\n        /* \"contracts/my_contract_calyptus/SepoliaTestnet.sol\":60:267  contract Counter {... */\n      mstore(0x40, 0x80)\n      callvalue\n      dup1\n      iszero\n      tag_1\n      jumpi\n      0x00\n      dup1\n      revert\n    tag_1:\n      pop\n      jumpi(tag_2, lt(calldatasize, 0x04))\n      shr(0xe0, calldataload(0x00))\n      dup1\n      0x2baeceb7\n      eq\n      tag_3\n      jumpi\n      dup1\n      0xb6854a21\n      eq\n      tag_4\n      jumpi\n      dup1\n      0xd09de08a\n      eq\n      tag_5\n      jumpi\n    tag_2:\n      0x00\n      dup1\n      revert\n        /* \"contracts/my_contract_calyptus/SepoliaTestnet.sol\":155:208  function decrement() public {... */\n    tag_3:\n      tag_6\n      tag_7\n      jump\t// in\n    tag_6:\n      stop\n        /* \"contracts/my_contract_calyptus/SepoliaTestnet.sol\":82:103  uint8 public variable */\n    tag_4:\n      tag_8\n      tag_9\n      jump\t// in\n    tag_8:\n      mload(0x40)\n      tag_10\n      swap2\n      swap1\n      tag_11\n      jump\t// in\n    tag_10:\n      mload(0x40)\n      dup1\n      swap2\n      sub\n      swap1\n      return\n        /* \"contracts/my_contract_calyptus/SepoliaTestnet.sol\":212:265  function increment() public {... */\n    tag_5:\n      tag_12\n      tag_13\n      jump\t// in\n    tag_12:\n      stop\n        /* \"contracts/my_contract_calyptus/SepoliaTestnet.sol\":155:208  function decrement() public {... */\n    tag_7:\n        /* \"contracts/my_contract_calyptus/SepoliaTestnet.sol\":192:200  variable */\n      0x00\n      dup1\n        /* \"contracts/my_contract_calyptus/SepoliaTestnet.sol\":192:202  variable-- */\n      dup2\n      dup2\n      swap1\n      sload\n      swap1\n      0x0100\n      exp\n      swap1\n      div\n      0xff\n      and\n      dup1\n      swap3\n      swap2\n      swap1\n      tag_15\n      swap1\n      tag_16\n      jump\t// in\n    tag_15:\n      swap2\n      swap1\n      0x0100\n      exp\n      dup2\n      sload\n      dup2\n      0xff\n      mul\n      not\n      and\n      swap1\n      dup4\n      0xff\n      and\n      mul\n      or\n      swap1\n      sstore\n      pop\n      pop\n        /* \"contracts/my_contract_calyptus/SepoliaTestnet.sol\":155:208  function decrement() public {... */\n      jump\t// out\n        /* \"contracts/my_contract_calyptus/SepoliaTestnet.sol\":82:103  uint8 public variable */\n    tag_9:\n      0x00\n      dup1\n      sload\n      swap1\n      0x0100\n      exp\n      swap1\n      div\n      0xff\n      and\n      dup2\n      jump\t// out\n        /* \"contracts/my_contract_calyptus/SepoliaTestnet.sol\":212:265  function increment() public {... */\n    tag_13:\n        /* \"contracts/my_contract_calyptus/SepoliaTestnet.sol\":249:257  variable */\n      0x00\n      dup1\n        /* \"contracts/my_contract_calyptus/SepoliaTestnet.sol\":249:259  variable++ */\n      dup2\n      dup2\n      swap1\n      sload\n      swap1\n      0x0100\n      exp\n      swap1\n      div\n      0xff\n      and\n      dup1\n      swap3\n      swap2\n      swap1\n      tag_18\n      swap1\n      tag_19\n      jump\t// in\n    tag_18:\n      swap2\n      swap1\n      0x0100\n      exp\n      dup2\n      sload\n      dup2\n      0xff\n      mul\n      not\n      and\n      swap1\n      dup4\n      0xff\n      and\n      mul\n      or\n      swap1\n      sstore\n      pop\n      pop\n        /* \"contracts/my_contract_calyptus/SepoliaTestnet.sol\":212:265  function increment() public {... */\n      jump\t// out\n        /* \"#utility.yul\":7:93   */\n    tag_20:\n        /* \"#utility.yul\":42:49   */\n      0x00\n        /* \"#utility.yul\":82:86   */\n      0xff\n        /* \"#utility.yul\":75:80   */\n      dup3\n        /* \"#utility.yul\":71:87   */\n      and\n        /* \"#utility.yul\":60:87   */\n      swap1\n      pop\n        /* \"#utility.yul\":7:93   */\n      swap2\n      swap1\n      pop\n      jump\t// out\n        /* \"#utility.yul\":99:211   */\n    tag_21:\n        /* \"#utility.yul\":182:204   */\n      tag_26\n        /* \"#utility.yul\":198:203   */\n      dup2\n        /* \"#utility.yul\":182:204   */\n      tag_20\n      jump\t// in\n    tag_26:\n        /* \"#utility.yul\":177:180   */\n      dup3\n        /* \"#utility.yul\":170:205   */\n      mstore\n        /* \"#utility.yul\":99:211   */\n      pop\n      pop\n      jump\t// out\n        /* \"#utility.yul\":217:431   */\n    tag_11:\n        /* \"#utility.yul\":306:310   */\n      0x00\n        /* \"#utility.yul\":344:346   */\n      0x20\n        /* \"#utility.yul\":333:342   */\n      dup3\n        /* \"#utility.yul\":329:347   */\n      add\n        /* \"#utility.yul\":321:347   */\n      swap1\n      pop\n        /* \"#utility.yul\":357:424   */\n      tag_28\n        /* \"#utility.yul\":421:422   */\n      0x00\n        /* \"#utility.yul\":410:419   */\n      dup4\n        /* \"#utility.yul\":406:423   */\n      add\n        /* \"#utility.yul\":397:403   */\n      dup5\n        /* \"#utility.yul\":357:424   */\n      tag_21\n      jump\t// in\n    tag_28:\n        /* \"#utility.yul\":217:431   */\n      swap3\n      swap2\n      pop\n      pop\n      jump\t// out\n        /* \"#utility.yul\":437:617   */\n    tag_22:\n        /* \"#utility.yul\":485:562   */\n      0x4e487b7100000000000000000000000000000000000000000000000000000000\n        /* \"#utility.yul\":482:483   */\n      0x00\n        /* \"#utility.yul\":475:563   */\n      mstore\n        /* \"#utility.yul\":582:586   */\n      0x11\n        /* \"#utility.yul\":579:580   */\n      0x04\n        /* \"#utility.yul\":572:587   */\n      mstore\n        /* \"#utility.yul\":606:610   */\n      0x24\n        /* \"#utility.yul\":603:604   */\n      0x00\n        /* \"#utility.yul\":596:611   */\n      revert\n        /* \"#utility.yul\":623:790   */\n    tag_16:\n        /* \"#utility.yul\":660:663   */\n      0x00\n        /* \"#utility.yul\":683:705   */\n      tag_31\n        /* \"#utility.yul\":699:704   */\n      dup3\n        /* \"#utility.yul\":683:705   */\n      tag_20\n      jump\t// in\n    tag_31:\n        /* \"#utility.yul\":674:705   */\n      swap2\n      pop\n        /* \"#utility.yul\":727:731   */\n      0x00\n        /* \"#utility.yul\":720:725   */\n      dup3\n        /* \"#utility.yul\":717:732   */\n      eq\n        /* \"#utility.yul\":714:755   */\n      iszero\n      tag_32\n      jumpi\n        /* \"#utility.yul\":735:753   */\n      tag_33\n      tag_22\n      jump\t// in\n    tag_33:\n        /* \"#utility.yul\":714:755   */\n    tag_32:\n        /* \"#utility.yul\":782:783   */\n      0x01\n        /* \"#utility.yul\":775:780   */\n      dup3\n        /* \"#utility.yul\":771:784   */\n      sub\n        /* \"#utility.yul\":764:784   */\n      swap1\n      pop\n        /* \"#utility.yul\":623:790   */\n      swap2\n      swap1\n      pop\n      jump\t// out\n        /* \"#utility.yul\":796:963   */\n    tag_19:\n        /* \"#utility.yul\":833:836   */\n      0x00\n        /* \"#utility.yul\":856:878   */\n      tag_35\n        /* \"#utility.yul\":872:877   */\n      dup3\n        /* \"#utility.yul\":856:878   */\n      tag_20\n      jump\t// in\n    tag_35:\n        /* \"#utility.yul\":847:878   */\n      swap2\n      pop\n        /* \"#utility.yul\":900:904   */\n      0xff\n        /* \"#utility.yul\":893:898   */\n      dup3\n        /* \"#utility.yul\":890:905   */\n      eq\n        /* \"#utility.yul\":887:928   */\n      iszero\n      tag_36\n      jumpi\n        /* \"#utility.yul\":908:926   */\n      tag_37\n      tag_22\n      jump\t// in\n    tag_37:\n        /* \"#utility.yul\":887:928   */\n    tag_36:\n        /* \"#utility.yul\":955:956   */\n      0x01\n        /* \"#utility.yul\":948:953   */\n      dup3\n        /* \"#utility.yul\":944:957   */\n      add\n        /* \"#utility.yul\":937:957   */\n      swap1\n      pop\n        /* \"#utility.yul\":796:963   */\n      swap2\n      swap1\n      pop\n      jump\t// out\n\n    auxdata: 0xa2646970667358221220b3bd0f368cfe97e9843eb70ca19f7968e7e16ecfdfac3f6a9578554995b6ab9164736f6c634300080b0033\n}\n",
				"bytecode": {
					"linkReferences": {},
					"object": "608060405234801561001057600080fd5b5060056000806101000a81548160ff021916908360ff1602179055506101eb8061003b6000396000f3fe608060405234801561001057600080fd5b50600436106100415760003560e01c80632baeceb714610046578063b6854a2114610050578063d09de08a1461006e575b600080fd5b61004e610078565b005b6100586100b1565b6040516100659190610117565b60405180910390f35b6100766100c2565b005b60008081819054906101000a900460ff168092919061009690610161565b91906101000a81548160ff021916908360ff16021790555050565b60008054906101000a900460ff1681565b60008081819054906101000a900460ff16809291906100e09061018b565b91906101000a81548160ff021916908360ff16021790555050565b600060ff82169050919050565b610111816100fb565b82525050565b600060208201905061012c6000830184610108565b92915050565b7f4e487b7100000000000000000000000000000000000000000000000000000000600052601160045260246000fd5b600061016c826100fb565b915060008214156101805761017f610132565b5b600182039050919050565b6000610196826100fb565b915060ff8214156101aa576101a9610132565b5b60018201905091905056fea2646970667358221220b3bd0f368cfe97e9843eb70ca19f7968e7e16ecfdfac3f6a9578554995b6ab9164736f6c634300080b0033",
					"opcodes": "PUSH1 0x80 PUSH1 0x40 MSTORE CALLVALUE DUP1 ISZERO PUSH2 0x10 JUMPI PUSH1 0x0 DUP1 REVERT JUMPDEST POP PUSH1 0x5 PUSH1 0x0 DUP1 PUSH2 0x100 EXP DUP2 SLOAD DUP2 PUSH1 0xFF MUL NOT AND SWAP1 DUP4 PUSH1 0xFF AND MUL OR SWAP1 SSTORE POP PUSH2 0x1EB DUP1 PUSH2 0x3B PUSH1 0x0 CODECOPY PUSH1 0x0 RETURN INVALID PUSH1 0x80 PUSH1 0x40 MSTORE CALLVALUE DUP1 ISZERO PUSH2 0x10 JUMPI PUSH1 0x0 DUP1 REVERT JUMPDEST POP PUSH1 0x4 CALLDATASIZE LT PUSH2 0x41 JUMPI PUSH1 0x0 CALLDATALOAD PUSH1 0xE0 SHR DUP1 PUSH4 0x2BAECEB7 EQ PUSH2 0x46 JUMPI DUP1 PUSH4 0xB6854A21 EQ PUSH2 0x50 JUMPI DUP1 PUSH4 0xD09DE08A EQ PUSH2 0x6E JUMPI JUMPDEST PUSH1 0x0 DUP1 REVERT JUMPDEST PUSH2 0x4E PUSH2 0x78 JUMP JUMPDEST STOP JUMPDEST PUSH2 0x58 PUSH2 0xB1 JUMP JUMPDEST PUSH1 0x40 MLOAD PUSH2 0x65 SWAP2 SWAP1 PUSH2 0x117 JUMP JUMPDEST PUSH1 0x40 MLOAD DUP1 SWAP2 SUB SWAP1 RETURN JUMPDEST PUSH2 0x76 PUSH2 0xC2 JUMP JUMPDEST STOP JUMPDEST PUSH1 0x0 DUP1 DUP2 DUP2 SWAP1 SLOAD SWAP1 PUSH2 0x100 EXP SWAP1 DIV PUSH1 0xFF AND DUP1 SWAP3 SWAP2 SWAP1 PUSH2 0x96 SWAP1 PUSH2 0x161 JUMP JUMPDEST SWAP2 SWAP1 PUSH2 0x100 EXP DUP2 SLOAD DUP2 PUSH1 0xFF MUL NOT AND SWAP1 DUP4 PUSH1 0xFF AND MUL OR SWAP1 SSTORE POP POP JUMP JUMPDEST PUSH1 0x0 DUP1 SLOAD SWAP1 PUSH2 0x100 EXP SWAP1 DIV PUSH1 0xFF AND DUP2 JUMP JUMPDEST PUSH1 0x0 DUP1 DUP2 DUP2 SWAP1 SLOAD SWAP1 PUSH2 0x100 EXP SWAP1 DIV PUSH1 0xFF AND DUP1 SWAP3 SWAP2 SWAP1 PUSH2 0xE0 SWAP1 PUSH2 0x18B JUMP JUMPDEST SWAP2 SWAP1 PUSH2 0x100 EXP DUP2 SLOAD DUP2 PUSH1 0xFF MUL NOT AND SWAP1 DUP4 PUSH1 0xFF AND MUL OR SWAP1 SSTORE POP POP JUMP JUMPDEST PUSH1 0x0 PUSH1 0xFF DUP3 AND SWAP1 POP SWAP2 SWAP1 POP JUMP JUMPDEST PUSH2 0x111 DUP2 PUSH2 0xFB JUMP JUMPDEST DUP3 MSTORE POP POP JUMP JUMPDEST PUSH1 0x0 PUSH1 0x20 DUP3 ADD SWAP1 POP PUSH2 0x12C PUSH1 0x0 DUP4 ADD DUP5 PUSH2 0x108 JUMP JUMPDEST SWAP3 SWAP2 POP POP JUMP JUMPDEST PUSH32 0x4E487B7100000000000000000000000000000000000000000000000000000000 PUSH1 0x0 MSTORE PUSH1 0x11 PUSH1 0x4 MSTORE PUSH1 0x24 PUSH1 0x0 REVERT JUMPDEST PUSH1 0x0 PUSH2 0x16C DUP3 PUSH2 0xFB JUMP JUMPDEST SWAP2 POP PUSH1 0x0 DUP3 EQ ISZERO PUSH2 0x180 JUMPI PUSH2 0x17F PUSH2 0x132 JUMP JUMPDEST JUMPDEST PUSH1 0x1 DUP3 SUB SWAP1 POP SWAP2 SWAP1 POP JUMP JUMPDEST PUSH1 0x0 PUSH2 0x196 DUP3 PUSH2 0xFB JUMP JUMPDEST SWAP2 POP PUSH1 0xFF DUP3 EQ ISZERO PUSH2 0x1AA JUMPI PUSH2 0x1A9 PUSH2 0x132 JUMP JUMPDEST JUMPDEST PUSH1 0x1 DUP3 ADD SWAP1 POP SWAP2 SWAP1 POP JUMP INVALID LOG2 PUSH5 0x6970667358 0x22 SLT KECCAK256 0xB3 0xBD 0xF CALLDATASIZE DUP13 INVALID SWAP8 0xE9 DUP5 RETURNDATACOPY 0xB7 0xC LOG1 SWAP16 PUSH26 0x68E7E16ECFDFAC3F6A9578554995B6AB9164736F6C634300080B STOP CALLER "
				},
				"gasEstimates": {
					"creation": {
						"codeDepositCost": "98200",
						"executionCost": "24414",
						"totalCost": "122614"
					},
					"external": {
						"decrement()": "26680",
						"increment()": "26724",
						"variable()": "2468"
					}
				},
				"methodIdentifiers": {
					"decrement()": "2baeceb7",
					"increment()": "d09de08a",
					"variable()": "b6854a21"
				}
			},
			"storageLayout": {
				"storage": [
					{
						"astId": 3,
						"contract": "contracts/my_contract_calyptus/SepoliaTestnet.sol:Counter",
						"label": "variable",
						"offset": 0,
						"slot": "0",
						"type": "t_uint8"
					}
				],
				"types": {
					"t_uint8": {
						"encoding": "inplace",
						"label": "uint8",
						"numberOfBytes": "1"
					}
				}
			},
			"userdoc": {
				"kind": "user",
				"methods": {},
				"version": 1
			}
		}
	}
}