{
	"data": {
		"bytecode": {
			"linkReferences": {},
			"object": "6080604052662386f26fc10000600755600160085534801562000020575f80fd5b50336040518060400160405280600b81526020017f43616c79707475734e46540000000000000000000000000000000000000000008152506040518060400160405280600381526020017f43414c0000000000000000000000000000000000000000000000000000000000815250815f90816200009e919062000465565b508060019081620000b0919062000465565b5050505f73ffffffffffffffffffffffffffffffffffffffff168173ffffffffffffffffffffffffffffffffffffffff160362000126575f6040517f1e4fbdf70000000000000000000000000000000000000000000000000000000081526004016200011d91906200058c565b60405180910390fd5b62000137816200013e60201b60201c565b50620005a7565b5f60065f9054906101000a900473ffffffffffffffffffffffffffffffffffffffff1690508160065f6101000a81548173ffffffffffffffffffffffffffffffffffffffff021916908373ffffffffffffffffffffffffffffffffffffffff1602179055508173ffffffffffffffffffffffffffffffffffffffff168173ffffffffffffffffffffffffffffffffffffffff167f8be0079c531659141344cd1fd0a4f28419497f9722a3daafe3b4186f6b6457e060405160405180910390a35050565b5f81519050919050565b7f4e487b71000000000000000000000000000000000000000000000000000000005f52604160045260245ffd5b7f4e487b71000000000000000000000000000000000000000000000000000000005f52602260045260245ffd5b5f60028204905060018216806200027d57607f821691505b60208210810362000293576200029262000238565b5b50919050565b5f819050815f5260205f209050919050565b5f6020601f8301049050919050565b5f82821b905092915050565b5f60088302620002f77fffffffffffffffffffffffffffffffffffffffffffffffffffffffffffffffff82620002ba565b620003038683620002ba565b95508019841693508086168417925050509392505050565b5f819050919050565b5f819050919050565b5f6200034d6200034762000341846200031b565b62000324565b6200031b565b9050919050565b5f819050919050565b62000368836200032d565b62000380620003778262000354565b848454620002c6565b825550505050565b5f90565b6200039662000388565b620003a38184846200035d565b505050565b5b81811015620003ca57620003be5f826200038c565b600181019050620003a9565b5050565b601f8211156200041957620003e38162000299565b620003ee84620002ab565b81016020851015620003fe578190505b620004166200040d85620002ab565b830182620003a8565b50505b505050565b5f82821c905092915050565b5f6200043b5f19846008026200041e565b1980831691505092915050565b5f6200045583836200042a565b9150826002028217905092915050565b620004708262000201565b67ffffffffffffffff8111156200048c576200048b6200020b565b5b62000498825462000265565b620004a5828285620003ce565b5f60209050601f831160018114620004db575f8415620004c6578287015190505b620004d2858262000448565b86555062000541565b601f198416620004eb8662000299565b5f5b828110156200051457848901518255600182019150602085019450602081019050620004ed565b8683101562000534578489015162000530601f8916826200042a565b8355505b6001600288020188555050505b505050505050565b5f73ffffffffffffffffffffffffffffffffffffffff82169050919050565b5f620005748262000549565b9050919050565b620005868162000568565b82525050565b5f602082019050620005a15f8301846200057b565b92915050565b61284a80620005b55f395ff3fe60806040526004361061013f575f3560e01c80636352211e116100b5578063a035b1fe1161006e578063a035b1fe14610403578063a22cb4651461042d578063b88d4fde14610455578063c87b56dd1461047d578063e985e9c5146104b9578063f2fde38b146104f55761013f565b80636352211e146102f957806370a0823114610335578063715018a6146103715780638da5cb5b1461038757806391b7f5ed146103b157806395d89b41146103d95761013f565b806317d70f7c1161010757806317d70f7c1461021757806323b872dd1461024157806332cb6b0c146102695780633ccfd60b1461029357806342842e0e146102a957806355f804b3146102d15761013f565b806301ffc9a71461014357806306fdde031461017f578063081812fc146101a9578063095ea7b3146101e55780631249c58b1461020d575b5f80fd5b34801561014e575f80fd5b5061016960048036038101906101649190611bf1565b61051d565b6040516101769190611c36565b60405180910390f35b34801561018a575f80fd5b506101936105fe565b6040516101a09190611cd9565b60405180910390f35b3480156101b4575f80fd5b506101cf60048036038101906101ca9190611d2c565b61068d565b6040516101dc9190611d96565b60405180910390f35b3480156101f0575f80fd5b5061020b60048036038101906102069190611dd9565b6106a8565b005b6102156106be565b005b348015610222575f80fd5b5061022b6107b4565b6040516102389190611e26565b60405180910390f35b34801561024c575f80fd5b5061026760048036038101906102629190611e3f565b6107ba565b005b348015610274575f80fd5b5061027d6108b9565b60405161028a9190611e26565b60405180910390f35b34801561029e575f80fd5b506102a76108be565b005b3480156102b4575f80fd5b506102cf60048036038101906102ca9190611e3f565b610904565b005b3480156102dc575f80fd5b506102f760048036038101906102f29190611fbb565b610923565b005b348015610304575f80fd5b5061031f600480360381019061031a9190611d2c565b61093e565b60405161032c9190611d96565b60405180910390f35b348015610340575f80fd5b5061035b60048036038101906103569190612002565b61094f565b6040516103689190611e26565b60405180910390f35b34801561037c575f80fd5b50610385610a05565b005b348015610392575f80fd5b5061039b610a18565b6040516103a89190611d96565b60405180910390f35b3480156103bc575f80fd5b506103d760048036038101906103d29190611d2c565b610a40565b005b3480156103e4575f80fd5b506103ed610a52565b6040516103fa9190611cd9565b60405180910390f35b34801561040e575f80fd5b50610417610ae2565b6040516104249190611e26565b60405180910390f35b348015610438575f80fd5b50610453600480360381019061044e9190612057565b610ae8565b005b348015610460575f80fd5b5061047b60048036038101906104769190612133565b610afe565b005b348015610488575f80fd5b506104a3600480360381019061049e9190611d2c565b610b1b565b6040516104b09190611cd9565b60405180910390f35b3480156104c4575f80fd5b506104df60048036038101906104da91906121b3565b610b77565b6040516104ec9190611c36565b60405180910390f35b348015610500575f80fd5b5061051b60048036038101906105169190612002565b610c05565b005b5f7f80ac58cd000000000000000000000000000000000000000000000000000000007bffffffffffffffffffffffffffffffffffffffffffffffffffffffff1916827bffffffffffffffffffffffffffffffffffffffffffffffffffffffff191614806105e757507f5b5e139f000000000000000000000000000000000000000000000000000000007bffffffffffffffffffffffffffffffffffffffffffffffffffffffff1916827bffffffffffffffffffffffffffffffffffffffffffffffffffffffff1916145b806105f757506105f682610c89565b5b9050919050565b60605f805461060c9061221e565b80601f01602080910402602001604051908101604052809291908181526020018280546106389061221e565b80156106835780601f1061065a57610100808354040283529160200191610683565b820191905f5260205f20905b81548152906001019060200180831161066657829003601f168201915b5050505050905090565b5f61069782610cf2565b506106a182610d78565b9050919050565b6106ba82826106b5610db1565b610db8565b5050565b600754341015610703576040517f08c379a00000000000000000000000000000000000000000000000000000000081526004016106fa90612298565b60405180910390fd5b600a6008541115610749576040517f08c379a000000000000000000000000000000000000000000000000000000000815260040161074090612300565b60405180910390fd5b61075533600854610dca565b6008543373ffffffffffffffffffffffffffffffffffffffff167ff2b290a76feb54be358b555507421d765609171aefa0646f109a653228ff81b860405160405180910390a360085f8154809291906107ad9061234b565b9190505550565b60085481565b5f73ffffffffffffffffffffffffffffffffffffffff168273ffffffffffffffffffffffffffffffffffffffff160361082a575f6040517f64a0ae920000000000000000000000000000000000000000000000000000000081526004016108219190611d96565b60405180910390fd5b5f61083d8383610838610db1565b610de7565b90508373ffffffffffffffffffffffffffffffffffffffff168173ffffffffffffffffffffffffffffffffffffffff16146108b3578382826040517f64283d7b0000000000000000000000000000000000000000000000000000000081526004016108aa93929190612392565b60405180910390fd5b50505050565b600a81565b6108c6610ff2565b3373ffffffffffffffffffffffffffffffffffffffff166108fc4790811502906040515f60405180830381858888f19350505050610902575f80fd5b565b61091e83838360405180602001604052805f815250610afe565b505050565b61092b610ff2565b806009908161093a9190612564565b5050565b5f61094882610cf2565b9050919050565b5f8073ffffffffffffffffffffffffffffffffffffffff168273ffffffffffffffffffffffffffffffffffffffff16036109c0575f6040517f89c62b640000000000000000000000000000000000000000000000000000000081526004016109b79190611d96565b60405180910390fd5b60035f8373ffffffffffffffffffffffffffffffffffffffff1673ffffffffffffffffffffffffffffffffffffffff1681526020019081526020015f20549050919050565b610a0d610ff2565b610a165f611079565b565b5f60065f9054906101000a900473ffffffffffffffffffffffffffffffffffffffff16905090565b610a48610ff2565b8060078190555050565b606060018054610a619061221e565b80601f0160208091040260200160405190810160405280929190818152602001828054610a8d9061221e565b8015610ad85780601f10610aaf57610100808354040283529160200191610ad8565b820191905f5260205f20905b815481529060010190602001808311610abb57829003601f168201915b5050505050905090565b60075481565b610afa610af3610db1565b838361113c565b5050565b610b098484846107ba565b610b15848484846112a5565b50505050565b60605f610b26611457565b90505f815103610b445760405180602001604052805f815250610b6f565b80610b4e846114e7565b604051602001610b5f9291906126b7565b6040516020818303038152906040525b915050919050565b5f60055f8473ffffffffffffffffffffffffffffffffffffffff1673ffffffffffffffffffffffffffffffffffffffff1681526020019081526020015f205f8373ffffffffffffffffffffffffffffffffffffffff1673ffffffffffffffffffffffffffffffffffffffff1681526020019081526020015f205f9054906101000a900460ff16905092915050565b610c0d610ff2565b5f73ffffffffffffffffffffffffffffffffffffffff168173ffffffffffffffffffffffffffffffffffffffff1603610c7d575f6040517f1e4fbdf7000000000000000000000000000000000000000000000000000000008152600401610c749190611d96565b60405180910390fd5b610c8681611079565b50565b5f7f01ffc9a7000000000000000000000000000000000000000000000000000000007bffffffffffffffffffffffffffffffffffffffffffffffffffffffff1916827bffffffffffffffffffffffffffffffffffffffffffffffffffffffff1916149050919050565b5f80610cfd836115b1565b90505f73ffffffffffffffffffffffffffffffffffffffff168173ffffffffffffffffffffffffffffffffffffffff1603610d6f57826040517f7e273289000000000000000000000000000000000000000000000000000000008152600401610d669190611e26565b60405180910390fd5b80915050919050565b5f60045f8381526020019081526020015f205f9054906101000a900473ffffffffffffffffffffffffffffffffffffffff169050919050565b5f33905090565b610dc583838360016115ea565b505050565b610de3828260405180602001604052805f8152506117a9565b5050565b5f80610df2846115b1565b90505f73ffffffffffffffffffffffffffffffffffffffff168373ffffffffffffffffffffffffffffffffffffffff1614610e3357610e328184866117c4565b5b5f73ffffffffffffffffffffffffffffffffffffffff168173ffffffffffffffffffffffffffffffffffffffff1614610ebe57610e725f855f806115ea565b600160035f8373ffffffffffffffffffffffffffffffffffffffff1673ffffffffffffffffffffffffffffffffffffffff1681526020019081526020015f205f82825403925050819055505b5f73ffffffffffffffffffffffffffffffffffffffff168573ffffffffffffffffffffffffffffffffffffffff1614610f3d57600160035f8773ffffffffffffffffffffffffffffffffffffffff1673ffffffffffffffffffffffffffffffffffffffff1681526020019081526020015f205f82825401925050819055505b8460025f8681526020019081526020015f205f6101000a81548173ffffffffffffffffffffffffffffffffffffffff021916908373ffffffffffffffffffffffffffffffffffffffff160217905550838573ffffffffffffffffffffffffffffffffffffffff168273ffffffffffffffffffffffffffffffffffffffff167fddf252ad1be2c89b69c2b068fc378daa952ba7f163c4a11628f55a4df523b3ef60405160405180910390a4809150509392505050565b610ffa610db1565b73ffffffffffffffffffffffffffffffffffffffff16611018610a18565b73ffffffffffffffffffffffffffffffffffffffff16146110775761103b610db1565b6040517f118cdaa700000000000000000000000000000000000000000000000000000000815260040161106e9190611d96565b60405180910390fd5b565b5f60065f9054906101000a900473ffffffffffffffffffffffffffffffffffffffff1690508160065f6101000a81548173ffffffffffffffffffffffffffffffffffffffff021916908373ffffffffffffffffffffffffffffffffffffffff1602179055508173ffffffffffffffffffffffffffffffffffffffff168173ffffffffffffffffffffffffffffffffffffffff167f8be0079c531659141344cd1fd0a4f28419497f9722a3daafe3b4186f6b6457e060405160405180910390a35050565b5f73ffffffffffffffffffffffffffffffffffffffff168273ffffffffffffffffffffffffffffffffffffffff16036111ac57816040517f5b08ba180000000000000000000000000000000000000000000000000000000081526004016111a39190611d96565b60405180910390fd5b8060055f8573ffffffffffffffffffffffffffffffffffffffff1673ffffffffffffffffffffffffffffffffffffffff1681526020019081526020015f205f8473ffffffffffffffffffffffffffffffffffffffff1673ffffffffffffffffffffffffffffffffffffffff1681526020019081526020015f205f6101000a81548160ff0219169083151502179055508173ffffffffffffffffffffffffffffffffffffffff168373ffffffffffffffffffffffffffffffffffffffff167f17307eab39ab6107e8899845ad3d59bd9653f200f220920489ca2b5937696c31836040516112989190611c36565b60405180910390a3505050565b5f8373ffffffffffffffffffffffffffffffffffffffff163b1115611451578273ffffffffffffffffffffffffffffffffffffffff1663150b7a026112e8610db1565b8685856040518563ffffffff1660e01b815260040161130a9493929190612737565b6020604051808303815f875af192505050801561134557506040513d601f19601f820116820180604052508101906113429190612795565b60015b6113c6573d805f8114611373576040519150601f19603f3d011682016040523d82523d5f602084013e611378565b606091505b505f8151036113be57836040517f64a0ae920000000000000000000000000000000000000000000000000000000081526004016113b59190611d96565b60405180910390fd5b805181602001fd5b63150b7a0260e01b7bffffffffffffffffffffffffffffffffffffffffffffffffffffffff1916817bffffffffffffffffffffffffffffffffffffffffffffffffffffffff19161461144f57836040517f64a0ae920000000000000000000000000000000000000000000000000000000081526004016114469190611d96565b60405180910390fd5b505b50505050565b6060600980546114669061221e565b80601f01602080910402602001604051908101604052809291908181526020018280546114929061221e565b80156114dd5780601f106114b4576101008083540402835291602001916114dd565b820191905f5260205f20905b8154815290600101906020018083116114c057829003601f168201915b5050505050905090565b60605f60016114f584611887565b0190505f8167ffffffffffffffff81111561151357611512611e97565b5b6040519080825280601f01601f1916602001820160405280156115455781602001600182028036833780820191505090505b5090505f82602001820190505b6001156115a6578080600190039150507f3031323334353637383961626364656600000000000000000000000000000000600a86061a8153600a858161159b5761159a6127c0565b5b0494505f8503611552575b819350505050919050565b5f60025f8381526020019081526020015f205f9054906101000a900473ffffffffffffffffffffffffffffffffffffffff169050919050565b808061162257505f73ffffffffffffffffffffffffffffffffffffffff168273ffffffffffffffffffffffffffffffffffffffff1614155b15611754575f61163184610cf2565b90505f73ffffffffffffffffffffffffffffffffffffffff168373ffffffffffffffffffffffffffffffffffffffff161415801561169b57508273ffffffffffffffffffffffffffffffffffffffff168173ffffffffffffffffffffffffffffffffffffffff1614155b80156116ae57506116ac8184610b77565b155b156116f057826040517fa9fbf51f0000000000000000000000000000000000000000000000000000000081526004016116e79190611d96565b60405180910390fd5b811561175257838573ffffffffffffffffffffffffffffffffffffffff168273ffffffffffffffffffffffffffffffffffffffff167f8c5be1e5ebec7d5bd14f71427d1e84f3dd0314c0f7b2291e5b200ac8c7c3b92560405160405180910390a45b505b8360045f8581526020019081526020015f205f6101000a81548173ffffffffffffffffffffffffffffffffffffffff021916908373ffffffffffffffffffffffffffffffffffffffff16021790555050505050565b6117b383836119d8565b6117bf5f8484846112a5565b505050565b6117cf838383611acb565b611882575f73ffffffffffffffffffffffffffffffffffffffff168373ffffffffffffffffffffffffffffffffffffffff160361184357806040517f7e27328900000000000000000000000000000000000000000000000000000000815260040161183a9190611e26565b60405180910390fd5b81816040517f177e802f0000000000000000000000000000000000000000000000000000000081526004016118799291906127ed565b60405180910390fd5b505050565b5f805f90507a184f03e93ff9f4daa797ed6e38ed64bf6a1f01000000000000000083106118e3577a184f03e93ff9f4daa797ed6e38ed64bf6a1f01000000000000000083816118d9576118d86127c0565b5b0492506040810190505b6d04ee2d6d415b85acef81000000008310611920576d04ee2d6d415b85acef81000000008381611916576119156127c0565b5b0492506020810190505b662386f26fc10000831061194f57662386f26fc100008381611945576119446127c0565b5b0492506010810190505b6305f5e1008310611978576305f5e100838161196e5761196d6127c0565b5b0492506008810190505b612710831061199d576127108381611993576119926127c0565b5b0492506004810190505b606483106119c057606483816119b6576119b56127c0565b5b0492506002810190505b600a83106119cf576001810190505b80915050919050565b5f73ffffffffffffffffffffffffffffffffffffffff168273ffffffffffffffffffffffffffffffffffffffff1603611a48575f6040517f64a0ae92000000000000000000000000000000000000000000000000000000008152600401611a3f9190611d96565b60405180910390fd5b5f611a5483835f610de7565b90505f73ffffffffffffffffffffffffffffffffffffffff168173ffffffffffffffffffffffffffffffffffffffff1614611ac6575f6040517f73c6ac6e000000000000000000000000000000000000000000000000000000008152600401611abd9190611d96565b60405180910390fd5b505050565b5f8073ffffffffffffffffffffffffffffffffffffffff168373ffffffffffffffffffffffffffffffffffffffff1614158015611b8257508273ffffffffffffffffffffffffffffffffffffffff168473ffffffffffffffffffffffffffffffffffffffff161480611b435750611b428484610b77565b5b80611b8157508273ffffffffffffffffffffffffffffffffffffffff16611b6983610d78565b73ffffffffffffffffffffffffffffffffffffffff16145b5b90509392505050565b5f604051905090565b5f80fd5b5f80fd5b5f7fffffffff0000000000000000000000000000000000000000000000000000000082169050919050565b611bd081611b9c565b8114611bda575f80fd5b50565b5f81359050611beb81611bc7565b92915050565b5f60208284031215611c0657611c05611b94565b5b5f611c1384828501611bdd565b91505092915050565b5f8115159050919050565b611c3081611c1c565b82525050565b5f602082019050611c495f830184611c27565b92915050565b5f81519050919050565b5f82825260208201905092915050565b5f5b83811015611c86578082015181840152602081019050611c6b565b5f8484015250505050565b5f601f19601f8301169050919050565b5f611cab82611c4f565b611cb58185611c59565b9350611cc5818560208601611c69565b611cce81611c91565b840191505092915050565b5f6020820190508181035f830152611cf18184611ca1565b905092915050565b5f819050919050565b611d0b81611cf9565b8114611d15575f80fd5b50565b5f81359050611d2681611d02565b92915050565b5f60208284031215611d4157611d40611b94565b5b5f611d4e84828501611d18565b91505092915050565b5f73ffffffffffffffffffffffffffffffffffffffff82169050919050565b5f611d8082611d57565b9050919050565b611d9081611d76565b82525050565b5f602082019050611da95f830184611d87565b92915050565b611db881611d76565b8114611dc2575f80fd5b50565b5f81359050611dd381611daf565b92915050565b5f8060408385031215611def57611dee611b94565b5b5f611dfc85828601611dc5565b9250506020611e0d85828601611d18565b9150509250929050565b611e2081611cf9565b82525050565b5f602082019050611e395f830184611e17565b92915050565b5f805f60608486031215611e5657611e55611b94565b5b5f611e6386828701611dc5565b9350506020611e7486828701611dc5565b9250506040611e8586828701611d18565b9150509250925092565b5f80fd5b5f80fd5b7f4e487b71000000000000000000000000000000000000000000000000000000005f52604160045260245ffd5b611ecd82611c91565b810181811067ffffffffffffffff82111715611eec57611eeb611e97565b5b80604052505050565b5f611efe611b8b565b9050611f0a8282611ec4565b919050565b5f67ffffffffffffffff821115611f2957611f28611e97565b5b611f3282611c91565b9050602081019050919050565b828183375f83830152505050565b5f611f5f611f5a84611f0f565b611ef5565b905082815260208101848484011115611f7b57611f7a611e93565b5b611f86848285611f3f565b509392505050565b5f82601f830112611fa257611fa1611e8f565b5b8135611fb2848260208601611f4d565b91505092915050565b5f60208284031215611fd057611fcf611b94565b5b5f82013567ffffffffffffffff811115611fed57611fec611b98565b5b611ff984828501611f8e565b91505092915050565b5f6020828403121561201757612016611b94565b5b5f61202484828501611dc5565b91505092915050565b61203681611c1c565b8114612040575f80fd5b50565b5f813590506120518161202d565b92915050565b5f806040838503121561206d5761206c611b94565b5b5f61207a85828601611dc5565b925050602061208b85828601612043565b9150509250929050565b5f67ffffffffffffffff8211156120af576120ae611e97565b5b6120b882611c91565b9050602081019050919050565b5f6120d76120d284612095565b611ef5565b9050828152602081018484840111156120f3576120f2611e93565b5b6120fe848285611f3f565b509392505050565b5f82601f83011261211a57612119611e8f565b5b813561212a8482602086016120c5565b91505092915050565b5f805f806080858703121561214b5761214a611b94565b5b5f61215887828801611dc5565b945050602061216987828801611dc5565b935050604061217a87828801611d18565b925050606085013567ffffffffffffffff81111561219b5761219a611b98565b5b6121a787828801612106565b91505092959194509250565b5f80604083850312156121c9576121c8611b94565b5b5f6121d685828601611dc5565b92505060206121e785828601611dc5565b9150509250929050565b7f4e487b71000000000000000000000000000000000000000000000000000000005f52602260045260245ffd5b5f600282049050600182168061223557607f821691505b602082108103612248576122476121f1565b5b50919050565b7f45746865722073656e74206973206e6f742073756666696369656e742e0000005f82015250565b5f612282601d83611c59565b915061228d8261224e565b602082019050919050565b5f6020820190508181035f8301526122af81612276565b9050919050565b7f536f6c64206f75742100000000000000000000000000000000000000000000005f82015250565b5f6122ea600983611c59565b91506122f5826122b6565b602082019050919050565b5f6020820190508181035f830152612317816122de565b9050919050565b7f4e487b71000000000000000000000000000000000000000000000000000000005f52601160045260245ffd5b5f61235582611cf9565b91507fffffffffffffffffffffffffffffffffffffffffffffffffffffffffffffffff82036123875761238661231e565b5b600182019050919050565b5f6060820190506123a55f830186611d87565b6123b26020830185611e17565b6123bf6040830184611d87565b949350505050565b5f819050815f5260205f209050919050565b5f6020601f8301049050919050565b5f82821b905092915050565b5f600883026124237fffffffffffffffffffffffffffffffffffffffffffffffffffffffffffffffff826123e8565b61242d86836123e8565b95508019841693508086168417925050509392505050565b5f819050919050565b5f61246861246361245e84611cf9565b612445565b611cf9565b9050919050565b5f819050919050565b6124818361244e565b61249561248d8261246f565b8484546123f4565b825550505050565b5f90565b6124a961249d565b6124b4818484612478565b505050565b5b818110156124d7576124cc5f826124a1565b6001810190506124ba565b5050565b601f82111561251c576124ed816123c7565b6124f6846123d9565b81016020851015612505578190505b612519612511856123d9565b8301826124b9565b50505b505050565b5f82821c905092915050565b5f61253c5f1984600802612521565b1980831691505092915050565b5f612554838361252d565b9150826002028217905092915050565b61256d82611c4f565b67ffffffffffffffff81111561258657612585611e97565b5b612590825461221e565b61259b8282856124db565b5f60209050601f8311600181146125cc575f84156125ba578287015190505b6125c48582612549565b86555061262b565b601f1984166125da866123c7565b5f5b82811015612601578489015182556001820191506020850194506020810190506125dc565b8683101561261e578489015161261a601f89168261252d565b8355505b6001600288020188555050505b505050505050565b5f81905092915050565b5f61264782611c4f565b6126518185612633565b9350612661818560208601611c69565b80840191505092915050565b7f2e6a736f6e0000000000000000000000000000000000000000000000000000005f82015250565b5f6126a1600583612633565b91506126ac8261266d565b600582019050919050565b5f6126c2828561263d565b91506126ce828461263d565b91506126d982612695565b91508190509392505050565b5f81519050919050565b5f82825260208201905092915050565b5f612709826126e5565b61271381856126ef565b9350612723818560208601611c69565b61272c81611c91565b840191505092915050565b5f60808201905061274a5f830187611d87565b6127576020830186611d87565b6127646040830185611e17565b818103606083015261277681846126ff565b905095945050505050565b5f8151905061278f81611bc7565b92915050565b5f602082840312156127aa576127a9611b94565b5b5f6127b784828501612781565b91505092915050565b7f4e487b71000000000000000000000000000000000000000000000000000000005f52601260045260245ffd5b5f6040820190506128005f830185611d87565b61280d6020830184611e17565b939250505056fea2646970667358221220c8144f6a61b20d65f1894dc1ff941a9e0f4e42a928157b6acd30702548d12d8964736f6c63430008180033",
			"opcodes": "PUSH1 0x80 PUSH1 0x40 MSTORE PUSH7 0x2386F26FC10000 PUSH1 0x7 SSTORE PUSH1 0x1 PUSH1 0x8 SSTORE CALLVALUE DUP1 ISZERO PUSH3 0x20 JUMPI PUSH0 DUP1 REVERT JUMPDEST POP CALLER PUSH1 0x40 MLOAD DUP1 PUSH1 0x40 ADD PUSH1 0x40 MSTORE DUP1 PUSH1 0xB DUP2 MSTORE PUSH1 0x20 ADD PUSH32 0x43616C79707475734E4654000000000000000000000000000000000000000000 DUP2 MSTORE POP PUSH1 0x40 MLOAD DUP1 PUSH1 0x40 ADD PUSH1 0x40 MSTORE DUP1 PUSH1 0x3 DUP2 MSTORE PUSH1 0x20 ADD PUSH32 0x43414C0000000000000000000000000000000000000000000000000000000000 DUP2 MSTORE POP DUP2 PUSH0 SWAP1 DUP2 PUSH3 0x9E SWAP2 SWAP1 PUSH3 0x465 JUMP JUMPDEST POP DUP1 PUSH1 0x1 SWAP1 DUP2 PUSH3 0xB0 SWAP2 SWAP1 PUSH3 0x465 JUMP JUMPDEST POP POP POP PUSH0 PUSH20 0xFFFFFFFFFFFFFFFFFFFFFFFFFFFFFFFFFFFFFFFF AND DUP2 PUSH20 0xFFFFFFFFFFFFFFFFFFFFFFFFFFFFFFFFFFFFFFFF AND SUB PUSH3 0x126 JUMPI PUSH0 PUSH1 0x40 MLOAD PUSH32 0x1E4FBDF700000000000000000000000000000000000000000000000000000000 DUP2 MSTORE PUSH1 0x4 ADD PUSH3 0x11D SWAP2 SWAP1 PUSH3 0x58C JUMP JUMPDEST PUSH1 0x40 MLOAD DUP1 SWAP2 SUB SWAP1 REVERT JUMPDEST PUSH3 0x137 DUP2 PUSH3 0x13E PUSH1 0x20 SHL PUSH1 0x20 SHR JUMP JUMPDEST POP PUSH3 0x5A7 JUMP JUMPDEST PUSH0 PUSH1 0x6 PUSH0 SWAP1 SLOAD SWAP1 PUSH2 0x100 EXP SWAP1 DIV PUSH20 0xFFFFFFFFFFFFFFFFFFFFFFFFFFFFFFFFFFFFFFFF AND SWAP1 POP DUP2 PUSH1 0x6 PUSH0 PUSH2 0x100 EXP DUP2 SLOAD DUP2 PUSH20 0xFFFFFFFFFFFFFFFFFFFFFFFFFFFFFFFFFFFFFFFF MUL NOT AND SWAP1 DUP4 PUSH20 0xFFFFFFFFFFFFFFFFFFFFFFFFFFFFFFFFFFFFFFFF AND MUL OR SWAP1 SSTORE POP DUP2 PUSH20 0xFFFFFFFFFFFFFFFFFFFFFFFFFFFFFFFFFFFFFFFF AND DUP2 PUSH20 0xFFFFFFFFFFFFFFFFFFFFFFFFFFFFFFFFFFFFFFFF AND PUSH32 0x8BE0079C531659141344CD1FD0A4F28419497F9722A3DAAFE3B4186F6B6457E0 PUSH1 0x40 MLOAD PUSH1 0x40 MLOAD DUP1 SWAP2 SUB SWAP1 LOG3 POP POP JUMP JUMPDEST PUSH0 DUP2 MLOAD SWAP1 POP SWAP2 SWAP1 POP JUMP JUMPDEST PUSH32 0x4E487B7100000000000000000000000000000000000000000000000000000000 PUSH0 MSTORE PUSH1 0x41 PUSH1 0x4 MSTORE PUSH1 0x24 PUSH0 REVERT JUMPDEST PUSH32 0x4E487B7100000000000000000000000000000000000000000000000000000000 PUSH0 MSTORE PUSH1 0x22 PUSH1 0x4 MSTORE PUSH1 0x24 PUSH0 REVERT JUMPDEST PUSH0 PUSH1 0x2 DUP3 DIV SWAP1 POP PUSH1 0x1 DUP3 AND DUP1 PUSH3 0x27D JUMPI PUSH1 0x7F DUP3 AND SWAP2 POP JUMPDEST PUSH1 0x20 DUP3 LT DUP2 SUB PUSH3 0x293 JUMPI PUSH3 0x292 PUSH3 0x238 JUMP JUMPDEST JUMPDEST POP SWAP2 SWAP1 POP JUMP JUMPDEST PUSH0 DUP2 SWAP1 POP DUP2 PUSH0 MSTORE PUSH1 0x20 PUSH0 KECCAK256 SWAP1 POP SWAP2 SWAP1 POP JUMP JUMPDEST PUSH0 PUSH1 0x20 PUSH1 0x1F DUP4 ADD DIV SWAP1 POP SWAP2 SWAP1 POP JUMP JUMPDEST PUSH0 DUP3 DUP3 SHL SWAP1 POP SWAP3 SWAP2 POP POP JUMP JUMPDEST PUSH0 PUSH1 0x8 DUP4 MUL PUSH3 0x2F7 PUSH32 0xFFFFFFFFFFFFFFFFFFFFFFFFFFFFFFFFFFFFFFFFFFFFFFFFFFFFFFFFFFFFFFFF DUP3 PUSH3 0x2BA JUMP JUMPDEST PUSH3 0x303 DUP7 DUP4 PUSH3 0x2BA JUMP JUMPDEST SWAP6 POP DUP1 NOT DUP5 AND SWAP4 POP DUP1 DUP7 AND DUP5 OR SWAP3 POP POP POP SWAP4 SWAP3 POP POP POP JUMP JUMPDEST PUSH0 DUP2 SWAP1 POP SWAP2 SWAP1 POP JUMP JUMPDEST PUSH0 DUP2 SWAP1 POP SWAP2 SWAP1 POP JUMP JUMPDEST PUSH0 PUSH3 0x34D PUSH3 0x347 PUSH3 0x341 DUP5 PUSH3 0x31B JUMP JUMPDEST PUSH3 0x324 JUMP JUMPDEST PUSH3 0x31B JUMP JUMPDEST SWAP1 POP SWAP2 SWAP1 POP JUMP JUMPDEST PUSH0 DUP2 SWAP1 POP SWAP2 SWAP1 POP JUMP JUMPDEST PUSH3 0x368 DUP4 PUSH3 0x32D JUMP JUMPDEST PUSH3 0x380 PUSH3 0x377 DUP3 PUSH3 0x354 JUMP JUMPDEST DUP5 DUP5 SLOAD PUSH3 0x2C6 JUMP JUMPDEST DUP3 SSTORE POP POP POP POP JUMP JUMPDEST PUSH0 SWAP1 JUMP JUMPDEST PUSH3 0x396 PUSH3 0x388 JUMP JUMPDEST PUSH3 0x3A3 DUP2 DUP5 DUP5 PUSH3 0x35D JUMP JUMPDEST POP POP POP JUMP JUMPDEST JUMPDEST DUP2 DUP2 LT ISZERO PUSH3 0x3CA JUMPI PUSH3 0x3BE PUSH0 DUP3 PUSH3 0x38C JUMP JUMPDEST PUSH1 0x1 DUP2 ADD SWAP1 POP PUSH3 0x3A9 JUMP JUMPDEST POP POP JUMP JUMPDEST PUSH1 0x1F DUP3 GT ISZERO PUSH3 0x419 JUMPI PUSH3 0x3E3 DUP2 PUSH3 0x299 JUMP JUMPDEST PUSH3 0x3EE DUP5 PUSH3 0x2AB JUMP JUMPDEST DUP2 ADD PUSH1 0x20 DUP6 LT ISZERO PUSH3 0x3FE JUMPI DUP2 SWAP1 POP JUMPDEST PUSH3 0x416 PUSH3 0x40D DUP6 PUSH3 0x2AB JUMP JUMPDEST DUP4 ADD DUP3 PUSH3 0x3A8 JUMP JUMPDEST POP POP JUMPDEST POP POP POP JUMP JUMPDEST PUSH0 DUP3 DUP3 SHR SWAP1 POP SWAP3 SWAP2 POP POP JUMP JUMPDEST PUSH0 PUSH3 0x43B PUSH0 NOT DUP5 PUSH1 0x8 MUL PUSH3 0x41E JUMP JUMPDEST NOT DUP1 DUP4 AND SWAP2 POP POP SWAP3 SWAP2 POP POP JUMP JUMPDEST PUSH0 PUSH3 0x455 DUP4 DUP4 PUSH3 0x42A JUMP JUMPDEST SWAP2 POP DUP3 PUSH1 0x2 MUL DUP3 OR SWAP1 POP SWAP3 SWAP2 POP POP JUMP JUMPDEST PUSH3 0x470 DUP3 PUSH3 0x201 JUMP JUMPDEST PUSH8 0xFFFFFFFFFFFFFFFF DUP2 GT ISZERO PUSH3 0x48C JUMPI PUSH3 0x48B PUSH3 0x20B JUMP JUMPDEST JUMPDEST PUSH3 0x498 DUP3 SLOAD PUSH3 0x265 JUMP JUMPDEST PUSH3 0x4A5 DUP3 DUP3 DUP6 PUSH3 0x3CE JUMP JUMPDEST PUSH0 PUSH1 0x20 SWAP1 POP PUSH1 0x1F DUP4 GT PUSH1 0x1 DUP2 EQ PUSH3 0x4DB JUMPI PUSH0 DUP5 ISZERO PUSH3 0x4C6 JUMPI DUP3 DUP8 ADD MLOAD SWAP1 POP JUMPDEST PUSH3 0x4D2 DUP6 DUP3 PUSH3 0x448 JUMP JUMPDEST DUP7 SSTORE POP PUSH3 0x541 JUMP JUMPDEST PUSH1 0x1F NOT DUP5 AND PUSH3 0x4EB DUP7 PUSH3 0x299 JUMP JUMPDEST PUSH0 JUMPDEST DUP3 DUP2 LT ISZERO PUSH3 0x514 JUMPI DUP5 DUP10 ADD MLOAD DUP3 SSTORE PUSH1 0x1 DUP3 ADD SWAP2 POP PUSH1 0x20 DUP6 ADD SWAP5 POP PUSH1 0x20 DUP2 ADD SWAP1 POP PUSH3 0x4ED JUMP JUMPDEST DUP7 DUP4 LT ISZERO PUSH3 0x534 JUMPI DUP5 DUP10 ADD MLOAD PUSH3 0x530 PUSH1 0x1F DUP10 AND DUP3 PUSH3 0x42A JUMP JUMPDEST DUP4 SSTORE POP JUMPDEST PUSH1 0x1 PUSH1 0x2 DUP9 MUL ADD DUP9 SSTORE POP POP POP JUMPDEST POP POP POP POP POP POP JUMP JUMPDEST PUSH0 PUSH20 0xFFFFFFFFFFFFFFFFFFFFFFFFFFFFFFFFFFFFFFFF DUP3 AND SWAP1 POP SWAP2 SWAP1 POP JUMP JUMPDEST PUSH0 PUSH3 0x574 DUP3 PUSH3 0x549 JUMP JUMPDEST SWAP1 POP SWAP2 SWAP1 POP JUMP JUMPDEST PUSH3 0x586 DUP2 PUSH3 0x568 JUMP JUMPDEST DUP3 MSTORE POP POP JUMP JUMPDEST PUSH0 PUSH1 0x20 DUP3 ADD SWAP1 POP PUSH3 0x5A1 PUSH0 DUP4 ADD DUP5 PUSH3 0x57B JUMP JUMPDEST SWAP3 SWAP2 POP POP JUMP JUMPDEST PUSH2 0x284A DUP1 PUSH3 0x5B5 PUSH0 CODECOPY PUSH0 RETURN INVALID PUSH1 0x80 PUSH1 0x40 MSTORE PUSH1 0x4 CALLDATASIZE LT PUSH2 0x13F JUMPI PUSH0 CALLDATALOAD PUSH1 0xE0 SHR DUP1 PUSH4 0x6352211E GT PUSH2 0xB5 JUMPI DUP1 PUSH4 0xA035B1FE GT PUSH2 0x6E JUMPI DUP1 PUSH4 0xA035B1FE EQ PUSH2 0x403 JUMPI DUP1 PUSH4 0xA22CB465 EQ PUSH2 0x42D JUMPI DUP1 PUSH4 0xB88D4FDE EQ PUSH2 0x455 JUMPI DUP1 PUSH4 0xC87B56DD EQ PUSH2 0x47D JUMPI DUP1 PUSH4 0xE985E9C5 EQ PUSH2 0x4B9 JUMPI DUP1 PUSH4 0xF2FDE38B EQ PUSH2 0x4F5 JUMPI PUSH2 0x13F JUMP JUMPDEST DUP1 PUSH4 0x6352211E EQ PUSH2 0x2F9 JUMPI DUP1 PUSH4 0x70A08231 EQ PUSH2 0x335 JUMPI DUP1 PUSH4 0x715018A6 EQ PUSH2 0x371 JUMPI DUP1 PUSH4 0x8DA5CB5B EQ PUSH2 0x387 JUMPI DUP1 PUSH4 0x91B7F5ED EQ PUSH2 0x3B1 JUMPI DUP1 PUSH4 0x95D89B41 EQ PUSH2 0x3D9 JUMPI PUSH2 0x13F JUMP JUMPDEST DUP1 PUSH4 0x17D70F7C GT PUSH2 0x107 JUMPI DUP1 PUSH4 0x17D70F7C EQ PUSH2 0x217 JUMPI DUP1 PUSH4 0x23B872DD EQ PUSH2 0x241 JUMPI DUP1 PUSH4 0x32CB6B0C EQ PUSH2 0x269 JUMPI DUP1 PUSH4 0x3CCFD60B EQ PUSH2 0x293 JUMPI DUP1 PUSH4 0x42842E0E EQ PUSH2 0x2A9 JUMPI DUP1 PUSH4 0x55F804B3 EQ PUSH2 0x2D1 JUMPI PUSH2 0x13F JUMP JUMPDEST DUP1 PUSH4 0x1FFC9A7 EQ PUSH2 0x143 JUMPI DUP1 PUSH4 0x6FDDE03 EQ PUSH2 0x17F JUMPI DUP1 PUSH4 0x81812FC EQ PUSH2 0x1A9 JUMPI DUP1 PUSH4 0x95EA7B3 EQ PUSH2 0x1E5 JUMPI DUP1 PUSH4 0x1249C58B EQ PUSH2 0x20D JUMPI JUMPDEST PUSH0 DUP1 REVERT JUMPDEST CALLVALUE DUP1 ISZERO PUSH2 0x14E JUMPI PUSH0 DUP1 REVERT JUMPDEST POP PUSH2 0x169 PUSH1 0x4 DUP1 CALLDATASIZE SUB DUP2 ADD SWAP1 PUSH2 0x164 SWAP2 SWAP1 PUSH2 0x1BF1 JUMP JUMPDEST PUSH2 0x51D JUMP JUMPDEST PUSH1 0x40 MLOAD PUSH2 0x176 SWAP2 SWAP1 PUSH2 0x1C36 JUMP JUMPDEST PUSH1 0x40 MLOAD DUP1 SWAP2 SUB SWAP1 RETURN JUMPDEST CALLVALUE DUP1 ISZERO PUSH2 0x18A JUMPI PUSH0 DUP1 REVERT JUMPDEST POP PUSH2 0x193 PUSH2 0x5FE JUMP JUMPDEST PUSH1 0x40 MLOAD PUSH2 0x1A0 SWAP2 SWAP1 PUSH2 0x1CD9 JUMP JUMPDEST PUSH1 0x40 MLOAD DUP1 SWAP2 SUB SWAP1 RETURN JUMPDEST CALLVALUE DUP1 ISZERO PUSH2 0x1B4 JUMPI PUSH0 DUP1 REVERT JUMPDEST POP PUSH2 0x1CF PUSH1 0x4 DUP1 CALLDATASIZE SUB DUP2 ADD SWAP1 PUSH2 0x1CA SWAP2 SWAP1 PUSH2 0x1D2C JUMP JUMPDEST PUSH2 0x68D JUMP JUMPDEST PUSH1 0x40 MLOAD PUSH2 0x1DC SWAP2 SWAP1 PUSH2 0x1D96 JUMP JUMPDEST PUSH1 0x40 MLOAD DUP1 SWAP2 SUB SWAP1 RETURN JUMPDEST CALLVALUE DUP1 ISZERO PUSH2 0x1F0 JUMPI PUSH0 DUP1 REVERT JUMPDEST POP PUSH2 0x20B PUSH1 0x4 DUP1 CALLDATASIZE SUB DUP2 ADD SWAP1 PUSH2 0x206 SWAP2 SWAP1 PUSH2 0x1DD9 JUMP JUMPDEST PUSH2 0x6A8 JUMP JUMPDEST STOP JUMPDEST PUSH2 0x215 PUSH2 0x6BE JUMP JUMPDEST STOP JUMPDEST CALLVALUE DUP1 ISZERO PUSH2 0x222 JUMPI PUSH0 DUP1 REVERT JUMPDEST POP PUSH2 0x22B PUSH2 0x7B4 JUMP JUMPDEST PUSH1 0x40 MLOAD PUSH2 0x238 SWAP2 SWAP1 PUSH2 0x1E26 JUMP JUMPDEST PUSH1 0x40 MLOAD DUP1 SWAP2 SUB SWAP1 RETURN JUMPDEST CALLVALUE DUP1 ISZERO PUSH2 0x24C JUMPI PUSH0 DUP1 REVERT JUMPDEST POP PUSH2 0x267 PUSH1 0x4 DUP1 CALLDATASIZE SUB DUP2 ADD SWAP1 PUSH2 0x262 SWAP2 SWAP1 PUSH2 0x1E3F JUMP JUMPDEST PUSH2 0x7BA JUMP JUMPDEST STOP JUMPDEST CALLVALUE DUP1 ISZERO PUSH2 0x274 JUMPI PUSH0 DUP1 REVERT JUMPDEST POP PUSH2 0x27D PUSH2 0x8B9 JUMP JUMPDEST PUSH1 0x40 MLOAD PUSH2 0x28A SWAP2 SWAP1 PUSH2 0x1E26 JUMP JUMPDEST PUSH1 0x40 MLOAD DUP1 SWAP2 SUB SWAP1 RETURN JUMPDEST CALLVALUE DUP1 ISZERO PUSH2 0x29E JUMPI PUSH0 DUP1 REVERT JUMPDEST POP PUSH2 0x2A7 PUSH2 0x8BE JUMP JUMPDEST STOP JUMPDEST CALLVALUE DUP1 ISZERO PUSH2 0x2B4 JUMPI PUSH0 DUP1 REVERT JUMPDEST POP PUSH2 0x2CF PUSH1 0x4 DUP1 CALLDATASIZE SUB DUP2 ADD SWAP1 PUSH2 0x2CA SWAP2 SWAP1 PUSH2 0x1E3F JUMP JUMPDEST PUSH2 0x904 JUMP JUMPDEST STOP JUMPDEST CALLVALUE DUP1 ISZERO PUSH2 0x2DC JUMPI PUSH0 DUP1 REVERT JUMPDEST POP PUSH2 0x2F7 PUSH1 0x4 DUP1 CALLDATASIZE SUB DUP2 ADD SWAP1 PUSH2 0x2F2 SWAP2 SWAP1 PUSH2 0x1FBB JUMP JUMPDEST PUSH2 0x923 JUMP JUMPDEST STOP JUMPDEST CALLVALUE DUP1 ISZERO PUSH2 0x304 JUMPI PUSH0 DUP1 REVERT JUMPDEST POP PUSH2 0x31F PUSH1 0x4 DUP1 CALLDATASIZE SUB DUP2 ADD SWAP1 PUSH2 0x31A SWAP2 SWAP1 PUSH2 0x1D2C JUMP JUMPDEST PUSH2 0x93E JUMP JUMPDEST PUSH1 0x40 MLOAD PUSH2 0x32C SWAP2 SWAP1 PUSH2 0x1D96 JUMP JUMPDEST PUSH1 0x40 MLOAD DUP1 SWAP2 SUB SWAP1 RETURN JUMPDEST CALLVALUE DUP1 ISZERO PUSH2 0x340 JUMPI PUSH0 DUP1 REVERT JUMPDEST POP PUSH2 0x35B PUSH1 0x4 DUP1 CALLDATASIZE SUB DUP2 ADD SWAP1 PUSH2 0x356 SWAP2 SWAP1 PUSH2 0x2002 JUMP JUMPDEST PUSH2 0x94F JUMP JUMPDEST PUSH1 0x40 MLOAD PUSH2 0x368 SWAP2 SWAP1 PUSH2 0x1E26 JUMP JUMPDEST PUSH1 0x40 MLOAD DUP1 SWAP2 SUB SWAP1 RETURN JUMPDEST CALLVALUE DUP1 ISZERO PUSH2 0x37C JUMPI PUSH0 DUP1 REVERT JUMPDEST POP PUSH2 0x385 PUSH2 0xA05 JUMP JUMPDEST STOP JUMPDEST CALLVALUE DUP1 ISZERO PUSH2 0x392 JUMPI PUSH0 DUP1 REVERT JUMPDEST POP PUSH2 0x39B PUSH2 0xA18 JUMP JUMPDEST PUSH1 0x40 MLOAD PUSH2 0x3A8 SWAP2 SWAP1 PUSH2 0x1D96 JUMP JUMPDEST PUSH1 0x40 MLOAD DUP1 SWAP2 SUB SWAP1 RETURN JUMPDEST CALLVALUE DUP1 ISZERO PUSH2 0x3BC JUMPI PUSH0 DUP1 REVERT JUMPDEST POP PUSH2 0x3D7 PUSH1 0x4 DUP1 CALLDATASIZE SUB DUP2 ADD SWAP1 PUSH2 0x3D2 SWAP2 SWAP1 PUSH2 0x1D2C JUMP JUMPDEST PUSH2 0xA40 JUMP JUMPDEST STOP JUMPDEST CALLVALUE DUP1 ISZERO PUSH2 0x3E4 JUMPI PUSH0 DUP1 REVERT JUMPDEST POP PUSH2 0x3ED PUSH2 0xA52 JUMP JUMPDEST PUSH1 0x40 MLOAD PUSH2 0x3FA SWAP2 SWAP1 PUSH2 0x1CD9 JUMP JUMPDEST PUSH1 0x40 MLOAD DUP1 SWAP2 SUB SWAP1 RETURN JUMPDEST CALLVALUE DUP1 ISZERO PUSH2 0x40E JUMPI PUSH0 DUP1 REVERT JUMPDEST POP PUSH2 0x417 PUSH2 0xAE2 JUMP JUMPDEST PUSH1 0x40 MLOAD PUSH2 0x424 SWAP2 SWAP1 PUSH2 0x1E26 JUMP JUMPDEST PUSH1 0x40 MLOAD DUP1 SWAP2 SUB SWAP1 RETURN JUMPDEST CALLVALUE DUP1 ISZERO PUSH2 0x438 JUMPI PUSH0 DUP1 REVERT JUMPDEST POP PUSH2 0x453 PUSH1 0x4 DUP1 CALLDATASIZE SUB DUP2 ADD SWAP1 PUSH2 0x44E SWAP2 SWAP1 PUSH2 0x2057 JUMP JUMPDEST PUSH2 0xAE8 JUMP JUMPDEST STOP JUMPDEST CALLVALUE DUP1 ISZERO PUSH2 0x460 JUMPI PUSH0 DUP1 REVERT JUMPDEST POP PUSH2 0x47B PUSH1 0x4 DUP1 CALLDATASIZE SUB DUP2 ADD SWAP1 PUSH2 0x476 SWAP2 SWAP1 PUSH2 0x2133 JUMP JUMPDEST PUSH2 0xAFE JUMP JUMPDEST STOP JUMPDEST CALLVALUE DUP1 ISZERO PUSH2 0x488 JUMPI PUSH0 DUP1 REVERT JUMPDEST POP PUSH2 0x4A3 PUSH1 0x4 DUP1 CALLDATASIZE SUB DUP2 ADD SWAP1 PUSH2 0x49E SWAP2 SWAP1 PUSH2 0x1D2C JUMP JUMPDEST PUSH2 0xB1B JUMP JUMPDEST PUSH1 0x40 MLOAD PUSH2 0x4B0 SWAP2 SWAP1 PUSH2 0x1CD9 JUMP JUMPDEST PUSH1 0x40 MLOAD DUP1 SWAP2 SUB SWAP1 RETURN JUMPDEST CALLVALUE DUP1 ISZERO PUSH2 0x4C4 JUMPI PUSH0 DUP1 REVERT JUMPDEST POP PUSH2 0x4DF PUSH1 0x4 DUP1 CALLDATASIZE SUB DUP2 ADD SWAP1 PUSH2 0x4DA SWAP2 SWAP1 PUSH2 0x21B3 JUMP JUMPDEST PUSH2 0xB77 JUMP JUMPDEST PUSH1 0x40 MLOAD PUSH2 0x4EC SWAP2 SWAP1 PUSH2 0x1C36 JUMP JUMPDEST PUSH1 0x40 MLOAD DUP1 SWAP2 SUB SWAP1 RETURN JUMPDEST CALLVALUE DUP1 ISZERO PUSH2 0x500 JUMPI PUSH0 DUP1 REVERT JUMPDEST POP PUSH2 0x51B PUSH1 0x4 DUP1 CALLDATASIZE SUB DUP2 ADD SWAP1 PUSH2 0x516 SWAP2 SWAP1 PUSH2 0x2002 JUMP JUMPDEST PUSH2 0xC05 JUMP JUMPDEST STOP JUMPDEST PUSH0 PUSH32 0x80AC58CD00000000000000000000000000000000000000000000000000000000 PUSH28 0xFFFFFFFFFFFFFFFFFFFFFFFFFFFFFFFFFFFFFFFFFFFFFFFFFFFFFFFF NOT AND DUP3 PUSH28 0xFFFFFFFFFFFFFFFFFFFFFFFFFFFFFFFFFFFFFFFFFFFFFFFFFFFFFFFF NOT AND EQ DUP1 PUSH2 0x5E7 JUMPI POP PUSH32 0x5B5E139F00000000000000000000000000000000000000000000000000000000 PUSH28 0xFFFFFFFFFFFFFFFFFFFFFFFFFFFFFFFFFFFFFFFFFFFFFFFFFFFFFFFF NOT AND DUP3 PUSH28 0xFFFFFFFFFFFFFFFFFFFFFFFFFFFFFFFFFFFFFFFFFFFFFFFFFFFFFFFF NOT AND EQ JUMPDEST DUP1 PUSH2 0x5F7 JUMPI POP PUSH2 0x5F6 DUP3 PUSH2 0xC89 JUMP JUMPDEST JUMPDEST SWAP1 POP SWAP2 SWAP1 POP JUMP JUMPDEST PUSH1 0x60 PUSH0 DUP1 SLOAD PUSH2 0x60C SWAP1 PUSH2 0x221E JUMP JUMPDEST DUP1 PUSH1 0x1F ADD PUSH1 0x20 DUP1 SWAP2 DIV MUL PUSH1 0x20 ADD PUSH1 0x40 MLOAD SWAP1 DUP2 ADD PUSH1 0x40 MSTORE DUP1 SWAP3 SWAP2 SWAP1 DUP2 DUP2 MSTORE PUSH1 0x20 ADD DUP3 DUP1 SLOAD PUSH2 0x638 SWAP1 PUSH2 0x221E JUMP JUMPDEST DUP1 ISZERO PUSH2 0x683 JUMPI DUP1 PUSH1 0x1F LT PUSH2 0x65A JUMPI PUSH2 0x100 DUP1 DUP4 SLOAD DIV MUL DUP4 MSTORE SWAP2 PUSH1 0x20 ADD SWAP2 PUSH2 0x683 JUMP JUMPDEST DUP3 ADD SWAP2 SWAP1 PUSH0 MSTORE PUSH1 0x20 PUSH0 KECCAK256 SWAP1 JUMPDEST DUP2 SLOAD DUP2 MSTORE SWAP1 PUSH1 0x1 ADD SWAP1 PUSH1 0x20 ADD DUP1 DUP4 GT PUSH2 0x666 JUMPI DUP3 SWAP1 SUB PUSH1 0x1F AND DUP3 ADD SWAP2 JUMPDEST POP POP POP POP POP SWAP1 POP SWAP1 JUMP JUMPDEST PUSH0 PUSH2 0x697 DUP3 PUSH2 0xCF2 JUMP JUMPDEST POP PUSH2 0x6A1 DUP3 PUSH2 0xD78 JUMP JUMPDEST SWAP1 POP SWAP2 SWAP1 POP JUMP JUMPDEST PUSH2 0x6BA DUP3 DUP3 PUSH2 0x6B5 PUSH2 0xDB1 JUMP JUMPDEST PUSH2 0xDB8 JUMP JUMPDEST POP POP JUMP JUMPDEST PUSH1 0x7 SLOAD CALLVALUE LT ISZERO PUSH2 0x703 JUMPI PUSH1 0x40 MLOAD PUSH32 0x8C379A000000000000000000000000000000000000000000000000000000000 DUP2 MSTORE PUSH1 0x4 ADD PUSH2 0x6FA SWAP1 PUSH2 0x2298 JUMP JUMPDEST PUSH1 0x40 MLOAD DUP1 SWAP2 SUB SWAP1 REVERT JUMPDEST PUSH1 0xA PUSH1 0x8 SLOAD GT ISZERO PUSH2 0x749 JUMPI PUSH1 0x40 MLOAD PUSH32 0x8C379A000000000000000000000000000000000000000000000000000000000 DUP2 MSTORE PUSH1 0x4 ADD PUSH2 0x740 SWAP1 PUSH2 0x2300 JUMP JUMPDEST PUSH1 0x40 MLOAD DUP1 SWAP2 SUB SWAP1 REVERT JUMPDEST PUSH2 0x755 CALLER PUSH1 0x8 SLOAD PUSH2 0xDCA JUMP JUMPDEST PUSH1 0x8 SLOAD CALLER PUSH20 0xFFFFFFFFFFFFFFFFFFFFFFFFFFFFFFFFFFFFFFFF AND PUSH32 0xF2B290A76FEB54BE358B555507421D765609171AEFA0646F109A653228FF81B8 PUSH1 0x40 MLOAD PUSH1 0x40 MLOAD DUP1 SWAP2 SUB SWAP1 LOG3 PUSH1 0x8 PUSH0 DUP2 SLOAD DUP1 SWAP3 SWAP2 SWAP1 PUSH2 0x7AD SWAP1 PUSH2 0x234B JUMP JUMPDEST SWAP2 SWAP1 POP SSTORE POP JUMP JUMPDEST PUSH1 0x8 SLOAD DUP2 JUMP JUMPDEST PUSH0 PUSH20 0xFFFFFFFFFFFFFFFFFFFFFFFFFFFFFFFFFFFFFFFF AND DUP3 PUSH20 0xFFFFFFFFFFFFFFFFFFFFFFFFFFFFFFFFFFFFFFFF AND SUB PUSH2 0x82A JUMPI PUSH0 PUSH1 0x40 MLOAD PUSH32 0x64A0AE9200000000000000000000000000000000000000000000000000000000 DUP2 MSTORE PUSH1 0x4 ADD PUSH2 0x821 SWAP2 SWAP1 PUSH2 0x1D96 JUMP JUMPDEST PUSH1 0x40 MLOAD DUP1 SWAP2 SUB SWAP1 REVERT JUMPDEST PUSH0 PUSH2 0x83D DUP4 DUP4 PUSH2 0x838 PUSH2 0xDB1 JUMP JUMPDEST PUSH2 0xDE7 JUMP JUMPDEST SWAP1 POP DUP4 PUSH20 0xFFFFFFFFFFFFFFFFFFFFFFFFFFFFFFFFFFFFFFFF AND DUP2 PUSH20 0xFFFFFFFFFFFFFFFFFFFFFFFFFFFFFFFFFFFFFFFF AND EQ PUSH2 0x8B3 JUMPI DUP4 DUP3 DUP3 PUSH1 0x40 MLOAD PUSH32 0x64283D7B00000000000000000000000000000000000000000000000000000000 DUP2 MSTORE PUSH1 0x4 ADD PUSH2 0x8AA SWAP4 SWAP3 SWAP2 SWAP1 PUSH2 0x2392 JUMP JUMPDEST PUSH1 0x40 MLOAD DUP1 SWAP2 SUB SWAP1 REVERT JUMPDEST POP POP POP POP JUMP JUMPDEST PUSH1 0xA DUP2 JUMP JUMPDEST PUSH2 0x8C6 PUSH2 0xFF2 JUMP JUMPDEST CALLER PUSH20 0xFFFFFFFFFFFFFFFFFFFFFFFFFFFFFFFFFFFFFFFF AND PUSH2 0x8FC SELFBALANCE SWAP1 DUP2 ISZERO MUL SWAP1 PUSH1 0x40 MLOAD PUSH0 PUSH1 0x40 MLOAD DUP1 DUP4 SUB DUP2 DUP6 DUP9 DUP9 CALL SWAP4 POP POP POP POP PUSH2 0x902 JUMPI PUSH0 DUP1 REVERT JUMPDEST JUMP JUMPDEST PUSH2 0x91E DUP4 DUP4 DUP4 PUSH1 0x40 MLOAD DUP1 PUSH1 0x20 ADD PUSH1 0x40 MSTORE DUP1 PUSH0 DUP2 MSTORE POP PUSH2 0xAFE JUMP JUMPDEST POP POP POP JUMP JUMPDEST PUSH2 0x92B PUSH2 0xFF2 JUMP JUMPDEST DUP1 PUSH1 0x9 SWAP1 DUP2 PUSH2 0x93A SWAP2 SWAP1 PUSH2 0x2564 JUMP JUMPDEST POP POP JUMP JUMPDEST PUSH0 PUSH2 0x948 DUP3 PUSH2 0xCF2 JUMP JUMPDEST SWAP1 POP SWAP2 SWAP1 POP JUMP JUMPDEST PUSH0 DUP1 PUSH20 0xFFFFFFFFFFFFFFFFFFFFFFFFFFFFFFFFFFFFFFFF AND DUP3 PUSH20 0xFFFFFFFFFFFFFFFFFFFFFFFFFFFFFFFFFFFFFFFF AND SUB PUSH2 0x9C0 JUMPI PUSH0 PUSH1 0x40 MLOAD PUSH32 0x89C62B6400000000000000000000000000000000000000000000000000000000 DUP2 MSTORE PUSH1 0x4 ADD PUSH2 0x9B7 SWAP2 SWAP1 PUSH2 0x1D96 JUMP JUMPDEST PUSH1 0x40 MLOAD DUP1 SWAP2 SUB SWAP1 REVERT JUMPDEST PUSH1 0x3 PUSH0 DUP4 PUSH20 0xFFFFFFFFFFFFFFFFFFFFFFFFFFFFFFFFFFFFFFFF AND PUSH20 0xFFFFFFFFFFFFFFFFFFFFFFFFFFFFFFFFFFFFFFFF AND DUP2 MSTORE PUSH1 0x20 ADD SWAP1 DUP2 MSTORE PUSH1 0x20 ADD PUSH0 KECCAK256 SLOAD SWAP1 POP SWAP2 SWAP1 POP JUMP JUMPDEST PUSH2 0xA0D PUSH2 0xFF2 JUMP JUMPDEST PUSH2 0xA16 PUSH0 PUSH2 0x1079 JUMP JUMPDEST JUMP JUMPDEST PUSH0 PUSH1 0x6 PUSH0 SWAP1 SLOAD SWAP1 PUSH2 0x100 EXP SWAP1 DIV PUSH20 0xFFFFFFFFFFFFFFFFFFFFFFFFFFFFFFFFFFFFFFFF AND SWAP1 POP SWAP1 JUMP JUMPDEST PUSH2 0xA48 PUSH2 0xFF2 JUMP JUMPDEST DUP1 PUSH1 0x7 DUP2 SWAP1 SSTORE POP POP JUMP JUMPDEST PUSH1 0x60 PUSH1 0x1 DUP1 SLOAD PUSH2 0xA61 SWAP1 PUSH2 0x221E JUMP JUMPDEST DUP1 PUSH1 0x1F ADD PUSH1 0x20 DUP1 SWAP2 DIV MUL PUSH1 0x20 ADD PUSH1 0x40 MLOAD SWAP1 DUP2 ADD PUSH1 0x40 MSTORE DUP1 SWAP3 SWAP2 SWAP1 DUP2 DUP2 MSTORE PUSH1 0x20 ADD DUP3 DUP1 SLOAD PUSH2 0xA8D SWAP1 PUSH2 0x221E JUMP JUMPDEST DUP1 ISZERO PUSH2 0xAD8 JUMPI DUP1 PUSH1 0x1F LT PUSH2 0xAAF JUMPI PUSH2 0x100 DUP1 DUP4 SLOAD DIV MUL DUP4 MSTORE SWAP2 PUSH1 0x20 ADD SWAP2 PUSH2 0xAD8 JUMP JUMPDEST DUP3 ADD SWAP2 SWAP1 PUSH0 MSTORE PUSH1 0x20 PUSH0 KECCAK256 SWAP1 JUMPDEST DUP2 SLOAD DUP2 MSTORE SWAP1 PUSH1 0x1 ADD SWAP1 PUSH1 0x20 ADD DUP1 DUP4 GT PUSH2 0xABB JUMPI DUP3 SWAP1 SUB PUSH1 0x1F AND DUP3 ADD SWAP2 JUMPDEST POP POP POP POP POP SWAP1 POP SWAP1 JUMP JUMPDEST PUSH1 0x7 SLOAD DUP2 JUMP JUMPDEST PUSH2 0xAFA PUSH2 0xAF3 PUSH2 0xDB1 JUMP JUMPDEST DUP4 DUP4 PUSH2 0x113C JUMP JUMPDEST POP POP JUMP JUMPDEST PUSH2 0xB09 DUP5 DUP5 DUP5 PUSH2 0x7BA JUMP JUMPDEST PUSH2 0xB15 DUP5 DUP5 DUP5 DUP5 PUSH2 0x12A5 JUMP JUMPDEST POP POP POP POP JUMP JUMPDEST PUSH1 0x60 PUSH0 PUSH2 0xB26 PUSH2 0x1457 JUMP JUMPDEST SWAP1 POP PUSH0 DUP2 MLOAD SUB PUSH2 0xB44 JUMPI PUSH1 0x40 MLOAD DUP1 PUSH1 0x20 ADD PUSH1 0x40 MSTORE DUP1 PUSH0 DUP2 MSTORE POP PUSH2 0xB6F JUMP JUMPDEST DUP1 PUSH2 0xB4E DUP5 PUSH2 0x14E7 JUMP JUMPDEST PUSH1 0x40 MLOAD PUSH1 0x20 ADD PUSH2 0xB5F SWAP3 SWAP2 SWAP1 PUSH2 0x26B7 JUMP JUMPDEST PUSH1 0x40 MLOAD PUSH1 0x20 DUP2 DUP4 SUB SUB DUP2 MSTORE SWAP1 PUSH1 0x40 MSTORE JUMPDEST SWAP2 POP POP SWAP2 SWAP1 POP JUMP JUMPDEST PUSH0 PUSH1 0x5 PUSH0 DUP5 PUSH20 0xFFFFFFFFFFFFFFFFFFFFFFFFFFFFFFFFFFFFFFFF AND PUSH20 0xFFFFFFFFFFFFFFFFFFFFFFFFFFFFFFFFFFFFFFFF AND DUP2 MSTORE PUSH1 0x20 ADD SWAP1 DUP2 MSTORE PUSH1 0x20 ADD PUSH0 KECCAK256 PUSH0 DUP4 PUSH20 0xFFFFFFFFFFFFFFFFFFFFFFFFFFFFFFFFFFFFFFFF AND PUSH20 0xFFFFFFFFFFFFFFFFFFFFFFFFFFFFFFFFFFFFFFFF AND DUP2 MSTORE PUSH1 0x20 ADD SWAP1 DUP2 MSTORE PUSH1 0x20 ADD PUSH0 KECCAK256 PUSH0 SWAP1 SLOAD SWAP1 PUSH2 0x100 EXP SWAP1 DIV PUSH1 0xFF AND SWAP1 POP SWAP3 SWAP2 POP POP JUMP JUMPDEST PUSH2 0xC0D PUSH2 0xFF2 JUMP JUMPDEST PUSH0 PUSH20 0xFFFFFFFFFFFFFFFFFFFFFFFFFFFFFFFFFFFFFFFF AND DUP2 PUSH20 0xFFFFFFFFFFFFFFFFFFFFFFFFFFFFFFFFFFFFFFFF AND SUB PUSH2 0xC7D JUMPI PUSH0 PUSH1 0x40 MLOAD PUSH32 0x1E4FBDF700000000000000000000000000000000000000000000000000000000 DUP2 MSTORE PUSH1 0x4 ADD PUSH2 0xC74 SWAP2 SWAP1 PUSH2 0x1D96 JUMP JUMPDEST PUSH1 0x40 MLOAD DUP1 SWAP2 SUB SWAP1 REVERT JUMPDEST PUSH2 0xC86 DUP2 PUSH2 0x1079 JUMP JUMPDEST POP JUMP JUMPDEST PUSH0 PUSH32 0x1FFC9A700000000000000000000000000000000000000000000000000000000 PUSH28 0xFFFFFFFFFFFFFFFFFFFFFFFFFFFFFFFFFFFFFFFFFFFFFFFFFFFFFFFF NOT AND DUP3 PUSH28 0xFFFFFFFFFFFFFFFFFFFFFFFFFFFFFFFFFFFFFFFFFFFFFFFFFFFFFFFF NOT AND EQ SWAP1 POP SWAP2 SWAP1 POP JUMP JUMPDEST PUSH0 DUP1 PUSH2 0xCFD DUP4 PUSH2 0x15B1 JUMP JUMPDEST SWAP1 POP PUSH0 PUSH20 0xFFFFFFFFFFFFFFFFFFFFFFFFFFFFFFFFFFFFFFFF AND DUP2 PUSH20 0xFFFFFFFFFFFFFFFFFFFFFFFFFFFFFFFFFFFFFFFF AND SUB PUSH2 0xD6F JUMPI DUP3 PUSH1 0x40 MLOAD PUSH32 0x7E27328900000000000000000000000000000000000000000000000000000000 DUP2 MSTORE PUSH1 0x4 ADD PUSH2 0xD66 SWAP2 SWAP1 PUSH2 0x1E26 JUMP JUMPDEST PUSH1 0x40 MLOAD DUP1 SWAP2 SUB SWAP1 REVERT JUMPDEST DUP1 SWAP2 POP POP SWAP2 SWAP1 POP JUMP JUMPDEST PUSH0 PUSH1 0x4 PUSH0 DUP4 DUP2 MSTORE PUSH1 0x20 ADD SWAP1 DUP2 MSTORE PUSH1 0x20 ADD PUSH0 KECCAK256 PUSH0 SWAP1 SLOAD SWAP1 PUSH2 0x100 EXP SWAP1 DIV PUSH20 0xFFFFFFFFFFFFFFFFFFFFFFFFFFFFFFFFFFFFFFFF AND SWAP1 POP SWAP2 SWAP1 POP JUMP JUMPDEST PUSH0 CALLER SWAP1 POP SWAP1 JUMP JUMPDEST PUSH2 0xDC5 DUP4 DUP4 DUP4 PUSH1 0x1 PUSH2 0x15EA JUMP JUMPDEST POP POP POP JUMP JUMPDEST PUSH2 0xDE3 DUP3 DUP3 PUSH1 0x40 MLOAD DUP1 PUSH1 0x20 ADD PUSH1 0x40 MSTORE DUP1 PUSH0 DUP2 MSTORE POP PUSH2 0x17A9 JUMP JUMPDEST POP POP JUMP JUMPDEST PUSH0 DUP1 PUSH2 0xDF2 DUP5 PUSH2 0x15B1 JUMP JUMPDEST SWAP1 POP PUSH0 PUSH20 0xFFFFFFFFFFFFFFFFFFFFFFFFFFFFFFFFFFFFFFFF AND DUP4 PUSH20 0xFFFFFFFFFFFFFFFFFFFFFFFFFFFFFFFFFFFFFFFF AND EQ PUSH2 0xE33 JUMPI PUSH2 0xE32 DUP2 DUP5 DUP7 PUSH2 0x17C4 JUMP JUMPDEST JUMPDEST PUSH0 PUSH20 0xFFFFFFFFFFFFFFFFFFFFFFFFFFFFFFFFFFFFFFFF AND DUP2 PUSH20 0xFFFFFFFFFFFFFFFFFFFFFFFFFFFFFFFFFFFFFFFF AND EQ PUSH2 0xEBE JUMPI PUSH2 0xE72 PUSH0 DUP6 PUSH0 DUP1 PUSH2 0x15EA JUMP JUMPDEST PUSH1 0x1 PUSH1 0x3 PUSH0 DUP4 PUSH20 0xFFFFFFFFFFFFFFFFFFFFFFFFFFFFFFFFFFFFFFFF AND PUSH20 0xFFFFFFFFFFFFFFFFFFFFFFFFFFFFFFFFFFFFFFFF AND DUP2 MSTORE PUSH1 0x20 ADD SWAP1 DUP2 MSTORE PUSH1 0x20 ADD PUSH0 KECCAK256 PUSH0 DUP3 DUP3 SLOAD SUB SWAP3 POP POP DUP2 SWAP1 SSTORE POP JUMPDEST PUSH0 PUSH20 0xFFFFFFFFFFFFFFFFFFFFFFFFFFFFFFFFFFFFFFFF AND DUP6 PUSH20 0xFFFFFFFFFFFFFFFFFFFFFFFFFFFFFFFFFFFFFFFF AND EQ PUSH2 0xF3D JUMPI PUSH1 0x1 PUSH1 0x3 PUSH0 DUP8 PUSH20 0xFFFFFFFFFFFFFFFFFFFFFFFFFFFFFFFFFFFFFFFF AND PUSH20 0xFFFFFFFFFFFFFFFFFFFFFFFFFFFFFFFFFFFFFFFF AND DUP2 MSTORE PUSH1 0x20 ADD SWAP1 DUP2 MSTORE PUSH1 0x20 ADD PUSH0 KECCAK256 PUSH0 DUP3 DUP3 SLOAD ADD SWAP3 POP POP DUP2 SWAP1 SSTORE POP JUMPDEST DUP5 PUSH1 0x2 PUSH0 DUP7 DUP2 MSTORE PUSH1 0x20 ADD SWAP1 DUP2 MSTORE PUSH1 0x20 ADD PUSH0 KECCAK256 PUSH0 PUSH2 0x100 EXP DUP2 SLOAD DUP2 PUSH20 0xFFFFFFFFFFFFFFFFFFFFFFFFFFFFFFFFFFFFFFFF MUL NOT AND SWAP1 DUP4 PUSH20 0xFFFFFFFFFFFFFFFFFFFFFFFFFFFFFFFFFFFFFFFF AND MUL OR SWAP1 SSTORE POP DUP4 DUP6 PUSH20 0xFFFFFFFFFFFFFFFFFFFFFFFFFFFFFFFFFFFFFFFF AND DUP3 PUSH20 0xFFFFFFFFFFFFFFFFFFFFFFFFFFFFFFFFFFFFFFFF AND PUSH32 0xDDF252AD1BE2C89B69C2B068FC378DAA952BA7F163C4A11628F55A4DF523B3EF PUSH1 0x40 MLOAD PUSH1 0x40 MLOAD DUP1 SWAP2 SUB SWAP1 LOG4 DUP1 SWAP2 POP POP SWAP4 SWAP3 POP POP POP JUMP JUMPDEST PUSH2 0xFFA PUSH2 0xDB1 JUMP JUMPDEST PUSH20 0xFFFFFFFFFFFFFFFFFFFFFFFFFFFFFFFFFFFFFFFF AND PUSH2 0x1018 PUSH2 0xA18 JUMP JUMPDEST PUSH20 0xFFFFFFFFFFFFFFFFFFFFFFFFFFFFFFFFFFFFFFFF AND EQ PUSH2 0x1077 JUMPI PUSH2 0x103B PUSH2 0xDB1 JUMP JUMPDEST PUSH1 0x40 MLOAD PUSH32 0x118CDAA700000000000000000000000000000000000000000000000000000000 DUP2 MSTORE PUSH1 0x4 ADD PUSH2 0x106E SWAP2 SWAP1 PUSH2 0x1D96 JUMP JUMPDEST PUSH1 0x40 MLOAD DUP1 SWAP2 SUB SWAP1 REVERT JUMPDEST JUMP JUMPDEST PUSH0 PUSH1 0x6 PUSH0 SWAP1 SLOAD SWAP1 PUSH2 0x100 EXP SWAP1 DIV PUSH20 0xFFFFFFFFFFFFFFFFFFFFFFFFFFFFFFFFFFFFFFFF AND SWAP1 POP DUP2 PUSH1 0x6 PUSH0 PUSH2 0x100 EXP DUP2 SLOAD DUP2 PUSH20 0xFFFFFFFFFFFFFFFFFFFFFFFFFFFFFFFFFFFFFFFF MUL NOT AND SWAP1 DUP4 PUSH20 0xFFFFFFFFFFFFFFFFFFFFFFFFFFFFFFFFFFFFFFFF AND MUL OR SWAP1 SSTORE POP DUP2 PUSH20 0xFFFFFFFFFFFFFFFFFFFFFFFFFFFFFFFFFFFFFFFF AND DUP2 PUSH20 0xFFFFFFFFFFFFFFFFFFFFFFFFFFFFFFFFFFFFFFFF AND PUSH32 0x8BE0079C531659141344CD1FD0A4F28419497F9722A3DAAFE3B4186F6B6457E0 PUSH1 0x40 MLOAD PUSH1 0x40 MLOAD DUP1 SWAP2 SUB SWAP1 LOG3 POP POP JUMP JUMPDEST PUSH0 PUSH20 0xFFFFFFFFFFFFFFFFFFFFFFFFFFFFFFFFFFFFFFFF AND DUP3 PUSH20 0xFFFFFFFFFFFFFFFFFFFFFFFFFFFFFFFFFFFFFFFF AND SUB PUSH2 0x11AC JUMPI DUP2 PUSH1 0x40 MLOAD PUSH32 0x5B08BA1800000000000000000000000000000000000000000000000000000000 DUP2 MSTORE PUSH1 0x4 ADD PUSH2 0x11A3 SWAP2 SWAP1 PUSH2 0x1D96 JUMP JUMPDEST PUSH1 0x40 MLOAD DUP1 SWAP2 SUB SWAP1 REVERT JUMPDEST DUP1 PUSH1 0x5 PUSH0 DUP6 PUSH20 0xFFFFFFFFFFFFFFFFFFFFFFFFFFFFFFFFFFFFFFFF AND PUSH20 0xFFFFFFFFFFFFFFFFFFFFFFFFFFFFFFFFFFFFFFFF AND DUP2 MSTORE PUSH1 0x20 ADD SWAP1 DUP2 MSTORE PUSH1 0x20 ADD PUSH0 KECCAK256 PUSH0 DUP5 PUSH20 0xFFFFFFFFFFFFFFFFFFFFFFFFFFFFFFFFFFFFFFFF AND PUSH20 0xFFFFFFFFFFFFFFFFFFFFFFFFFFFFFFFFFFFFFFFF AND DUP2 MSTORE PUSH1 0x20 ADD SWAP1 DUP2 MSTORE PUSH1 0x20 ADD PUSH0 KECCAK256 PUSH0 PUSH2 0x100 EXP DUP2 SLOAD DUP2 PUSH1 0xFF MUL NOT AND SWAP1 DUP4 ISZERO ISZERO MUL OR SWAP1 SSTORE POP DUP2 PUSH20 0xFFFFFFFFFFFFFFFFFFFFFFFFFFFFFFFFFFFFFFFF AND DUP4 PUSH20 0xFFFFFFFFFFFFFFFFFFFFFFFFFFFFFFFFFFFFFFFF AND PUSH32 0x17307EAB39AB6107E8899845AD3D59BD9653F200F220920489CA2B5937696C31 DUP4 PUSH1 0x40 MLOAD PUSH2 0x1298 SWAP2 SWAP1 PUSH2 0x1C36 JUMP JUMPDEST PUSH1 0x40 MLOAD DUP1 SWAP2 SUB SWAP1 LOG3 POP POP POP JUMP JUMPDEST PUSH0 DUP4 PUSH20 0xFFFFFFFFFFFFFFFFFFFFFFFFFFFFFFFFFFFFFFFF AND EXTCODESIZE GT ISZERO PUSH2 0x1451 JUMPI DUP3 PUSH20 0xFFFFFFFFFFFFFFFFFFFFFFFFFFFFFFFFFFFFFFFF AND PUSH4 0x150B7A02 PUSH2 0x12E8 PUSH2 0xDB1 JUMP JUMPDEST DUP7 DUP6 DUP6 PUSH1 0x40 MLOAD DUP6 PUSH4 0xFFFFFFFF AND PUSH1 0xE0 SHL DUP2 MSTORE PUSH1 0x4 ADD PUSH2 0x130A SWAP5 SWAP4 SWAP3 SWAP2 SWAP1 PUSH2 0x2737 JUMP JUMPDEST PUSH1 0x20 PUSH1 0x40 MLOAD DUP1 DUP4 SUB DUP2 PUSH0 DUP8 GAS CALL SWAP3 POP POP POP DUP1 ISZERO PUSH2 0x1345 JUMPI POP PUSH1 0x40 MLOAD RETURNDATASIZE PUSH1 0x1F NOT PUSH1 0x1F DUP3 ADD AND DUP3 ADD DUP1 PUSH1 0x40 MSTORE POP DUP2 ADD SWAP1 PUSH2 0x1342 SWAP2 SWAP1 PUSH2 0x2795 JUMP JUMPDEST PUSH1 0x1 JUMPDEST PUSH2 0x13C6 JUMPI RETURNDATASIZE DUP1 PUSH0 DUP2 EQ PUSH2 0x1373 JUMPI PUSH1 0x40 MLOAD SWAP2 POP PUSH1 0x1F NOT PUSH1 0x3F RETURNDATASIZE ADD AND DUP3 ADD PUSH1 0x40 MSTORE RETURNDATASIZE DUP3 MSTORE RETURNDATASIZE PUSH0 PUSH1 0x20 DUP5 ADD RETURNDATACOPY PUSH2 0x1378 JUMP JUMPDEST PUSH1 0x60 SWAP2 POP JUMPDEST POP PUSH0 DUP2 MLOAD SUB PUSH2 0x13BE JUMPI DUP4 PUSH1 0x40 MLOAD PUSH32 0x64A0AE9200000000000000000000000000000000000000000000000000000000 DUP2 MSTORE PUSH1 0x4 ADD PUSH2 0x13B5 SWAP2 SWAP1 PUSH2 0x1D96 JUMP JUMPDEST PUSH1 0x40 MLOAD DUP1 SWAP2 SUB SWAP1 REVERT JUMPDEST DUP1 MLOAD DUP2 PUSH1 0x20 ADD REVERT JUMPDEST PUSH4 0x150B7A02 PUSH1 0xE0 SHL PUSH28 0xFFFFFFFFFFFFFFFFFFFFFFFFFFFFFFFFFFFFFFFFFFFFFFFFFFFFFFFF NOT AND DUP2 PUSH28 0xFFFFFFFFFFFFFFFFFFFFFFFFFFFFFFFFFFFFFFFFFFFFFFFFFFFFFFFF NOT AND EQ PUSH2 0x144F JUMPI DUP4 PUSH1 0x40 MLOAD PUSH32 0x64A0AE9200000000000000000000000000000000000000000000000000000000 DUP2 MSTORE PUSH1 0x4 ADD PUSH2 0x1446 SWAP2 SWAP1 PUSH2 0x1D96 JUMP JUMPDEST PUSH1 0x40 MLOAD DUP1 SWAP2 SUB SWAP1 REVERT JUMPDEST POP JUMPDEST POP POP POP POP JUMP JUMPDEST PUSH1 0x60 PUSH1 0x9 DUP1 SLOAD PUSH2 0x1466 SWAP1 PUSH2 0x221E JUMP JUMPDEST DUP1 PUSH1 0x1F ADD PUSH1 0x20 DUP1 SWAP2 DIV MUL PUSH1 0x20 ADD PUSH1 0x40 MLOAD SWAP1 DUP2 ADD PUSH1 0x40 MSTORE DUP1 SWAP3 SWAP2 SWAP1 DUP2 DUP2 MSTORE PUSH1 0x20 ADD DUP3 DUP1 SLOAD PUSH2 0x1492 SWAP1 PUSH2 0x221E JUMP JUMPDEST DUP1 ISZERO PUSH2 0x14DD JUMPI DUP1 PUSH1 0x1F LT PUSH2 0x14B4 JUMPI PUSH2 0x100 DUP1 DUP4 SLOAD DIV MUL DUP4 MSTORE SWAP2 PUSH1 0x20 ADD SWAP2 PUSH2 0x14DD JUMP JUMPDEST DUP3 ADD SWAP2 SWAP1 PUSH0 MSTORE PUSH1 0x20 PUSH0 KECCAK256 SWAP1 JUMPDEST DUP2 SLOAD DUP2 MSTORE SWAP1 PUSH1 0x1 ADD SWAP1 PUSH1 0x20 ADD DUP1 DUP4 GT PUSH2 0x14C0 JUMPI DUP3 SWAP1 SUB PUSH1 0x1F AND DUP3 ADD SWAP2 JUMPDEST POP POP POP POP POP SWAP1 POP SWAP1 JUMP JUMPDEST PUSH1 0x60 PUSH0 PUSH1 0x1 PUSH2 0x14F5 DUP5 PUSH2 0x1887 JUMP JUMPDEST ADD SWAP1 POP PUSH0 DUP2 PUSH8 0xFFFFFFFFFFFFFFFF DUP2 GT ISZERO PUSH2 0x1513 JUMPI PUSH2 0x1512 PUSH2 0x1E97 JUMP JUMPDEST JUMPDEST PUSH1 0x40 MLOAD SWAP1 DUP1 DUP3 MSTORE DUP1 PUSH1 0x1F ADD PUSH1 0x1F NOT AND PUSH1 0x20 ADD DUP3 ADD PUSH1 0x40 MSTORE DUP1 ISZERO PUSH2 0x1545 JUMPI DUP2 PUSH1 0x20 ADD PUSH1 0x1 DUP3 MUL DUP1 CALLDATASIZE DUP4 CALLDATACOPY DUP1 DUP3 ADD SWAP2 POP POP SWAP1 POP JUMPDEST POP SWAP1 POP PUSH0 DUP3 PUSH1 0x20 ADD DUP3 ADD SWAP1 POP JUMPDEST PUSH1 0x1 ISZERO PUSH2 0x15A6 JUMPI DUP1 DUP1 PUSH1 0x1 SWAP1 SUB SWAP2 POP POP PUSH32 0x3031323334353637383961626364656600000000000000000000000000000000 PUSH1 0xA DUP7 MOD BYTE DUP2 MSTORE8 PUSH1 0xA DUP6 DUP2 PUSH2 0x159B JUMPI PUSH2 0x159A PUSH2 0x27C0 JUMP JUMPDEST JUMPDEST DIV SWAP5 POP PUSH0 DUP6 SUB PUSH2 0x1552 JUMPI JUMPDEST DUP2 SWAP4 POP POP POP POP SWAP2 SWAP1 POP JUMP JUMPDEST PUSH0 PUSH1 0x2 PUSH0 DUP4 DUP2 MSTORE PUSH1 0x20 ADD SWAP1 DUP2 MSTORE PUSH1 0x20 ADD PUSH0 KECCAK256 PUSH0 SWAP1 SLOAD SWAP1 PUSH2 0x100 EXP SWAP1 DIV PUSH20 0xFFFFFFFFFFFFFFFFFFFFFFFFFFFFFFFFFFFFFFFF AND SWAP1 POP SWAP2 SWAP1 POP JUMP JUMPDEST DUP1 DUP1 PUSH2 0x1622 JUMPI POP PUSH0 PUSH20 0xFFFFFFFFFFFFFFFFFFFFFFFFFFFFFFFFFFFFFFFF AND DUP3 PUSH20 0xFFFFFFFFFFFFFFFFFFFFFFFFFFFFFFFFFFFFFFFF AND EQ ISZERO JUMPDEST ISZERO PUSH2 0x1754 JUMPI PUSH0 PUSH2 0x1631 DUP5 PUSH2 0xCF2 JUMP JUMPDEST SWAP1 POP PUSH0 PUSH20 0xFFFFFFFFFFFFFFFFFFFFFFFFFFFFFFFFFFFFFFFF AND DUP4 PUSH20 0xFFFFFFFFFFFFFFFFFFFFFFFFFFFFFFFFFFFFFFFF AND EQ ISZERO DUP1 ISZERO PUSH2 0x169B JUMPI POP DUP3 PUSH20 0xFFFFFFFFFFFFFFFFFFFFFFFFFFFFFFFFFFFFFFFF AND DUP2 PUSH20 0xFFFFFFFFFFFFFFFFFFFFFFFFFFFFFFFFFFFFFFFF AND EQ ISZERO JUMPDEST DUP1 ISZERO PUSH2 0x16AE JUMPI POP PUSH2 0x16AC DUP2 DUP5 PUSH2 0xB77 JUMP JUMPDEST ISZERO JUMPDEST ISZERO PUSH2 0x16F0 JUMPI DUP3 PUSH1 0x40 MLOAD PUSH32 0xA9FBF51F00000000000000000000000000000000000000000000000000000000 DUP2 MSTORE PUSH1 0x4 ADD PUSH2 0x16E7 SWAP2 SWAP1 PUSH2 0x1D96 JUMP JUMPDEST PUSH1 0x40 MLOAD DUP1 SWAP2 SUB SWAP1 REVERT JUMPDEST DUP2 ISZERO PUSH2 0x1752 JUMPI DUP4 DUP6 PUSH20 0xFFFFFFFFFFFFFFFFFFFFFFFFFFFFFFFFFFFFFFFF AND DUP3 PUSH20 0xFFFFFFFFFFFFFFFFFFFFFFFFFFFFFFFFFFFFFFFF AND PUSH32 0x8C5BE1E5EBEC7D5BD14F71427D1E84F3DD0314C0F7B2291E5B200AC8C7C3B925 PUSH1 0x40 MLOAD PUSH1 0x40 MLOAD DUP1 SWAP2 SUB SWAP1 LOG4 JUMPDEST POP JUMPDEST DUP4 PUSH1 0x4 PUSH0 DUP6 DUP2 MSTORE PUSH1 0x20 ADD SWAP1 DUP2 MSTORE PUSH1 0x20 ADD PUSH0 KECCAK256 PUSH0 PUSH2 0x100 EXP DUP2 SLOAD DUP2 PUSH20 0xFFFFFFFFFFFFFFFFFFFFFFFFFFFFFFFFFFFFFFFF MUL NOT AND SWAP1 DUP4 PUSH20 0xFFFFFFFFFFFFFFFFFFFFFFFFFFFFFFFFFFFFFFFF AND MUL OR SWAP1 SSTORE POP POP POP POP POP JUMP JUMPDEST PUSH2 0x17B3 DUP4 DUP4 PUSH2 0x19D8 JUMP JUMPDEST PUSH2 0x17BF PUSH0 DUP5 DUP5 DUP5 PUSH2 0x12A5 JUMP JUMPDEST POP POP POP JUMP JUMPDEST PUSH2 0x17CF DUP4 DUP4 DUP4 PUSH2 0x1ACB JUMP JUMPDEST PUSH2 0x1882 JUMPI PUSH0 PUSH20 0xFFFFFFFFFFFFFFFFFFFFFFFFFFFFFFFFFFFFFFFF AND DUP4 PUSH20 0xFFFFFFFFFFFFFFFFFFFFFFFFFFFFFFFFFFFFFFFF AND SUB PUSH2 0x1843 JUMPI DUP1 PUSH1 0x40 MLOAD PUSH32 0x7E27328900000000000000000000000000000000000000000000000000000000 DUP2 MSTORE PUSH1 0x4 ADD PUSH2 0x183A SWAP2 SWAP1 PUSH2 0x1E26 JUMP JUMPDEST PUSH1 0x40 MLOAD DUP1 SWAP2 SUB SWAP1 REVERT JUMPDEST DUP2 DUP2 PUSH1 0x40 MLOAD PUSH32 0x177E802F00000000000000000000000000000000000000000000000000000000 DUP2 MSTORE PUSH1 0x4 ADD PUSH2 0x1879 SWAP3 SWAP2 SWAP1 PUSH2 0x27ED JUMP JUMPDEST PUSH1 0x40 MLOAD DUP1 SWAP2 SUB SWAP1 REVERT JUMPDEST POP POP POP JUMP JUMPDEST PUSH0 DUP1 PUSH0 SWAP1 POP PUSH27 0x184F03E93FF9F4DAA797ED6E38ED64BF6A1F010000000000000000 DUP4 LT PUSH2 0x18E3 JUMPI PUSH27 0x184F03E93FF9F4DAA797ED6E38ED64BF6A1F010000000000000000 DUP4 DUP2 PUSH2 0x18D9 JUMPI PUSH2 0x18D8 PUSH2 0x27C0 JUMP JUMPDEST JUMPDEST DIV SWAP3 POP PUSH1 0x40 DUP2 ADD SWAP1 POP JUMPDEST PUSH14 0x4EE2D6D415B85ACEF8100000000 DUP4 LT PUSH2 0x1920 JUMPI PUSH14 0x4EE2D6D415B85ACEF8100000000 DUP4 DUP2 PUSH2 0x1916 JUMPI PUSH2 0x1915 PUSH2 0x27C0 JUMP JUMPDEST JUMPDEST DIV SWAP3 POP PUSH1 0x20 DUP2 ADD SWAP1 POP JUMPDEST PUSH7 0x2386F26FC10000 DUP4 LT PUSH2 0x194F JUMPI PUSH7 0x2386F26FC10000 DUP4 DUP2 PUSH2 0x1945 JUMPI PUSH2 0x1944 PUSH2 0x27C0 JUMP JUMPDEST JUMPDEST DIV SWAP3 POP PUSH1 0x10 DUP2 ADD SWAP1 POP JUMPDEST PUSH4 0x5F5E100 DUP4 LT PUSH2 0x1978 JUMPI PUSH4 0x5F5E100 DUP4 DUP2 PUSH2 0x196E JUMPI PUSH2 0x196D PUSH2 0x27C0 JUMP JUMPDEST JUMPDEST DIV SWAP3 POP PUSH1 0x8 DUP2 ADD SWAP1 POP JUMPDEST PUSH2 0x2710 DUP4 LT PUSH2 0x199D JUMPI PUSH2 0x2710 DUP4 DUP2 PUSH2 0x1993 JUMPI PUSH2 0x1992 PUSH2 0x27C0 JUMP JUMPDEST JUMPDEST DIV SWAP3 POP PUSH1 0x4 DUP2 ADD SWAP1 POP JUMPDEST PUSH1 0x64 DUP4 LT PUSH2 0x19C0 JUMPI PUSH1 0x64 DUP4 DUP2 PUSH2 0x19B6 JUMPI PUSH2 0x19B5 PUSH2 0x27C0 JUMP JUMPDEST JUMPDEST DIV SWAP3 POP PUSH1 0x2 DUP2 ADD SWAP1 POP JUMPDEST PUSH1 0xA DUP4 LT PUSH2 0x19CF JUMPI PUSH1 0x1 DUP2 ADD SWAP1 POP JUMPDEST DUP1 SWAP2 POP POP SWAP2 SWAP1 POP JUMP JUMPDEST PUSH0 PUSH20 0xFFFFFFFFFFFFFFFFFFFFFFFFFFFFFFFFFFFFFFFF AND DUP3 PUSH20 0xFFFFFFFFFFFFFFFFFFFFFFFFFFFFFFFFFFFFFFFF AND SUB PUSH2 0x1A48 JUMPI PUSH0 PUSH1 0x40 MLOAD PUSH32 0x64A0AE9200000000000000000000000000000000000000000000000000000000 DUP2 MSTORE PUSH1 0x4 ADD PUSH2 0x1A3F SWAP2 SWAP1 PUSH2 0x1D96 JUMP JUMPDEST PUSH1 0x40 MLOAD DUP1 SWAP2 SUB SWAP1 REVERT JUMPDEST PUSH0 PUSH2 0x1A54 DUP4 DUP4 PUSH0 PUSH2 0xDE7 JUMP JUMPDEST SWAP1 POP PUSH0 PUSH20 0xFFFFFFFFFFFFFFFFFFFFFFFFFFFFFFFFFFFFFFFF AND DUP2 PUSH20 0xFFFFFFFFFFFFFFFFFFFFFFFFFFFFFFFFFFFFFFFF AND EQ PUSH2 0x1AC6 JUMPI PUSH0 PUSH1 0x40 MLOAD PUSH32 0x73C6AC6E00000000000000000000000000000000000000000000000000000000 DUP2 MSTORE PUSH1 0x4 ADD PUSH2 0x1ABD SWAP2 SWAP1 PUSH2 0x1D96 JUMP JUMPDEST PUSH1 0x40 MLOAD DUP1 SWAP2 SUB SWAP1 REVERT JUMPDEST POP POP POP JUMP JUMPDEST PUSH0 DUP1 PUSH20 0xFFFFFFFFFFFFFFFFFFFFFFFFFFFFFFFFFFFFFFFF AND DUP4 PUSH20 0xFFFFFFFFFFFFFFFFFFFFFFFFFFFFFFFFFFFFFFFF AND EQ ISZERO DUP1 ISZERO PUSH2 0x1B82 JUMPI POP DUP3 PUSH20 0xFFFFFFFFFFFFFFFFFFFFFFFFFFFFFFFFFFFFFFFF AND DUP5 PUSH20 0xFFFFFFFFFFFFFFFFFFFFFFFFFFFFFFFFFFFFFFFF AND EQ DUP1 PUSH2 0x1B43 JUMPI POP PUSH2 0x1B42 DUP5 DUP5 PUSH2 0xB77 JUMP JUMPDEST JUMPDEST DUP1 PUSH2 0x1B81 JUMPI POP DUP3 PUSH20 0xFFFFFFFFFFFFFFFFFFFFFFFFFFFFFFFFFFFFFFFF AND PUSH2 0x1B69 DUP4 PUSH2 0xD78 JUMP JUMPDEST PUSH20 0xFFFFFFFFFFFFFFFFFFFFFFFFFFFFFFFFFFFFFFFF AND EQ JUMPDEST JUMPDEST SWAP1 POP SWAP4 SWAP3 POP POP POP JUMP JUMPDEST PUSH0 PUSH1 0x40 MLOAD SWAP1 POP SWAP1 JUMP JUMPDEST PUSH0 DUP1 REVERT JUMPDEST PUSH0 DUP1 REVERT JUMPDEST PUSH0 PUSH32 0xFFFFFFFF00000000000000000000000000000000000000000000000000000000 DUP3 AND SWAP1 POP SWAP2 SWAP1 POP JUMP JUMPDEST PUSH2 0x1BD0 DUP2 PUSH2 0x1B9C JUMP JUMPDEST DUP2 EQ PUSH2 0x1BDA JUMPI PUSH0 DUP1 REVERT JUMPDEST POP JUMP JUMPDEST PUSH0 DUP2 CALLDATALOAD SWAP1 POP PUSH2 0x1BEB DUP2 PUSH2 0x1BC7 JUMP JUMPDEST SWAP3 SWAP2 POP POP JUMP JUMPDEST PUSH0 PUSH1 0x20 DUP3 DUP5 SUB SLT ISZERO PUSH2 0x1C06 JUMPI PUSH2 0x1C05 PUSH2 0x1B94 JUMP JUMPDEST JUMPDEST PUSH0 PUSH2 0x1C13 DUP5 DUP3 DUP6 ADD PUSH2 0x1BDD JUMP JUMPDEST SWAP2 POP POP SWAP3 SWAP2 POP POP JUMP JUMPDEST PUSH0 DUP2 ISZERO ISZERO SWAP1 POP SWAP2 SWAP1 POP JUMP JUMPDEST PUSH2 0x1C30 DUP2 PUSH2 0x1C1C JUMP JUMPDEST DUP3 MSTORE POP POP JUMP JUMPDEST PUSH0 PUSH1 0x20 DUP3 ADD SWAP1 POP PUSH2 0x1C49 PUSH0 DUP4 ADD DUP5 PUSH2 0x1C27 JUMP JUMPDEST SWAP3 SWAP2 POP POP JUMP JUMPDEST PUSH0 DUP2 MLOAD SWAP1 POP SWAP2 SWAP1 POP JUMP JUMPDEST PUSH0 DUP3 DUP3 MSTORE PUSH1 0x20 DUP3 ADD SWAP1 POP SWAP3 SWAP2 POP POP JUMP JUMPDEST PUSH0 JUMPDEST DUP4 DUP2 LT ISZERO PUSH2 0x1C86 JUMPI DUP1 DUP3 ADD MLOAD DUP2 DUP5 ADD MSTORE PUSH1 0x20 DUP2 ADD SWAP1 POP PUSH2 0x1C6B JUMP JUMPDEST PUSH0 DUP5 DUP5 ADD MSTORE POP POP POP POP JUMP JUMPDEST PUSH0 PUSH1 0x1F NOT PUSH1 0x1F DUP4 ADD AND SWAP1 POP SWAP2 SWAP1 POP JUMP JUMPDEST PUSH0 PUSH2 0x1CAB DUP3 PUSH2 0x1C4F JUMP JUMPDEST PUSH2 0x1CB5 DUP2 DUP6 PUSH2 0x1C59 JUMP JUMPDEST SWAP4 POP PUSH2 0x1CC5 DUP2 DUP6 PUSH1 0x20 DUP7 ADD PUSH2 0x1C69 JUMP JUMPDEST PUSH2 0x1CCE DUP2 PUSH2 0x1C91 JUMP JUMPDEST DUP5 ADD SWAP2 POP POP SWAP3 SWAP2 POP POP JUMP JUMPDEST PUSH0 PUSH1 0x20 DUP3 ADD SWAP1 POP DUP2 DUP2 SUB PUSH0 DUP4 ADD MSTORE PUSH2 0x1CF1 DUP2 DUP5 PUSH2 0x1CA1 JUMP JUMPDEST SWAP1 POP SWAP3 SWAP2 POP POP JUMP JUMPDEST PUSH0 DUP2 SWAP1 POP SWAP2 SWAP1 POP JUMP JUMPDEST PUSH2 0x1D0B DUP2 PUSH2 0x1CF9 JUMP JUMPDEST DUP2 EQ PUSH2 0x1D15 JUMPI PUSH0 DUP1 REVERT JUMPDEST POP JUMP JUMPDEST PUSH0 DUP2 CALLDATALOAD SWAP1 POP PUSH2 0x1D26 DUP2 PUSH2 0x1D02 JUMP JUMPDEST SWAP3 SWAP2 POP POP JUMP JUMPDEST PUSH0 PUSH1 0x20 DUP3 DUP5 SUB SLT ISZERO PUSH2 0x1D41 JUMPI PUSH2 0x1D40 PUSH2 0x1B94 JUMP JUMPDEST JUMPDEST PUSH0 PUSH2 0x1D4E DUP5 DUP3 DUP6 ADD PUSH2 0x1D18 JUMP JUMPDEST SWAP2 POP POP SWAP3 SWAP2 POP POP JUMP JUMPDEST PUSH0 PUSH20 0xFFFFFFFFFFFFFFFFFFFFFFFFFFFFFFFFFFFFFFFF DUP3 AND SWAP1 POP SWAP2 SWAP1 POP JUMP JUMPDEST PUSH0 PUSH2 0x1D80 DUP3 PUSH2 0x1D57 JUMP JUMPDEST SWAP1 POP SWAP2 SWAP1 POP JUMP JUMPDEST PUSH2 0x1D90 DUP2 PUSH2 0x1D76 JUMP JUMPDEST DUP3 MSTORE POP POP JUMP JUMPDEST PUSH0 PUSH1 0x20 DUP3 ADD SWAP1 POP PUSH2 0x1DA9 PUSH0 DUP4 ADD DUP5 PUSH2 0x1D87 JUMP JUMPDEST SWAP3 SWAP2 POP POP JUMP JUMPDEST PUSH2 0x1DB8 DUP2 PUSH2 0x1D76 JUMP JUMPDEST DUP2 EQ PUSH2 0x1DC2 JUMPI PUSH0 DUP1 REVERT JUMPDEST POP JUMP JUMPDEST PUSH0 DUP2 CALLDATALOAD SWAP1 POP PUSH2 0x1DD3 DUP2 PUSH2 0x1DAF JUMP JUMPDEST SWAP3 SWAP2 POP POP JUMP JUMPDEST PUSH0 DUP1 PUSH1 0x40 DUP4 DUP6 SUB SLT ISZERO PUSH2 0x1DEF JUMPI PUSH2 0x1DEE PUSH2 0x1B94 JUMP JUMPDEST JUMPDEST PUSH0 PUSH2 0x1DFC DUP6 DUP3 DUP7 ADD PUSH2 0x1DC5 JUMP JUMPDEST SWAP3 POP POP PUSH1 0x20 PUSH2 0x1E0D DUP6 DUP3 DUP7 ADD PUSH2 0x1D18 JUMP JUMPDEST SWAP2 POP POP SWAP3 POP SWAP3 SWAP1 POP JUMP JUMPDEST PUSH2 0x1E20 DUP2 PUSH2 0x1CF9 JUMP JUMPDEST DUP3 MSTORE POP POP JUMP JUMPDEST PUSH0 PUSH1 0x20 DUP3 ADD SWAP1 POP PUSH2 0x1E39 PUSH0 DUP4 ADD DUP5 PUSH2 0x1E17 JUMP JUMPDEST SWAP3 SWAP2 POP POP JUMP JUMPDEST PUSH0 DUP1 PUSH0 PUSH1 0x60 DUP5 DUP7 SUB SLT ISZERO PUSH2 0x1E56 JUMPI PUSH2 0x1E55 PUSH2 0x1B94 JUMP JUMPDEST JUMPDEST PUSH0 PUSH2 0x1E63 DUP7 DUP3 DUP8 ADD PUSH2 0x1DC5 JUMP JUMPDEST SWAP4 POP POP PUSH1 0x20 PUSH2 0x1E74 DUP7 DUP3 DUP8 ADD PUSH2 0x1DC5 JUMP JUMPDEST SWAP3 POP POP PUSH1 0x40 PUSH2 0x1E85 DUP7 DUP3 DUP8 ADD PUSH2 0x1D18 JUMP JUMPDEST SWAP2 POP POP SWAP3 POP SWAP3 POP SWAP3 JUMP JUMPDEST PUSH0 DUP1 REVERT JUMPDEST PUSH0 DUP1 REVERT JUMPDEST PUSH32 0x4E487B7100000000000000000000000000000000000000000000000000000000 PUSH0 MSTORE PUSH1 0x41 PUSH1 0x4 MSTORE PUSH1 0x24 PUSH0 REVERT JUMPDEST PUSH2 0x1ECD DUP3 PUSH2 0x1C91 JUMP JUMPDEST DUP2 ADD DUP2 DUP2 LT PUSH8 0xFFFFFFFFFFFFFFFF DUP3 GT OR ISZERO PUSH2 0x1EEC JUMPI PUSH2 0x1EEB PUSH2 0x1E97 JUMP JUMPDEST JUMPDEST DUP1 PUSH1 0x40 MSTORE POP POP POP JUMP JUMPDEST PUSH0 PUSH2 0x1EFE PUSH2 0x1B8B JUMP JUMPDEST SWAP1 POP PUSH2 0x1F0A DUP3 DUP3 PUSH2 0x1EC4 JUMP JUMPDEST SWAP2 SWAP1 POP JUMP JUMPDEST PUSH0 PUSH8 0xFFFFFFFFFFFFFFFF DUP3 GT ISZERO PUSH2 0x1F29 JUMPI PUSH2 0x1F28 PUSH2 0x1E97 JUMP JUMPDEST JUMPDEST PUSH2 0x1F32 DUP3 PUSH2 0x1C91 JUMP JUMPDEST SWAP1 POP PUSH1 0x20 DUP2 ADD SWAP1 POP SWAP2 SWAP1 POP JUMP JUMPDEST DUP3 DUP2 DUP4 CALLDATACOPY PUSH0 DUP4 DUP4 ADD MSTORE POP POP POP JUMP JUMPDEST PUSH0 PUSH2 0x1F5F PUSH2 0x1F5A DUP5 PUSH2 0x1F0F JUMP JUMPDEST PUSH2 0x1EF5 JUMP JUMPDEST SWAP1 POP DUP3 DUP2 MSTORE PUSH1 0x20 DUP2 ADD DUP5 DUP5 DUP5 ADD GT ISZERO PUSH2 0x1F7B JUMPI PUSH2 0x1F7A PUSH2 0x1E93 JUMP JUMPDEST JUMPDEST PUSH2 0x1F86 DUP5 DUP3 DUP6 PUSH2 0x1F3F JUMP JUMPDEST POP SWAP4 SWAP3 POP POP POP JUMP JUMPDEST PUSH0 DUP3 PUSH1 0x1F DUP4 ADD SLT PUSH2 0x1FA2 JUMPI PUSH2 0x1FA1 PUSH2 0x1E8F JUMP JUMPDEST JUMPDEST DUP2 CALLDATALOAD PUSH2 0x1FB2 DUP5 DUP3 PUSH1 0x20 DUP7 ADD PUSH2 0x1F4D JUMP JUMPDEST SWAP2 POP POP SWAP3 SWAP2 POP POP JUMP JUMPDEST PUSH0 PUSH1 0x20 DUP3 DUP5 SUB SLT ISZERO PUSH2 0x1FD0 JUMPI PUSH2 0x1FCF PUSH2 0x1B94 JUMP JUMPDEST JUMPDEST PUSH0 DUP3 ADD CALLDATALOAD PUSH8 0xFFFFFFFFFFFFFFFF DUP2 GT ISZERO PUSH2 0x1FED JUMPI PUSH2 0x1FEC PUSH2 0x1B98 JUMP JUMPDEST JUMPDEST PUSH2 0x1FF9 DUP5 DUP3 DUP6 ADD PUSH2 0x1F8E JUMP JUMPDEST SWAP2 POP POP SWAP3 SWAP2 POP POP JUMP JUMPDEST PUSH0 PUSH1 0x20 DUP3 DUP5 SUB SLT ISZERO PUSH2 0x2017 JUMPI PUSH2 0x2016 PUSH2 0x1B94 JUMP JUMPDEST JUMPDEST PUSH0 PUSH2 0x2024 DUP5 DUP3 DUP6 ADD PUSH2 0x1DC5 JUMP JUMPDEST SWAP2 POP POP SWAP3 SWAP2 POP POP JUMP JUMPDEST PUSH2 0x2036 DUP2 PUSH2 0x1C1C JUMP JUMPDEST DUP2 EQ PUSH2 0x2040 JUMPI PUSH0 DUP1 REVERT JUMPDEST POP JUMP JUMPDEST PUSH0 DUP2 CALLDATALOAD SWAP1 POP PUSH2 0x2051 DUP2 PUSH2 0x202D JUMP JUMPDEST SWAP3 SWAP2 POP POP JUMP JUMPDEST PUSH0 DUP1 PUSH1 0x40 DUP4 DUP6 SUB SLT ISZERO PUSH2 0x206D JUMPI PUSH2 0x206C PUSH2 0x1B94 JUMP JUMPDEST JUMPDEST PUSH0 PUSH2 0x207A DUP6 DUP3 DUP7 ADD PUSH2 0x1DC5 JUMP JUMPDEST SWAP3 POP POP PUSH1 0x20 PUSH2 0x208B DUP6 DUP3 DUP7 ADD PUSH2 0x2043 JUMP JUMPDEST SWAP2 POP POP SWAP3 POP SWAP3 SWAP1 POP JUMP JUMPDEST PUSH0 PUSH8 0xFFFFFFFFFFFFFFFF DUP3 GT ISZERO PUSH2 0x20AF JUMPI PUSH2 0x20AE PUSH2 0x1E97 JUMP JUMPDEST JUMPDEST PUSH2 0x20B8 DUP3 PUSH2 0x1C91 JUMP JUMPDEST SWAP1 POP PUSH1 0x20 DUP2 ADD SWAP1 POP SWAP2 SWAP1 POP JUMP JUMPDEST PUSH0 PUSH2 0x20D7 PUSH2 0x20D2 DUP5 PUSH2 0x2095 JUMP JUMPDEST PUSH2 0x1EF5 JUMP JUMPDEST SWAP1 POP DUP3 DUP2 MSTORE PUSH1 0x20 DUP2 ADD DUP5 DUP5 DUP5 ADD GT ISZERO PUSH2 0x20F3 JUMPI PUSH2 0x20F2 PUSH2 0x1E93 JUMP JUMPDEST JUMPDEST PUSH2 0x20FE DUP5 DUP3 DUP6 PUSH2 0x1F3F JUMP JUMPDEST POP SWAP4 SWAP3 POP POP POP JUMP JUMPDEST PUSH0 DUP3 PUSH1 0x1F DUP4 ADD SLT PUSH2 0x211A JUMPI PUSH2 0x2119 PUSH2 0x1E8F JUMP JUMPDEST JUMPDEST DUP2 CALLDATALOAD PUSH2 0x212A DUP5 DUP3 PUSH1 0x20 DUP7 ADD PUSH2 0x20C5 JUMP JUMPDEST SWAP2 POP POP SWAP3 SWAP2 POP POP JUMP JUMPDEST PUSH0 DUP1 PUSH0 DUP1 PUSH1 0x80 DUP6 DUP8 SUB SLT ISZERO PUSH2 0x214B JUMPI PUSH2 0x214A PUSH2 0x1B94 JUMP JUMPDEST JUMPDEST PUSH0 PUSH2 0x2158 DUP8 DUP3 DUP9 ADD PUSH2 0x1DC5 JUMP JUMPDEST SWAP5 POP POP PUSH1 0x20 PUSH2 0x2169 DUP8 DUP3 DUP9 ADD PUSH2 0x1DC5 JUMP JUMPDEST SWAP4 POP POP PUSH1 0x40 PUSH2 0x217A DUP8 DUP3 DUP9 ADD PUSH2 0x1D18 JUMP JUMPDEST SWAP3 POP POP PUSH1 0x60 DUP6 ADD CALLDATALOAD PUSH8 0xFFFFFFFFFFFFFFFF DUP2 GT ISZERO PUSH2 0x219B JUMPI PUSH2 0x219A PUSH2 0x1B98 JUMP JUMPDEST JUMPDEST PUSH2 0x21A7 DUP8 DUP3 DUP9 ADD PUSH2 0x2106 JUMP JUMPDEST SWAP2 POP POP SWAP3 SWAP6 SWAP2 SWAP5 POP SWAP3 POP JUMP JUMPDEST PUSH0 DUP1 PUSH1 0x40 DUP4 DUP6 SUB SLT ISZERO PUSH2 0x21C9 JUMPI PUSH2 0x21C8 PUSH2 0x1B94 JUMP JUMPDEST JUMPDEST PUSH0 PUSH2 0x21D6 DUP6 DUP3 DUP7 ADD PUSH2 0x1DC5 JUMP JUMPDEST SWAP3 POP POP PUSH1 0x20 PUSH2 0x21E7 DUP6 DUP3 DUP7 ADD PUSH2 0x1DC5 JUMP JUMPDEST SWAP2 POP POP SWAP3 POP SWAP3 SWAP1 POP JUMP JUMPDEST PUSH32 0x4E487B7100000000000000000000000000000000000000000000000000000000 PUSH0 MSTORE PUSH1 0x22 PUSH1 0x4 MSTORE PUSH1 0x24 PUSH0 REVERT JUMPDEST PUSH0 PUSH1 0x2 DUP3 DIV SWAP1 POP PUSH1 0x1 DUP3 AND DUP1 PUSH2 0x2235 JUMPI PUSH1 0x7F DUP3 AND SWAP2 POP JUMPDEST PUSH1 0x20 DUP3 LT DUP2 SUB PUSH2 0x2248 JUMPI PUSH2 0x2247 PUSH2 0x21F1 JUMP JUMPDEST JUMPDEST POP SWAP2 SWAP1 POP JUMP JUMPDEST PUSH32 0x45746865722073656E74206973206E6F742073756666696369656E742E000000 PUSH0 DUP3 ADD MSTORE POP JUMP JUMPDEST PUSH0 PUSH2 0x2282 PUSH1 0x1D DUP4 PUSH2 0x1C59 JUMP JUMPDEST SWAP2 POP PUSH2 0x228D DUP3 PUSH2 0x224E JUMP JUMPDEST PUSH1 0x20 DUP3 ADD SWAP1 POP SWAP2 SWAP1 POP JUMP JUMPDEST PUSH0 PUSH1 0x20 DUP3 ADD SWAP1 POP DUP2 DUP2 SUB PUSH0 DUP4 ADD MSTORE PUSH2 0x22AF DUP2 PUSH2 0x2276 JUMP JUMPDEST SWAP1 POP SWAP2 SWAP1 POP JUMP JUMPDEST PUSH32 0x536F6C64206F7574210000000000000000000000000000000000000000000000 PUSH0 DUP3 ADD MSTORE POP JUMP JUMPDEST PUSH0 PUSH2 0x22EA PUSH1 0x9 DUP4 PUSH2 0x1C59 JUMP JUMPDEST SWAP2 POP PUSH2 0x22F5 DUP3 PUSH2 0x22B6 JUMP JUMPDEST PUSH1 0x20 DUP3 ADD SWAP1 POP SWAP2 SWAP1 POP JUMP JUMPDEST PUSH0 PUSH1 0x20 DUP3 ADD SWAP1 POP DUP2 DUP2 SUB PUSH0 DUP4 ADD MSTORE PUSH2 0x2317 DUP2 PUSH2 0x22DE JUMP JUMPDEST SWAP1 POP SWAP2 SWAP1 POP JUMP JUMPDEST PUSH32 0x4E487B7100000000000000000000000000000000000000000000000000000000 PUSH0 MSTORE PUSH1 0x11 PUSH1 0x4 MSTORE PUSH1 0x24 PUSH0 REVERT JUMPDEST PUSH0 PUSH2 0x2355 DUP3 PUSH2 0x1CF9 JUMP JUMPDEST SWAP2 POP PUSH32 0xFFFFFFFFFFFFFFFFFFFFFFFFFFFFFFFFFFFFFFFFFFFFFFFFFFFFFFFFFFFFFFFF DUP3 SUB PUSH2 0x2387 JUMPI PUSH2 0x2386 PUSH2 0x231E JUMP JUMPDEST JUMPDEST PUSH1 0x1 DUP3 ADD SWAP1 POP SWAP2 SWAP1 POP JUMP JUMPDEST PUSH0 PUSH1 0x60 DUP3 ADD SWAP1 POP PUSH2 0x23A5 PUSH0 DUP4 ADD DUP7 PUSH2 0x1D87 JUMP JUMPDEST PUSH2 0x23B2 PUSH1 0x20 DUP4 ADD DUP6 PUSH2 0x1E17 JUMP JUMPDEST PUSH2 0x23BF PUSH1 0x40 DUP4 ADD DUP5 PUSH2 0x1D87 JUMP JUMPDEST SWAP5 SWAP4 POP POP POP POP JUMP JUMPDEST PUSH0 DUP2 SWAP1 POP DUP2 PUSH0 MSTORE PUSH1 0x20 PUSH0 KECCAK256 SWAP1 POP SWAP2 SWAP1 POP JUMP JUMPDEST PUSH0 PUSH1 0x20 PUSH1 0x1F DUP4 ADD DIV SWAP1 POP SWAP2 SWAP1 POP JUMP JUMPDEST PUSH0 DUP3 DUP3 SHL SWAP1 POP SWAP3 SWAP2 POP POP JUMP JUMPDEST PUSH0 PUSH1 0x8 DUP4 MUL PUSH2 0x2423 PUSH32 0xFFFFFFFFFFFFFFFFFFFFFFFFFFFFFFFFFFFFFFFFFFFFFFFFFFFFFFFFFFFFFFFF DUP3 PUSH2 0x23E8 JUMP JUMPDEST PUSH2 0x242D DUP7 DUP4 PUSH2 0x23E8 JUMP JUMPDEST SWAP6 POP DUP1 NOT DUP5 AND SWAP4 POP DUP1 DUP7 AND DUP5 OR SWAP3 POP POP POP SWAP4 SWAP3 POP POP POP JUMP JUMPDEST PUSH0 DUP2 SWAP1 POP SWAP2 SWAP1 POP JUMP JUMPDEST PUSH0 PUSH2 0x2468 PUSH2 0x2463 PUSH2 0x245E DUP5 PUSH2 0x1CF9 JUMP JUMPDEST PUSH2 0x2445 JUMP JUMPDEST PUSH2 0x1CF9 JUMP JUMPDEST SWAP1 POP SWAP2 SWAP1 POP JUMP JUMPDEST PUSH0 DUP2 SWAP1 POP SWAP2 SWAP1 POP JUMP JUMPDEST PUSH2 0x2481 DUP4 PUSH2 0x244E JUMP JUMPDEST PUSH2 0x2495 PUSH2 0x248D DUP3 PUSH2 0x246F JUMP JUMPDEST DUP5 DUP5 SLOAD PUSH2 0x23F4 JUMP JUMPDEST DUP3 SSTORE POP POP POP POP JUMP JUMPDEST PUSH0 SWAP1 JUMP JUMPDEST PUSH2 0x24A9 PUSH2 0x249D JUMP JUMPDEST PUSH2 0x24B4 DUP2 DUP5 DUP5 PUSH2 0x2478 JUMP JUMPDEST POP POP POP JUMP JUMPDEST JUMPDEST DUP2 DUP2 LT ISZERO PUSH2 0x24D7 JUMPI PUSH2 0x24CC PUSH0 DUP3 PUSH2 0x24A1 JUMP JUMPDEST PUSH1 0x1 DUP2 ADD SWAP1 POP PUSH2 0x24BA JUMP JUMPDEST POP POP JUMP JUMPDEST PUSH1 0x1F DUP3 GT ISZERO PUSH2 0x251C JUMPI PUSH2 0x24ED DUP2 PUSH2 0x23C7 JUMP JUMPDEST PUSH2 0x24F6 DUP5 PUSH2 0x23D9 JUMP JUMPDEST DUP2 ADD PUSH1 0x20 DUP6 LT ISZERO PUSH2 0x2505 JUMPI DUP2 SWAP1 POP JUMPDEST PUSH2 0x2519 PUSH2 0x2511 DUP6 PUSH2 0x23D9 JUMP JUMPDEST DUP4 ADD DUP3 PUSH2 0x24B9 JUMP JUMPDEST POP POP JUMPDEST POP POP POP JUMP JUMPDEST PUSH0 DUP3 DUP3 SHR SWAP1 POP SWAP3 SWAP2 POP POP JUMP JUMPDEST PUSH0 PUSH2 0x253C PUSH0 NOT DUP5 PUSH1 0x8 MUL PUSH2 0x2521 JUMP JUMPDEST NOT DUP1 DUP4 AND SWAP2 POP POP SWAP3 SWAP2 POP POP JUMP JUMPDEST PUSH0 PUSH2 0x2554 DUP4 DUP4 PUSH2 0x252D JUMP JUMPDEST SWAP2 POP DUP3 PUSH1 0x2 MUL DUP3 OR SWAP1 POP SWAP3 SWAP2 POP POP JUMP JUMPDEST PUSH2 0x256D DUP3 PUSH2 0x1C4F JUMP JUMPDEST PUSH8 0xFFFFFFFFFFFFFFFF DUP2 GT ISZERO PUSH2 0x2586 JUMPI PUSH2 0x2585 PUSH2 0x1E97 JUMP JUMPDEST JUMPDEST PUSH2 0x2590 DUP3 SLOAD PUSH2 0x221E JUMP JUMPDEST PUSH2 0x259B DUP3 DUP3 DUP6 PUSH2 0x24DB JUMP JUMPDEST PUSH0 PUSH1 0x20 SWAP1 POP PUSH1 0x1F DUP4 GT PUSH1 0x1 DUP2 EQ PUSH2 0x25CC JUMPI PUSH0 DUP5 ISZERO PUSH2 0x25BA JUMPI DUP3 DUP8 ADD MLOAD SWAP1 POP JUMPDEST PUSH2 0x25C4 DUP6 DUP3 PUSH2 0x2549 JUMP JUMPDEST DUP7 SSTORE POP PUSH2 0x262B JUMP JUMPDEST PUSH1 0x1F NOT DUP5 AND PUSH2 0x25DA DUP7 PUSH2 0x23C7 JUMP JUMPDEST PUSH0 JUMPDEST DUP3 DUP2 LT ISZERO PUSH2 0x2601 JUMPI DUP5 DUP10 ADD MLOAD DUP3 SSTORE PUSH1 0x1 DUP3 ADD SWAP2 POP PUSH1 0x20 DUP6 ADD SWAP5 POP PUSH1 0x20 DUP2 ADD SWAP1 POP PUSH2 0x25DC JUMP JUMPDEST DUP7 DUP4 LT ISZERO PUSH2 0x261E JUMPI DUP5 DUP10 ADD MLOAD PUSH2 0x261A PUSH1 0x1F DUP10 AND DUP3 PUSH2 0x252D JUMP JUMPDEST DUP4 SSTORE POP JUMPDEST PUSH1 0x1 PUSH1 0x2 DUP9 MUL ADD DUP9 SSTORE POP POP POP JUMPDEST POP POP POP POP POP POP JUMP JUMPDEST PUSH0 DUP2 SWAP1 POP SWAP3 SWAP2 POP POP JUMP JUMPDEST PUSH0 PUSH2 0x2647 DUP3 PUSH2 0x1C4F JUMP JUMPDEST PUSH2 0x2651 DUP2 DUP6 PUSH2 0x2633 JUMP JUMPDEST SWAP4 POP PUSH2 0x2661 DUP2 DUP6 PUSH1 0x20 DUP7 ADD PUSH2 0x1C69 JUMP JUMPDEST DUP1 DUP5 ADD SWAP2 POP POP SWAP3 SWAP2 POP POP JUMP JUMPDEST PUSH32 0x2E6A736F6E000000000000000000000000000000000000000000000000000000 PUSH0 DUP3 ADD MSTORE POP JUMP JUMPDEST PUSH0 PUSH2 0x26A1 PUSH1 0x5 DUP4 PUSH2 0x2633 JUMP JUMPDEST SWAP2 POP PUSH2 0x26AC DUP3 PUSH2 0x266D JUMP JUMPDEST PUSH1 0x5 DUP3 ADD SWAP1 POP SWAP2 SWAP1 POP JUMP JUMPDEST PUSH0 PUSH2 0x26C2 DUP3 DUP6 PUSH2 0x263D JUMP JUMPDEST SWAP2 POP PUSH2 0x26CE DUP3 DUP5 PUSH2 0x263D JUMP JUMPDEST SWAP2 POP PUSH2 0x26D9 DUP3 PUSH2 0x2695 JUMP JUMPDEST SWAP2 POP DUP2 SWAP1 POP SWAP4 SWAP3 POP POP POP JUMP JUMPDEST PUSH0 DUP2 MLOAD SWAP1 POP SWAP2 SWAP1 POP JUMP JUMPDEST PUSH0 DUP3 DUP3 MSTORE PUSH1 0x20 DUP3 ADD SWAP1 POP SWAP3 SWAP2 POP POP JUMP JUMPDEST PUSH0 PUSH2 0x2709 DUP3 PUSH2 0x26E5 JUMP JUMPDEST PUSH2 0x2713 DUP2 DUP6 PUSH2 0x26EF JUMP JUMPDEST SWAP4 POP PUSH2 0x2723 DUP2 DUP6 PUSH1 0x20 DUP7 ADD PUSH2 0x1C69 JUMP JUMPDEST PUSH2 0x272C DUP2 PUSH2 0x1C91 JUMP JUMPDEST DUP5 ADD SWAP2 POP POP SWAP3 SWAP2 POP POP JUMP JUMPDEST PUSH0 PUSH1 0x80 DUP3 ADD SWAP1 POP PUSH2 0x274A PUSH0 DUP4 ADD DUP8 PUSH2 0x1D87 JUMP JUMPDEST PUSH2 0x2757 PUSH1 0x20 DUP4 ADD DUP7 PUSH2 0x1D87 JUMP JUMPDEST PUSH2 0x2764 PUSH1 0x40 DUP4 ADD DUP6 PUSH2 0x1E17 JUMP JUMPDEST DUP2 DUP2 SUB PUSH1 0x60 DUP4 ADD MSTORE PUSH2 0x2776 DUP2 DUP5 PUSH2 0x26FF JUMP JUMPDEST SWAP1 POP SWAP6 SWAP5 POP POP POP POP POP JUMP JUMPDEST PUSH0 DUP2 MLOAD SWAP1 POP PUSH2 0x278F DUP2 PUSH2 0x1BC7 JUMP JUMPDEST SWAP3 SWAP2 POP POP JUMP JUMPDEST PUSH0 PUSH1 0x20 DUP3 DUP5 SUB SLT ISZERO PUSH2 0x27AA JUMPI PUSH2 0x27A9 PUSH2 0x1B94 JUMP JUMPDEST JUMPDEST PUSH0 PUSH2 0x27B7 DUP5 DUP3 DUP6 ADD PUSH2 0x2781 JUMP JUMPDEST SWAP2 POP POP SWAP3 SWAP2 POP POP JUMP JUMPDEST PUSH32 0x4E487B7100000000000000000000000000000000000000000000000000000000 PUSH0 MSTORE PUSH1 0x12 PUSH1 0x4 MSTORE PUSH1 0x24 PUSH0 REVERT JUMPDEST PUSH0 PUSH1 0x40 DUP3 ADD SWAP1 POP PUSH2 0x2800 PUSH0 DUP4 ADD DUP6 PUSH2 0x1D87 JUMP JUMPDEST PUSH2 0x280D PUSH1 0x20 DUP4 ADD DUP5 PUSH2 0x1E17 JUMP JUMPDEST SWAP4 SWAP3 POP POP POP JUMP INVALID LOG2 PUSH5 0x6970667358 0x22 SLT KECCAK256 0xC8 EQ 0x4F PUSH11 0x61B20D65F1894DC1FF941A SWAP15 0xF 0x4E TIMESTAMP 0xA9 0x28 ISZERO PUSH28 0x6ACD30702548D12D8964736F6C634300081800330000000000000000 "
		},
		"gasEstimates": {
			"creation": {
				"codeDepositCost": "2062800",
				"executionCost": "infinite",
				"totalCost": "infinite"
			},
			"external": {
				"MAX_SUPPLY()": "392",
				"approve(address,uint256)": "infinite",
				"balanceOf(address)": "infinite",
				"getApproved(uint256)": "infinite",
				"isApprovedForAll(address,address)": "infinite",
				"mint()": "infinite",
				"name()": "infinite",
				"owner()": "2604",
				"ownerOf(uint256)": "infinite",
				"price()": "2447",
				"renounceOwnership()": "infinite",
				"safeTransferFrom(address,address,uint256)": "infinite",
				"safeTransferFrom(address,address,uint256,bytes)": "infinite",
				"setApprovalForAll(address,bool)": "infinite",
				"setBaseURI(string)": "infinite",
				"setPrice(uint256)": "infinite",
				"supportsInterface(bytes4)": "787",
				"symbol()": "infinite",
				"tokenId()": "2448",
				"tokenURI(uint256)": "infinite",
				"transferFrom(address,address,uint256)": "infinite",
				"transferOwnership(address)": "infinite",
				"withdraw()": "infinite"
			},
			"internal": {
				"_baseURI()": "infinite"
			}
		},
		"methodIdentifiers": {
			"MAX_SUPPLY()": "32cb6b0c",
			"approve(address,uint256)": "095ea7b3",
			"balanceOf(address)": "70a08231",
			"getApproved(uint256)": "081812fc",
			"isApprovedForAll(address,address)": "e985e9c5",
			"mint()": "1249c58b",
			"name()": "06fdde03",
			"owner()": "8da5cb5b",
			"ownerOf(uint256)": "6352211e",
			"price()": "a035b1fe",
			"renounceOwnership()": "715018a6",
			"safeTransferFrom(address,address,uint256)": "42842e0e",
			"safeTransferFrom(address,address,uint256,bytes)": "b88d4fde",
			"setApprovalForAll(address,bool)": "a22cb465",
			"setBaseURI(string)": "55f804b3",
			"setPrice(uint256)": "91b7f5ed",
			"supportsInterface(bytes4)": "01ffc9a7",
			"symbol()": "95d89b41",
			"tokenId()": "17d70f7c",
			"tokenURI(uint256)": "c87b56dd",
			"transferFrom(address,address,uint256)": "23b872dd",
			"transferOwnership(address)": "f2fde38b",
			"withdraw()": "3ccfd60b"
		}
	},
	"abi": [
		{
			"inputs": [],
			"stateMutability": "nonpayable",
			"type": "constructor"
		},
		{
			"inputs": [
				{
					"internalType": "address",
					"name": "sender",
					"type": "address"
				},
				{
					"internalType": "uint256",
					"name": "tokenId",
					"type": "uint256"
				},
				{
					"internalType": "address",
					"name": "owner",
					"type": "address"
				}
			],
			"name": "ERC721IncorrectOwner",
			"type": "error"
		},
		{
			"inputs": [
				{
					"internalType": "address",
					"name": "operator",
					"type": "address"
				},
				{
					"internalType": "uint256",
					"name": "tokenId",
					"type": "uint256"
				}
			],
			"name": "ERC721InsufficientApproval",
			"type": "error"
		},
		{
			"inputs": [
				{
					"internalType": "address",
					"name": "approver",
					"type": "address"
				}
			],
			"name": "ERC721InvalidApprover",
			"type": "error"
		},
		{
			"inputs": [
				{
					"internalType": "address",
					"name": "operator",
					"type": "address"
				}
			],
			"name": "ERC721InvalidOperator",
			"type": "error"
		},
		{
			"inputs": [
				{
					"internalType": "address",
					"name": "owner",
					"type": "address"
				}
			],
			"name": "ERC721InvalidOwner",
			"type": "error"
		},
		{
			"inputs": [
				{
					"internalType": "address",
					"name": "receiver",
					"type": "address"
				}
			],
			"name": "ERC721InvalidReceiver",
			"type": "error"
		},
		{
			"inputs": [
				{
					"internalType": "address",
					"name": "sender",
					"type": "address"
				}
			],
			"name": "ERC721InvalidSender",
			"type": "error"
		},
		{
			"inputs": [
				{
					"internalType": "uint256",
					"name": "tokenId",
					"type": "uint256"
				}
			],
			"name": "ERC721NonexistentToken",
			"type": "error"
		},
		{
			"inputs": [
				{
					"internalType": "address",
					"name": "owner",
					"type": "address"
				}
			],
			"name": "OwnableInvalidOwner",
			"type": "error"
		},
		{
			"inputs": [
				{
					"internalType": "address",
					"name": "account",
					"type": "address"
				}
			],
			"name": "OwnableUnauthorizedAccount",
			"type": "error"
		},
		{
			"anonymous": false,
			"inputs": [
				{
					"indexed": true,
					"internalType": "address",
					"name": "owner",
					"type": "address"
				},
				{
					"indexed": true,
					"internalType": "address",
					"name": "approved",
					"type": "address"
				},
				{
					"indexed": true,
					"internalType": "uint256",
					"name": "tokenId",
					"type": "uint256"
				}
			],
			"name": "Approval",
			"type": "event"
		},
		{
			"anonymous": false,
			"inputs": [
				{
					"indexed": true,
					"internalType": "address",
					"name": "owner",
					"type": "address"
				},
				{
					"indexed": true,
					"internalType": "address",
					"name": "operator",
					"type": "address"
				},
				{
					"indexed": false,
					"internalType": "bool",
					"name": "approved",
					"type": "bool"
				}
			],
			"name": "ApprovalForAll",
			"type": "event"
		},
		{
			"anonymous": false,
			"inputs": [
				{
					"indexed": true,
					"internalType": "address",
					"name": "minter",
					"type": "address"
				},
				{
					"indexed": true,
					"internalType": "uint256",
					"name": "tokenId",
					"type": "uint256"
				}
			],
			"name": "NftMinted",
			"type": "event"
		},
		{
			"anonymous": false,
			"inputs": [
				{
					"indexed": true,
					"internalType": "address",
					"name": "previousOwner",
					"type": "address"
				},
				{
					"indexed": true,
					"internalType": "address",
					"name": "newOwner",
					"type": "address"
				}
			],
			"name": "OwnershipTransferred",
			"type": "event"
		},
		{
			"anonymous": false,
			"inputs": [
				{
					"indexed": true,
					"internalType": "address",
					"name": "from",
					"type": "address"
				},
				{
					"indexed": true,
					"internalType": "address",
					"name": "to",
					"type": "address"
				},
				{
					"indexed": true,
					"internalType": "uint256",
					"name": "tokenId",
					"type": "uint256"
				}
			],
			"name": "Transfer",
			"type": "event"
		},
		{
			"inputs": [],
			"name": "MAX_SUPPLY",
			"outputs": [
				{
					"internalType": "uint256",
					"name": "",
					"type": "uint256"
				}
			],
			"stateMutability": "view",
			"type": "function"
		},
		{
			"inputs": [
				{
					"internalType": "address",
					"name": "to",
					"type": "address"
				},
				{
					"internalType": "uint256",
					"name": "tokenId",
					"type": "uint256"
				}
			],
			"name": "approve",
			"outputs": [],
			"stateMutability": "nonpayable",
			"type": "function"
		},
		{
			"inputs": [
				{
					"internalType": "address",
					"name": "owner",
					"type": "address"
				}
			],
			"name": "balanceOf",
			"outputs": [
				{
					"internalType": "uint256",
					"name": "",
					"type": "uint256"
				}
			],
			"stateMutability": "view",
			"type": "function"
		},
		{
			"inputs": [
				{
					"internalType": "uint256",
					"name": "tokenId",
					"type": "uint256"
				}
			],
			"name": "getApproved",
			"outputs": [
				{
					"internalType": "address",
					"name": "",
					"type": "address"
				}
			],
			"stateMutability": "view",
			"type": "function"
		},
		{
			"inputs": [
				{
					"internalType": "address",
					"name": "owner",
					"type": "address"
				},
				{
					"internalType": "address",
					"name": "operator",
					"type": "address"
				}
			],
			"name": "isApprovedForAll",
			"outputs": [
				{
					"internalType": "bool",
					"name": "",
					"type": "bool"
				}
			],
			"stateMutability": "view",
			"type": "function"
		},
		{
			"inputs": [],
			"name": "mint",
			"outputs": [],
			"stateMutability": "payable",
			"type": "function"
		},
		{
			"inputs": [],
			"name": "name",
			"outputs": [
				{
					"internalType": "string",
					"name": "",
					"type": "string"
				}
			],
			"stateMutability": "view",
			"type": "function"
		},
		{
			"inputs": [],
			"name": "owner",
			"outputs": [
				{
					"internalType": "address",
					"name": "",
					"type": "address"
				}
			],
			"stateMutability": "view",
			"type": "function"
		},
		{
			"inputs": [
				{
					"internalType": "uint256",
					"name": "tokenId",
					"type": "uint256"
				}
			],
			"name": "ownerOf",
			"outputs": [
				{
					"internalType": "address",
					"name": "",
					"type": "address"
				}
			],
			"stateMutability": "view",
			"type": "function"
		},
		{
			"inputs": [],
			"name": "price",
			"outputs": [
				{
					"internalType": "uint256",
					"name": "",
					"type": "uint256"
				}
			],
			"stateMutability": "view",
			"type": "function"
		},
		{
			"inputs": [],
			"name": "renounceOwnership",
			"outputs": [],
			"stateMutability": "nonpayable",
			"type": "function"
		},
		{
			"inputs": [
				{
					"internalType": "address",
					"name": "from",
					"type": "address"
				},
				{
					"internalType": "address",
					"name": "to",
					"type": "address"
				},
				{
					"internalType": "uint256",
					"name": "tokenId",
					"type": "uint256"
				}
			],
			"name": "safeTransferFrom",
			"outputs": [],
			"stateMutability": "nonpayable",
			"type": "function"
		},
		{
			"inputs": [
				{
					"internalType": "address",
					"name": "from",
					"type": "address"
				},
				{
					"internalType": "address",
					"name": "to",
					"type": "address"
				},
				{
					"internalType": "uint256",
					"name": "tokenId",
					"type": "uint256"
				},
				{
					"internalType": "bytes",
					"name": "data",
					"type": "bytes"
				}
			],
			"name": "safeTransferFrom",
			"outputs": [],
			"stateMutability": "nonpayable",
			"type": "function"
		},
		{
			"inputs": [
				{
					"internalType": "address",
					"name": "operator",
					"type": "address"
				},
				{
					"internalType": "bool",
					"name": "approved",
					"type": "bool"
				}
			],
			"name": "setApprovalForAll",
			"outputs": [],
			"stateMutability": "nonpayable",
			"type": "function"
		},
		{
			"inputs": [
				{
					"internalType": "string",
					"name": "newBaseURI",
					"type": "string"
				}
			],
			"name": "setBaseURI",
			"outputs": [],
			"stateMutability": "nonpayable",
			"type": "function"
		},
		{
			"inputs": [
				{
					"internalType": "uint256",
					"name": "newPrice",
					"type": "uint256"
				}
			],
			"name": "setPrice",
			"outputs": [],
			"stateMutability": "nonpayable",
			"type": "function"
		},
		{
			"inputs": [
				{
					"internalType": "bytes4",
					"name": "interfaceId",
					"type": "bytes4"
				}
			],
			"name": "supportsInterface",
			"outputs": [
				{
					"internalType": "bool",
					"name": "",
					"type": "bool"
				}
			],
			"stateMutability": "view",
			"type": "function"
		},
		{
			"inputs": [],
			"name": "symbol",
			"outputs": [
				{
					"internalType": "string",
					"name": "",
					"type": "string"
				}
			],
			"stateMutability": "view",
			"type": "function"
		},
		{
			"inputs": [],
			"name": "tokenId",
			"outputs": [
				{
					"internalType": "uint256",
					"name": "",
					"type": "uint256"
				}
			],
			"stateMutability": "view",
			"type": "function"
		},
		{
			"inputs": [
				{
					"internalType": "uint256",
					"name": "_tokenId",
					"type": "uint256"
				}
			],
			"name": "tokenURI",
			"outputs": [
				{
					"internalType": "string",
					"name": "",
					"type": "string"
				}
			],
			"stateMutability": "view",
			"type": "function"
		},
		{
			"inputs": [
				{
					"internalType": "address",
					"name": "from",
					"type": "address"
				},
				{
					"internalType": "address",
					"name": "to",
					"type": "address"
				},
				{
					"internalType": "uint256",
					"name": "tokenId",
					"type": "uint256"
				}
			],
			"name": "transferFrom",
			"outputs": [],
			"stateMutability": "nonpayable",
			"type": "function"
		},
		{
			"inputs": [
				{
					"internalType": "address",
					"name": "newOwner",
					"type": "address"
				}
			],
			"name": "transferOwnership",
			"outputs": [],
			"stateMutability": "nonpayable",
			"type": "function"
		},
		{
			"inputs": [],
			"name": "withdraw",
			"outputs": [],
			"stateMutability": "nonpayable",
			"type": "function"
		}
	]
}