{
	"data": {
		"bytecode": {
			"linkReferences": {},
			"object": "608060405234801561001057600080fd5b50610258806100206000396000f3fe608060405234801561001057600080fd5b50600436106100365760003560e01c8063520ba6b61461003b578063f8b2cb4f1461006b575b600080fd5b61005560048036038101906100509190610133565b61009b565b604051610062919061018d565b60405180910390f35b6100856004803603810190610080919061010a565b6100d4565b60405161009291906101a8565b60405180910390f35b60008173ffffffffffffffffffffffffffffffffffffffff168373ffffffffffffffffffffffffffffffffffffffff1614905092915050565b60008173ffffffffffffffffffffffffffffffffffffffff16319050919050565b6000813590506101048161020b565b92915050565b60006020828403121561011c57600080fd5b600061012a848285016100f5565b91505092915050565b6000806040838503121561014657600080fd5b6000610154858286016100f5565b9250506020610165858286016100f5565b9150509250929050565b610178816101d5565b82525050565b61018781610201565b82525050565b60006020820190506101a2600083018461016f565b92915050565b60006020820190506101bd600083018461017e565b92915050565b60006101ce826101e1565b9050919050565b60008115159050919050565b600073ffffffffffffffffffffffffffffffffffffffff82169050919050565b6000819050919050565b610214816101c3565b811461021f57600080fd5b5056fea264697066735822122064b93c242218a14531045e0c08aff0b733a4bf8fe87eaf86d0cd93b7ea55ea4964736f6c63430008000033",
			"opcodes": "PUSH1 0x80 PUSH1 0x40 MSTORE CALLVALUE DUP1 ISZERO PUSH2 0x10 JUMPI PUSH1 0x0 DUP1 REVERT JUMPDEST POP PUSH2 0x258 DUP1 PUSH2 0x20 PUSH1 0x0 CODECOPY PUSH1 0x0 RETURN INVALID PUSH1 0x80 PUSH1 0x40 MSTORE CALLVALUE DUP1 ISZERO PUSH2 0x10 JUMPI PUSH1 0x0 DUP1 REVERT JUMPDEST POP PUSH1 0x4 CALLDATASIZE LT PUSH2 0x36 JUMPI PUSH1 0x0 CALLDATALOAD PUSH1 0xE0 SHR DUP1 PUSH4 0x520BA6B6 EQ PUSH2 0x3B JUMPI DUP1 PUSH4 0xF8B2CB4F EQ PUSH2 0x6B JUMPI JUMPDEST PUSH1 0x0 DUP1 REVERT JUMPDEST PUSH2 0x55 PUSH1 0x4 DUP1 CALLDATASIZE SUB DUP2 ADD SWAP1 PUSH2 0x50 SWAP2 SWAP1 PUSH2 0x133 JUMP JUMPDEST PUSH2 0x9B JUMP JUMPDEST PUSH1 0x40 MLOAD PUSH2 0x62 SWAP2 SWAP1 PUSH2 0x18D JUMP JUMPDEST PUSH1 0x40 MLOAD DUP1 SWAP2 SUB SWAP1 RETURN JUMPDEST PUSH2 0x85 PUSH1 0x4 DUP1 CALLDATASIZE SUB DUP2 ADD SWAP1 PUSH2 0x80 SWAP2 SWAP1 PUSH2 0x10A JUMP JUMPDEST PUSH2 0xD4 JUMP JUMPDEST PUSH1 0x40 MLOAD PUSH2 0x92 SWAP2 SWAP1 PUSH2 0x1A8 JUMP JUMPDEST PUSH1 0x40 MLOAD DUP1 SWAP2 SUB SWAP1 RETURN JUMPDEST PUSH1 0x0 DUP2 PUSH20 0xFFFFFFFFFFFFFFFFFFFFFFFFFFFFFFFFFFFFFFFF AND DUP4 PUSH20 0xFFFFFFFFFFFFFFFFFFFFFFFFFFFFFFFFFFFFFFFF AND EQ SWAP1 POP SWAP3 SWAP2 POP POP JUMP JUMPDEST PUSH1 0x0 DUP2 PUSH20 0xFFFFFFFFFFFFFFFFFFFFFFFFFFFFFFFFFFFFFFFF AND BALANCE SWAP1 POP SWAP2 SWAP1 POP JUMP JUMPDEST PUSH1 0x0 DUP2 CALLDATALOAD SWAP1 POP PUSH2 0x104 DUP2 PUSH2 0x20B JUMP JUMPDEST SWAP3 SWAP2 POP POP JUMP JUMPDEST PUSH1 0x0 PUSH1 0x20 DUP3 DUP5 SUB SLT ISZERO PUSH2 0x11C JUMPI PUSH1 0x0 DUP1 REVERT JUMPDEST PUSH1 0x0 PUSH2 0x12A DUP5 DUP3 DUP6 ADD PUSH2 0xF5 JUMP JUMPDEST SWAP2 POP POP SWAP3 SWAP2 POP POP JUMP JUMPDEST PUSH1 0x0 DUP1 PUSH1 0x40 DUP4 DUP6 SUB SLT ISZERO PUSH2 0x146 JUMPI PUSH1 0x0 DUP1 REVERT JUMPDEST PUSH1 0x0 PUSH2 0x154 DUP6 DUP3 DUP7 ADD PUSH2 0xF5 JUMP JUMPDEST SWAP3 POP POP PUSH1 0x20 PUSH2 0x165 DUP6 DUP3 DUP7 ADD PUSH2 0xF5 JUMP JUMPDEST SWAP2 POP POP SWAP3 POP SWAP3 SWAP1 POP JUMP JUMPDEST PUSH2 0x178 DUP2 PUSH2 0x1D5 JUMP JUMPDEST DUP3 MSTORE POP POP JUMP JUMPDEST PUSH2 0x187 DUP2 PUSH2 0x201 JUMP JUMPDEST DUP3 MSTORE POP POP JUMP JUMPDEST PUSH1 0x0 PUSH1 0x20 DUP3 ADD SWAP1 POP PUSH2 0x1A2 PUSH1 0x0 DUP4 ADD DUP5 PUSH2 0x16F JUMP JUMPDEST SWAP3 SWAP2 POP POP JUMP JUMPDEST PUSH1 0x0 PUSH1 0x20 DUP3 ADD SWAP1 POP PUSH2 0x1BD PUSH1 0x0 DUP4 ADD DUP5 PUSH2 0x17E JUMP JUMPDEST SWAP3 SWAP2 POP POP JUMP JUMPDEST PUSH1 0x0 PUSH2 0x1CE DUP3 PUSH2 0x1E1 JUMP JUMPDEST SWAP1 POP SWAP2 SWAP1 POP JUMP JUMPDEST PUSH1 0x0 DUP2 ISZERO ISZERO SWAP1 POP SWAP2 SWAP1 POP JUMP JUMPDEST PUSH1 0x0 PUSH20 0xFFFFFFFFFFFFFFFFFFFFFFFFFFFFFFFFFFFFFFFF DUP3 AND SWAP1 POP SWAP2 SWAP1 POP JUMP JUMPDEST PUSH1 0x0 DUP2 SWAP1 POP SWAP2 SWAP1 POP JUMP JUMPDEST PUSH2 0x214 DUP2 PUSH2 0x1C3 JUMP JUMPDEST DUP2 EQ PUSH2 0x21F JUMPI PUSH1 0x0 DUP1 REVERT JUMPDEST POP JUMP INVALID LOG2 PUSH5 0x6970667358 0x22 SLT KECCAK256 PUSH5 0xB93C242218 LOG1 GASLIMIT BALANCE DIV 0x5E 0xC ADDMOD 0xAF CREATE 0xB7 CALLER LOG4 0xBF DUP16 0xE8 PUSH31 0xAF86D0CD93B7EA55EA4964736F6C6343000800003300000000000000000000 "
		},
		"gasEstimates": {
			"creation": {
				"codeDepositCost": "120000",
				"executionCost": "165",
				"totalCost": "120165"
			},
			"external": {
				"checkEqual(address,address)": "infinite",
				"getBalance(address)": "1357"
			}
		},
		"methodIdentifiers": {
			"checkEqual(address,address)": "520ba6b6",
			"getBalance(address)": "f8b2cb4f"
		}
	},
	"abi": [
		{
			"inputs": [
				{
					"internalType": "address",
					"name": "_acc1",
					"type": "address"
				},
				{
					"internalType": "address",
					"name": "_acc2",
					"type": "address"
				}
			],
			"name": "checkEqual",
			"outputs": [
				{
					"internalType": "bool",
					"name": "",
					"type": "bool"
				}
			],
			"stateMutability": "pure",
			"type": "function"
		},
		{
			"inputs": [
				{
					"internalType": "address",
					"name": "_account",
					"type": "address"
				}
			],
			"name": "getBalance",
			"outputs": [
				{
					"internalType": "uint256",
					"name": "",
					"type": "uint256"
				}
			],
			"stateMutability": "view",
			"type": "function"
		}
	]
}