{"abi":[{"type":"constructor","inputs":[{"name":"_roundDuration","type":"uint256","internalType":"uint256"},{"name":"_underlying","type":"address","internalType":"address"},{"name":"_aavePool","type":"address","internalType":"address"}],"stateMutability":"nonpayable"},{"type":"function","name":"claim","inputs":[{"name":"roundId","type":"uint256","internalType":"uint256"}],"outputs":[],"stateMutability":"nonpayable"},{"type":"function","name":"currentRoundId","inputs":[],"outputs":[{"name":"","type":"uint256","internalType":"uint256"}],"stateMutability":"view"},{"type":"function","name":"enter","inputs":[{"name":"amount","type":"uint256","internalType":"uint256"}],"outputs":[],"stateMutability":"nonpayable"},{"type":"function","name":"exit","inputs":[{"name":"roundId","type":"uint256","internalType":"uint256"}],"outputs":[],"stateMutability":"nonpayable"},{"type":"function","name":"getRound","inputs":[{"name":"roundId","type":"uint256","internalType":"uint256"}],"outputs":[{"name":"","type":"tuple","internalType":"struct AaveLottery.Round","components":[{"name":"endTime","type":"uint256","internalType":"uint256"},{"name":"totalStake","type":"uint256","internalType":"uint256"},{"name":"prize","type":"uint256","internalType":"uint256"},{"name":"winningNumber","type":"uint256","internalType":"uint256"},{"name":"winner","type":"address","internalType":"address"},{"name":"scaledBalanceStake","type":"uint256","internalType":"uint256"}]}],"stateMutability":"view"},{"type":"function","name":"getTicket","inputs":[{"name":"roundId","type":"uint256","internalType":"uint256"},{"name":"user","type":"address","internalType":"address"}],"outputs":[{"name":"","type":"tuple","internalType":"struct AaveLottery.Ticket","components":[{"name":"stake","type":"uint256","internalType":"uint256"},{"name":"segmentStart","type":"uint256","internalType":"uint256"},{"name":"exited","type":"bool","internalType":"bool"}]}],"stateMutability":"view"},{"type":"function","name":"roundDuration","inputs":[],"outputs":[{"name":"","type":"uint256","internalType":"uint256"}],"stateMutability":"view"},{"type":"function","name":"rounds","inputs":[{"name":"","type":"uint256","internalType":"uint256"}],"outputs":[{"name":"endTime","type":"uint256","internalType":"uint256"},{"name":"totalStake","type":"uint256","internalType":"uint256"},{"name":"prize","type":"uint256","internalType":"uint256"},{"name":"winningNumber","type":"uint256","internalType":"uint256"},{"name":"winner","type":"address","internalType":"address"},{"name":"scaledBalanceStake","type":"uint256","internalType":"uint256"}],"stateMutability":"view"},{"type":"function","name":"tickets","inputs":[{"name":"","type":"uint256","internalType":"uint256"},{"name":"","type":"address","internalType":"address"}],"outputs":[{"name":"stake","type":"uint256","internalType":"uint256"},{"name":"segmentStart","type":"uint256","internalType":"uint256"},{"name":"exited","type":"bool","internalType":"bool"}],"stateMutability":"view"},{"type":"function","name":"underlying","inputs":[],"outputs":[{"name":"","type":"address","internalType":"contract IERC20"}],"stateMutability":"view"},{"type":"error","name":"AddressEmptyCode","inputs":[{"name":"target","type":"address","internalType":"address"}]},{"type":"error","name":"AddressInsufficientBalance","inputs":[{"name":"account","type":"address","internalType":"address"}]},{"type":"error","name":"FailedInnerCall","inputs":[]},{"type":"error","name":"SafeERC20FailedOperation","inputs":[{"name":"token","type":"address","internalType":"address"}]}],"bytecode":{"object":"0x60806040523480156200001157600080fd5b506040516200144238038062001442833981016040819052620000349162000291565b6000838155600280546001600160a01b03199081166001600160a01b03868116918217909355600380549092169285169283179091556040516335ea6a7560e01b815260048101919091526335ea6a75906024016101e060405180830381865afa158015620000a7573d6000803e3d6000fd5b505050506040513d601f19601f82011682018060405250810190620000cd91906200039c565b6101008101519091506001600160a01b0316620001305760405162461bcd60e51b815260206004820152601360248201527f41544f4b454e5f444f45534e545f455849535400000000000000000000000000604482015260640160405180910390fd5b610100810151600480546001600160a01b0319166001600160a01b0392831617815560025460405163095ea7b360e01b81528584169281019290925260001960248301529091169063095ea7b3906044016020604051808303816000875af1158015620001a1573d6000803e3d6000fd5b505050506040513d601f19601f82011682018060405250810190620001c79190620004e0565b506040518060c001604052808542620001e191906200050b565b81526000602080830182905260408084018390526060808501849052608080860185905260a095860185905260018054865260068552948390208751815593870151948401949094559085015160028301558401516003820155908301516004820180546001600160a01b0319166001600160a01b03909216919091179055910151600590910155506200053392505050565b80516001600160a01b03811681146200028c57600080fd5b919050565b600080600060608486031215620002a757600080fd5b83519250620002b96020850162000274565b9150620002c96040850162000274565b90509250925092565b6040516101e081016001600160401b03811182821017156200030457634e487b7160e01b600052604160045260246000fd5b60405290565b6000602082840312156200031d57600080fd5b604051602081016001600160401b03811182821017156200034e57634e487b7160e01b600052604160045260246000fd5b6040529151825250919050565b80516001600160801b03811681146200028c57600080fd5b805164ffffffffff811681146200028c57600080fd5b805161ffff811681146200028c57600080fd5b60006101e08284031215620003b057600080fd5b620003ba620002d2565b620003c684846200030a565b8152620003d6602084016200035b565b6020820152620003e9604084016200035b565b6040820152620003fc606084016200035b565b60608201526200040f608084016200035b565b60808201526200042260a084016200035b565b60a08201526200043560c0840162000373565b60c08201526200044860e0840162000389565b60e08201526101006200045d81850162000274565b908201526101206200047184820162000274565b908201526101406200048584820162000274565b908201526101606200049984820162000274565b90820152610180620004ad8482016200035b565b908201526101a0620004c18482016200035b565b908201526101c0620004d58482016200035b565b908201529392505050565b600060208284031215620004f357600080fd5b815180151581146200050457600080fd5b9392505050565b808201808211156200052d57634e487b7160e01b600052601160045260246000fd5b92915050565b610eff80620005436000396000f3fe608060405234801561001057600080fd5b506004361061009e5760003560e01c80638f1327c0116100665780638f1327c0146101b75780639cbe5efd1461021a578063a59f3e0c14610231578063b99d6e2914610244578063f7cb789a1461029e57600080fd5b806319a03cc2146100a3578063379607f5146100df5780636f307dc3146100f45780637f8661a11461011f5780638c65c81f14610132575b600080fd5b6100b66100b1366004610d93565b6102a7565b604080518251815260208084015190820152918101511515908201526060015b60405180910390f35b6100f26100ed366004610dcf565b610320565b005b600254610107906001600160a01b031681565b6040516001600160a01b0390911681526020016100d6565b6100f261012d366004610dcf565b6104c2565b610181610140366004610dcf565b60066020526000908152604090208054600182015460028301546003840154600485015460059095015493949293919290916001600160a01b039091169086565b6040805196875260208701959095529385019290925260608401526001600160a01b0316608083015260a082015260c0016100d6565b6101ca6101c5366004610dcf565b6105e6565b6040516100d69190815181526020808301519082015260408083015190820152606080830151908201526080808301516001600160a01b03169082015260a0918201519181019190915260c00190565b61022360015481565b6040519081526020016100d6565b6100f261023f366004610dcf565b61068a565b610281610252366004610d93565b600560209081526000928352604080842090915290825290208054600182015460029092015490919060ff1683565b6040805193845260208401929092521515908201526060016100d6565b61022360005481565b6102cd604051806060016040528060008152602001600081526020016000151581525090565b5060008281526005602090815260408083206001600160a01b03851684528252918290208251606081018452815481526001820154928101929092526002015460ff161515918101919091525b92915050565b60015481106103685760405162461bcd60e51b815260206004820152600f60248201526e43555252454e545f4c4f545445525960881b60448201526064015b60405180910390fd5b6001805460009081526005602081815260408084203385528252808420815160608082018452825482528288015482860190815260029384015460ff161515838601528988526006865296849020845160c0810186528154815298810154958901959095529184015492870192909252600383015490860181905260048301546001600160a01b03166080870152919092015460a0850152815192519193929161041191610dfe565b1061044b5760405162461bcd60e51b815260206004820152600a6024820152692727aa2faba4a72722a960b11b604482015260640161035f565b60808101516001600160a01b0316156104985760405162461bcd60e51b815260206004820152600f60248201526e1053149150511657d0d31052535151608a1b604482015260640161035f565b336080820181905260408201516002546104bd926001600160a01b039091169161090c565b505050565b600081815260056020908152604080832033845290915290206002015460ff16156105205760405162461bcd60e51b815260206004820152600e60248201526d1053149150511657d1561255115160921b604482015260640161035f565b61052861096b565b600154811061056b5760405162461bcd60e51b815260206004820152600f60248201526e43555252454e545f4c4f545445525960881b604482015260640161035f565b60018054600090815260056020818152604080842033808652908352818520548786529383528185209085528252808420600201805460ff1916861790558584526006909152822090920180548392906105c6908490610dfe565b90915550506002546105e2906001600160a01b0316338361090c565b5050565b6106286040518060c001604052806000815260200160008152602001600081526020016000815260200160006001600160a01b03168152602001600081525090565b50600090815260066020908152604091829020825160c081018452815481526001820154928101929092526002810154928201929092526003820154606082015260048201546001600160a01b0316608082015260059091015460a082015290565b6001546000908152600560209081526040808320338452909152902054156106f45760405162461bcd60e51b815260206004820152601860248201527f555345525f414c52454144595f5041525449434950414e540000000000000000604482015260640161035f565b6106fc61096b565b6001805460009081526006602081815260408084208501546005808452828620338088529085528387208801929092558654865283528185209085528252808420869055845484529190528120909101805483929061075c908490610e11565b9091555050600254610779906001600160a01b0316333084610b3f565b60048054604051630ed1279f60e11b815230928101929092526000916001600160a01b0390911690631da24f3e90602401602060405180830381865afa1580156107c7573d6000803e3d6000fd5b505050506040513d601f19601f820116820180604052508101906107eb9190610e24565b60035460025460405163e8eda9df60e01b81526001600160a01b0391821660048201526024810186905230604482015260006064820152929350169063e8eda9df90608401600060405180830381600087803b15801561084a57600080fd5b505af115801561085e573d6000803e3d6000fd5b505060048054604051630ed1279f60e11b81523092810192909252600093506001600160a01b03169150631da24f3e90602401602060405180830381865afa1580156108ae573d6000803e3d6000fd5b505050506040513d601f19601f820116820180604052508101906108d29190610e24565b90506108de8282610dfe565b60015460009081526006602052604081206005018054909190610902908490610e11565b9091555050505050565b6040516001600160a01b038381166024830152604482018390526104bd91859182169063a9059cbb906064015b604051602081830303815290604052915060e01b6020820180516001600160e01b038381831617835250505050610b7e565b600154600090815260066020526040902054421115610b3d5760035460025460405163d15e005360e01b81526001600160a01b039182166004820152600092919091169063d15e005390602401602060405180830381865afa1580156109d5573d6000803e3d6000fd5b505050506040513d601f19601f820116820180604052508101906109f99190610e24565b60015460009081526006602052604081206005015491925090610a1c9083610be1565b600354600254604051631a4ca37b60e21b81526001600160a01b039182166004820152602481018490523060448201529293506000929116906369328dec906064016020604051808303816000875af1158015610a7d573d6000803e3d6000fd5b505050506040513d601f19601f82011682018060405250810190610aa19190610e24565b6001805460009081526006602052604090200154909150610ac29082610dfe565b600180546000908152600660205260408082206002019390935581548152919091200154610aef90610c25565b600180546000908152600660205260408120600301929092558054909190610b1690610e3d565b90915550600054610b279042610e11565b6001546000908152600660205260409020555050505b565b6040516001600160a01b038481166024830152838116604483015260648201839052610b789186918216906323b872dd90608401610939565b50505050565b6000610b936001600160a01b03841683610c8c565b90508051600014158015610bb8575080806020019051810190610bb69190610e56565b155b156104bd57604051635274afe760e01b81526001600160a01b038416600482015260240161035f565b600081156b019d971e4fe8401e740000001983900484111517610c0357600080fd5b506b033b2e3c9fd0803ce800000091026b019d971e4fe8401e74000000010490565b60018054600081815260066020908152604080832090940154935191938493610c61934293019283526020830191909152604082015260600190565b60408051601f1981840301815291905280516020909101209050610c858382610e78565b9392505050565b6060610c858383600084600080856001600160a01b03168486604051610cb29190610e9a565b60006040518083038185875af1925050503d8060008114610cef576040519150601f19603f3d011682016040523d82523d6000602084013e610cf4565b606091505b5091509150610d04868383610d0e565b9695505050505050565b606082610d2357610d1e82610d6a565b610c85565b8151158015610d3a57506001600160a01b0384163b155b15610d6357604051639996b31560e01b81526001600160a01b038516600482015260240161035f565b5080610c85565b805115610d7a5780518082602001fd5b604051630a12f52160e11b815260040160405180910390fd5b60008060408385031215610da657600080fd5b8235915060208301356001600160a01b0381168114610dc457600080fd5b809150509250929050565b600060208284031215610de157600080fd5b5035919050565b634e487b7160e01b600052601160045260246000fd5b8181038181111561031a5761031a610de8565b8082018082111561031a5761031a610de8565b600060208284031215610e3657600080fd5b5051919050565b600060018201610e4f57610e4f610de8565b5060010190565b600060208284031215610e6857600080fd5b81518015158114610c8557600080fd5b600082610e9557634e487b7160e01b600052601260045260246000fd5b500690565b6000825160005b81811015610ebb5760208186018101518583015201610ea1565b50600092019182525091905056fea2646970667358221220b4bf62526be3f91c5cc2ed12cb774b5c24b3a0668e71e5373fa1aa449c0791f464736f6c63430008180033","linkReferences":{}},"methodIdentifiers":{"claim(uint256)":"379607f5","currentRoundId()":"9cbe5efd","enter(uint256)":"a59f3e0c","exit(uint256)":"7f8661a1","getRound(uint256)":"8f1327c0","getTicket(uint256,address)":"19a03cc2","roundDuration()":"f7cb789a","rounds(uint256)":"8c65c81f","tickets(uint256,address)":"b99d6e29","underlying()":"6f307dc3"},"id":13}